{
  "_format": "hh-sol-artifact-1",
  "contractName": "ServiceContract",
  "sourceName": "contracts/ServiceContract.sol",
  "abi": [
    {
      "inputs": [
        {
          "internalType": "address",
          "name": "_userContract",
          "type": "address"
        }
      ],
      "stateMutability": "nonpayable",
      "type": "constructor"
    },
    {
      "anonymous": false,
      "inputs": [
        {
          "indexed": true,
          "internalType": "address",
          "name": "previousOwner",
          "type": "address"
        },
        {
          "indexed": true,
          "internalType": "address",
          "name": "newOwner",
          "type": "address"
        }
      ],
      "name": "OwnershipTransferred",
      "type": "event"
    },
    {
      "inputs": [
        {
          "internalType": "uint256",
          "name": "_serviceId",
          "type": "uint256"
        }
      ],
      "name": "completeService",
      "outputs": [],
      "stateMutability": "nonpayable",
      "type": "function"
    },
    {
      "inputs": [
        {
          "internalType": "uint256",
          "name": "_serviceId",
          "type": "uint256"
        }
      ],
      "name": "confirmService",
      "outputs": [],
      "stateMutability": "nonpayable",
      "type": "function"
    },
    {
      "inputs": [
        {
          "internalType": "uint256",
          "name": "_cost",
          "type": "uint256"
        },
        {
          "internalType": "string",
          "name": "_serviceType",
          "type": "string"
        }
      ],
      "name": "createListing",
      "outputs": [],
      "stateMutability": "nonpayable",
      "type": "function"
    },
    {
      "inputs": [
        {
          "internalType": "address payable",
          "name": "_provider",
          "type": "address"
        },
        {
          "internalType": "uint256",
          "name": "_cost",
          "type": "uint256"
        },
        {
          "internalType": "uint256",
          "name": "_duration",
          "type": "uint256"
        }
      ],
      "name": "createService",
      "outputs": [],
      "stateMutability": "nonpayable",
      "type": "function"
    },
    {
      "inputs": [
        {
          "internalType": "uint256",
          "name": "_serviceId",
          "type": "uint256"
        }
      ],
      "name": "getServicesStatus",
      "outputs": [
        {
          "components": [
            {
              "internalType": "address payable",
              "name": "provider",
              "type": "address"
            },
            {
              "internalType": "address payable",
              "name": "client",
              "type": "address"
            },
            {
              "internalType": "uint256",
              "name": "cost",
              "type": "uint256"
            },
            {
              "internalType": "enum ServiceContract.ServiceStatus",
              "name": "status",
              "type": "uint8"
            },
            {
              "internalType": "uint256",
              "name": "deadline",
              "type": "uint256"
            },
            {
              "internalType": "uint256",
              "name": "providerRating",
              "type": "uint256"
            },
            {
              "internalType": "uint256",
              "name": "clientRating",
              "type": "uint256"
            }
          ],
          "internalType": "struct ServiceContract.Service",
          "name": "",
          "type": "tuple"
        }
      ],
      "stateMutability": "view",
      "type": "function"
    },
    {
      "inputs": [
        {
          "internalType": "uint256",
          "name": "",
          "type": "uint256"
        }
      ],
      "name": "listing",
      "outputs": [
        {
          "internalType": "address payable",
          "name": "provider",
          "type": "address"
        },
        {
          "internalType": "string",
          "name": "serviceType",
          "type": "string"
        },
        {
          "internalType": "uint256",
          "name": "cost",
          "type": "uint256"
        }
      ],
      "stateMutability": "view",
      "type": "function"
    },
    {
      "inputs": [],
      "name": "listingCount",
      "outputs": [
        {
          "internalType": "uint256",
          "name": "",
          "type": "uint256"
        }
      ],
      "stateMutability": "view",
      "type": "function"
    },
    {
      "inputs": [],
      "name": "owner",
      "outputs": [
        {
          "internalType": "address",
          "name": "",
          "type": "address"
        }
      ],
      "stateMutability": "view",
      "type": "function"
    },
    {
      "inputs": [],
      "name": "renounceOwnership",
      "outputs": [],
      "stateMutability": "nonpayable",
      "type": "function"
    },
    {
      "inputs": [],
      "name": "serviceCount",
      "outputs": [
        {
          "internalType": "uint256",
          "name": "",
          "type": "uint256"
        }
      ],
      "stateMutability": "view",
      "type": "function"
    },
    {
      "inputs": [
        {
          "internalType": "uint256",
          "name": "",
          "type": "uint256"
        }
      ],
      "name": "services",
      "outputs": [
        {
          "internalType": "address payable",
          "name": "provider",
          "type": "address"
        },
        {
          "internalType": "address payable",
          "name": "client",
          "type": "address"
        },
        {
          "internalType": "uint256",
          "name": "cost",
          "type": "uint256"
        },
        {
          "internalType": "enum ServiceContract.ServiceStatus",
          "name": "status",
          "type": "uint8"
        },
        {
          "internalType": "uint256",
          "name": "deadline",
          "type": "uint256"
        },
        {
          "internalType": "uint256",
          "name": "providerRating",
          "type": "uint256"
        },
        {
          "internalType": "uint256",
          "name": "clientRating",
          "type": "uint256"
        }
      ],
      "stateMutability": "view",
      "type": "function"
    },
    {
      "inputs": [
        {
          "internalType": "uint256",
          "name": "_serviceId",
          "type": "uint256"
        }
      ],
      "name": "startService",
      "outputs": [],
      "stateMutability": "nonpayable",
      "type": "function"
    },
    {
      "inputs": [
        {
          "internalType": "address",
          "name": "newOwner",
          "type": "address"
        }
      ],
      "name": "transferOwnership",
      "outputs": [],
      "stateMutability": "nonpayable",
      "type": "function"
    }
  ],
  "bytecode": "0x60806040523480156200001157600080fd5b5060405162001c0938038062001c098339818101604052810190620000379190620001d5565b620000576200004b6200009f60201b60201c565b620000a760201b60201c565b80600160006101000a81548173ffffffffffffffffffffffffffffffffffffffff021916908373ffffffffffffffffffffffffffffffffffffffff1602179055505062000207565b600033905090565b60008060009054906101000a900473ffffffffffffffffffffffffffffffffffffffff169050816000806101000a81548173ffffffffffffffffffffffffffffffffffffffff021916908373ffffffffffffffffffffffffffffffffffffffff1602179055508173ffffffffffffffffffffffffffffffffffffffff168173ffffffffffffffffffffffffffffffffffffffff167f8be0079c531659141344cd1fd0a4f28419497f9722a3daafe3b4186f6b6457e060405160405180910390a35050565b600080fd5b600073ffffffffffffffffffffffffffffffffffffffff82169050919050565b60006200019d8262000170565b9050919050565b620001af8162000190565b8114620001bb57600080fd5b50565b600081519050620001cf81620001a4565b92915050565b600060208284031215620001ee57620001ed6200016b565b5b6000620001fe84828501620001be565b91505092915050565b6119f280620002176000396000f3fe608060405234801561001057600080fd5b50600436106100cf5760003560e01c8063715018a61161008c578063a9b07c2611610066578063a9b07c26146101d8578063c22c4f43146101f6578063c9ed24011461022c578063f2fde38b1461025c576100cf565b8063715018a61461017e57806384a184de146101885780638da5cb5b146101ba576100cf565b806306237526146100d45780632721072d146100f257806328801c001461010e5780632f3ccebd1461012a5780633e4a1e6c14610146578063572f9b3914610162575b600080fd5b6100dc610278565b6040516100e99190610e65565b60405180910390f35b61010c60048036038101906101079190611006565b61027e565b005b610128600480360381019061012391906110c0565b61034a565b005b610144600480360381019061013f9190611113565b61052f565b005b610160600480360381019061015b9190611113565b610681565b005b61017c60048036038101906101779190611113565b6107d3565b005b610186610924565b005b6101a2600480360381019061019d9190611113565b610938565b6040516101b1939291906111ce565b60405180910390f35b6101c2610a0a565b6040516101cf919061122d565b60405180910390f35b6101e0610a33565b6040516101ed9190610e65565b60405180910390f35b610210600480360381019061020b9190611113565b610a39565b60405161022397969594939291906112bf565b60405180910390f35b61024660048036038101906102419190611113565b610ac8565b60405161025391906113e9565b60405180910390f35b61027660048036038101906102719190611430565b610c04565b005b60055481565b60405180606001604052803373ffffffffffffffffffffffffffffffffffffffff1681526020018281526020018381525060036000600454815260200190815260200160002060008201518160000160006101000a81548173ffffffffffffffffffffffffffffffffffffffff021916908373ffffffffffffffffffffffffffffffffffffffff16021790555060208201518160010190816103209190611669565b5060408201518160020155905050600460008154809291906103419061176a565b91905055505050565b610352610dd1565b83816000019073ffffffffffffffffffffffffffffffffffffffff16908173ffffffffffffffffffffffffffffffffffffffff168152505033816020019073ffffffffffffffffffffffffffffffffffffffff16908173ffffffffffffffffffffffffffffffffffffffff1681525050828160400181815250506000816060019060028111156103e5576103e4611248565b5b908160028111156103f9576103f8611248565b5b81525050814261040991906117b2565b8160800181815250508060026000600554815260200190815260200160002060008201518160000160006101000a81548173ffffffffffffffffffffffffffffffffffffffff021916908373ffffffffffffffffffffffffffffffffffffffff16021790555060208201518160010160006101000a81548173ffffffffffffffffffffffffffffffffffffffff021916908373ffffffffffffffffffffffffffffffffffffffff1602179055506040820151816002015560608201518160030160006101000a81548160ff021916908360028111156104eb576104ea611248565b5b02179055506080820151816004015560a0820151816005015560c08201518160060155905050600560008154809291906105249061176a565b919050555050505050565b60006002600083815260200190815260200160002090503373ffffffffffffffffffffffffffffffffffffffff168160000160009054906101000a900473ffffffffffffffffffffffffffffffffffffffff1673ffffffffffffffffffffffffffffffffffffffff16146105d8576040517f08c379a00000000000000000000000000000000000000000000000000000000081526004016105cf90611832565b60405180910390fd5b600160028111156105ec576105eb611248565b5b8160030160009054906101000a900460ff1660028111156106105761060f611248565b5b14610650576040517f08c379a00000000000000000000000000000000000000000000000000000000081526004016106479061189e565b60405180910390fd5b60028160030160006101000a81548160ff0219169083600281111561067857610677611248565b5b02179055505050565b60006002600083815260200190815260200160002090503373ffffffffffffffffffffffffffffffffffffffff168160010160009054906101000a900473ffffffffffffffffffffffffffffffffffffffff1673ffffffffffffffffffffffffffffffffffffffff161461072a576040517f08c379a000000000000000000000000000000000000000000000000000000000815260040161072190611832565b60405180910390fd5b6000600281111561073e5761073d611248565b5b8160030160009054906101000a900460ff16600281111561076257610761611248565b5b146107a2576040517f08c379a00000000000000000000000000000000000000000000000000000000081526004016107999061189e565b60405180910390fd5b60018160030160006101000a81548160ff021916908360028111156107ca576107c9611248565b5b02179055505050565b60006002600083815260200190815260200160002090503373ffffffffffffffffffffffffffffffffffffffff168160010160009054906101000a900473ffffffffffffffffffffffffffffffffffffffff1673ffffffffffffffffffffffffffffffffffffffff161461087c576040517f08c379a000000000000000000000000000000000000000000000000000000000815260040161087390611832565b60405180910390fd5b60028081111561088f5761088e611248565b5b8160030160009054906101000a900460ff1660028111156108b3576108b2611248565b5b146108f3576040517f08c379a00000000000000000000000000000000000000000000000000000000081526004016108ea9061189e565b60405180910390fd5b60008160030160006101000a81548160ff0219169083600281111561091b5761091a611248565b5b02179055505050565b61092c610c87565b6109366000610d05565b565b60036020528060005260406000206000915090508060000160009054906101000a900473ffffffffffffffffffffffffffffffffffffffff16908060010180546109819061148c565b80601f01602080910402602001604051908101604052809291908181526020018280546109ad9061148c565b80156109fa5780601f106109cf576101008083540402835291602001916109fa565b820191906000526020600020905b8154815290600101906020018083116109dd57829003601f168201915b5050505050908060020154905083565b60008060009054906101000a900473ffffffffffffffffffffffffffffffffffffffff16905090565b60045481565b60026020528060005260406000206000915090508060000160009054906101000a900473ffffffffffffffffffffffffffffffffffffffff16908060010160009054906101000a900473ffffffffffffffffffffffffffffffffffffffff16908060020154908060030160009054906101000a900460ff16908060040154908060050154908060060154905087565b610ad0610dd1565b600260008381526020019081526020016000206040518060e00160405290816000820160009054906101000a900473ffffffffffffffffffffffffffffffffffffffff1673ffffffffffffffffffffffffffffffffffffffff1673ffffffffffffffffffffffffffffffffffffffff1681526020016001820160009054906101000a900473ffffffffffffffffffffffffffffffffffffffff1673ffffffffffffffffffffffffffffffffffffffff1673ffffffffffffffffffffffffffffffffffffffff168152602001600282015481526020016003820160009054906101000a900460ff166002811115610bc957610bc8611248565b5b6002811115610bdb57610bda611248565b5b815260200160048201548152602001600582015481526020016006820154815250509050919050565b610c0c610c87565b600073ffffffffffffffffffffffffffffffffffffffff168173ffffffffffffffffffffffffffffffffffffffff1603610c7b576040517f08c379a0000000000000000000000000000000000000000000000000000000008152600401610c7290611930565b60405180910390fd5b610c8481610d05565b50565b610c8f610dc9565b73ffffffffffffffffffffffffffffffffffffffff16610cad610a0a565b73ffffffffffffffffffffffffffffffffffffffff1614610d03576040517f08c379a0000000000000000000000000000000000000000000000000000000008152600401610cfa9061199c565b60405180910390fd5b565b60008060009054906101000a900473ffffffffffffffffffffffffffffffffffffffff169050816000806101000a81548173ffffffffffffffffffffffffffffffffffffffff021916908373ffffffffffffffffffffffffffffffffffffffff1602179055508173ffffffffffffffffffffffffffffffffffffffff168173ffffffffffffffffffffffffffffffffffffffff167f8be0079c531659141344cd1fd0a4f28419497f9722a3daafe3b4186f6b6457e060405160405180910390a35050565b600033905090565b6040518060e00160405280600073ffffffffffffffffffffffffffffffffffffffff168152602001600073ffffffffffffffffffffffffffffffffffffffff1681526020016000815260200160006002811115610e3157610e30611248565b5b81526020016000815260200160008152602001600081525090565b6000819050919050565b610e5f81610e4c565b82525050565b6000602082019050610e7a6000830184610e56565b92915050565b6000604051905090565b600080fd5b600080fd5b610e9d81610e4c565b8114610ea857600080fd5b50565b600081359050610eba81610e94565b92915050565b600080fd5b600080fd5b6000601f19601f8301169050919050565b7f4e487b7100000000000000000000000000000000000000000000000000000000600052604160045260246000fd5b610f1382610eca565b810181811067ffffffffffffffff82111715610f3257610f31610edb565b5b80604052505050565b6000610f45610e80565b9050610f518282610f0a565b919050565b600067ffffffffffffffff821115610f7157610f70610edb565b5b610f7a82610eca565b9050602081019050919050565b82818337600083830152505050565b6000610fa9610fa484610f56565b610f3b565b905082815260208101848484011115610fc557610fc4610ec5565b5b610fd0848285610f87565b509392505050565b600082601f830112610fed57610fec610ec0565b5b8135610ffd848260208601610f96565b91505092915050565b6000806040838503121561101d5761101c610e8a565b5b600061102b85828601610eab565b925050602083013567ffffffffffffffff81111561104c5761104b610e8f565b5b61105885828601610fd8565b9150509250929050565b600073ffffffffffffffffffffffffffffffffffffffff82169050919050565b600061108d82611062565b9050919050565b61109d81611082565b81146110a857600080fd5b50565b6000813590506110ba81611094565b92915050565b6000806000606084860312156110d9576110d8610e8a565b5b60006110e7868287016110ab565b93505060206110f886828701610eab565b925050604061110986828701610eab565b9150509250925092565b60006020828403121561112957611128610e8a565b5b600061113784828501610eab565b91505092915050565b61114981611082565b82525050565b600081519050919050565b600082825260208201905092915050565b60005b8381101561118957808201518184015260208101905061116e565b60008484015250505050565b60006111a08261114f565b6111aa818561115a565b93506111ba81856020860161116b565b6111c381610eca565b840191505092915050565b60006060820190506111e36000830186611140565b81810360208301526111f58185611195565b90506112046040830184610e56565b949350505050565b600061121782611062565b9050919050565b6112278161120c565b82525050565b6000602082019050611242600083018461121e565b92915050565b7f4e487b7100000000000000000000000000000000000000000000000000000000600052602160045260246000fd5b6003811061128857611287611248565b5b50565b600081905061129982611277565b919050565b60006112a98261128b565b9050919050565b6112b98161129e565b82525050565b600060e0820190506112d4600083018a611140565b6112e16020830189611140565b6112ee6040830188610e56565b6112fb60608301876112b0565b6113086080830186610e56565b61131560a0830185610e56565b61132260c0830184610e56565b98975050505050505050565b61133781611082565b82525050565b61134681610e4c565b82525050565b6113558161129e565b82525050565b60e082016000820151611371600085018261132e565b506020820151611384602085018261132e565b506040820151611397604085018261133d565b5060608201516113aa606085018261134c565b5060808201516113bd608085018261133d565b5060a08201516113d060a085018261133d565b5060c08201516113e360c085018261133d565b50505050565b600060e0820190506113fe600083018461135b565b92915050565b61140d8161120c565b811461141857600080fd5b50565b60008135905061142a81611404565b92915050565b60006020828403121561144657611445610e8a565b5b60006114548482850161141b565b91505092915050565b7f4e487b7100000000000000000000000000000000000000000000000000000000600052602260045260246000fd5b600060028204905060018216806114a457607f821691505b6020821081036114b7576114b661145d565b5b50919050565b60008190508160005260206000209050919050565b60006020601f8301049050919050565b600082821b905092915050565b60006008830261151f7fffffffffffffffffffffffffffffffffffffffffffffffffffffffffffffffff826114e2565b61152986836114e2565b95508019841693508086168417925050509392505050565b6000819050919050565b600061156661156161155c84610e4c565b611541565b610e4c565b9050919050565b6000819050919050565b6115808361154b565b61159461158c8261156d565b8484546114ef565b825550505050565b600090565b6115a961159c565b6115b4818484611577565b505050565b5b818110156115d8576115cd6000826115a1565b6001810190506115ba565b5050565b601f82111561161d576115ee816114bd565b6115f7846114d2565b81016020851015611606578190505b61161a611612856114d2565b8301826115b9565b50505b505050565b600082821c905092915050565b600061164060001984600802611622565b1980831691505092915050565b6000611659838361162f565b9150826002028217905092915050565b6116728261114f565b67ffffffffffffffff81111561168b5761168a610edb565b5b611695825461148c565b6116a08282856115dc565b600060209050601f8311600181146116d357600084156116c1578287015190505b6116cb858261164d565b865550611733565b601f1984166116e1866114bd565b60005b82811015611709578489015182556001820191506020850194506020810190506116e4565b868310156117265784890151611722601f89168261162f565b8355505b6001600288020188555050505b505050505050565b7f4e487b7100000000000000000000000000000000000000000000000000000000600052601160045260246000fd5b600061177582610e4c565b91507fffffffffffffffffffffffffffffffffffffffffffffffffffffffffffffffff82036117a7576117a661173b565b5b600182019050919050565b60006117bd82610e4c565b91506117c883610e4c565b92508282019050808211156117e0576117df61173b565b5b92915050565b7f4e6f7420617574686f72697a6564000000000000000000000000000000000000600082015250565b600061181c600e8361115a565b9150611827826117e6565b602082019050919050565b6000602082019050818103600083015261184b8161180f565b9050919050565b7f496e76616c696420737461747573000000000000000000000000000000000000600082015250565b6000611888600e8361115a565b915061189382611852565b602082019050919050565b600060208201905081810360008301526118b78161187b565b9050919050565b7f4f776e61626c653a206e6577206f776e657220697320746865207a65726f206160008201527f6464726573730000000000000000000000000000000000000000000000000000602082015250565b600061191a60268361115a565b9150611925826118be565b604082019050919050565b600060208201905081810360008301526119498161190d565b9050919050565b7f4f776e61626c653a2063616c6c6572206973206e6f7420746865206f776e6572600082015250565b600061198660208361115a565b915061199182611950565b602082019050919050565b600060208201905081810360008301526119b581611979565b905091905056fea26469706673582212207b3f9324e7cf041d20699213850b0d85613d738efeea968b7a4a4df005f0295c64736f6c63430008130033",
  "linkReferences": {},
  "deployedLinkReferences": {}
}