{
  "_format": "hh-sol-artifact-1",
  "contractName": "ServiceContract",
  "sourceName": "contracts/ServiceContract.sol",
  "abi": [
    {
      "inputs": [],
      "stateMutability": "nonpayable",
      "type": "constructor"
    },
    {
      "anonymous": false,
      "inputs": [
        {
          "indexed": true,
          "internalType": "address",
          "name": "previousOwner",
          "type": "address"
        },
        {
          "indexed": true,
          "internalType": "address",
          "name": "newOwner",
          "type": "address"
        }
      ],
      "name": "OwnershipTransferred",
      "type": "event"
    },
    {
      "inputs": [
        {
          "internalType": "address",
          "name": "",
          "type": "address"
        }
      ],
      "name": "claim",
      "outputs": [
        {
          "internalType": "uint256",
          "name": "",
          "type": "uint256"
        }
      ],
      "stateMutability": "view",
      "type": "function"
    },
    {
      "inputs": [
        {
          "internalType": "uint256",
          "name": "_serviceId",
          "type": "uint256"
        },
        {
          "internalType": "uint256",
          "name": "_rating",
          "type": "uint256"
        }
      ],
      "name": "confirmService",
      "outputs": [],
      "stateMutability": "nonpayable",
      "type": "function"
    },
    {
      "inputs": [
        {
          "internalType": "uint256",
          "name": "standard",
          "type": "uint256"
        },
        {
          "internalType": "string",
          "name": "subject",
          "type": "string"
        },
        {
          "internalType": "string",
          "name": "day",
          "type": "string"
        },
        {
          "internalType": "string",
          "name": "time",
          "type": "string"
        },
        {
          "internalType": "uint256",
          "name": "cost",
          "type": "uint256"
        },
        {
          "internalType": "uint256",
          "name": "duration",
          "type": "uint256"
        }
      ],
      "name": "createService",
      "outputs": [],
      "stateMutability": "nonpayable",
      "type": "function"
    },
    {
      "inputs": [
        {
          "internalType": "address",
          "name": "_userAddress",
          "type": "address"
        },
        {
          "internalType": "bool",
          "name": "_type",
          "type": "bool"
        }
      ],
      "name": "getAverageRating",
      "outputs": [
        {
          "internalType": "uint256",
          "name": "",
          "type": "uint256"
        },
        {
          "internalType": "uint256",
          "name": "",
          "type": "uint256"
        }
      ],
      "stateMutability": "view",
      "type": "function"
    },
    {
      "inputs": [
        {
          "internalType": "uint256",
          "name": "_listingId",
          "type": "uint256"
        }
      ],
      "name": "getListing",
      "outputs": [
        {
          "internalType": "address",
          "name": "",
          "type": "address"
        },
        {
          "internalType": "uint256",
          "name": "",
          "type": "uint256"
        },
        {
          "internalType": "string",
          "name": "",
          "type": "string"
        },
        {
          "internalType": "string",
          "name": "",
          "type": "string"
        },
        {
          "internalType": "string",
          "name": "",
          "type": "string"
        },
        {
          "internalType": "string",
          "name": "",
          "type": "string"
        },
        {
          "internalType": "uint256",
          "name": "",
          "type": "uint256"
        },
        {
          "internalType": "uint256",
          "name": "",
          "type": "uint256"
        }
      ],
      "stateMutability": "view",
      "type": "function"
    },
    {
      "inputs": [
        {
          "internalType": "uint256",
          "name": "_serviceId",
          "type": "uint256"
        }
      ],
      "name": "getService",
      "outputs": [
        {
          "internalType": "uint256",
          "name": "",
          "type": "uint256"
        },
        {
          "internalType": "address",
          "name": "",
          "type": "address"
        },
        {
          "internalType": "address",
          "name": "",
          "type": "address"
        },
        {
          "internalType": "uint256",
          "name": "",
          "type": "uint256"
        },
        {
          "internalType": "string",
          "name": "",
          "type": "string"
        },
        {
          "internalType": "string",
          "name": "",
          "type": "string"
        },
        {
          "internalType": "string",
          "name": "",
          "type": "string"
        },
        {
          "internalType": "string",
          "name": "",
          "type": "string"
        },
        {
          "internalType": "uint256",
          "name": "",
          "type": "uint256"
        },
        {
          "internalType": "uint256",
          "name": "",
          "type": "uint256"
        },
        {
          "internalType": "enum ServiceContract.ServiceStatus",
          "name": "",
          "type": "uint8"
        },
        {
          "internalType": "uint256",
          "name": "",
          "type": "uint256"
        }
      ],
      "stateMutability": "view",
      "type": "function"
    },
    {
      "inputs": [
        {
          "internalType": "address",
          "name": "_userAddress",
          "type": "address"
        }
      ],
      "name": "getUser",
      "outputs": [
        {
          "internalType": "address",
          "name": "",
          "type": "address"
        },
        {
          "internalType": "string",
          "name": "",
          "type": "string"
        },
        {
          "internalType": "uint256",
          "name": "",
          "type": "uint256"
        },
        {
          "internalType": "uint256",
          "name": "",
          "type": "uint256"
        },
        {
          "internalType": "uint256",
          "name": "",
          "type": "uint256"
        },
        {
          "internalType": "uint256",
          "name": "",
          "type": "uint256"
        },
        {
          "internalType": "bool",
          "name": "",
          "type": "bool"
        }
      ],
      "stateMutability": "view",
      "type": "function"
    },
    {
      "inputs": [],
      "name": "listingCount",
      "outputs": [
        {
          "internalType": "uint256",
          "name": "",
          "type": "uint256"
        }
      ],
      "stateMutability": "view",
      "type": "function"
    },
    {
      "inputs": [
        {
          "internalType": "uint256",
          "name": "",
          "type": "uint256"
        }
      ],
      "name": "listings",
      "outputs": [
        {
          "internalType": "address",
          "name": "provider",
          "type": "address"
        },
        {
          "internalType": "uint256",
          "name": "standard",
          "type": "uint256"
        },
        {
          "internalType": "string",
          "name": "subject",
          "type": "string"
        },
        {
          "internalType": "string",
          "name": "teacher",
          "type": "string"
        },
        {
          "internalType": "string",
          "name": "day",
          "type": "string"
        },
        {
          "internalType": "string",
          "name": "time",
          "type": "string"
        },
        {
          "internalType": "uint256",
          "name": "cost",
          "type": "uint256"
        },
        {
          "internalType": "uint256",
          "name": "duration",
          "type": "uint256"
        }
      ],
      "stateMutability": "view",
      "type": "function"
    },
    {
      "inputs": [],
      "name": "owner",
      "outputs": [
        {
          "internalType": "address",
          "name": "",
          "type": "address"
        }
      ],
      "stateMutability": "view",
      "type": "function"
    },
    {
      "inputs": [
        {
          "internalType": "string",
          "name": "_username",
          "type": "string"
        }
      ],
      "name": "registerUser",
      "outputs": [],
      "stateMutability": "nonpayable",
      "type": "function"
    },
    {
      "inputs": [],
      "name": "renounceOwnership",
      "outputs": [],
      "stateMutability": "nonpayable",
      "type": "function"
    },
    {
      "inputs": [],
      "name": "serviceCount",
      "outputs": [
        {
          "internalType": "uint256",
          "name": "",
          "type": "uint256"
        }
      ],
      "stateMutability": "view",
      "type": "function"
    },
    {
      "inputs": [
        {
          "internalType": "uint256",
          "name": "",
          "type": "uint256"
        }
      ],
      "name": "services",
      "outputs": [
        {
          "internalType": "uint256",
          "name": "listingId",
          "type": "uint256"
        },
        {
          "internalType": "address",
          "name": "client",
          "type": "address"
        },
        {
          "components": [
            {
              "internalType": "address",
              "name": "provider",
              "type": "address"
            },
            {
              "internalType": "uint256",
              "name": "standard",
              "type": "uint256"
            },
            {
              "internalType": "string",
              "name": "subject",
              "type": "string"
            },
            {
              "internalType": "string",
              "name": "teacher",
              "type": "string"
            },
            {
              "internalType": "string",
              "name": "day",
              "type": "string"
            },
            {
              "internalType": "string",
              "name": "time",
              "type": "string"
            },
            {
              "internalType": "uint256",
              "name": "cost",
              "type": "uint256"
            },
            {
              "internalType": "uint256",
              "name": "duration",
              "type": "uint256"
            }
          ],
          "internalType": "struct ServiceContract.Listing",
          "name": "listing",
          "type": "tuple"
        },
        {
          "internalType": "enum ServiceContract.ServiceStatus",
          "name": "status",
          "type": "uint8"
        },
        {
          "internalType": "uint256",
          "name": "startTime",
          "type": "uint256"
        }
      ],
      "stateMutability": "view",
      "type": "function"
    },
    {
      "inputs": [
        {
          "internalType": "uint256",
          "name": "_listingId",
          "type": "uint256"
        }
      ],
      "name": "startService",
      "outputs": [],
      "stateMutability": "payable",
      "type": "function"
    },
    {
      "inputs": [
        {
          "internalType": "address",
          "name": "newOwner",
          "type": "address"
        }
      ],
      "name": "transferOwnership",
      "outputs": [],
      "stateMutability": "nonpayable",
      "type": "function"
    },
    {
      "inputs": [],
      "name": "userContract",
      "outputs": [
        {
          "internalType": "contract UserContract",
          "name": "",
          "type": "address"
        }
      ],
      "stateMutability": "view",
      "type": "function"
    }
  ],
  "bytecode": "0x60806040523480156200001157600080fd5b506200003262000026620043f260201b60201c565b620043fa60201b60201c565b6040516200004090620044be565b604051809103906000f0801580156200005d573d6000803e3d6000fd5b50600160006101000a81548173ffffffffffffffffffffffffffffffffffffffff021916908373ffffffffffffffffffffffffffffffffffffffff160217905550600160009054906101000a900473ffffffffffffffffffffffffffffffffffffffff1673ffffffffffffffffffffffffffffffffffffffff16634b68d431738626f6940e2eb28930efb4cef49b2d1f2c9c11996040518263ffffffff1660e01b81526004016200010f919062004572565b600060405180830381600087803b1580156200012a57600080fd5b505af11580156200013f573d6000803e3d6000fd5b50505050600160009054906101000a900473ffffffffffffffffffffffffffffffffffffffff1673ffffffffffffffffffffffffffffffffffffffff16634b68d43173dd2fd4581271e230360230f9337d5c0430bf44c06040518263ffffffff1660e01b8152600401620001b49190620045f4565b600060405180830381600087803b158015620001cf57600080fd5b505af1158015620001e4573d6000803e3d6000fd5b50505050600160009054906101000a900473ffffffffffffffffffffffffffffffffffffffff1673ffffffffffffffffffffffffffffffffffffffff16634b68d43173bda5747bfd65f08deb54cb465eb87d40e51b197e6040518263ffffffff1660e01b815260040162000259919062004676565b600060405180830381600087803b1580156200027457600080fd5b505af115801562000289573d6000803e3d6000fd5b50505050600160009054906101000a900473ffffffffffffffffffffffffffffffffffffffff1673ffffffffffffffffffffffffffffffffffffffff16634b68d431732546bcd3c84621e976d8185a91a922ae77ecec306040518263ffffffff1660e01b8152600401620002fe9190620046f8565b600060405180830381600087803b1580156200031957600080fd5b505af11580156200032e573d6000803e3d6000fd5b50505050600160009054906101000a900473ffffffffffffffffffffffffffffffffffffffff1673ffffffffffffffffffffffffffffffffffffffff16634b68d43173cd3b766ccdd6ae721141f452c550ca635964ce716040518263ffffffff1660e01b8152600401620003a391906200477a565b600060405180830381600087803b158015620003be57600080fd5b505af1158015620003d3573d6000803e3d6000fd5b50505050600160009054906101000a900473ffffffffffffffffffffffffffffffffffffffff1673ffffffffffffffffffffffffffffffffffffffff16634b68d43173df3e18d64bc6a983f673ab319ccae4f1a57c70976040518263ffffffff1660e01b8152600401620004489190620047fc565b600060405180830381600087803b1580156200046357600080fd5b505af115801562000478573d6000803e3d6000fd5b50505050600160009054906101000a900473ffffffffffffffffffffffffffffffffffffffff1673ffffffffffffffffffffffffffffffffffffffff16634b68d431731cbd3b2770909d4e10f157cabc84c7264073c9ec6040518263ffffffff1660e01b8152600401620004ed91906200487e565b600060405180830381600087803b1580156200050857600080fd5b505af11580156200051d573d6000803e3d6000fd5b50505050600160009054906101000a900473ffffffffffffffffffffffffffffffffffffffff1673ffffffffffffffffffffffffffffffffffffffff16634b68d43173fabb0ac9d68b0b445fb7357272ff202c5651694a6040518263ffffffff1660e01b815260040162000592919062004900565b600060405180830381600087803b158015620005ad57600080fd5b505af1158015620005c2573d6000803e3d6000fd5b50505050600160009054906101000a900473ffffffffffffffffffffffffffffffffffffffff1673ffffffffffffffffffffffffffffffffffffffff16634b68d4317371be63f3384f5fb98995898a86b02fb2426c57886040518263ffffffff1660e01b815260040162000637919062004982565b600060405180830381600087803b1580156200065257600080fd5b505af115801562000667573d6000803e3d6000fd5b50505050600160009054906101000a900473ffffffffffffffffffffffffffffffffffffffff1673ffffffffffffffffffffffffffffffffffffffff16634b68d43173bcd4042de499d14e55001ccbb24a551f3b9540966040518263ffffffff1660e01b8152600401620006dc919062004a04565b600060405180830381600087803b158015620006f757600080fd5b505af11580156200070c573d6000803e3d6000fd5b50505050600160009054906101000a900473ffffffffffffffffffffffffffffffffffffffff1673ffffffffffffffffffffffffffffffffffffffff16634b68d43173a0ee7a142d267c1f36714e4a8f75612f20a797206040518263ffffffff1660e01b815260040162000781919062004a86565b600060405180830381600087803b1580156200079c57600080fd5b505af1158015620007b1573d6000803e3d6000fd5b50505050600160009054906101000a900473ffffffffffffffffffffffffffffffffffffffff1673ffffffffffffffffffffffffffffffffffffffff16634b68d4317323618e81e3f5cdf7f54c3d65f7fbc0abf5b21e8f6040518263ffffffff1660e01b815260040162000826919062004b08565b600060405180830381600087803b1580156200084157600080fd5b505af115801562000856573d6000803e3d6000fd5b50505050600160009054906101000a900473ffffffffffffffffffffffffffffffffffffffff1673ffffffffffffffffffffffffffffffffffffffff16634b68d4317314dc79964da2c08b23698b3d3cc7ca32193d99556040518263ffffffff1660e01b8152600401620008cb919062004b8a565b600060405180830381600087803b158015620008e657600080fd5b505af1158015620008fb573d6000803e3d6000fd5b50505050600160009054906101000a900473ffffffffffffffffffffffffffffffffffffffff1673ffffffffffffffffffffffffffffffffffffffff16634b68d43173976ea74026e726554db657fa54763abd0c3a0aa96040518263ffffffff1660e01b815260040162000970919062004c0c565b600060405180830381600087803b1580156200098b57600080fd5b505af1158015620009a0573d6000803e3d6000fd5b50505050600160009054906101000a900473ffffffffffffffffffffffffffffffffffffffff1673ffffffffffffffffffffffffffffffffffffffff16634b68d431739965507d1a55bcc2695c58ba16fb37d819b0a4dc6040518263ffffffff1660e01b815260040162000a15919062004c8e565b600060405180830381600087803b15801562000a3057600080fd5b505af115801562000a45573d6000803e3d6000fd5b50505050600160009054906101000a900473ffffffffffffffffffffffffffffffffffffffff1673ffffffffffffffffffffffffffffffffffffffff16634b68d4317315d34aaf54267db7d7c367839aaf71a00a2c6a656040518263ffffffff1660e01b815260040162000aba919062004d10565b600060405180830381600087803b15801562000ad557600080fd5b505af115801562000aea573d6000803e3d6000fd5b50505050600160009054906101000a900473ffffffffffffffffffffffffffffffffffffffff1673ffffffffffffffffffffffffffffffffffffffff16634b68d4317390f79bf6eb2c4f870365e785982e1f101e93b9066040518263ffffffff1660e01b815260040162000b5f919062004d92565b600060405180830381600087803b15801562000b7a57600080fd5b505af115801562000b8f573d6000803e3d6000fd5b50505050600160009054906101000a900473ffffffffffffffffffffffffffffffffffffffff1673ffffffffffffffffffffffffffffffffffffffff16634b68d43173f39fd6e51aad88f6f4ce6ab8827279cfffb922666040518263ffffffff1660e01b815260040162000c04919062004e14565b600060405180830381600087803b15801562000c1f57600080fd5b505af115801562000c34573d6000803e3d6000fd5b50505050600160009054906101000a900473ffffffffffffffffffffffffffffffffffffffff1673ffffffffffffffffffffffffffffffffffffffff1663f442266160126040518263ffffffff1660e01b815260040162000c96919062004e9d565b600060405180830381600087803b15801562000cb157600080fd5b505af115801562000cc6573d6000803e3d6000fd5b50505050604051806101000160405280738626f6940e2eb28930efb4cef49b2d1f2c9c119973ffffffffffffffffffffffffffffffffffffffff168152602001600281526020016040518060400160405280600281526020017f626300000000000000000000000000000000000000000000000000000000000081525081526020016040518060400160405280600981526020017f6d732063686f6c6565000000000000000000000000000000000000000000000081525081526020016040518060400160405280600381526020017f747565000000000000000000000000000000000000000000000000000000000081525081526020016040518060400160405280600d81526020017f383a3330706d2d393a3330706d000000000000000000000000000000000000008152508152602001656e1c92bd0200815260200162278d008152506002600080815260200190815260200160002060008201518160000160006101000a81548173ffffffffffffffffffffffffffffffffffffffff021916908373ffffffffffffffffffffffffffffffffffffffff16021790555060208201518160010155604082015181600201908162000e87919062005120565b50606082015181600301908162000e9f919062005120565b50608082015181600401908162000eb7919062005120565b5060a082015181600501908162000ecf919062005120565b5060c0820151816006015560e08201518160070155905050604051806101000160405280738626f6940e2eb28930efb4cef49b2d1f2c9c119973ffffffffffffffffffffffffffffffffffffffff168152602001600281526020016040518060400160405280600481526020017f6d6174680000000000000000000000000000000000000000000000000000000081525081526020016040518060400160405280600981526020017f6d732063686f6c6565000000000000000000000000000000000000000000000081525081526020016040518060400160405280600381526020017f747565000000000000000000000000000000000000000000000000000000000081525081526020016040518060400160405280600d81526020017f373a3330706d2d383a3330706d000000000000000000000000000000000000008152508152602001656e1c92bd0200815260200162278d00815250600260006001815260200190815260200160002060008201518160000160006101000a81548173ffffffffffffffffffffffffffffffffffffffff021916908373ffffffffffffffffffffffffffffffffffffffff160217905550602082015181600101556040820151816002019081620010a5919062005120565b506060820151816003019081620010bd919062005120565b506080820151816004019081620010d5919062005120565b5060a0820151816005019081620010ed919062005120565b5060c0820151816006015560e0820151816007015590505060405180610100016040528073dd2fd4581271e230360230f9337d5c0430bf44c073ffffffffffffffffffffffffffffffffffffffff168152602001600281526020016040518060400160405280600281526020017f626d00000000000000000000000000000000000000000000000000000000000081525081526020016040518060400160405280600681526020017f6d72206c6565000000000000000000000000000000000000000000000000000081525081526020016040518060400160405280600381526020017f776564000000000000000000000000000000000000000000000000000000000081525081526020016040518060400160405280600d81526020017f373a3330706d2d383a3330706d000000000000000000000000000000000000008152508152602001656e1c92bd0200815260200162278d00815250600260006002815260200190815260200160002060008201518160000160006101000a81548173ffffffffffffffffffffffffffffffffffffffff021916908373ffffffffffffffffffffffffffffffffffffffff160217905550602082015181600101556040820151816002019081620012c3919062005120565b506060820151816003019081620012db919062005120565b506080820151816004019081620012f3919062005120565b5060a08201518160050190816200130b919062005120565b5060c0820151816006015560e0820151816007015590505060405180610100016040528073dd2fd4581271e230360230f9337d5c0430bf44c073ffffffffffffffffffffffffffffffffffffffff168152602001600281526020016040518060400160405280600281526020017f626900000000000000000000000000000000000000000000000000000000000081525081526020016040518060400160405280600681526020017f6d72206c6565000000000000000000000000000000000000000000000000000081525081526020016040518060400160405280600381526020017f776564000000000000000000000000000000000000000000000000000000000081525081526020016040518060400160405280600d81526020017f383a3330706d2d393a3330706d000000000000000000000000000000000000008152508152602001656e1c92bd0200815260200162278d00815250600260006003815260200190815260200160002060008201518160000160006101000a81548173ffffffffffffffffffffffffffffffffffffffff021916908373ffffffffffffffffffffffffffffffffffffffff160217905550602082015181600101556040820151816002019081620014e1919062005120565b506060820151816003019081620014f9919062005120565b50608082015181600401908162001511919062005120565b5060a082015181600501908162001529919062005120565b5060c0820151816006015560e0820151816007015590505060405180610100016040528073bda5747bfd65f08deb54cb465eb87d40e51b197e73ffffffffffffffffffffffffffffffffffffffff168152602001600281526020016040518060400160405280600781526020017f736369656e63650000000000000000000000000000000000000000000000000081525081526020016040518060400160405280600781526020017f6d7320727574680000000000000000000000000000000000000000000000000081525081526020016040518060400160405280600381526020017f667269000000000000000000000000000000000000000000000000000000000081525081526020016040518060400160405280600d81526020017f373a3330706d2d383a3330706d000000000000000000000000000000000000008152508152602001656e1c92bd0200815260200162278d00815250600260006004815260200190815260200160002060008201518160000160006101000a81548173ffffffffffffffffffffffffffffffffffffffff021916908373ffffffffffffffffffffffffffffffffffffffff160217905550602082015181600101556040820151816002019081620016ff919062005120565b50606082015181600301908162001717919062005120565b5060808201518160040190816200172f919062005120565b5060a082015181600501908162001747919062005120565b5060c0820151816006015560e08201518160070155905050604051806101000160405280738626f6940e2eb28930efb4cef49b2d1f2c9c119973ffffffffffffffffffffffffffffffffffffffff168152602001600381526020016040518060400160405280600281526020017f626d00000000000000000000000000000000000000000000000000000000000081525081526020016040518060400160405280600981526020017f6d732063686f6c6565000000000000000000000000000000000000000000000081525081526020016040518060400160405280600481526020017f746875720000000000000000000000000000000000000000000000000000000081525081526020016040518060400160405280600d81526020017f373a3330706d2d383a3330706d000000000000000000000000000000000000008152508152602001656e1c92bd0200815260200162278d00815250600260006005815260200190815260200160002060008201518160000160006101000a81548173ffffffffffffffffffffffffffffffffffffffff021916908373ffffffffffffffffffffffffffffffffffffffff1602179055506020820151816001015560408201518160020190816200191d919062005120565b50606082015181600301908162001935919062005120565b5060808201518160040190816200194d919062005120565b5060a082015181600501908162001965919062005120565b5060c0820151816006015560e08201518160070155905050604051806101000160405280738626f6940e2eb28930efb4cef49b2d1f2c9c119973ffffffffffffffffffffffffffffffffffffffff168152602001600381526020016040518060400160405280600281526020017f626300000000000000000000000000000000000000000000000000000000000081525081526020016040518060400160405280600981526020017f6d732063686f6c6565000000000000000000000000000000000000000000000081525081526020016040518060400160405280600481526020017f746875720000000000000000000000000000000000000000000000000000000081525081526020016040518060400160405280600d81526020017f383a3330706d2d393a3330706d000000000000000000000000000000000000008152508152602001656e1c92bd0200815260200162278d00815250600260006006815260200190815260200160002060008201518160000160006101000a81548173ffffffffffffffffffffffffffffffffffffffff021916908373ffffffffffffffffffffffffffffffffffffffff16021790555060208201518160010155604082015181600201908162001b3b919062005120565b50606082015181600301908162001b53919062005120565b50608082015181600401908162001b6b919062005120565b5060a082015181600501908162001b83919062005120565b5060c0820151816006015560e08201518160070155905050604051806101000160405280732546bcd3c84621e976d8185a91a922ae77ecec3073ffffffffffffffffffffffffffffffffffffffff168152602001600381526020016040518060400160405280600281526020017f626900000000000000000000000000000000000000000000000000000000000081525081526020016040518060400160405280600781526020017f6d72206e69636b0000000000000000000000000000000000000000000000000081525081526020016040518060400160405280600381526020017f747565000000000000000000000000000000000000000000000000000000000081525081526020016040518060400160405280600d81526020017f383a3330706d2d393a3330706d000000000000000000000000000000000000008152508152602001656e1c92bd0200815260200162278d00815250600260006007815260200190815260200160002060008201518160000160006101000a81548173ffffffffffffffffffffffffffffffffffffffff021916908373ffffffffffffffffffffffffffffffffffffffff16021790555060208201518160010155604082015181600201908162001d59919062005120565b50606082015181600301908162001d71919062005120565b50608082015181600401908162001d89919062005120565b5060a082015181600501908162001da1919062005120565b5060c0820151816006015560e08201518160070155905050604051806101000160405280738626f6940e2eb28930efb4cef49b2d1f2c9c119973ffffffffffffffffffffffffffffffffffffffff168152602001600381526020016040518060400160405280600481526020017f6d6174680000000000000000000000000000000000000000000000000000000081525081526020016040518060400160405280600981526020017f6d732063686f6c6565000000000000000000000000000000000000000000000081525081526020016040518060400160405280600381526020017f667269000000000000000000000000000000000000000000000000000000000081525081526020016040518060400160405280600d81526020017f373a3330706d2d383a3330706d000000000000000000000000000000000000008152508152602001656e1c92bd0200815260200162278d00815250600260006008815260200190815260200160002060008201518160000160006101000a81548173ffffffffffffffffffffffffffffffffffffffff021916908373ffffffffffffffffffffffffffffffffffffffff16021790555060208201518160010155604082015181600201908162001f77919062005120565b50606082015181600301908162001f8f919062005120565b50608082015181600401908162001fa7919062005120565b5060a082015181600501908162001fbf919062005120565b5060c0820151816006015560e0820151816007015590505060405180610100016040528073bda5747bfd65f08deb54cb465eb87d40e51b197e73ffffffffffffffffffffffffffffffffffffffff168152602001600381526020016040518060400160405280600781526020017f736369656e63650000000000000000000000000000000000000000000000000081525081526020016040518060400160405280600781526020017f6d7320727574680000000000000000000000000000000000000000000000000081525081526020016040518060400160405280600381526020017f667269000000000000000000000000000000000000000000000000000000000081525081526020016040518060400160405280600d81526020017f383a3330706d2d393a3330706d000000000000000000000000000000000000008152508152602001656e1c92bd0200815260200162278d00815250600260006009815260200190815260200160002060008201518160000160006101000a81548173ffffffffffffffffffffffffffffffffffffffff021916908373ffffffffffffffffffffffffffffffffffffffff16021790555060208201518160010155604082015181600201908162002195919062005120565b506060820151816003019081620021ad919062005120565b506080820151816004019081620021c5919062005120565b5060a0820151816005019081620021dd919062005120565b5060c0820151816006015560e08201518160070155905050604051806101000160405280738626f6940e2eb28930efb4cef49b2d1f2c9c119973ffffffffffffffffffffffffffffffffffffffff168152602001600481526020016040518060400160405280600781526020017f626320636f6d700000000000000000000000000000000000000000000000000081525081526020016040518060400160405280600781526020017f6d732074616e670000000000000000000000000000000000000000000000000081525081526020016040518060400160405280600381526020017f776564000000000000000000000000000000000000000000000000000000000081525081526020016040518060400160405280600d81526020017f343a3030706d2d353a3330706d000000000000000000000000000000000000008152508152602001656e1c92bd0200815260200162278d0081525060026000600a815260200190815260200160002060008201518160000160006101000a81548173ffffffffffffffffffffffffffffffffffffffff021916908373ffffffffffffffffffffffffffffffffffffffff160217905550602082015181600101556040820151816002019081620023b3919062005120565b506060820151816003019081620023cb919062005120565b506080820151816004019081620023e3919062005120565b5060a0820151816005019081620023fb919062005120565b5060c0820151816006015560e08201518160070155905050604051806101000160405280738626f6940e2eb28930efb4cef49b2d1f2c9c119973ffffffffffffffffffffffffffffffffffffffff168152602001600481526020016040518060400160405280600881526020017f626320657373617900000000000000000000000000000000000000000000000081525081526020016040518060400160405280600781526020017f6d732074616e670000000000000000000000000000000000000000000000000081525081526020016040518060400160405280600381526020017f776564000000000000000000000000000000000000000000000000000000000081525081526020016040518060400160405280600d81526020017f353a3330706d2d373a3030706d00000000000000000000000000000000000000815250815260200166248f7f0ccd8e00815260200162278d0081525060026000600b815260200190815260200160002060008201518160000160006101000a81548173ffffffffffffffffffffffffffffffffffffffff021916908373ffffffffffffffffffffffffffffffffffffffff160217905550602082015181600101556040820151816002019081620025d2919062005120565b506060820151816003019081620025ea919062005120565b50608082015181600401908162002602919062005120565b5060a08201518160050190816200261a919062005120565b5060c0820151816006015560e08201518160070155905050604051806101000160405280738626f6940e2eb28930efb4cef49b2d1f2c9c119973ffffffffffffffffffffffffffffffffffffffff168152602001600481526020016040518060400160405280600781526020017f626d20636f6d700000000000000000000000000000000000000000000000000081525081526020016040518060400160405280600781526020017f6d732074616e670000000000000000000000000000000000000000000000000081525081526020016040518060400160405280600381526020017f747565000000000000000000000000000000000000000000000000000000000081525081526020016040518060400160405280600d81526020017f343a3030706d2d353a3330706d00000000000000000000000000000000000000815250815260200166248f7f0ccd8e00815260200162278d0081525060026000600c815260200190815260200160002060008201518160000160006101000a81548173ffffffffffffffffffffffffffffffffffffffff021916908373ffffffffffffffffffffffffffffffffffffffff160217905550602082015181600101556040820151816002019081620027f1919062005120565b50606082015181600301908162002809919062005120565b50608082015181600401908162002821919062005120565b5060a082015181600501908162002839919062005120565b5060c0820151816006015560e08201518160070155905050604051806101000160405280738626f6940e2eb28930efb4cef49b2d1f2c9c119973ffffffffffffffffffffffffffffffffffffffff168152602001600481526020016040518060400160405280600881526020017f626d20657373617900000000000000000000000000000000000000000000000081525081526020016040518060400160405280600781526020017f6d732074616e670000000000000000000000000000000000000000000000000081525081526020016040518060400160405280600481526020017f746875720000000000000000000000000000000000000000000000000000000081525081526020016040518060400160405280600d81526020017f343a3030706d2d353a3330706d00000000000000000000000000000000000000815250815260200166248f7f0ccd8e00815260200162278d0081525060026000600d815260200190815260200160002060008201518160000160006101000a81548173ffffffffffffffffffffffffffffffffffffffff021916908373ffffffffffffffffffffffffffffffffffffffff16021790555060208201518160010155604082015181600201908162002a10919062005120565b50606082015181600301908162002a28919062005120565b50608082015181600401908162002a40919062005120565b5060a082015181600501908162002a58919062005120565b5060c0820151816006015560e08201518160070155905050604051806101000160405280732546bcd3c84621e976d8185a91a922ae77ecec3073ffffffffffffffffffffffffffffffffffffffff168152602001600481526020016040518060400160405280600781526020017f626920636f6d700000000000000000000000000000000000000000000000000081525081526020016040518060400160405280600781526020017f6d72206e69636b0000000000000000000000000000000000000000000000000081525081526020016040518060400160405280600381526020017f747565000000000000000000000000000000000000000000000000000000000081525081526020016040518060400160405280600d81526020017f353a3330706d2d373a3030706d00000000000000000000000000000000000000815250815260200166248f7f0ccd8e00815260200162278d0081525060026000600e815260200190815260200160002060008201518160000160006101000a81548173ffffffffffffffffffffffffffffffffffffffff021916908373ffffffffffffffffffffffffffffffffffffffff16021790555060208201518160010155604082015181600201908162002c2f919062005120565b50606082015181600301908162002c47919062005120565b50608082015181600401908162002c5f919062005120565b5060a082015181600501908162002c77919062005120565b5060c0820151816006015560e08201518160070155905050604051806101000160405280738626f6940e2eb28930efb4cef49b2d1f2c9c119973ffffffffffffffffffffffffffffffffffffffff168152602001600481526020016040518060400160405280600881526020017f626920657373617900000000000000000000000000000000000000000000000081525081526020016040518060400160405280600981526020017f6d732063686f6c6565000000000000000000000000000000000000000000000081525081526020016040518060400160405280600381526020017f667269000000000000000000000000000000000000000000000000000000000081525081526020016040518060400160405280600d81526020017f353a3330706d2d373a3030706d00000000000000000000000000000000000000815250815260200166248f7f0ccd8e00815260200162278d0081525060026000600f815260200190815260200160002060008201518160000160006101000a81548173ffffffffffffffffffffffffffffffffffffffff021916908373ffffffffffffffffffffffffffffffffffffffff16021790555060208201518160010155604082015181600201908162002e4e919062005120565b50606082015181600301908162002e66919062005120565b50608082015181600401908162002e7e919062005120565b5060a082015181600501908162002e96919062005120565b5060c0820151816006015560e0820151816007015590505060405180610100016040528073cd3b766ccdd6ae721141f452c550ca635964ce7173ffffffffffffffffffffffffffffffffffffffff168152602001600481526020016040518060400160405280600481526020017f6d6174680000000000000000000000000000000000000000000000000000000081525081526020016040518060400160405280600681526020017f6d7220796170000000000000000000000000000000000000000000000000000081525081526020016040518060400160405280600381526020017f667269000000000000000000000000000000000000000000000000000000000081525081526020016040518060400160405280600d81526020017f343a3030706d2d353a3330706d00000000000000000000000000000000000000815250815260200166248f7f0ccd8e00815260200162278d00815250600260006010815260200190815260200160002060008201518160000160006101000a81548173ffffffffffffffffffffffffffffffffffffffff021916908373ffffffffffffffffffffffffffffffffffffffff1602179055506020820151816001015560408201518160020190816200306d919062005120565b50606082015181600301908162003085919062005120565b5060808201518160040190816200309d919062005120565b5060a0820151816005019081620030b5919062005120565b5060c0820151816006015560e0820151816007015590505060405180610100016040528073cd3b766ccdd6ae721141f452c550ca635964ce7173ffffffffffffffffffffffffffffffffffffffff168152602001600481526020016040518060400160405280600781526020017f736369656e63650000000000000000000000000000000000000000000000000081525081526020016040518060400160405280600681526020017f6d7220796170000000000000000000000000000000000000000000000000000081525081526020016040518060400160405280600381526020017f6d6f6e000000000000000000000000000000000000000000000000000000000081525081526020016040518060400160405280600d81526020017f343a3030706d2d353a3330706d00000000000000000000000000000000000000815250815260200166248f7f0ccd8e00815260200162278d00815250600260006011815260200190815260200160002060008201518160000160006101000a81548173ffffffffffffffffffffffffffffffffffffffff021916908373ffffffffffffffffffffffffffffffffffffffff1602179055506020820151816001015560408201518160020190816200328c919062005120565b506060820151816003019081620032a4919062005120565b506080820151816004019081620032bc919062005120565b5060a0820151816005019081620032d4919062005120565b5060c0820151816006015560e0820151816007015590505060405180610100016040528073df3e18d64bc6a983f673ab319ccae4f1a57c709773ffffffffffffffffffffffffffffffffffffffff168152602001600681526020016040518060400160405280600781526020017f626320636f6d700000000000000000000000000000000000000000000000000081525081526020016040518060400160405280600681526020017f6d72206c696d000000000000000000000000000000000000000000000000000081525081526020016040518060400160405280600381526020017f747565000000000000000000000000000000000000000000000000000000000081525081526020016040518060400160405280600d81526020017f373a3030706d2d383a3330706d00000000000000000000000000000000000000815250815260200166248f7f0ccd8e00815260200162278d00815250600260006012815260200190815260200160002060008201518160000160006101000a81548173ffffffffffffffffffffffffffffffffffffffff021916908373ffffffffffffffffffffffffffffffffffffffff160217905550602082015181600101556040820151816002019081620034ab919062005120565b506060820151816003019081620034c3919062005120565b506080820151816004019081620034db919062005120565b5060a0820151816005019081620034f3919062005120565b5060c0820151816006015560e0820151816007015590505060405180610100016040528073df3e18d64bc6a983f673ab319ccae4f1a57c709773ffffffffffffffffffffffffffffffffffffffff168152602001600681526020016040518060400160405280600881526020017f626320657373617900000000000000000000000000000000000000000000000081525081526020016040518060400160405280600681526020017f6d72206c696d000000000000000000000000000000000000000000000000000081525081526020016040518060400160405280600481526020017f746875720000000000000000000000000000000000000000000000000000000081525081526020016040518060400160405280600d81526020017f373a3030706d2d383a3330706d00000000000000000000000000000000000000815250815260200166248f7f0ccd8e00815260200162278d00815250600260006013815260200190815260200160002060008201518160000160006101000a81548173ffffffffffffffffffffffffffffffffffffffff021916908373ffffffffffffffffffffffffffffffffffffffff160217905550602082015181600101556040820151816002019081620036ca919062005120565b506060820151816003019081620036e2919062005120565b506080820151816004019081620036fa919062005120565b5060a082015181600501908162003712919062005120565b5060c0820151816006015560e08201518160070155905050604051806101000160405280732546bcd3c84621e976d8185a91a922ae77ecec3073ffffffffffffffffffffffffffffffffffffffff168152602001600681526020016040518060400160405280600781526020017f626d20636f6d700000000000000000000000000000000000000000000000000081525081526020016040518060400160405280600781526020017f6d72206e69636b0000000000000000000000000000000000000000000000000081525081526020016040518060400160405280600481526020017f746875720000000000000000000000000000000000000000000000000000000081525081526020016040518060400160405280600d81526020017f353a3330706d2d373a3030706d00000000000000000000000000000000000000815250815260200166248f7f0ccd8e00815260200162278d00815250600260006014815260200190815260200160002060008201518160000160006101000a81548173ffffffffffffffffffffffffffffffffffffffff021916908373ffffffffffffffffffffffffffffffffffffffff160217905550602082015181600101556040820151816002019081620038e9919062005120565b50606082015181600301908162003901919062005120565b50608082015181600401908162003919919062005120565b5060a082015181600501908162003931919062005120565b5060c0820151816006015560e08201518160070155905050604051806101000160405280732546bcd3c84621e976d8185a91a922ae77ecec3073ffffffffffffffffffffffffffffffffffffffff168152602001600681526020016040518060400160405280600881526020017f626d20657373617900000000000000000000000000000000000000000000000081525081526020016040518060400160405280600781526020017f6d72206e69636b0000000000000000000000000000000000000000000000000081525081526020016040518060400160405280600381526020017f667269000000000000000000000000000000000000000000000000000000000081525081526020016040518060400160405280600d81526020017f353a3330706d2d373a3030706d00000000000000000000000000000000000000815250815260200166248f7f0ccd8e00815260200162278d00815250600260006015815260200190815260200160002060008201518160000160006101000a81548173ffffffffffffffffffffffffffffffffffffffff021916908373ffffffffffffffffffffffffffffffffffffffff16021790555060208201518160010155604082015181600201908162003b08919062005120565b50606082015181600301908162003b20919062005120565b50608082015181600401908162003b38919062005120565b5060a082015181600501908162003b50919062005120565b5060c0820151816006015560e08201518160070155905050604051806101000160405280732546bcd3c84621e976d8185a91a922ae77ecec3073ffffffffffffffffffffffffffffffffffffffff168152602001600681526020016040518060400160405280600781526020017f626920636f6d700000000000000000000000000000000000000000000000000081525081526020016040518060400160405280600781526020017f6d72206e69636b0000000000000000000000000000000000000000000000000081525081526020016040518060400160405280600381526020017f6d6f6e000000000000000000000000000000000000000000000000000000000081525081526020016040518060400160405280600d81526020017f353a3330706d2d373a3030706d00000000000000000000000000000000000000815250815260200166248f7f0ccd8e00815260200162278d00815250600260006016815260200190815260200160002060008201518160000160006101000a81548173ffffffffffffffffffffffffffffffffffffffff021916908373ffffffffffffffffffffffffffffffffffffffff16021790555060208201518160010155604082015181600201908162003d27919062005120565b50606082015181600301908162003d3f919062005120565b50608082015181600401908162003d57919062005120565b5060a082015181600501908162003d6f919062005120565b5060c0820151816006015560e08201518160070155905050604051806101000160405280732546bcd3c84621e976d8185a91a922ae77ecec3073ffffffffffffffffffffffffffffffffffffffff168152602001600681526020016040518060400160405280600881526020017f626920657373617900000000000000000000000000000000000000000000000081525081526020016040518060400160405280600781526020017f6d72206e69636b0000000000000000000000000000000000000000000000000081525081526020016040518060400160405280600381526020017f667269000000000000000000000000000000000000000000000000000000000081525081526020016040518060400160405280600d81526020017f373a3030706d2d383a3330706d00000000000000000000000000000000000000815250815260200166248f7f0ccd8e00815260200162278d00815250600260006017815260200190815260200160002060008201518160000160006101000a81548173ffffffffffffffffffffffffffffffffffffffff021916908373ffffffffffffffffffffffffffffffffffffffff16021790555060208201518160010155604082015181600201908162003f46919062005120565b50606082015181600301908162003f5e919062005120565b50608082015181600401908162003f76919062005120565b5060a082015181600501908162003f8e919062005120565b5060c0820151816006015560e08201518160070155905050604051806101000160405280731cbd3b2770909d4e10f157cabc84c7264073c9ec73ffffffffffffffffffffffffffffffffffffffff168152602001600681526020016040518060400160405280600481526020017f6d6174680000000000000000000000000000000000000000000000000000000081525081526020016040518060400160405280600581526020017f6d72206e6700000000000000000000000000000000000000000000000000000081525081526020016040518060400160405280600381526020017f776564000000000000000000000000000000000000000000000000000000000081525081526020016040518060400160405280600d81526020017f343a3030706d2d353a3330706d00000000000000000000000000000000000000815250815260200166248f7f0ccd8e00815260200162278d00815250600260006018815260200190815260200160002060008201518160000160006101000a81548173ffffffffffffffffffffffffffffffffffffffff021916908373ffffffffffffffffffffffffffffffffffffffff16021790555060208201518160010155604082015181600201908162004165919062005120565b5060608201518160030190816200417d919062005120565b50608082015181600401908162004195919062005120565b5060a0820151816005019081620041ad919062005120565b5060c0820151816006015560e0820151816007015590505060405180610100016040528073df3e18d64bc6a983f673ab319ccae4f1a57c709773ffffffffffffffffffffffffffffffffffffffff168152602001600681526020016040518060400160405280600781526020017f736369656e63650000000000000000000000000000000000000000000000000081525081526020016040518060400160405280600681526020017f6d72206c696d000000000000000000000000000000000000000000000000000081525081526020016040518060400160405280600381526020017f776564000000000000000000000000000000000000000000000000000000000081525081526020016040518060400160405280600d81526020017f353a3330706d2d373a3030706d00000000000000000000000000000000000000815250815260200166248f7f0ccd8e00815260200162278d00815250600260006019815260200190815260200160002060008201518160000160006101000a81548173ffffffffffffffffffffffffffffffffffffffff021916908373ffffffffffffffffffffffffffffffffffffffff16021790555060208201518160010155604082015181600201908162004384919062005120565b5060608201518160030190816200439c919062005120565b506080820151816004019081620043b4919062005120565b5060a0820151816005019081620043cc919062005120565b5060c0820151816006015560e08201518160070155905050601a60058190555062005207565b600033905090565b60008060009054906101000a900473ffffffffffffffffffffffffffffffffffffffff169050816000806101000a81548173ffffffffffffffffffffffffffffffffffffffff021916908373ffffffffffffffffffffffffffffffffffffffff1602179055508173ffffffffffffffffffffffffffffffffffffffff168173ffffffffffffffffffffffffffffffffffffffff167f8be0079c531659141344cd1fd0a4f28419497f9722a3daafe3b4186f6b6457e060405160405180910390a35050565b611e7880620088f183390190565b600073ffffffffffffffffffffffffffffffffffffffff82169050919050565b6000620044f982620044cc565b9050919050565b6200450b81620044ec565b82525050565b600082825260208201905092915050565b7f6d732063686c6f65650000000000000000000000000000000000000000000000600082015250565b60006200455a60098362004511565b9150620045678262004522565b602082019050919050565b600060408201905062004589600083018462004500565b81810360208301526200459c816200454b565b905092915050565b7f6d72206c65650000000000000000000000000000000000000000000000000000600082015250565b6000620045dc60068362004511565b9150620045e982620045a4565b602082019050919050565b60006040820190506200460b600083018462004500565b81810360208301526200461e81620045cd565b905092915050565b7f6d73207275746800000000000000000000000000000000000000000000000000600082015250565b60006200465e60078362004511565b91506200466b8262004626565b602082019050919050565b60006040820190506200468d600083018462004500565b8181036020830152620046a0816200464f565b905092915050565b7f6d72206e69636b00000000000000000000000000000000000000000000000000600082015250565b6000620046e060078362004511565b9150620046ed82620046a8565b602082019050919050565b60006040820190506200470f600083018462004500565b81810360208301526200472281620046d1565b905092915050565b7f6d72207961700000000000000000000000000000000000000000000000000000600082015250565b60006200476260068362004511565b91506200476f826200472a565b602082019050919050565b600060408201905062004791600083018462004500565b8181036020830152620047a48162004753565b905092915050565b7f6d72206c696d0000000000000000000000000000000000000000000000000000600082015250565b6000620047e460068362004511565b9150620047f182620047ac565b602082019050919050565b600060408201905062004813600083018462004500565b81810360208301526200482681620047d5565b905092915050565b7f6d72206e67000000000000000000000000000000000000000000000000000000600082015250565b60006200486660058362004511565b915062004873826200482e565b602082019050919050565b600060408201905062004895600083018462004500565b8181036020830152620048a88162004857565b905092915050565b7f4172696100000000000000000000000000000000000000000000000000000000600082015250565b6000620048e860048362004511565b9150620048f582620048b0565b602082019050919050565b600060408201905062004917600083018462004500565b81810360208301526200492a81620048d9565b905092915050565b7f4869726f73686900000000000000000000000000000000000000000000000000600082015250565b60006200496a60078362004511565b9150620049778262004932565b602082019050919050565b600060408201905062004999600083018462004500565b8181036020830152620049ac816200495b565b905092915050565b7f536f706869610000000000000000000000000000000000000000000000000000600082015250565b6000620049ec60068362004511565b9150620049f982620049b4565b602082019050919050565b600060408201905062004a1b600083018462004500565b818103602083015262004a2e81620049dd565b905092915050565b7f4a69610000000000000000000000000000000000000000000000000000000000600082015250565b600062004a6e60038362004511565b915062004a7b8262004a36565b602082019050919050565b600060408201905062004a9d600083018462004500565b818103602083015262004ab08162004a5f565b905092915050565b7f4c75636100000000000000000000000000000000000000000000000000000000600082015250565b600062004af060048362004511565b915062004afd8262004ab8565b602082019050919050565b600060408201905062004b1f600083018462004500565b818103602083015262004b328162004ae1565b905092915050565b7f416e616e79610000000000000000000000000000000000000000000000000000600082015250565b600062004b7260068362004511565b915062004b7f8262004b3a565b602082019050919050565b600060408201905062004ba1600083018462004500565b818103602083015262004bb48162004b63565b905092915050565b7f456d696c69650000000000000000000000000000000000000000000000000000600082015250565b600062004bf460068362004511565b915062004c018262004bbc565b602082019050919050565b600060408201905062004c23600083018462004500565b818103602083015262004c368162004be5565b905092915050565b7f4d696e2d6a756e20000000000000000000000000000000000000000000000000600082015250565b600062004c7660088362004511565b915062004c838262004c3e565b602082019050919050565b600060408201905062004ca5600083018462004500565b818103602083015262004cb88162004c67565b905092915050565b7f49736162656c6c61000000000000000000000000000000000000000000000000600082015250565b600062004cf860088362004511565b915062004d058262004cc0565b602082019050919050565b600060408201905062004d27600083018462004500565b818103602083015262004d3a8162004ce9565b905092915050565b7f486172756b690000000000000000000000000000000000000000000000000000600082015250565b600062004d7a60068362004511565b915062004d878262004d42565b602082019050919050565b600060408201905062004da9600083018462004500565b818103602083015262004dbc8162004d6b565b905092915050565b7f5961702053656e67204b75616e67000000000000000000000000000000000000600082015250565b600062004dfc600e8362004511565b915062004e098262004dc4565b602082019050919050565b600060408201905062004e2b600083018462004500565b818103602083015262004e3e8162004ded565b905092915050565b6000819050919050565b6000819050919050565b6000819050919050565b600062004e8562004e7f62004e798462004e46565b62004e5a565b62004e50565b9050919050565b62004e978162004e64565b82525050565b600060208201905062004eb4600083018462004e8c565b92915050565b600081519050919050565b7f4e487b7100000000000000000000000000000000000000000000000000000000600052604160045260246000fd5b7f4e487b7100000000000000000000000000000000000000000000000000000000600052602260045260246000fd5b6000600282049050600182168062004f3c57607f821691505b60208210810362004f525762004f5162004ef4565b5b50919050565b60008190508160005260206000209050919050565b60006020601f8301049050919050565b600082821b905092915050565b60006008830262004fbc7fffffffffffffffffffffffffffffffffffffffffffffffffffffffffffffffff8262004f7d565b62004fc8868362004f7d565b95508019841693508086168417925050509392505050565b60006200500162004ffb62004ff58462004e50565b62004e5a565b62004e50565b9050919050565b6000819050919050565b6200501d8362004fe0565b620050356200502c8262005008565b84845462004f8a565b825550505050565b600090565b6200504c6200503d565b6200505981848462005012565b505050565b5b8181101562005081576200507560008262005042565b6001810190506200505f565b5050565b601f821115620050d0576200509a8162004f58565b620050a58462004f6d565b81016020851015620050b5578190505b620050cd620050c48562004f6d565b8301826200505e565b50505b505050565b600082821c905092915050565b6000620050f560001984600802620050d5565b1980831691505092915050565b6000620051108383620050e2565b9150826002028217905092915050565b6200512b8262004eba565b67ffffffffffffffff81111562005147576200514662004ec5565b5b62005153825462004f23565b6200516082828562005085565b600060209050601f83116001811462005198576000841562005183578287015190505b6200518f858262005102565b865550620051ff565b601f198416620051a88662004f58565b60005b82811015620051d257848901518255600182019150602085019450602081019050620051ab565b86831015620051f25784890151620051ee601f891682620050e2565b8355505b6001600288020188555050505b505050505050565b6136da80620052176000396000f3fe6080604052600436106100fe5760003560e01c8063715018a611610095578063ce69cf5911610064578063ce69cf5914610339578063de74e57b14610362578063e745f8ba146103a6578063ef0e239b146103e4578063f2fde38b1461042c576100fe565b8063715018a61461028b5780638da5cb5b146102a2578063a9b07c26146102cd578063c22c4f43146102f8576100fe565b80633e4a1e6c116100d15780633e4a1e6c146101d85780635000596b146101f45780636f77926b1461021f578063704f1b9414610262576100fe565b80630623752614610103578063107a274a1461012e5780631e83409a1461017257806320420570146101af575b600080fd5b34801561010f57600080fd5b50610118610455565b6040516101259190612336565b60405180910390f35b34801561013a57600080fd5b5061015560048036038101906101509190612391565b61045b565b60405161016998979695949392919061248f565b60405180910390f35b34801561017e57600080fd5b5061019960048036038101906101949190612555565b61078a565b6040516101a69190612336565b60405180910390f35b3480156101bb57600080fd5b506101d660048036038101906101d191906126b7565b6107a2565b005b6101f260048036038101906101ed9190612391565b610a1a565b005b34801561020057600080fd5b506102096110eb565b60405161021691906127f7565b60405180910390f35b34801561022b57600080fd5b5061024660048036038101906102419190612555565b611111565b604051610259979695949392919061282d565b60405180910390f35b34801561026e57600080fd5b50610289600480360381019061028491906128a3565b6111d7565b005b34801561029757600080fd5b506102a0611269565b005b3480156102ae57600080fd5b506102b761127d565b6040516102c491906128ec565b60405180910390f35b3480156102d957600080fd5b506102e26112a6565b6040516102ef9190612336565b60405180910390f35b34801561030457600080fd5b5061031f600480360381019061031a9190612391565b6112ac565b604051610330959493929190612aab565b60405180910390f35b34801561034557600080fd5b50610360600480360381019061035b9190612b05565b6115d6565b005b34801561036e57600080fd5b5061038960048036038101906103849190612391565b611937565b60405161039d98979695949392919061248f565b60405180910390f35b3480156103b257600080fd5b506103cd60048036038101906103c89190612b71565b611bbf565b6040516103db929190612bb1565b60405180910390f35b3480156103f057600080fd5b5061040b60048036038101906104069190612391565b611c6a565b6040516104239c9b9a99989796959493929190612bda565b60405180910390f35b34801561043857600080fd5b50610453600480360381019061044e9190612555565b612098565b005b60065481565b6000806060806060806000806000600260008b8152602001908152602001600020604051806101000160405290816000820160009054906101000a900473ffffffffffffffffffffffffffffffffffffffff1673ffffffffffffffffffffffffffffffffffffffff1673ffffffffffffffffffffffffffffffffffffffff168152602001600182015481526020016002820180546104f890612cdf565b80601f016020809104026020016040519081016040528092919081815260200182805461052490612cdf565b80156105715780601f1061054657610100808354040283529160200191610571565b820191906000526020600020905b81548152906001019060200180831161055457829003601f168201915b5050505050815260200160038201805461058a90612cdf565b80601f01602080910402602001604051908101604052809291908181526020018280546105b690612cdf565b80156106035780601f106105d857610100808354040283529160200191610603565b820191906000526020600020905b8154815290600101906020018083116105e657829003601f168201915b5050505050815260200160048201805461061c90612cdf565b80601f016020809104026020016040519081016040528092919081815260200182805461064890612cdf565b80156106955780601f1061066a57610100808354040283529160200191610695565b820191906000526020600020905b81548152906001019060200180831161067857829003601f168201915b505050505081526020016005820180546106ae90612cdf565b80601f01602080910402602001604051908101604052809291908181526020018280546106da90612cdf565b80156107275780601f106106fc57610100808354040283529160200191610727565b820191906000526020600020905b81548152906001019060200180831161070a57829003601f168201915b50505050508152602001600682015481526020016007820154815250509050806000015181602001518260400151836060015184608001518560a001518660c001518760e001519850985098509850985098509850985050919395975091939597565b60046020528060005260406000206000915090505481565b6000600160009054906101000a900473ffffffffffffffffffffffffffffffffffffffff1673ffffffffffffffffffffffffffffffffffffffff16636f77926b336040518263ffffffff1660e01b81526004016107ff91906128ec565b600060405180830381865afa15801561081c573d6000803e3d6000fd5b505050506040513d6000823e3d601f19601f820116820180604052508101906108459190612dbf565b50505050509150506000815111610891576040517f08c379a000000000000000000000000000000000000000000000000000000000815260040161088890612ec9565b60405180910390fd5b600083116108d4576040517f08c379a00000000000000000000000000000000000000000000000000000000081526004016108cb90612f35565b60405180910390fd5b6040518061010001604052803373ffffffffffffffffffffffffffffffffffffffff1681526020018881526020018781526020018281526020018681526020018581526020018481526020018381525060026000600554815260200190815260200160002060008201518160000160006101000a81548173ffffffffffffffffffffffffffffffffffffffff021916908373ffffffffffffffffffffffffffffffffffffffff16021790555060208201518160010155604082015181600201908161099f91906130f7565b5060608201518160030190816109b591906130f7565b5060808201518160040190816109cb91906130f7565b5060a08201518160050190816109e191906130f7565b5060c0820151816006015560e0820151816007015590505060056000815480929190610a0c906131f8565b919050555050505050505050565b600060026000838152602001908152602001600020604051806101000160405290816000820160009054906101000a900473ffffffffffffffffffffffffffffffffffffffff1673ffffffffffffffffffffffffffffffffffffffff1673ffffffffffffffffffffffffffffffffffffffff16815260200160018201548152602001600282018054610aab90612cdf565b80601f0160208091040260200160405190810160405280929190818152602001828054610ad790612cdf565b8015610b245780601f10610af957610100808354040283529160200191610b24565b820191906000526020600020905b815481529060010190602001808311610b0757829003601f168201915b50505050508152602001600382018054610b3d90612cdf565b80601f0160208091040260200160405190810160405280929190818152602001828054610b6990612cdf565b8015610bb65780601f10610b8b57610100808354040283529160200191610bb6565b820191906000526020600020905b815481529060010190602001808311610b9957829003601f168201915b50505050508152602001600482018054610bcf90612cdf565b80601f0160208091040260200160405190810160405280929190818152602001828054610bfb90612cdf565b8015610c485780601f10610c1d57610100808354040283529160200191610c48565b820191906000526020600020905b815481529060010190602001808311610c2b57829003601f168201915b50505050508152602001600582018054610c6190612cdf565b80601f0160208091040260200160405190810160405280929190818152602001828054610c8d90612cdf565b8015610cda5780601f10610caf57610100808354040283529160200191610cda565b820191906000526020600020905b815481529060010190602001808311610cbd57829003601f168201915b5050505050815260200160068201548152602001600782015481525050905060008160c0015111610d40576040517f08c379a0000000000000000000000000000000000000000000000000000000008152600401610d379061328c565b60405180910390fd5b348160c0015114610d86576040517f08c379a0000000000000000000000000000000000000000000000000000000008152600401610d7d906132f8565b60405180910390fd5b6000600160009054906101000a900473ffffffffffffffffffffffffffffffffffffffff1673ffffffffffffffffffffffffffffffffffffffff16636f77926b336040518263ffffffff1660e01b8152600401610de391906128ec565b600060405180830381865afa158015610e00573d6000803e3d6000fd5b505050506040513d6000823e3d601f19601f82011682018060405250810190610e299190612dbf565b50505050509150506000815111610e75576040517f08c379a0000000000000000000000000000000000000000000000000000000008152600401610e6c90612ec9565b60405180910390fd5b610e7d612265565b8381600001818152505033816020019073ffffffffffffffffffffffffffffffffffffffff16908173ffffffffffffffffffffffffffffffffffffffff1681525050828160400181905250600081606001906001811115610ee157610ee0612a34565b5b90816001811115610ef557610ef4612a34565b5b8152505042816080018181525050806003600060065481526020019081526020016000206000820151816000015560208201518160010160006101000a81548173ffffffffffffffffffffffffffffffffffffffff021916908373ffffffffffffffffffffffffffffffffffffffff16021790555060408201518160020160008201518160000160006101000a81548173ffffffffffffffffffffffffffffffffffffffff021916908373ffffffffffffffffffffffffffffffffffffffff160217905550602082015181600101556040820151816002019081610fd991906130f7565b506060820151816003019081610fef91906130f7565b50608082015181600401908161100591906130f7565b5060a082015181600501908161101b91906130f7565b5060c0820151816006015560e082015181600701555050606082015181600a0160006101000a81548160ff0219169083600181111561105d5761105c612a34565b5b0217905550608082015181600b01559050508260c0015160046000856000015173ffffffffffffffffffffffffffffffffffffffff1673ffffffffffffffffffffffffffffffffffffffff16815260200190815260200160002060008282546110c69190613318565b92505081905550600660008154809291906110e0906131f8565b919050555050505050565b600160009054906101000a900473ffffffffffffffffffffffffffffffffffffffff1681565b600060606000806000806000600160009054906101000a900473ffffffffffffffffffffffffffffffffffffffff1673ffffffffffffffffffffffffffffffffffffffff16636f77926b896040518263ffffffff1660e01b815260040161117891906128ec565b600060405180830381865afa158015611195573d6000803e3d6000fd5b505050506040513d6000823e3d601f19601f820116820180604052508101906111be9190612dbf565b9650965096509650965096509650919395979092949650565b600160009054906101000a900473ffffffffffffffffffffffffffffffffffffffff1673ffffffffffffffffffffffffffffffffffffffff16634b68d43133836040518363ffffffff1660e01b815260040161123492919061334c565b600060405180830381600087803b15801561124e57600080fd5b505af1158015611262573d6000803e3d6000fd5b5050505050565b61127161211b565b61127b6000612199565b565b60008060009054906101000a900473ffffffffffffffffffffffffffffffffffffffff16905090565b60055481565b60036020528060005260406000206000915090508060000154908060010160009054906101000a900473ffffffffffffffffffffffffffffffffffffffff169080600201604051806101000160405290816000820160009054906101000a900473ffffffffffffffffffffffffffffffffffffffff1673ffffffffffffffffffffffffffffffffffffffff1673ffffffffffffffffffffffffffffffffffffffff1681526020016001820154815260200160028201805461136c90612cdf565b80601f016020809104026020016040519081016040528092919081815260200182805461139890612cdf565b80156113e55780601f106113ba576101008083540402835291602001916113e5565b820191906000526020600020905b8154815290600101906020018083116113c857829003601f168201915b505050505081526020016003820180546113fe90612cdf565b80601f016020809104026020016040519081016040528092919081815260200182805461142a90612cdf565b80156114775780601f1061144c57610100808354040283529160200191611477565b820191906000526020600020905b81548152906001019060200180831161145a57829003601f168201915b5050505050815260200160048201805461149090612cdf565b80601f01602080910402602001604051908101604052809291908181526020018280546114bc90612cdf565b80156115095780601f106114de57610100808354040283529160200191611509565b820191906000526020600020905b8154815290600101906020018083116114ec57829003601f168201915b5050505050815260200160058201805461152290612cdf565b80601f016020809104026020016040519081016040528092919081815260200182805461154e90612cdf565b801561159b5780601f106115705761010080835404028352916020019161159b565b820191906000526020600020905b81548152906001019060200180831161157e57829003601f168201915b50505050508152602001600682015481526020016007820154815250509080600a0160009054906101000a900460ff169080600b0154905085565b60006003600084815260200190815260200160002090503373ffffffffffffffffffffffffffffffffffffffff168160020160000160009054906101000a900473ffffffffffffffffffffffffffffffffffffffff1673ffffffffffffffffffffffffffffffffffffffff1614611682576040517f08c379a0000000000000000000000000000000000000000000000000000000008152600401611679906133c8565b60405180910390fd5b60018081111561169557611694612a34565b5b81600a0160009054906101000a900460ff1660018111156116b9576116b8612a34565b5b14806116db575042816002016007015482600b01546116d89190613318565b10155b61171a576040517f08c379a000000000000000000000000000000000000000000000000000000000815260040161171190613434565b60405180910390fd5b600181600a0160006101000a81548160ff0219169083600181111561174257611741612a34565b5b02179055506000600460003373ffffffffffffffffffffffffffffffffffffffff1673ffffffffffffffffffffffffffffffffffffffff168152602001908152602001600020549050600460003373ffffffffffffffffffffffffffffffffffffffff1673ffffffffffffffffffffffffffffffffffffffff16815260200190815260200160002060009055600160009054906101000a900473ffffffffffffffffffffffffffffffffffffffff1673ffffffffffffffffffffffffffffffffffffffff166321b1d57b8360010160009054906101000a900473ffffffffffffffffffffffffffffffffffffffff168560006040518463ffffffff1660e01b815260040161185293929190613454565b600060405180830381600087803b15801561186c57600080fd5b505af1158015611880573d6000803e3d6000fd5b5050505060003373ffffffffffffffffffffffffffffffffffffffff16826040516118aa906134bc565b60006040518083038185875af1925050503d80600081146118e7576040519150601f19603f3d011682016040523d82523d6000602084013e6118ec565b606091505b5050905080611930576040517f08c379a00000000000000000000000000000000000000000000000000000000081526004016119279061351d565b60405180910390fd5b5050505050565b60026020528060005260406000206000915090508060000160009054906101000a900473ffffffffffffffffffffffffffffffffffffffff169080600101549080600201805461198690612cdf565b80601f01602080910402602001604051908101604052809291908181526020018280546119b290612cdf565b80156119ff5780601f106119d4576101008083540402835291602001916119ff565b820191906000526020600020905b8154815290600101906020018083116119e257829003601f168201915b505050505090806003018054611a1490612cdf565b80601f0160208091040260200160405190810160405280929190818152602001828054611a4090612cdf565b8015611a8d5780601f10611a6257610100808354040283529160200191611a8d565b820191906000526020600020905b815481529060010190602001808311611a7057829003601f168201915b505050505090806004018054611aa290612cdf565b80601f0160208091040260200160405190810160405280929190818152602001828054611ace90612cdf565b8015611b1b5780601f10611af057610100808354040283529160200191611b1b565b820191906000526020600020905b815481529060010190602001808311611afe57829003601f168201915b505050505090806005018054611b3090612cdf565b80601f0160208091040260200160405190810160405280929190818152602001828054611b5c90612cdf565b8015611ba95780601f10611b7e57610100808354040283529160200191611ba9565b820191906000526020600020905b815481529060010190602001808311611b8c57829003601f168201915b5050505050908060060154908060070154905088565b600080600160009054906101000a900473ffffffffffffffffffffffffffffffffffffffff1673ffffffffffffffffffffffffffffffffffffffff1663e745f8ba85856040518363ffffffff1660e01b8152600401611c1f92919061353d565b6040805180830381865afa158015611c3b573d6000803e3d6000fd5b505050506040513d601f19601f82011682018060405250810190611c5f9190613566565b915091509250929050565b6000806000806060806060806000806000806000600360008f81526020019081526020016000206040518060a0016040529081600082015481526020016001820160009054906101000a900473ffffffffffffffffffffffffffffffffffffffff1673ffffffffffffffffffffffffffffffffffffffff1673ffffffffffffffffffffffffffffffffffffffff16815260200160028201604051806101000160405290816000820160009054906101000a900473ffffffffffffffffffffffffffffffffffffffff1673ffffffffffffffffffffffffffffffffffffffff1673ffffffffffffffffffffffffffffffffffffffff16815260200160018201548152602001600282018054611d7d90612cdf565b80601f0160208091040260200160405190810160405280929190818152602001828054611da990612cdf565b8015611df65780601f10611dcb57610100808354040283529160200191611df6565b820191906000526020600020905b815481529060010190602001808311611dd957829003601f168201915b50505050508152602001600382018054611e0f90612cdf565b80601f0160208091040260200160405190810160405280929190818152602001828054611e3b90612cdf565b8015611e885780601f10611e5d57610100808354040283529160200191611e88565b820191906000526020600020905b815481529060010190602001808311611e6b57829003601f168201915b50505050508152602001600482018054611ea190612cdf565b80601f0160208091040260200160405190810160405280929190818152602001828054611ecd90612cdf565b8015611f1a5780601f10611eef57610100808354040283529160200191611f1a565b820191906000526020600020905b815481529060010190602001808311611efd57829003601f168201915b50505050508152602001600582018054611f3390612cdf565b80601f0160208091040260200160405190810160405280929190818152602001828054611f5f90612cdf565b8015611fac5780601f10611f8157610100808354040283529160200191611fac565b820191906000526020600020905b815481529060010190602001808311611f8f57829003601f168201915b50505050508152602001600682015481526020016007820154815250508152602001600a820160009054906101000a900460ff166001811115611ff257611ff1612a34565b5b600181111561200457612003612a34565b5b8152602001600b82015481525050905080600001518160200151826040015160000151836040015160200151846040015160400151856040015160600151866040015160800151876040015160a00151886040015160c00151896040015160e001518a606001518b608001519c509c509c509c509c509c509c509c509c509c509c509c505091939597999b5091939597999b565b6120a061211b565b600073ffffffffffffffffffffffffffffffffffffffff168173ffffffffffffffffffffffffffffffffffffffff160361210f576040517f08c379a000000000000000000000000000000000000000000000000000000000815260040161210690613618565b60405180910390fd5b61211881612199565b50565b61212361225d565b73ffffffffffffffffffffffffffffffffffffffff1661214161127d565b73ffffffffffffffffffffffffffffffffffffffff1614612197576040517f08c379a000000000000000000000000000000000000000000000000000000000815260040161218e90613684565b60405180910390fd5b565b60008060009054906101000a900473ffffffffffffffffffffffffffffffffffffffff169050816000806101000a81548173ffffffffffffffffffffffffffffffffffffffff021916908373ffffffffffffffffffffffffffffffffffffffff1602179055508173ffffffffffffffffffffffffffffffffffffffff168173ffffffffffffffffffffffffffffffffffffffff167f8be0079c531659141344cd1fd0a4f28419497f9722a3daafe3b4186f6b6457e060405160405180910390a35050565b600033905090565b6040518060a0016040528060008152602001600073ffffffffffffffffffffffffffffffffffffffff16815260200161229c6122c2565b8152602001600060018111156122b5576122b4612a34565b5b8152602001600081525090565b604051806101000160405280600073ffffffffffffffffffffffffffffffffffffffff168152602001600081526020016060815260200160608152602001606081526020016060815260200160008152602001600081525090565b6000819050919050565b6123308161231d565b82525050565b600060208201905061234b6000830184612327565b92915050565b6000604051905090565b600080fd5b600080fd5b61236e8161231d565b811461237957600080fd5b50565b60008135905061238b81612365565b92915050565b6000602082840312156123a7576123a661235b565b5b60006123b58482850161237c565b91505092915050565b600073ffffffffffffffffffffffffffffffffffffffff82169050919050565b60006123e9826123be565b9050919050565b6123f9816123de565b82525050565b600081519050919050565b600082825260208201905092915050565b60005b8381101561243957808201518184015260208101905061241e565b60008484015250505050565b6000601f19601f8301169050919050565b6000612461826123ff565b61246b818561240a565b935061247b81856020860161241b565b61248481612445565b840191505092915050565b6000610100820190506124a5600083018b6123f0565b6124b2602083018a612327565b81810360408301526124c48189612456565b905081810360608301526124d88188612456565b905081810360808301526124ec8187612456565b905081810360a08301526125008186612456565b905061250f60c0830185612327565b61251c60e0830184612327565b9998505050505050505050565b612532816123de565b811461253d57600080fd5b50565b60008135905061254f81612529565b92915050565b60006020828403121561256b5761256a61235b565b5b600061257984828501612540565b91505092915050565b600080fd5b600080fd5b7f4e487b7100000000000000000000000000000000000000000000000000000000600052604160045260246000fd5b6125c482612445565b810181811067ffffffffffffffff821117156125e3576125e261258c565b5b80604052505050565b60006125f6612351565b905061260282826125bb565b919050565b600067ffffffffffffffff8211156126225761262161258c565b5b61262b82612445565b9050602081019050919050565b82818337600083830152505050565b600061265a61265584612607565b6125ec565b90508281526020810184848401111561267657612675612587565b5b612681848285612638565b509392505050565b600082601f83011261269e5761269d612582565b5b81356126ae848260208601612647565b91505092915050565b60008060008060008060c087890312156126d4576126d361235b565b5b60006126e289828a0161237c565b965050602087013567ffffffffffffffff81111561270357612702612360565b5b61270f89828a01612689565b955050604087013567ffffffffffffffff8111156127305761272f612360565b5b61273c89828a01612689565b945050606087013567ffffffffffffffff81111561275d5761275c612360565b5b61276989828a01612689565b935050608061277a89828a0161237c565b92505060a061278b89828a0161237c565b9150509295509295509295565b6000819050919050565b60006127bd6127b86127b3846123be565b612798565b6123be565b9050919050565b60006127cf826127a2565b9050919050565b60006127e1826127c4565b9050919050565b6127f1816127d6565b82525050565b600060208201905061280c60008301846127e8565b92915050565b60008115159050919050565b61282781612812565b82525050565b600060e082019050612842600083018a6123f0565b81810360208301526128548189612456565b90506128636040830188612327565b6128706060830187612327565b61287d6080830186612327565b61288a60a0830185612327565b61289760c083018461281e565b98975050505050505050565b6000602082840312156128b9576128b861235b565b5b600082013567ffffffffffffffff8111156128d7576128d6612360565b5b6128e384828501612689565b91505092915050565b600060208201905061290160008301846123f0565b92915050565b612910816123de565b82525050565b61291f8161231d565b82525050565b600082825260208201905092915050565b6000612941826123ff565b61294b8185612925565b935061295b81856020860161241b565b61296481612445565b840191505092915050565b6000610100830160008301516129886000860182612907565b50602083015161299b6020860182612916565b50604083015184820360408601526129b38282612936565b915050606083015184820360608601526129cd8282612936565b915050608083015184820360808601526129e78282612936565b91505060a083015184820360a0860152612a018282612936565b91505060c0830151612a1660c0860182612916565b5060e0830151612a2960e0860182612916565b508091505092915050565b7f4e487b7100000000000000000000000000000000000000000000000000000000600052602160045260246000fd5b60028110612a7457612a73612a34565b5b50565b6000819050612a8582612a63565b919050565b6000612a9582612a77565b9050919050565b612aa581612a8a565b82525050565b600060a082019050612ac06000830188612327565b612acd60208301876123f0565b8181036040830152612adf818661296f565b9050612aee6060830185612a9c565b612afb6080830184612327565b9695505050505050565b60008060408385031215612b1c57612b1b61235b565b5b6000612b2a8582860161237c565b9250506020612b3b8582860161237c565b9150509250929050565b612b4e81612812565b8114612b5957600080fd5b50565b600081359050612b6b81612b45565b92915050565b60008060408385031215612b8857612b8761235b565b5b6000612b9685828601612540565b9250506020612ba785828601612b5c565b9150509250929050565b6000604082019050612bc66000830185612327565b612bd36020830184612327565b9392505050565b600061018082019050612bf0600083018f612327565b612bfd602083018e6123f0565b612c0a604083018d6123f0565b612c17606083018c612327565b8181036080830152612c29818b612456565b905081810360a0830152612c3d818a612456565b905081810360c0830152612c518189612456565b905081810360e0830152612c658188612456565b9050612c75610100830187612327565b612c83610120830186612327565b612c91610140830185612a9c565b612c9f610160830184612327565b9d9c50505050505050505050505050565b7f4e487b7100000000000000000000000000000000000000000000000000000000600052602260045260246000fd5b60006002820490506001821680612cf757607f821691505b602082108103612d0a57612d09612cb0565b5b50919050565b600081519050612d1f81612529565b92915050565b6000612d38612d3384612607565b6125ec565b905082815260208101848484011115612d5457612d53612587565b5b612d5f84828561241b565b509392505050565b600082601f830112612d7c57612d7b612582565b5b8151612d8c848260208601612d25565b91505092915050565b600081519050612da481612365565b92915050565b600081519050612db981612b45565b92915050565b600080600080600080600060e0888a031215612dde57612ddd61235b565b5b6000612dec8a828b01612d10565b975050602088015167ffffffffffffffff811115612e0d57612e0c612360565b5b612e198a828b01612d67565b9650506040612e2a8a828b01612d95565b9550506060612e3b8a828b01612d95565b9450506080612e4c8a828b01612d95565b93505060a0612e5d8a828b01612d95565b92505060c0612e6e8a828b01612daa565b91505092959891949750929550565b7f55736572206973206e6f74207265676973746572656400000000000000000000600082015250565b6000612eb360168361240a565b9150612ebe82612e7d565b602082019050919050565b60006020820190508181036000830152612ee281612ea6565b9050919050565b7f436f7374206d7573742062652067726561746572207468616e20300000000000600082015250565b6000612f1f601b8361240a565b9150612f2a82612ee9565b602082019050919050565b60006020820190508181036000830152612f4e81612f12565b9050919050565b60008190508160005260206000209050919050565b60006020601f8301049050919050565b600082821b905092915050565b600060088302612fb77fffffffffffffffffffffffffffffffffffffffffffffffffffffffffffffffff82612f7a565b612fc18683612f7a565b95508019841693508086168417925050509392505050565b6000612ff4612fef612fea8461231d565b612798565b61231d565b9050919050565b6000819050919050565b61300e83612fd9565b61302261301a82612ffb565b848454612f87565b825550505050565b600090565b61303761302a565b613042818484613005565b505050565b5b818110156130665761305b60008261302f565b600181019050613048565b5050565b601f8211156130ab5761307c81612f55565b61308584612f6a565b81016020851015613094578190505b6130a86130a085612f6a565b830182613047565b50505b505050565b600082821c905092915050565b60006130ce600019846008026130b0565b1980831691505092915050565b60006130e783836130bd565b9150826002028217905092915050565b613100826123ff565b67ffffffffffffffff8111156131195761311861258c565b5b6131238254612cdf565b61312e82828561306a565b600060209050601f831160018114613161576000841561314f578287015190505b61315985826130db565b8655506131c1565b601f19841661316f86612f55565b60005b8281101561319757848901518255600182019150602085019450602081019050613172565b868310156131b457848901516131b0601f8916826130bd565b8355505b6001600288020188555050505b505050505050565b7f4e487b7100000000000000000000000000000000000000000000000000000000600052601160045260246000fd5b60006132038261231d565b91507fffffffffffffffffffffffffffffffffffffffffffffffffffffffffffffffff8203613235576132346131c9565b5b600182019050919050565b7f4c697374696e67206973206e6f74206578697374656400000000000000000000600082015250565b600061327660168361240a565b915061328182613240565b602082019050919050565b600060208201905081810360008301526132a581613269565b9050919050565b7f56616c7565206973206e6f742073616d6520617320636f737400000000000000600082015250565b60006132e260198361240a565b91506132ed826132ac565b602082019050919050565b60006020820190508181036000830152613311816132d5565b9050919050565b60006133238261231d565b915061332e8361231d565b9250828201905080821115613346576133456131c9565b5b92915050565b600060408201905061336160008301856123f0565b81810360208301526133738184612456565b90509392505050565b7f4e6f7420617574686f72697a6564000000000000000000000000000000000000600082015250565b60006133b2600e8361240a565b91506133bd8261337c565b602082019050919050565b600060208201905081810360008301526133e1816133a5565b9050919050565b7f496e76616c6964207374617475732f646561646c696e65000000000000000000600082015250565b600061341e60178361240a565b9150613429826133e8565b602082019050919050565b6000602082019050818103600083015261344d81613411565b9050919050565b600060608201905061346960008301866123f0565b6134766020830185612327565b613483604083018461281e565b949350505050565b600081905092915050565b50565b60006134a660008361348b565b91506134b182613496565b600082019050919050565b60006134c782613499565b9150819050919050565b7f4661696c656420746f20636c61696d2065746865720000000000000000000000600082015250565b600061350760158361240a565b9150613512826134d1565b602082019050919050565b60006020820190508181036000830152613536816134fa565b9050919050565b600060408201905061355260008301856123f0565b61355f602083018461281e565b9392505050565b6000806040838503121561357d5761357c61235b565b5b600061358b85828601612d95565b925050602061359c85828601612d95565b9150509250929050565b7f4f776e61626c653a206e6577206f776e657220697320746865207a65726f206160008201527f6464726573730000000000000000000000000000000000000000000000000000602082015250565b600061360260268361240a565b915061360d826135a6565b604082019050919050565b60006020820190508181036000830152613631816135f5565b9050919050565b7f4f776e61626c653a2063616c6c6572206973206e6f7420746865206f776e6572600082015250565b600061366e60208361240a565b915061367982613638565b602082019050919050565b6000602082019050818103600083015261369d81613661565b905091905056fea26469706673582212209e1b666fa1a60988db976ee3ef4c0e64054ae2453f441b498d3907bb65d32c0864736f6c63430008130033608060405234801561001057600080fd5b5061002d61002261003260201b60201c565b61003a60201b60201c565b6100fe565b600033905090565b60008060009054906101000a900473ffffffffffffffffffffffffffffffffffffffff169050816000806101000a81548173ffffffffffffffffffffffffffffffffffffffff021916908373ffffffffffffffffffffffffffffffffffffffff1602179055508173ffffffffffffffffffffffffffffffffffffffff168173ffffffffffffffffffffffffffffffffffffffff167f8be0079c531659141344cd1fd0a4f28419497f9722a3daafe3b4186f6b6457e060405160405180910390a35050565b611d6b8061010d6000396000f3fe608060405234801561001057600080fd5b50600436106100a95760003560e01c8063715018a611610071578063715018a6146101565780638da5cb5b14610160578063a87430ba1461017e578063e745f8ba146101b4578063f2fde38b146101e5578063f442266114610201576100a9565b806307973ccf146100ae5780631a47767b146100cc57806321b1d57b146100e85780634b68d431146101045780636f77926b14610120575b600080fd5b6100b661021d565b6040516100c3919061100a565b60405180910390f35b6100e660048036038101906100e19190611097565b610223565b005b61010260048036038101906100fd9190611128565b61035a565b005b61011e600480360381019061011991906112c1565b6105f7565b005b61013a60048036038101906101359190611097565b610867565b60405161014d97969594939291906113ba565b60405180910390f35b61015e610a28565b005b610168610a3c565b6040516101759190611430565b60405180910390f35b61019860048036038101906101939190611097565b610a65565b6040516101ab97969594939291906113ba565b60405180910390f35b6101ce60048036038101906101c9919061144b565b610b5c565b6040516101dc92919061148b565b60405180910390f35b6101ff60048036038101906101fa9190611097565b610e12565b005b61021b600480360381019061021691906114b4565b610e95565b005b60025481565b61022b610ea7565b600073ffffffffffffffffffffffffffffffffffffffff16600160008373ffffffffffffffffffffffffffffffffffffffff1673ffffffffffffffffffffffffffffffffffffffff16815260200190815260200160002060000160009054906101000a900473ffffffffffffffffffffffffffffffffffffffff1673ffffffffffffffffffffffffffffffffffffffff16036102fc576040517f08c379a00000000000000000000000000000000000000000000000000000000081526004016102f39061152d565b60405180910390fd5b6000600160008373ffffffffffffffffffffffffffffffffffffffff1673ffffffffffffffffffffffffffffffffffffffff16815260200190815260200160002060060160006101000a81548160ff02191690831515021790555050565b610362610ea7565b600073ffffffffffffffffffffffffffffffffffffffff16600160008573ffffffffffffffffffffffffffffffffffffffff1673ffffffffffffffffffffffffffffffffffffffff16815260200190815260200160002060000160009054906101000a900473ffffffffffffffffffffffffffffffffffffffff1673ffffffffffffffffffffffffffffffffffffffff1603610433576040517f08c379a000000000000000000000000000000000000000000000000000000000815260040161042a9061152d565b60405180910390fd5b60018210158015610445575060058211155b610484576040517f08c379a000000000000000000000000000000000000000000000000000000000815260040161047b90611599565b60405180910390fd5b80156105405781600160008573ffffffffffffffffffffffffffffffffffffffff1673ffffffffffffffffffffffffffffffffffffffff16815260200190815260200160002060020160008282546104dc91906115e8565b92505081905550600160008473ffffffffffffffffffffffffffffffffffffffff1673ffffffffffffffffffffffffffffffffffffffff16815260200190815260200160002060030160008154809291906105369061161c565b91905055506105f2565b81600160008573ffffffffffffffffffffffffffffffffffffffff1673ffffffffffffffffffffffffffffffffffffffff168152602001908152602001600020600401600082825461059291906115e8565b92505081905550600160008473ffffffffffffffffffffffffffffffffffffffff1673ffffffffffffffffffffffffffffffffffffffff16815260200190815260200160002060050160008154809291906105ec9061161c565b91905055505b505050565b6105ff610ea7565b600073ffffffffffffffffffffffffffffffffffffffff16600160008473ffffffffffffffffffffffffffffffffffffffff1673ffffffffffffffffffffffffffffffffffffffff16815260200190815260200160002060000160009054906101000a900473ffffffffffffffffffffffffffffffffffffffff1673ffffffffffffffffffffffffffffffffffffffff16146106d0576040517f08c379a00000000000000000000000000000000000000000000000000000000081526004016106c7906116b0565b60405180910390fd5b6000815111610714576040517f08c379a000000000000000000000000000000000000000000000000000000000815260040161070b90611742565b60405180910390fd5b6040518060e001604052803373ffffffffffffffffffffffffffffffffffffffff1681526020018281526020016000815260200160008152602001600081526020016000815260200160011515815250600160008473ffffffffffffffffffffffffffffffffffffffff1673ffffffffffffffffffffffffffffffffffffffff16815260200190815260200160002060008201518160000160006101000a81548173ffffffffffffffffffffffffffffffffffffffff021916908373ffffffffffffffffffffffffffffffffffffffff16021790555060208201518160010190816107ff919061196e565b5060408201518160020155606082015181600301556080820151816004015560a0820151816005015560c08201518160060160006101000a81548160ff0219169083151502179055509050506002600081548092919061085e9061161c565b91905055505050565b60006060600080600080600080600160008a73ffffffffffffffffffffffffffffffffffffffff1673ffffffffffffffffffffffffffffffffffffffff1681526020019081526020016000206040518060e00160405290816000820160009054906101000a900473ffffffffffffffffffffffffffffffffffffffff1673ffffffffffffffffffffffffffffffffffffffff1673ffffffffffffffffffffffffffffffffffffffff16815260200160018201805461092490611791565b80601f016020809104026020016040519081016040528092919081815260200182805461095090611791565b801561099d5780601f106109725761010080835404028352916020019161099d565b820191906000526020600020905b81548152906001019060200180831161098057829003601f168201915b50505050508152602001600282015481526020016003820154815260200160048201548152602001600582015481526020016006820160009054906101000a900460ff1615151515815250509050806000015181602001518260400151836060015184608001518560a001518660c00151975097509750975097509750975050919395979092949650565b610a30610ea7565b610a3a6000610f25565b565b60008060009054906101000a900473ffffffffffffffffffffffffffffffffffffffff16905090565b60016020528060005260406000206000915090508060000160009054906101000a900473ffffffffffffffffffffffffffffffffffffffff1690806001018054610aae90611791565b80601f0160208091040260200160405190810160405280929190818152602001828054610ada90611791565b8015610b275780601f10610afc57610100808354040283529160200191610b27565b820191906000526020600020905b815481529060010190602001808311610b0a57829003601f168201915b5050505050908060020154908060030154908060040154908060050154908060060160009054906101000a900460ff16905087565b6000808215610cba576000600160008673ffffffffffffffffffffffffffffffffffffffff1673ffffffffffffffffffffffffffffffffffffffff1681526020019081526020016000206003015403610bea576040517f08c379a0000000000000000000000000000000000000000000000000000000008152600401610be190611ab2565b60405180910390fd5b6000600160008673ffffffffffffffffffffffffffffffffffffffff1673ffffffffffffffffffffffffffffffffffffffff168152602001908152602001600020600301546064600160008873ffffffffffffffffffffffffffffffffffffffff1673ffffffffffffffffffffffffffffffffffffffff16815260200190815260200160002060020154610c7e9190611ad2565b610c889190611b43565b90506000606482610c999190611b43565b90506000606483610caa9190611b74565b9050818194509450505050610e0b565b6000600160008673ffffffffffffffffffffffffffffffffffffffff1673ffffffffffffffffffffffffffffffffffffffff1681526020019081526020016000206005015403610d3f576040517f08c379a0000000000000000000000000000000000000000000000000000000008152600401610d3690611c17565b60405180910390fd5b6000600160008673ffffffffffffffffffffffffffffffffffffffff1673ffffffffffffffffffffffffffffffffffffffff168152602001908152602001600020600501546064600160008873ffffffffffffffffffffffffffffffffffffffff1673ffffffffffffffffffffffffffffffffffffffff16815260200190815260200160002060040154610dd39190611ad2565b610ddd9190611b43565b90506000606482610dee9190611b43565b90506000606483610dff9190611b74565b90508181945094505050505b9250929050565b610e1a610ea7565b600073ffffffffffffffffffffffffffffffffffffffff168173ffffffffffffffffffffffffffffffffffffffff1603610e89576040517f08c379a0000000000000000000000000000000000000000000000000000000008152600401610e8090611ca9565b60405180910390fd5b610e9281610f25565b50565b610e9d610ea7565b8060028190555050565b610eaf610fe9565b73ffffffffffffffffffffffffffffffffffffffff16610ecd610a3c565b73ffffffffffffffffffffffffffffffffffffffff1614610f23576040517f08c379a0000000000000000000000000000000000000000000000000000000008152600401610f1a90611d15565b60405180910390fd5b565b60008060009054906101000a900473ffffffffffffffffffffffffffffffffffffffff169050816000806101000a81548173ffffffffffffffffffffffffffffffffffffffff021916908373ffffffffffffffffffffffffffffffffffffffff1602179055508173ffffffffffffffffffffffffffffffffffffffff168173ffffffffffffffffffffffffffffffffffffffff167f8be0079c531659141344cd1fd0a4f28419497f9722a3daafe3b4186f6b6457e060405160405180910390a35050565b600033905090565b6000819050919050565b61100481610ff1565b82525050565b600060208201905061101f6000830184610ffb565b92915050565b6000604051905090565b600080fd5b600080fd5b600073ffffffffffffffffffffffffffffffffffffffff82169050919050565b600061106482611039565b9050919050565b61107481611059565b811461107f57600080fd5b50565b6000813590506110918161106b565b92915050565b6000602082840312156110ad576110ac61102f565b5b60006110bb84828501611082565b91505092915050565b6110cd81610ff1565b81146110d857600080fd5b50565b6000813590506110ea816110c4565b92915050565b60008115159050919050565b611105816110f0565b811461111057600080fd5b50565b600081359050611122816110fc565b92915050565b6000806000606084860312156111415761114061102f565b5b600061114f86828701611082565b9350506020611160868287016110db565b925050604061117186828701611113565b9150509250925092565b600080fd5b600080fd5b6000601f19601f8301169050919050565b7f4e487b7100000000000000000000000000000000000000000000000000000000600052604160045260246000fd5b6111ce82611185565b810181811067ffffffffffffffff821117156111ed576111ec611196565b5b80604052505050565b6000611200611025565b905061120c82826111c5565b919050565b600067ffffffffffffffff82111561122c5761122b611196565b5b61123582611185565b9050602081019050919050565b82818337600083830152505050565b600061126461125f84611211565b6111f6565b9050828152602081018484840111156112805761127f611180565b5b61128b848285611242565b509392505050565b600082601f8301126112a8576112a761117b565b5b81356112b8848260208601611251565b91505092915050565b600080604083850312156112d8576112d761102f565b5b60006112e685828601611082565b925050602083013567ffffffffffffffff81111561130757611306611034565b5b61131385828601611293565b9150509250929050565b61132681611059565b82525050565b600081519050919050565b600082825260208201905092915050565b60005b8381101561136657808201518184015260208101905061134b565b60008484015250505050565b600061137d8261132c565b6113878185611337565b9350611397818560208601611348565b6113a081611185565b840191505092915050565b6113b4816110f0565b82525050565b600060e0820190506113cf600083018a61131d565b81810360208301526113e18189611372565b90506113f06040830188610ffb565b6113fd6060830187610ffb565b61140a6080830186610ffb565b61141760a0830185610ffb565b61142460c08301846113ab565b98975050505050505050565b6000602082019050611445600083018461131d565b92915050565b600080604083850312156114625761146161102f565b5b600061147085828601611082565b925050602061148185828601611113565b9150509250929050565b60006040820190506114a06000830185610ffb565b6114ad6020830184610ffb565b9392505050565b6000602082840312156114ca576114c961102f565b5b60006114d8848285016110db565b91505092915050565b7f5573657220646f65736e27742065786973740000000000000000000000000000600082015250565b6000611517601283611337565b9150611522826114e1565b602082019050919050565b600060208201905081810360008301526115468161150a565b9050919050565b7f526174696e672073686f756c64206265206265747765656e203120616e642035600082015250565b6000611583602083611337565b915061158e8261154d565b602082019050919050565b600060208201905081810360008301526115b281611576565b9050919050565b7f4e487b7100000000000000000000000000000000000000000000000000000000600052601160045260246000fd5b60006115f382610ff1565b91506115fe83610ff1565b9250828201905080821115611616576116156115b9565b5b92915050565b600061162782610ff1565b91507fffffffffffffffffffffffffffffffffffffffffffffffffffffffffffffffff8203611659576116586115b9565b5b600182019050919050565b7f5573657220616c72656164792065786973747300000000000000000000000000600082015250565b600061169a601383611337565b91506116a582611664565b602082019050919050565b600060208201905081810360008301526116c98161168d565b9050919050565b7f55736572206e616d652063616e6e6f7420626520616e20656d7074792073747260008201527f696e670000000000000000000000000000000000000000000000000000000000602082015250565b600061172c602383611337565b9150611737826116d0565b604082019050919050565b6000602082019050818103600083015261175b8161171f565b9050919050565b7f4e487b7100000000000000000000000000000000000000000000000000000000600052602260045260246000fd5b600060028204905060018216806117a957607f821691505b6020821081036117bc576117bb611762565b5b50919050565b60008190508160005260206000209050919050565b60006020601f8301049050919050565b600082821b905092915050565b6000600883026118247fffffffffffffffffffffffffffffffffffffffffffffffffffffffffffffffff826117e7565b61182e86836117e7565b95508019841693508086168417925050509392505050565b6000819050919050565b600061186b61186661186184610ff1565b611846565b610ff1565b9050919050565b6000819050919050565b61188583611850565b61189961189182611872565b8484546117f4565b825550505050565b600090565b6118ae6118a1565b6118b981848461187c565b505050565b5b818110156118dd576118d26000826118a6565b6001810190506118bf565b5050565b601f821115611922576118f3816117c2565b6118fc846117d7565b8101602085101561190b578190505b61191f611917856117d7565b8301826118be565b50505b505050565b600082821c905092915050565b600061194560001984600802611927565b1980831691505092915050565b600061195e8383611934565b9150826002028217905092915050565b6119778261132c565b67ffffffffffffffff8111156119905761198f611196565b5b61199a8254611791565b6119a58282856118e1565b600060209050601f8311600181146119d857600084156119c6578287015190505b6119d08582611952565b865550611a38565b601f1984166119e6866117c2565b60005b82811015611a0e578489015182556001820191506020850194506020810190506119e9565b86831015611a2b5784890151611a27601f891682611934565b8355505b6001600288020188555050505b505050505050565b7f4e6f2070726f76696465727320726174696e67732079657420666f722074686560008201527f2075736572000000000000000000000000000000000000000000000000000000602082015250565b6000611a9c602583611337565b9150611aa782611a40565b604082019050919050565b60006020820190508181036000830152611acb81611a8f565b9050919050565b6000611add82610ff1565b9150611ae883610ff1565b9250828202611af681610ff1565b91508282048414831517611b0d57611b0c6115b9565b5b5092915050565b7f4e487b7100000000000000000000000000000000000000000000000000000000600052601260045260246000fd5b6000611b4e82610ff1565b9150611b5983610ff1565b925082611b6957611b68611b14565b5b828204905092915050565b6000611b7f82610ff1565b9150611b8a83610ff1565b925082611b9a57611b99611b14565b5b828206905092915050565b7f4e6f20636c69656e747320726174696e67732079657420666f7220746865207560008201527f7365720000000000000000000000000000000000000000000000000000000000602082015250565b6000611c01602383611337565b9150611c0c82611ba5565b604082019050919050565b60006020820190508181036000830152611c3081611bf4565b9050919050565b7f4f776e61626c653a206e6577206f776e657220697320746865207a65726f206160008201527f6464726573730000000000000000000000000000000000000000000000000000602082015250565b6000611c93602683611337565b9150611c9e82611c37565b604082019050919050565b60006020820190508181036000830152611cc281611c86565b9050919050565b7f4f776e61626c653a2063616c6c6572206973206e6f7420746865206f776e6572600082015250565b6000611cff602083611337565b9150611d0a82611cc9565b602082019050919050565b60006020820190508181036000830152611d2e81611cf2565b905091905056fea2646970667358221220b9797e6c785ffd376b0b3e347afe3da5274b3cf3903f7f37f7af87a8110805bb64736f6c63430008130033",
  "linkReferences": {},
  "deployedLinkReferences": {}
}