{
  "_format": "hh-sol-artifact-1",
  "contractName": "ServiceContract",
  "sourceName": "contracts/ServiceContract.sol",
  "abi": [
    {
      "inputs": [
        {
          "internalType": "address",
          "name": "_userContract",
          "type": "address"
        }
      ],
      "stateMutability": "nonpayable",
      "type": "constructor"
    },
    {
      "anonymous": false,
      "inputs": [
        {
          "indexed": true,
          "internalType": "address",
          "name": "previousOwner",
          "type": "address"
        },
        {
          "indexed": true,
          "internalType": "address",
          "name": "newOwner",
          "type": "address"
        }
      ],
      "name": "OwnershipTransferred",
      "type": "event"
    },
    {
      "inputs": [
        {
          "internalType": "address",
          "name": "",
          "type": "address"
        }
      ],
      "name": "claim",
      "outputs": [
        {
          "internalType": "uint256",
          "name": "",
          "type": "uint256"
        }
      ],
      "stateMutability": "view",
      "type": "function"
    },
    {
      "inputs": [
        {
          "internalType": "uint256",
          "name": "_serviceId",
          "type": "uint256"
        },
        {
          "internalType": "uint256",
          "name": "_rating",
          "type": "uint256"
        }
      ],
      "name": "completeService",
      "outputs": [],
      "stateMutability": "nonpayable",
      "type": "function"
    },
    {
      "inputs": [
        {
          "internalType": "uint256",
          "name": "_serviceId",
          "type": "uint256"
        },
        {
          "internalType": "uint256",
          "name": "_rating",
          "type": "uint256"
        }
      ],
      "name": "confirmService",
      "outputs": [],
      "stateMutability": "nonpayable",
      "type": "function"
    },
    {
      "inputs": [
        {
          "internalType": "string",
          "name": "_serviceType",
          "type": "string"
        },
        {
          "internalType": "uint256",
          "name": "_cost",
          "type": "uint256"
        },
        {
          "internalType": "uint256",
          "name": "duration",
          "type": "uint256"
        }
      ],
      "name": "createService",
      "outputs": [],
      "stateMutability": "nonpayable",
      "type": "function"
    },
    {
      "inputs": [
        {
          "internalType": "address",
          "name": "_userAddress",
          "type": "address"
        },
        {
          "internalType": "bool",
          "name": "_type",
          "type": "bool"
        }
      ],
      "name": "getAverageRating",
      "outputs": [
        {
          "internalType": "uint256",
          "name": "",
          "type": "uint256"
        },
        {
          "internalType": "uint256",
          "name": "",
          "type": "uint256"
        }
      ],
      "stateMutability": "view",
      "type": "function"
    },
    {
      "inputs": [
        {
          "internalType": "uint256",
          "name": "_listingId",
          "type": "uint256"
        }
      ],
      "name": "getListing",
      "outputs": [
        {
          "internalType": "address",
          "name": "",
          "type": "address"
        },
        {
          "internalType": "string",
          "name": "",
          "type": "string"
        },
        {
          "internalType": "uint256",
          "name": "",
          "type": "uint256"
        },
        {
          "internalType": "uint256",
          "name": "",
          "type": "uint256"
        }
      ],
      "stateMutability": "view",
      "type": "function"
    },
    {
      "inputs": [
        {
          "internalType": "uint256",
          "name": "_serviceId",
          "type": "uint256"
        }
      ],
      "name": "getService",
      "outputs": [
        {
          "internalType": "address",
          "name": "",
          "type": "address"
        },
        {
          "internalType": "address",
          "name": "",
          "type": "address"
        },
        {
          "internalType": "string",
          "name": "",
          "type": "string"
        },
        {
          "internalType": "uint256",
          "name": "",
          "type": "uint256"
        },
        {
          "internalType": "enum ServiceContract.ServiceStatus",
          "name": "",
          "type": "uint8"
        },
        {
          "internalType": "uint256",
          "name": "",
          "type": "uint256"
        }
      ],
      "stateMutability": "view",
      "type": "function"
    },
    {
      "inputs": [
        {
          "internalType": "address",
          "name": "_userAddress",
          "type": "address"
        }
      ],
      "name": "getUser",
      "outputs": [
        {
          "internalType": "address",
          "name": "",
          "type": "address"
        },
        {
          "internalType": "string",
          "name": "",
          "type": "string"
        },
        {
          "internalType": "uint256",
          "name": "",
          "type": "uint256"
        },
        {
          "internalType": "uint256",
          "name": "",
          "type": "uint256"
        },
        {
          "internalType": "uint256",
          "name": "",
          "type": "uint256"
        },
        {
          "internalType": "uint256",
          "name": "",
          "type": "uint256"
        },
        {
          "internalType": "bool",
          "name": "",
          "type": "bool"
        }
      ],
      "stateMutability": "nonpayable",
      "type": "function"
    },
    {
      "inputs": [],
      "name": "listingCount",
      "outputs": [
        {
          "internalType": "uint256",
          "name": "",
          "type": "uint256"
        }
      ],
      "stateMutability": "view",
      "type": "function"
    },
    {
      "inputs": [
        {
          "internalType": "uint256",
          "name": "",
          "type": "uint256"
        }
      ],
      "name": "listings",
      "outputs": [
        {
          "internalType": "address payable",
          "name": "provider",
          "type": "address"
        },
        {
          "internalType": "string",
          "name": "serviceType",
          "type": "string"
        },
        {
          "internalType": "uint256",
          "name": "cost",
          "type": "uint256"
        },
        {
          "internalType": "uint256",
          "name": "duration",
          "type": "uint256"
        }
      ],
      "stateMutability": "view",
      "type": "function"
    },
    {
      "inputs": [],
      "name": "owner",
      "outputs": [
        {
          "internalType": "address",
          "name": "",
          "type": "address"
        }
      ],
      "stateMutability": "view",
      "type": "function"
    },
    {
      "inputs": [
        {
          "internalType": "string",
          "name": "_username",
          "type": "string"
        }
      ],
      "name": "registerUser",
      "outputs": [],
      "stateMutability": "nonpayable",
      "type": "function"
    },
    {
      "inputs": [],
      "name": "renounceOwnership",
      "outputs": [],
      "stateMutability": "nonpayable",
      "type": "function"
    },
    {
      "inputs": [],
      "name": "serviceCount",
      "outputs": [
        {
          "internalType": "uint256",
          "name": "",
          "type": "uint256"
        }
      ],
      "stateMutability": "view",
      "type": "function"
    },
    {
      "inputs": [
        {
          "internalType": "uint256",
          "name": "",
          "type": "uint256"
        }
      ],
      "name": "services",
      "outputs": [
        {
          "internalType": "uint256",
          "name": "listingId",
          "type": "uint256"
        },
        {
          "internalType": "address payable",
          "name": "provider",
          "type": "address"
        },
        {
          "internalType": "address payable",
          "name": "client",
          "type": "address"
        },
        {
          "internalType": "string",
          "name": "serviceType",
          "type": "string"
        },
        {
          "internalType": "uint256",
          "name": "cost",
          "type": "uint256"
        },
        {
          "internalType": "enum ServiceContract.ServiceStatus",
          "name": "status",
          "type": "uint8"
        },
        {
          "internalType": "uint256",
          "name": "deadline",
          "type": "uint256"
        }
      ],
      "stateMutability": "view",
      "type": "function"
    },
    {
      "inputs": [
        {
          "internalType": "uint256",
          "name": "_listingId",
          "type": "uint256"
        },
        {
          "internalType": "uint256",
          "name": "_deadline",
          "type": "uint256"
        }
      ],
      "name": "startService",
      "outputs": [],
      "stateMutability": "payable",
      "type": "function"
    },
    {
      "inputs": [
        {
          "internalType": "address",
          "name": "newOwner",
          "type": "address"
        }
      ],
      "name": "transferOwnership",
      "outputs": [],
      "stateMutability": "nonpayable",
      "type": "function"
    }
  ],
  "bytecode": "0x60806040523480156200001157600080fd5b5060405162002ea138038062002ea18339818101604052810190620000379190620001d5565b620000576200004b6200009f60201b60201c565b620000a760201b60201c565b80600160006101000a81548173ffffffffffffffffffffffffffffffffffffffff021916908373ffffffffffffffffffffffffffffffffffffffff1602179055505062000207565b600033905090565b60008060009054906101000a900473ffffffffffffffffffffffffffffffffffffffff169050816000806101000a81548173ffffffffffffffffffffffffffffffffffffffff021916908373ffffffffffffffffffffffffffffffffffffffff1602179055508173ffffffffffffffffffffffffffffffffffffffff168173ffffffffffffffffffffffffffffffffffffffff167f8be0079c531659141344cd1fd0a4f28419497f9722a3daafe3b4186f6b6457e060405160405180910390a35050565b600080fd5b600073ffffffffffffffffffffffffffffffffffffffff82169050919050565b60006200019d8262000170565b9050919050565b620001af8162000190565b8114620001bb57600080fd5b50565b600081519050620001cf81620001a4565b92915050565b600060208284031215620001ee57620001ed6200016b565b5b6000620001fe84828501620001be565b91505092915050565b612c8a80620002176000396000f3fe6080604052600436106100fe5760003560e01c80638da5cb5b11610095578063ce69cf5911610064578063ce69cf5914610335578063de74e57b1461035e578063e745f8ba1461039e578063ef0e239b146103dc578063f2fde38b1461041e576100fe565b80638da5cb5b14610273578063a9b07c261461029e578063c22c4f43146102c9578063c89bdd8d1461030c576100fe565b806355778b31116100d157806355778b31146101d45780636f77926b146101f0578063704f1b9414610233578063715018a61461025c576100fe565b80630623752614610103578063107a274a1461012e578063186166fe1461016e5780631e83409a14610197575b600080fd5b34801561010f57600080fd5b50610118610447565b6040516101259190611a87565b60405180910390f35b34801561013a57600080fd5b5061015560048036038101906101509190611ae2565b61044d565b6040516101659493929190611be0565b60405180910390f35b34801561017a57600080fd5b5061019560048036038101906101909190611d61565b610596565b005b3480156101a357600080fd5b506101be60048036038101906101b99190611dfc565b6107a8565b6040516101cb9190611a87565b60405180910390f35b6101ee60048036038101906101e99190611e29565b6107c0565b005b3480156101fc57600080fd5b5061021760048036038101906102129190611dfc565b610d08565b60405161022a9796959493929190611e84565b60405180910390f35b34801561023f57600080fd5b5061025a60048036038101906102559190611efa565b610dd0565b005b34801561026857600080fd5b50610271610e62565b005b34801561027f57600080fd5b50610288610e76565b6040516102959190611f43565b60405180910390f35b3480156102aa57600080fd5b506102b3610e9f565b6040516102c09190611a87565b60405180910390f35b3480156102d557600080fd5b506102f060048036038101906102eb9190611ae2565b610ea5565b6040516103039796959493929190611ff6565b60405180910390f35b34801561031857600080fd5b50610333600480360381019061032e9190611e29565b610fbc565b005b34801561034157600080fd5b5061035c60048036038101906103579190611e29565b6111c5565b005b34801561036a57600080fd5b5061038560048036038101906103809190611ae2565b6114ad565b604051610395949392919061206c565b60405180910390f35b3480156103aa57600080fd5b506103c560048036038101906103c091906120e4565b611585565b6040516103d3929190612124565b60405180910390f35b3480156103e857600080fd5b5061040360048036038101906103fe9190611ae2565b611630565b6040516104159695949392919061214d565b60405180910390f35b34801561042a57600080fd5b5061044560048036038101906104409190611dfc565b611826565b005b60065481565b600060606000806000600260008781526020019081526020016000206040518060800160405290816000820160009054906101000a900473ffffffffffffffffffffffffffffffffffffffff1673ffffffffffffffffffffffffffffffffffffffff1673ffffffffffffffffffffffffffffffffffffffff1681526020016001820180546104da906121e4565b80601f0160208091040260200160405190810160405280929190818152602001828054610506906121e4565b80156105535780601f1061052857610100808354040283529160200191610553565b820191906000526020600020905b81548152906001019060200180831161053657829003601f168201915b5050505050815260200160028201548152602001600382015481525050905080600001518160200151826040015183606001519450945094509450509193509193565b6000600160009054906101000a900473ffffffffffffffffffffffffffffffffffffffff1673ffffffffffffffffffffffffffffffffffffffff16636f77926b336040518263ffffffff1660e01b81526004016105f39190611f43565b6000604051808303816000875af1158015610612573d6000803e3d6000fd5b505050506040513d6000823e3d601f19601f8201168201806040525081019061063b91906122c4565b50505050509150506000815111610687576040517f08c379a000000000000000000000000000000000000000000000000000000000815260040161067e906123ce565b60405180910390fd5b600083116106ca576040517f08c379a00000000000000000000000000000000000000000000000000000000081526004016106c19061243a565b60405180910390fd5b60405180608001604052803373ffffffffffffffffffffffffffffffffffffffff1681526020018581526020018481526020018381525060026000600554815260200190815260200160002060008201518160000160006101000a81548173ffffffffffffffffffffffffffffffffffffffff021916908373ffffffffffffffffffffffffffffffffffffffff16021790555060208201518160010190816107729190612606565b5060408201518160020155606082015181600301559050506005600081548092919061079d90612707565b919050555050505050565b60046020528060005260406000206000915090505481565b6000600260008481526020019081526020016000206040518060800160405290816000820160009054906101000a900473ffffffffffffffffffffffffffffffffffffffff1673ffffffffffffffffffffffffffffffffffffffff1673ffffffffffffffffffffffffffffffffffffffff168152602001600182018054610846906121e4565b80601f0160208091040260200160405190810160405280929190818152602001828054610872906121e4565b80156108bf5780601f10610894576101008083540402835291602001916108bf565b820191906000526020600020905b8154815290600101906020018083116108a257829003601f168201915b505050505081526020016002820154815260200160038201548152505090506000816040015111610925576040517f08c379a000000000000000000000000000000000000000000000000000000000815260040161091c9061279b565b60405180910390fd5b3481604001511461096b576040517f08c379a000000000000000000000000000000000000000000000000000000000815260040161096290612807565b60405180910390fd5b81816060015111156109b2576040517f08c379a00000000000000000000000000000000000000000000000000000000081526004016109a990612899565b60405180910390fd5b6000600160009054906101000a900473ffffffffffffffffffffffffffffffffffffffff1673ffffffffffffffffffffffffffffffffffffffff16636f77926b336040518263ffffffff1660e01b8152600401610a0f9190611f43565b6000604051808303816000875af1158015610a2e573d6000803e3d6000fd5b505050506040513d6000823e3d601f19601f82011682018060405250810190610a5791906122c4565b50505050509150506000815111610aa3576040517f08c379a0000000000000000000000000000000000000000000000000000000008152600401610a9a906123ce565b60405180910390fd5b610aab6119f3565b8260000151816020019073ffffffffffffffffffffffffffffffffffffffff16908173ffffffffffffffffffffffffffffffffffffffff168152505033816040019073ffffffffffffffffffffffffffffffffffffffff16908173ffffffffffffffffffffffffffffffffffffffff168152505082602001518160600181905250826040015181608001818152505060008160a001906001811115610b5357610b52611f7f565b5b90816001811115610b6757610b66611f7f565b5b815250508342610b7791906128b9565b8160c0018181525050806003600060065481526020019081526020016000206000820151816000015560208201518160010160006101000a81548173ffffffffffffffffffffffffffffffffffffffff021916908373ffffffffffffffffffffffffffffffffffffffff16021790555060408201518160020160006101000a81548173ffffffffffffffffffffffffffffffffffffffff021916908373ffffffffffffffffffffffffffffffffffffffff1602179055506060820151816003019081610c439190612606565b506080820151816004015560a08201518160050160006101000a81548160ff02191690836001811115610c7957610c78611f7f565b5b021790555060c08201518160060155905050826040015160046000856000015173ffffffffffffffffffffffffffffffffffffffff1673ffffffffffffffffffffffffffffffffffffffff1681526020019081526020016000206000828254610ce291906128b9565b9250508190555060066000815480929190610cfc90612707565b91905055505050505050565b600060606000806000806000600160009054906101000a900473ffffffffffffffffffffffffffffffffffffffff1673ffffffffffffffffffffffffffffffffffffffff16636f77926b896040518263ffffffff1660e01b8152600401610d6f9190611f43565b6000604051808303816000875af1158015610d8e573d6000803e3d6000fd5b505050506040513d6000823e3d601f19601f82011682018060405250810190610db791906122c4565b9650965096509650965096509650919395979092949650565b600160009054906101000a900473ffffffffffffffffffffffffffffffffffffffff1673ffffffffffffffffffffffffffffffffffffffff1663864a0d0a82336040518363ffffffff1660e01b8152600401610e2d9291906128ed565b600060405180830381600087803b158015610e4757600080fd5b505af1158015610e5b573d6000803e3d6000fd5b5050505050565b610e6a6118a9565b610e746000611927565b565b60008060009054906101000a900473ffffffffffffffffffffffffffffffffffffffff16905090565b60055481565b60036020528060005260406000206000915090508060000154908060010160009054906101000a900473ffffffffffffffffffffffffffffffffffffffff16908060020160009054906101000a900473ffffffffffffffffffffffffffffffffffffffff1690806003018054610f1a906121e4565b80601f0160208091040260200160405190810160405280929190818152602001828054610f46906121e4565b8015610f935780601f10610f6857610100808354040283529160200191610f93565b820191906000526020600020905b815481529060010190602001808311610f7657829003601f168201915b5050505050908060040154908060050160009054906101000a900460ff16908060060154905087565b60006003600084815260200190815260200160002090503373ffffffffffffffffffffffffffffffffffffffff168160020160009054906101000a900473ffffffffffffffffffffffffffffffffffffffff1673ffffffffffffffffffffffffffffffffffffffff1614611065576040517f08c379a000000000000000000000000000000000000000000000000000000000815260040161105c90612969565b60405180910390fd5b6000600181111561107957611078611f7f565b5b8160050160009054906101000a900460ff16600181111561109d5761109c611f7f565b5b146110dd576040517f08c379a00000000000000000000000000000000000000000000000000000000081526004016110d4906129d5565b60405180910390fd5b60018160050160006101000a81548160ff0219169083600181111561110557611104611f7f565b5b0217905550600160009054906101000a900473ffffffffffffffffffffffffffffffffffffffff1673ffffffffffffffffffffffffffffffffffffffff166321b1d57b8260010160009054906101000a900473ffffffffffffffffffffffffffffffffffffffff168460016040518463ffffffff1660e01b815260040161118e93929190612a4a565b600060405180830381600087803b1580156111a857600080fd5b505af11580156111bc573d6000803e3d6000fd5b50505050505050565b60006003600084815260200190815260200160002090503373ffffffffffffffffffffffffffffffffffffffff168160010160009054906101000a900473ffffffffffffffffffffffffffffffffffffffff1673ffffffffffffffffffffffffffffffffffffffff161461126e576040517f08c379a000000000000000000000000000000000000000000000000000000000815260040161126590612969565b60405180910390fd5b60018081111561128157611280611f7f565b5b8160050160009054906101000a900460ff1660018111156112a5576112a4611f7f565b5b14806112b5575042816006015410155b6112f4576040517f08c379a00000000000000000000000000000000000000000000000000000000081526004016112eb90612acd565b60405180910390fd5b60018160050160006101000a81548160ff0219169083600181111561131c5761131b611f7f565b5b02179055506000600460003373ffffffffffffffffffffffffffffffffffffffff1673ffffffffffffffffffffffffffffffffffffffff1681526020019081526020016000205490506000600460003373ffffffffffffffffffffffffffffffffffffffff1673ffffffffffffffffffffffffffffffffffffffff16815260200190815260200160002081905550600160009054906101000a900473ffffffffffffffffffffffffffffffffffffffff1673ffffffffffffffffffffffffffffffffffffffff166321b1d57b8360020160009054906101000a900473ffffffffffffffffffffffffffffffffffffffff168560006040518463ffffffff1660e01b815260040161142e93929190612a4a565b600060405180830381600087803b15801561144857600080fd5b505af115801561145c573d6000803e3d6000fd5b505050503373ffffffffffffffffffffffffffffffffffffffff166108fc829081150290604051600060405180830381858888f193505050501580156114a6573d6000803e3d6000fd5b5050505050565b60026020528060005260406000206000915090508060000160009054906101000a900473ffffffffffffffffffffffffffffffffffffffff16908060010180546114f6906121e4565b80601f0160208091040260200160405190810160405280929190818152602001828054611522906121e4565b801561156f5780601f106115445761010080835404028352916020019161156f565b820191906000526020600020905b81548152906001019060200180831161155257829003601f168201915b5050505050908060020154908060030154905084565b600080600160009054906101000a900473ffffffffffffffffffffffffffffffffffffffff1673ffffffffffffffffffffffffffffffffffffffff1663e745f8ba85856040518363ffffffff1660e01b81526004016115e5929190612aed565b6040805180830381865afa158015611601573d6000803e3d6000fd5b505050506040513d601f19601f820116820180604052508101906116259190612b16565b915091509250929050565b6000806060600080600080600360008981526020019081526020016000206040518060e0016040529081600082015481526020016001820160009054906101000a900473ffffffffffffffffffffffffffffffffffffffff1673ffffffffffffffffffffffffffffffffffffffff1673ffffffffffffffffffffffffffffffffffffffff1681526020016002820160009054906101000a900473ffffffffffffffffffffffffffffffffffffffff1673ffffffffffffffffffffffffffffffffffffffff1673ffffffffffffffffffffffffffffffffffffffff16815260200160038201805461171f906121e4565b80601f016020809104026020016040519081016040528092919081815260200182805461174b906121e4565b80156117985780601f1061176d57610100808354040283529160200191611798565b820191906000526020600020905b81548152906001019060200180831161177b57829003601f168201915b50505050508152602001600482015481526020016005820160009054906101000a900460ff1660018111156117d0576117cf611f7f565b5b60018111156117e2576117e1611f7f565b5b8152602001600682015481525050905080602001518160400151826060015183608001518460a001518560c001519650965096509650965096505091939550919395565b61182e6118a9565b600073ffffffffffffffffffffffffffffffffffffffff168173ffffffffffffffffffffffffffffffffffffffff160361189d576040517f08c379a000000000000000000000000000000000000000000000000000000000815260040161189490612bc8565b60405180910390fd5b6118a681611927565b50565b6118b16119eb565b73ffffffffffffffffffffffffffffffffffffffff166118cf610e76565b73ffffffffffffffffffffffffffffffffffffffff1614611925576040517f08c379a000000000000000000000000000000000000000000000000000000000815260040161191c90612c34565b60405180910390fd5b565b60008060009054906101000a900473ffffffffffffffffffffffffffffffffffffffff169050816000806101000a81548173ffffffffffffffffffffffffffffffffffffffff021916908373ffffffffffffffffffffffffffffffffffffffff1602179055508173ffffffffffffffffffffffffffffffffffffffff168173ffffffffffffffffffffffffffffffffffffffff167f8be0079c531659141344cd1fd0a4f28419497f9722a3daafe3b4186f6b6457e060405160405180910390a35050565b600033905090565b6040518060e0016040528060008152602001600073ffffffffffffffffffffffffffffffffffffffff168152602001600073ffffffffffffffffffffffffffffffffffffffff168152602001606081526020016000815260200160006001811115611a6157611a60611f7f565b5b8152602001600081525090565b6000819050919050565b611a8181611a6e565b82525050565b6000602082019050611a9c6000830184611a78565b92915050565b6000604051905090565b600080fd5b600080fd5b611abf81611a6e565b8114611aca57600080fd5b50565b600081359050611adc81611ab6565b92915050565b600060208284031215611af857611af7611aac565b5b6000611b0684828501611acd565b91505092915050565b600073ffffffffffffffffffffffffffffffffffffffff82169050919050565b6000611b3a82611b0f565b9050919050565b611b4a81611b2f565b82525050565b600081519050919050565b600082825260208201905092915050565b60005b83811015611b8a578082015181840152602081019050611b6f565b60008484015250505050565b6000601f19601f8301169050919050565b6000611bb282611b50565b611bbc8185611b5b565b9350611bcc818560208601611b6c565b611bd581611b96565b840191505092915050565b6000608082019050611bf56000830187611b41565b8181036020830152611c078186611ba7565b9050611c166040830185611a78565b611c236060830184611a78565b95945050505050565b600080fd5b600080fd5b7f4e487b7100000000000000000000000000000000000000000000000000000000600052604160045260246000fd5b611c6e82611b96565b810181811067ffffffffffffffff82111715611c8d57611c8c611c36565b5b80604052505050565b6000611ca0611aa2565b9050611cac8282611c65565b919050565b600067ffffffffffffffff821115611ccc57611ccb611c36565b5b611cd582611b96565b9050602081019050919050565b82818337600083830152505050565b6000611d04611cff84611cb1565b611c96565b905082815260208101848484011115611d2057611d1f611c31565b5b611d2b848285611ce2565b509392505050565b600082601f830112611d4857611d47611c2c565b5b8135611d58848260208601611cf1565b91505092915050565b600080600060608486031215611d7a57611d79611aac565b5b600084013567ffffffffffffffff811115611d9857611d97611ab1565b5b611da486828701611d33565b9350506020611db586828701611acd565b9250506040611dc686828701611acd565b9150509250925092565b611dd981611b2f565b8114611de457600080fd5b50565b600081359050611df681611dd0565b92915050565b600060208284031215611e1257611e11611aac565b5b6000611e2084828501611de7565b91505092915050565b60008060408385031215611e4057611e3f611aac565b5b6000611e4e85828601611acd565b9250506020611e5f85828601611acd565b9150509250929050565b60008115159050919050565b611e7e81611e69565b82525050565b600060e082019050611e99600083018a611b41565b8181036020830152611eab8189611ba7565b9050611eba6040830188611a78565b611ec76060830187611a78565b611ed46080830186611a78565b611ee160a0830185611a78565b611eee60c0830184611e75565b98975050505050505050565b600060208284031215611f1057611f0f611aac565b5b600082013567ffffffffffffffff811115611f2e57611f2d611ab1565b5b611f3a84828501611d33565b91505092915050565b6000602082019050611f586000830184611b41565b92915050565b6000611f6982611b0f565b9050919050565b611f7981611f5e565b82525050565b7f4e487b7100000000000000000000000000000000000000000000000000000000600052602160045260246000fd5b60028110611fbf57611fbe611f7f565b5b50565b6000819050611fd082611fae565b919050565b6000611fe082611fc2565b9050919050565b611ff081611fd5565b82525050565b600060e08201905061200b600083018a611a78565b6120186020830189611f70565b6120256040830188611f70565b81810360608301526120378187611ba7565b90506120466080830186611a78565b61205360a0830185611fe7565b61206060c0830184611a78565b98975050505050505050565b60006080820190506120816000830187611f70565b81810360208301526120938186611ba7565b90506120a26040830185611a78565b6120af6060830184611a78565b95945050505050565b6120c181611e69565b81146120cc57600080fd5b50565b6000813590506120de816120b8565b92915050565b600080604083850312156120fb576120fa611aac565b5b600061210985828601611de7565b925050602061211a858286016120cf565b9150509250929050565b60006040820190506121396000830185611a78565b6121466020830184611a78565b9392505050565b600060c0820190506121626000830189611b41565b61216f6020830188611b41565b81810360408301526121818187611ba7565b90506121906060830186611a78565b61219d6080830185611fe7565b6121aa60a0830184611a78565b979650505050505050565b7f4e487b7100000000000000000000000000000000000000000000000000000000600052602260045260246000fd5b600060028204905060018216806121fc57607f821691505b60208210810361220f5761220e6121b5565b5b50919050565b60008151905061222481611dd0565b92915050565b600061223d61223884611cb1565b611c96565b90508281526020810184848401111561225957612258611c31565b5b612264848285611b6c565b509392505050565b600082601f83011261228157612280611c2c565b5b815161229184826020860161222a565b91505092915050565b6000815190506122a981611ab6565b92915050565b6000815190506122be816120b8565b92915050565b600080600080600080600060e0888a0312156122e3576122e2611aac565b5b60006122f18a828b01612215565b975050602088015167ffffffffffffffff81111561231257612311611ab1565b5b61231e8a828b0161226c565b965050604061232f8a828b0161229a565b95505060606123408a828b0161229a565b94505060806123518a828b0161229a565b93505060a06123628a828b0161229a565b92505060c06123738a828b016122af565b91505092959891949750929550565b7f55736572206973206e6f74207265676973746572656400000000000000000000600082015250565b60006123b8601683611b5b565b91506123c382612382565b602082019050919050565b600060208201905081810360008301526123e7816123ab565b9050919050565b7f436f7374206d7573742062652067726561746572207468616e20300000000000600082015250565b6000612424601b83611b5b565b915061242f826123ee565b602082019050919050565b6000602082019050818103600083015261245381612417565b9050919050565b60008190508160005260206000209050919050565b60006020601f8301049050919050565b600082821b905092915050565b6000600883026124bc7fffffffffffffffffffffffffffffffffffffffffffffffffffffffffffffffff8261247f565b6124c6868361247f565b95508019841693508086168417925050509392505050565b6000819050919050565b60006125036124fe6124f984611a6e565b6124de565b611a6e565b9050919050565b6000819050919050565b61251d836124e8565b6125316125298261250a565b84845461248c565b825550505050565b600090565b612546612539565b612551818484612514565b505050565b5b818110156125755761256a60008261253e565b600181019050612557565b5050565b601f8211156125ba5761258b8161245a565b6125948461246f565b810160208510156125a3578190505b6125b76125af8561246f565b830182612556565b50505b505050565b600082821c905092915050565b60006125dd600019846008026125bf565b1980831691505092915050565b60006125f683836125cc565b9150826002028217905092915050565b61260f82611b50565b67ffffffffffffffff81111561262857612627611c36565b5b61263282546121e4565b61263d828285612579565b600060209050601f831160018114612670576000841561265e578287015190505b61266885826125ea565b8655506126d0565b601f19841661267e8661245a565b60005b828110156126a657848901518255600182019150602085019450602081019050612681565b868310156126c357848901516126bf601f8916826125cc565b8355505b6001600288020188555050505b505050505050565b7f4e487b7100000000000000000000000000000000000000000000000000000000600052601160045260246000fd5b600061271282611a6e565b91507fffffffffffffffffffffffffffffffffffffffffffffffffffffffffffffffff8203612744576127436126d8565b5b600182019050919050565b7f4c697374696e67206973206e6f74206578697374656400000000000000000000600082015250565b6000612785601683611b5b565b91506127908261274f565b602082019050919050565b600060208201905081810360008301526127b481612778565b9050919050565b7f56616c7565206973206e6f742073616d6520617320636f737400000000000000600082015250565b60006127f1601983611b5b565b91506127fc826127bb565b602082019050919050565b60006020820190508181036000830152612820816127e4565b9050919050565b7f446561646c696e65206973206e6f74206c6f6e676572207468616e206475726160008201527f74696f6e00000000000000000000000000000000000000000000000000000000602082015250565b6000612883602483611b5b565b915061288e82612827565b604082019050919050565b600060208201905081810360008301526128b281612876565b9050919050565b60006128c482611a6e565b91506128cf83611a6e565b92508282019050808211156128e7576128e66126d8565b5b92915050565b600060408201905081810360008301526129078185611ba7565b90506129166020830184611b41565b9392505050565b7f4e6f7420617574686f72697a6564000000000000000000000000000000000000600082015250565b6000612953600e83611b5b565b915061295e8261291d565b602082019050919050565b6000602082019050818103600083015261298281612946565b9050919050565b7f496e76616c696420737461747573000000000000000000000000000000000000600082015250565b60006129bf600e83611b5b565b91506129ca82612989565b602082019050919050565b600060208201905081810360008301526129ee816129b2565b9050919050565b6000612a10612a0b612a0684611b0f565b6124de565b611b0f565b9050919050565b6000612a22826129f5565b9050919050565b6000612a3482612a17565b9050919050565b612a4481612a29565b82525050565b6000606082019050612a5f6000830186612a3b565b612a6c6020830185611a78565b612a796040830184611e75565b949350505050565b7f496e76616c6964207374617475732f646561646c696e65000000000000000000600082015250565b6000612ab7601783611b5b565b9150612ac282612a81565b602082019050919050565b60006020820190508181036000830152612ae681612aaa565b9050919050565b6000604082019050612b026000830185611b41565b612b0f6020830184611e75565b9392505050565b60008060408385031215612b2d57612b2c611aac565b5b6000612b3b8582860161229a565b9250506020612b4c8582860161229a565b9150509250929050565b7f4f776e61626c653a206e6577206f776e657220697320746865207a65726f206160008201527f6464726573730000000000000000000000000000000000000000000000000000602082015250565b6000612bb2602683611b5b565b9150612bbd82612b56565b604082019050919050565b60006020820190508181036000830152612be181612ba5565b9050919050565b7f4f776e61626c653a2063616c6c6572206973206e6f7420746865206f776e6572600082015250565b6000612c1e602083611b5b565b9150612c2982612be8565b602082019050919050565b60006020820190508181036000830152612c4d81612c11565b905091905056fea26469706673582212205b81a55bf2d4b13c66ef32c14291dd1dd7f31e5e7cff837bec09b6759ecbd9d964736f6c63430008130033",
  "linkReferences": {},
  "deployedLinkReferences": {}
}