{
  "_format": "hh-sol-artifact-1",
  "contractName": "UserContract",
  "sourceName": "contracts/UserContract.sol",
  "abi": [
    {
      "anonymous": false,
      "inputs": [
        {
          "indexed": true,
          "internalType": "address",
          "name": "previousOwner",
          "type": "address"
        },
        {
          "indexed": true,
          "internalType": "address",
          "name": "newOwner",
          "type": "address"
        }
      ],
      "name": "OwnershipTransferred",
      "type": "event"
    },
    {
      "inputs": [
        {
          "internalType": "string",
          "name": "_username",
          "type": "string"
        },
        {
          "internalType": "address",
          "name": "_userAddress",
          "type": "address"
        }
      ],
      "name": "addUser",
      "outputs": [],
      "stateMutability": "nonpayable",
      "type": "function"
    },
    {
      "inputs": [
        {
          "internalType": "address",
          "name": "_userAddress",
          "type": "address"
        }
      ],
      "name": "deactivateUser",
      "outputs": [],
      "stateMutability": "nonpayable",
      "type": "function"
    },
    {
      "inputs": [
        {
          "internalType": "address",
          "name": "_userAddress",
          "type": "address"
        },
        {
          "internalType": "bool",
          "name": "_type",
          "type": "bool"
        }
      ],
      "name": "getAverageRating",
      "outputs": [
        {
          "internalType": "uint256",
          "name": "",
          "type": "uint256"
        },
        {
          "internalType": "uint256",
          "name": "",
          "type": "uint256"
        }
      ],
      "stateMutability": "view",
      "type": "function"
    },
    {
      "inputs": [
        {
          "internalType": "address",
          "name": "_userAddress",
          "type": "address"
        }
      ],
      "name": "getUser",
      "outputs": [
        {
          "internalType": "address",
          "name": "",
          "type": "address"
        },
        {
          "internalType": "string",
          "name": "",
          "type": "string"
        },
        {
          "internalType": "uint256",
          "name": "",
          "type": "uint256"
        },
        {
          "internalType": "uint256",
          "name": "",
          "type": "uint256"
        },
        {
          "internalType": "uint256",
          "name": "",
          "type": "uint256"
        },
        {
          "internalType": "uint256",
          "name": "",
          "type": "uint256"
        },
        {
          "internalType": "bool",
          "name": "",
          "type": "bool"
        }
      ],
      "stateMutability": "view",
      "type": "function"
    },
    {
      "inputs": [],
      "name": "owner",
      "outputs": [
        {
          "internalType": "address",
          "name": "",
          "type": "address"
        }
      ],
      "stateMutability": "view",
      "type": "function"
    },
    {
      "inputs": [],
      "name": "renounceOwnership",
      "outputs": [],
      "stateMutability": "nonpayable",
      "type": "function"
    },
    {
      "inputs": [
        {
          "internalType": "address",
          "name": "newOwner",
          "type": "address"
        }
      ],
      "name": "transferOwnership",
      "outputs": [],
      "stateMutability": "nonpayable",
      "type": "function"
    },
    {
      "inputs": [
        {
          "internalType": "address",
          "name": "_userAddress",
          "type": "address"
        },
        {
          "internalType": "uint256",
          "name": "_rating",
          "type": "uint256"
        },
        {
          "internalType": "bool",
          "name": "_type",
          "type": "bool"
        }
      ],
      "name": "updateUserRating",
      "outputs": [],
      "stateMutability": "nonpayable",
      "type": "function"
    },
    {
      "inputs": [],
      "name": "userCount",
      "outputs": [
        {
          "internalType": "uint256",
          "name": "",
          "type": "uint256"
        }
      ],
      "stateMutability": "view",
      "type": "function"
    },
    {
      "inputs": [
        {
          "internalType": "address",
          "name": "",
          "type": "address"
        }
      ],
      "name": "users",
      "outputs": [
        {
          "internalType": "address",
          "name": "userAddress",
          "type": "address"
        },
        {
          "internalType": "string",
          "name": "username",
          "type": "string"
        },
        {
          "internalType": "uint256",
          "name": "totalProvidersRating",
          "type": "uint256"
        },
        {
          "internalType": "uint256",
          "name": "providersRatingCount",
          "type": "uint256"
        },
        {
          "internalType": "uint256",
          "name": "totalClientsRating",
          "type": "uint256"
        },
        {
          "internalType": "uint256",
          "name": "clientsRatingCount",
          "type": "uint256"
        },
        {
          "internalType": "bool",
          "name": "isActive",
          "type": "bool"
        }
      ],
      "stateMutability": "view",
      "type": "function"
    }
  ],
  "bytecode": "0x608060405234801561001057600080fd5b5061002d61002261003260201b60201c565b61003a60201b60201c565b6100fe565b600033905090565b60008060009054906101000a900473ffffffffffffffffffffffffffffffffffffffff169050816000806101000a81548173ffffffffffffffffffffffffffffffffffffffff021916908373ffffffffffffffffffffffffffffffffffffffff1602179055508173ffffffffffffffffffffffffffffffffffffffff168173ffffffffffffffffffffffffffffffffffffffff167f8be0079c531659141344cd1fd0a4f28419497f9722a3daafe3b4186f6b6457e060405160405180910390a35050565b611d058061010d6000396000f3fe608060405234801561001057600080fd5b506004361061009e5760003560e01c8063864a0d0a11610066578063864a0d0a146101395780638da5cb5b14610155578063a87430ba14610173578063e745f8ba146101a9578063f2fde38b146101da5761009e565b806307973ccf146100a35780631a47767b146100c157806321b1d57b146100dd5780636f77926b146100f9578063715018a61461012f575b600080fd5b6100ab6101f6565b6040516100b89190610fd1565b60405180910390f35b6100db60048036038101906100d6919061105e565b6101fc565b005b6100f760048036038101906100f291906110ef565b610333565b005b610113600480360381019061010e919061105e565b6105d0565b60405161012697969594939291906111f0565b60405180910390f35b610137610791565b005b610153600480360381019061014e919061139b565b6107a5565b005b61015d610a15565b60405161016a91906113f7565b60405180910390f35b61018d6004803603810190610188919061105e565b610a3e565b6040516101a097969594939291906111f0565b60405180910390f35b6101c360048036038101906101be9190611412565b610b35565b6040516101d1929190611452565b60405180910390f35b6101f460048036038101906101ef919061105e565b610deb565b005b60025481565b610204610e6e565b600073ffffffffffffffffffffffffffffffffffffffff16600160008373ffffffffffffffffffffffffffffffffffffffff1673ffffffffffffffffffffffffffffffffffffffff16815260200190815260200160002060000160009054906101000a900473ffffffffffffffffffffffffffffffffffffffff1673ffffffffffffffffffffffffffffffffffffffff16036102d5576040517f08c379a00000000000000000000000000000000000000000000000000000000081526004016102cc906114c7565b60405180910390fd5b6000600160008373ffffffffffffffffffffffffffffffffffffffff1673ffffffffffffffffffffffffffffffffffffffff16815260200190815260200160002060060160006101000a81548160ff02191690831515021790555050565b61033b610e6e565b600073ffffffffffffffffffffffffffffffffffffffff16600160008573ffffffffffffffffffffffffffffffffffffffff1673ffffffffffffffffffffffffffffffffffffffff16815260200190815260200160002060000160009054906101000a900473ffffffffffffffffffffffffffffffffffffffff1673ffffffffffffffffffffffffffffffffffffffff160361040c576040517f08c379a0000000000000000000000000000000000000000000000000000000008152600401610403906114c7565b60405180910390fd5b6001821015801561041e575060058211155b61045d576040517f08c379a000000000000000000000000000000000000000000000000000000000815260040161045490611533565b60405180910390fd5b80156105195781600160008573ffffffffffffffffffffffffffffffffffffffff1673ffffffffffffffffffffffffffffffffffffffff16815260200190815260200160002060020160008282546104b59190611582565b92505081905550600160008473ffffffffffffffffffffffffffffffffffffffff1673ffffffffffffffffffffffffffffffffffffffff168152602001908152602001600020600301600081548092919061050f906115b6565b91905055506105cb565b81600160008573ffffffffffffffffffffffffffffffffffffffff1673ffffffffffffffffffffffffffffffffffffffff168152602001908152602001600020600401600082825461056b9190611582565b92505081905550600160008473ffffffffffffffffffffffffffffffffffffffff1673ffffffffffffffffffffffffffffffffffffffff16815260200190815260200160002060050160008154809291906105c5906115b6565b91905055505b505050565b60006060600080600080600080600160008a73ffffffffffffffffffffffffffffffffffffffff1673ffffffffffffffffffffffffffffffffffffffff1681526020019081526020016000206040518060e00160405290816000820160009054906101000a900473ffffffffffffffffffffffffffffffffffffffff1673ffffffffffffffffffffffffffffffffffffffff1673ffffffffffffffffffffffffffffffffffffffff16815260200160018201805461068d9061162d565b80601f01602080910402602001604051908101604052809291908181526020018280546106b99061162d565b80156107065780601f106106db57610100808354040283529160200191610706565b820191906000526020600020905b8154815290600101906020018083116106e957829003601f168201915b50505050508152602001600282015481526020016003820154815260200160048201548152602001600582015481526020016006820160009054906101000a900460ff1615151515815250509050806000015181602001518260400151836060015184608001518560a001518660c00151975097509750975097509750975050919395979092949650565b610799610e6e565b6107a36000610eec565b565b6107ad610e6e565b600073ffffffffffffffffffffffffffffffffffffffff16600160008373ffffffffffffffffffffffffffffffffffffffff1673ffffffffffffffffffffffffffffffffffffffff16815260200190815260200160002060000160009054906101000a900473ffffffffffffffffffffffffffffffffffffffff1673ffffffffffffffffffffffffffffffffffffffff161461087e576040517f08c379a0000000000000000000000000000000000000000000000000000000008152600401610875906116aa565b60405180910390fd5b60008251116108c2576040517f08c379a00000000000000000000000000000000000000000000000000000000081526004016108b99061173c565b60405180910390fd5b6040518060e001604052803373ffffffffffffffffffffffffffffffffffffffff1681526020018381526020016000815260200160008152602001600081526020016000815260200160011515815250600160008373ffffffffffffffffffffffffffffffffffffffff1673ffffffffffffffffffffffffffffffffffffffff16815260200190815260200160002060008201518160000160006101000a81548173ffffffffffffffffffffffffffffffffffffffff021916908373ffffffffffffffffffffffffffffffffffffffff16021790555060208201518160010190816109ad9190611908565b5060408201518160020155606082015181600301556080820151816004015560a0820151816005015560c08201518160060160006101000a81548160ff02191690831515021790555090505060026000815480929190610a0c906115b6565b91905055505050565b60008060009054906101000a900473ffffffffffffffffffffffffffffffffffffffff16905090565b60016020528060005260406000206000915090508060000160009054906101000a900473ffffffffffffffffffffffffffffffffffffffff1690806001018054610a879061162d565b80601f0160208091040260200160405190810160405280929190818152602001828054610ab39061162d565b8015610b005780601f10610ad557610100808354040283529160200191610b00565b820191906000526020600020905b815481529060010190602001808311610ae357829003601f168201915b5050505050908060020154908060030154908060040154908060050154908060060160009054906101000a900460ff16905087565b6000808215610c93576000600160008673ffffffffffffffffffffffffffffffffffffffff1673ffffffffffffffffffffffffffffffffffffffff1681526020019081526020016000206003015403610bc3576040517f08c379a0000000000000000000000000000000000000000000000000000000008152600401610bba90611a4c565b60405180910390fd5b6000600160008673ffffffffffffffffffffffffffffffffffffffff1673ffffffffffffffffffffffffffffffffffffffff168152602001908152602001600020600301546064600160008873ffffffffffffffffffffffffffffffffffffffff1673ffffffffffffffffffffffffffffffffffffffff16815260200190815260200160002060020154610c579190611a6c565b610c619190611add565b90506000606482610c729190611add565b90506000606483610c839190611b0e565b9050818194509450505050610de4565b6000600160008673ffffffffffffffffffffffffffffffffffffffff1673ffffffffffffffffffffffffffffffffffffffff1681526020019081526020016000206005015403610d18576040517f08c379a0000000000000000000000000000000000000000000000000000000008152600401610d0f90611bb1565b60405180910390fd5b6000600160008673ffffffffffffffffffffffffffffffffffffffff1673ffffffffffffffffffffffffffffffffffffffff168152602001908152602001600020600501546064600160008873ffffffffffffffffffffffffffffffffffffffff1673ffffffffffffffffffffffffffffffffffffffff16815260200190815260200160002060040154610dac9190611a6c565b610db69190611add565b90506000606482610dc79190611add565b90506000606483610dd89190611b0e565b90508181945094505050505b9250929050565b610df3610e6e565b600073ffffffffffffffffffffffffffffffffffffffff168173ffffffffffffffffffffffffffffffffffffffff1603610e62576040517f08c379a0000000000000000000000000000000000000000000000000000000008152600401610e5990611c43565b60405180910390fd5b610e6b81610eec565b50565b610e76610fb0565b73ffffffffffffffffffffffffffffffffffffffff16610e94610a15565b73ffffffffffffffffffffffffffffffffffffffff1614610eea576040517f08c379a0000000000000000000000000000000000000000000000000000000008152600401610ee190611caf565b60405180910390fd5b565b60008060009054906101000a900473ffffffffffffffffffffffffffffffffffffffff169050816000806101000a81548173ffffffffffffffffffffffffffffffffffffffff021916908373ffffffffffffffffffffffffffffffffffffffff1602179055508173ffffffffffffffffffffffffffffffffffffffff168173ffffffffffffffffffffffffffffffffffffffff167f8be0079c531659141344cd1fd0a4f28419497f9722a3daafe3b4186f6b6457e060405160405180910390a35050565b600033905090565b6000819050919050565b610fcb81610fb8565b82525050565b6000602082019050610fe66000830184610fc2565b92915050565b6000604051905090565b600080fd5b600080fd5b600073ffffffffffffffffffffffffffffffffffffffff82169050919050565b600061102b82611000565b9050919050565b61103b81611020565b811461104657600080fd5b50565b60008135905061105881611032565b92915050565b60006020828403121561107457611073610ff6565b5b600061108284828501611049565b91505092915050565b61109481610fb8565b811461109f57600080fd5b50565b6000813590506110b18161108b565b92915050565b60008115159050919050565b6110cc816110b7565b81146110d757600080fd5b50565b6000813590506110e9816110c3565b92915050565b60008060006060848603121561110857611107610ff6565b5b600061111686828701611049565b9350506020611127868287016110a2565b9250506040611138868287016110da565b9150509250925092565b61114b81611020565b82525050565b600081519050919050565b600082825260208201905092915050565b60005b8381101561118b578082015181840152602081019050611170565b60008484015250505050565b6000601f19601f8301169050919050565b60006111b382611151565b6111bd818561115c565b93506111cd81856020860161116d565b6111d681611197565b840191505092915050565b6111ea816110b7565b82525050565b600060e082019050611205600083018a611142565b818103602083015261121781896111a8565b90506112266040830188610fc2565b6112336060830187610fc2565b6112406080830186610fc2565b61124d60a0830185610fc2565b61125a60c08301846111e1565b98975050505050505050565b600080fd5b600080fd5b7f4e487b7100000000000000000000000000000000000000000000000000000000600052604160045260246000fd5b6112a882611197565b810181811067ffffffffffffffff821117156112c7576112c6611270565b5b80604052505050565b60006112da610fec565b90506112e6828261129f565b919050565b600067ffffffffffffffff82111561130657611305611270565b5b61130f82611197565b9050602081019050919050565b82818337600083830152505050565b600061133e611339846112eb565b6112d0565b90508281526020810184848401111561135a5761135961126b565b5b61136584828561131c565b509392505050565b600082601f83011261138257611381611266565b5b813561139284826020860161132b565b91505092915050565b600080604083850312156113b2576113b1610ff6565b5b600083013567ffffffffffffffff8111156113d0576113cf610ffb565b5b6113dc8582860161136d565b92505060206113ed85828601611049565b9150509250929050565b600060208201905061140c6000830184611142565b92915050565b6000806040838503121561142957611428610ff6565b5b600061143785828601611049565b9250506020611448858286016110da565b9150509250929050565b60006040820190506114676000830185610fc2565b6114746020830184610fc2565b9392505050565b7f5573657220646f65736e27742065786973740000000000000000000000000000600082015250565b60006114b160128361115c565b91506114bc8261147b565b602082019050919050565b600060208201905081810360008301526114e0816114a4565b9050919050565b7f526174696e672073686f756c64206265206265747765656e203120616e642035600082015250565b600061151d60208361115c565b9150611528826114e7565b602082019050919050565b6000602082019050818103600083015261154c81611510565b9050919050565b7f4e487b7100000000000000000000000000000000000000000000000000000000600052601160045260246000fd5b600061158d82610fb8565b915061159883610fb8565b92508282019050808211156115b0576115af611553565b5b92915050565b60006115c182610fb8565b91507fffffffffffffffffffffffffffffffffffffffffffffffffffffffffffffffff82036115f3576115f2611553565b5b600182019050919050565b7f4e487b7100000000000000000000000000000000000000000000000000000000600052602260045260246000fd5b6000600282049050600182168061164557607f821691505b602082108103611658576116576115fe565b5b50919050565b7f5573657220616c72656164792065786973747300000000000000000000000000600082015250565b600061169460138361115c565b915061169f8261165e565b602082019050919050565b600060208201905081810360008301526116c381611687565b9050919050565b7f55736572206e616d652063616e6e6f7420626520616e20656d7074792073747260008201527f696e670000000000000000000000000000000000000000000000000000000000602082015250565b600061172660238361115c565b9150611731826116ca565b604082019050919050565b6000602082019050818103600083015261175581611719565b9050919050565b60008190508160005260206000209050919050565b60006020601f8301049050919050565b600082821b905092915050565b6000600883026117be7fffffffffffffffffffffffffffffffffffffffffffffffffffffffffffffffff82611781565b6117c88683611781565b95508019841693508086168417925050509392505050565b6000819050919050565b60006118056118006117fb84610fb8565b6117e0565b610fb8565b9050919050565b6000819050919050565b61181f836117ea565b61183361182b8261180c565b84845461178e565b825550505050565b600090565b61184861183b565b611853818484611816565b505050565b5b818110156118775761186c600082611840565b600181019050611859565b5050565b601f8211156118bc5761188d8161175c565b61189684611771565b810160208510156118a5578190505b6118b96118b185611771565b830182611858565b50505b505050565b600082821c905092915050565b60006118df600019846008026118c1565b1980831691505092915050565b60006118f883836118ce565b9150826002028217905092915050565b61191182611151565b67ffffffffffffffff81111561192a57611929611270565b5b611934825461162d565b61193f82828561187b565b600060209050601f8311600181146119725760008415611960578287015190505b61196a85826118ec565b8655506119d2565b601f1984166119808661175c565b60005b828110156119a857848901518255600182019150602085019450602081019050611983565b868310156119c557848901516119c1601f8916826118ce565b8355505b6001600288020188555050505b505050505050565b7f4e6f2070726f76696465727320726174696e67732079657420666f722074686560008201527f2075736572000000000000000000000000000000000000000000000000000000602082015250565b6000611a3660258361115c565b9150611a41826119da565b604082019050919050565b60006020820190508181036000830152611a6581611a29565b9050919050565b6000611a7782610fb8565b9150611a8283610fb8565b9250828202611a9081610fb8565b91508282048414831517611aa757611aa6611553565b5b5092915050565b7f4e487b7100000000000000000000000000000000000000000000000000000000600052601260045260246000fd5b6000611ae882610fb8565b9150611af383610fb8565b925082611b0357611b02611aae565b5b828204905092915050565b6000611b1982610fb8565b9150611b2483610fb8565b925082611b3457611b33611aae565b5b828206905092915050565b7f4e6f20636c69656e747320726174696e67732079657420666f7220746865207560008201527f7365720000000000000000000000000000000000000000000000000000000000602082015250565b6000611b9b60238361115c565b9150611ba682611b3f565b604082019050919050565b60006020820190508181036000830152611bca81611b8e565b9050919050565b7f4f776e61626c653a206e6577206f776e657220697320746865207a65726f206160008201527f6464726573730000000000000000000000000000000000000000000000000000602082015250565b6000611c2d60268361115c565b9150611c3882611bd1565b604082019050919050565b60006020820190508181036000830152611c5c81611c20565b9050919050565b7f4f776e61626c653a2063616c6c6572206973206e6f7420746865206f776e6572600082015250565b6000611c9960208361115c565b9150611ca482611c63565b602082019050919050565b60006020820190508181036000830152611cc881611c8c565b905091905056fea2646970667358221220dac32aa536b290458d52a40651e49a099a1e4180a6fa8844a4349d3a225a8ec064736f6c63430008130033",
  "linkReferences": {},
  "deployedLinkReferences": {}
}