{
  "_format": "hh-sol-artifact-1",
  "contractName": "UserContract",
  "sourceName": "contracts/UserContract.sol",
  "abi": [
    {
      "anonymous": false,
      "inputs": [
        {
          "indexed": true,
          "internalType": "address",
          "name": "previousOwner",
          "type": "address"
        },
        {
          "indexed": true,
          "internalType": "address",
          "name": "newOwner",
          "type": "address"
        }
      ],
      "name": "OwnershipTransferred",
      "type": "event"
    },
    {
      "inputs": [
        {
          "internalType": "address",
          "name": "_userAddress",
          "type": "address"
        },
        {
          "internalType": "string",
          "name": "_username",
          "type": "string"
        }
      ],
      "name": "addUser",
      "outputs": [],
      "stateMutability": "nonpayable",
      "type": "function"
    },
    {
      "inputs": [
        {
          "internalType": "address",
          "name": "_userAddress",
          "type": "address"
        }
      ],
      "name": "deactivateUser",
      "outputs": [],
      "stateMutability": "nonpayable",
      "type": "function"
    },
    {
      "inputs": [
        {
          "internalType": "address",
          "name": "_userAddress",
          "type": "address"
        },
        {
          "internalType": "bool",
          "name": "_type",
          "type": "bool"
        }
      ],
      "name": "getAverageRating",
      "outputs": [
        {
          "internalType": "uint256",
          "name": "",
          "type": "uint256"
        },
        {
          "internalType": "uint256",
          "name": "",
          "type": "uint256"
        }
      ],
      "stateMutability": "view",
      "type": "function"
    },
    {
      "inputs": [
        {
          "internalType": "address",
          "name": "_userAddress",
          "type": "address"
        }
      ],
      "name": "getUser",
      "outputs": [
        {
          "internalType": "address",
          "name": "",
          "type": "address"
        },
        {
          "internalType": "string",
          "name": "",
          "type": "string"
        },
        {
          "internalType": "uint256",
          "name": "",
          "type": "uint256"
        },
        {
          "internalType": "uint256",
          "name": "",
          "type": "uint256"
        },
        {
          "internalType": "uint256",
          "name": "",
          "type": "uint256"
        },
        {
          "internalType": "uint256",
          "name": "",
          "type": "uint256"
        },
        {
          "internalType": "bool",
          "name": "",
          "type": "bool"
        }
      ],
      "stateMutability": "view",
      "type": "function"
    },
    {
      "inputs": [],
      "name": "owner",
      "outputs": [
        {
          "internalType": "address",
          "name": "",
          "type": "address"
        }
      ],
      "stateMutability": "view",
      "type": "function"
    },
    {
      "inputs": [],
      "name": "renounceOwnership",
      "outputs": [],
      "stateMutability": "nonpayable",
      "type": "function"
    },
    {
      "inputs": [
        {
          "internalType": "uint256",
          "name": "_count",
          "type": "uint256"
        }
      ],
      "name": "setUserCount",
      "outputs": [],
      "stateMutability": "nonpayable",
      "type": "function"
    },
    {
      "inputs": [
        {
          "internalType": "address",
          "name": "newOwner",
          "type": "address"
        }
      ],
      "name": "transferOwnership",
      "outputs": [],
      "stateMutability": "nonpayable",
      "type": "function"
    },
    {
      "inputs": [
        {
          "internalType": "address",
          "name": "_userAddress",
          "type": "address"
        },
        {
          "internalType": "uint256",
          "name": "_rating",
          "type": "uint256"
        },
        {
          "internalType": "bool",
          "name": "_type",
          "type": "bool"
        }
      ],
      "name": "updateUserRating",
      "outputs": [],
      "stateMutability": "nonpayable",
      "type": "function"
    },
    {
      "inputs": [],
      "name": "userCount",
      "outputs": [
        {
          "internalType": "uint256",
          "name": "",
          "type": "uint256"
        }
      ],
      "stateMutability": "view",
      "type": "function"
    },
    {
      "inputs": [
        {
          "internalType": "address",
          "name": "",
          "type": "address"
        }
      ],
      "name": "users",
      "outputs": [
        {
          "internalType": "address",
          "name": "userAddress",
          "type": "address"
        },
        {
          "internalType": "string",
          "name": "username",
          "type": "string"
        },
        {
          "internalType": "uint256",
          "name": "totalProvidersRating",
          "type": "uint256"
        },
        {
          "internalType": "uint256",
          "name": "providersRatingCount",
          "type": "uint256"
        },
        {
          "internalType": "uint256",
          "name": "totalClientsRating",
          "type": "uint256"
        },
        {
          "internalType": "uint256",
          "name": "clientsRatingCount",
          "type": "uint256"
        },
        {
          "internalType": "bool",
          "name": "isActive",
          "type": "bool"
        }
      ],
      "stateMutability": "view",
      "type": "function"
    }
  ],
  "bytecode": "0x608060405234801561001057600080fd5b5061002d61002261003260201b60201c565b61003a60201b60201c565b6100fe565b600033905090565b60008060009054906101000a900473ffffffffffffffffffffffffffffffffffffffff169050816000806101000a81548173ffffffffffffffffffffffffffffffffffffffff021916908373ffffffffffffffffffffffffffffffffffffffff1602179055508173ffffffffffffffffffffffffffffffffffffffff168173ffffffffffffffffffffffffffffffffffffffff167f8be0079c531659141344cd1fd0a4f28419497f9722a3daafe3b4186f6b6457e060405160405180910390a35050565b611d6b8061010d6000396000f3fe608060405234801561001057600080fd5b50600436106100a95760003560e01c8063715018a611610071578063715018a6146101565780638da5cb5b14610160578063a87430ba1461017e578063e745f8ba146101b4578063f2fde38b146101e5578063f442266114610201576100a9565b806307973ccf146100ae5780631a47767b146100cc57806321b1d57b146100e85780634b68d431146101045780636f77926b14610120575b600080fd5b6100b661021d565b6040516100c3919061100a565b60405180910390f35b6100e660048036038101906100e19190611097565b610223565b005b61010260048036038101906100fd9190611128565b61035a565b005b61011e600480360381019061011991906112c1565b6105f7565b005b61013a60048036038101906101359190611097565b610867565b60405161014d97969594939291906113ba565b60405180910390f35b61015e610a28565b005b610168610a3c565b6040516101759190611430565b60405180910390f35b61019860048036038101906101939190611097565b610a65565b6040516101ab97969594939291906113ba565b60405180910390f35b6101ce60048036038101906101c9919061144b565b610b5c565b6040516101dc92919061148b565b60405180910390f35b6101ff60048036038101906101fa9190611097565b610e12565b005b61021b600480360381019061021691906114b4565b610e95565b005b60025481565b61022b610ea7565b600073ffffffffffffffffffffffffffffffffffffffff16600160008373ffffffffffffffffffffffffffffffffffffffff1673ffffffffffffffffffffffffffffffffffffffff16815260200190815260200160002060000160009054906101000a900473ffffffffffffffffffffffffffffffffffffffff1673ffffffffffffffffffffffffffffffffffffffff16036102fc576040517f08c379a00000000000000000000000000000000000000000000000000000000081526004016102f39061152d565b60405180910390fd5b6000600160008373ffffffffffffffffffffffffffffffffffffffff1673ffffffffffffffffffffffffffffffffffffffff16815260200190815260200160002060060160006101000a81548160ff02191690831515021790555050565b610362610ea7565b600073ffffffffffffffffffffffffffffffffffffffff16600160008573ffffffffffffffffffffffffffffffffffffffff1673ffffffffffffffffffffffffffffffffffffffff16815260200190815260200160002060000160009054906101000a900473ffffffffffffffffffffffffffffffffffffffff1673ffffffffffffffffffffffffffffffffffffffff1603610433576040517f08c379a000000000000000000000000000000000000000000000000000000000815260040161042a9061152d565b60405180910390fd5b60018210158015610445575060058211155b610484576040517f08c379a000000000000000000000000000000000000000000000000000000000815260040161047b90611599565b60405180910390fd5b80156105405781600160008573ffffffffffffffffffffffffffffffffffffffff1673ffffffffffffffffffffffffffffffffffffffff16815260200190815260200160002060020160008282546104dc91906115e8565b92505081905550600160008473ffffffffffffffffffffffffffffffffffffffff1673ffffffffffffffffffffffffffffffffffffffff16815260200190815260200160002060030160008154809291906105369061161c565b91905055506105f2565b81600160008573ffffffffffffffffffffffffffffffffffffffff1673ffffffffffffffffffffffffffffffffffffffff168152602001908152602001600020600401600082825461059291906115e8565b92505081905550600160008473ffffffffffffffffffffffffffffffffffffffff1673ffffffffffffffffffffffffffffffffffffffff16815260200190815260200160002060050160008154809291906105ec9061161c565b91905055505b505050565b6105ff610ea7565b600073ffffffffffffffffffffffffffffffffffffffff16600160008473ffffffffffffffffffffffffffffffffffffffff1673ffffffffffffffffffffffffffffffffffffffff16815260200190815260200160002060000160009054906101000a900473ffffffffffffffffffffffffffffffffffffffff1673ffffffffffffffffffffffffffffffffffffffff16146106d0576040517f08c379a00000000000000000000000000000000000000000000000000000000081526004016106c7906116b0565b60405180910390fd5b6000815111610714576040517f08c379a000000000000000000000000000000000000000000000000000000000815260040161070b90611742565b60405180910390fd5b6040518060e001604052803373ffffffffffffffffffffffffffffffffffffffff1681526020018281526020016000815260200160008152602001600081526020016000815260200160011515815250600160008473ffffffffffffffffffffffffffffffffffffffff1673ffffffffffffffffffffffffffffffffffffffff16815260200190815260200160002060008201518160000160006101000a81548173ffffffffffffffffffffffffffffffffffffffff021916908373ffffffffffffffffffffffffffffffffffffffff16021790555060208201518160010190816107ff919061196e565b5060408201518160020155606082015181600301556080820151816004015560a0820151816005015560c08201518160060160006101000a81548160ff0219169083151502179055509050506002600081548092919061085e9061161c565b91905055505050565b60006060600080600080600080600160008a73ffffffffffffffffffffffffffffffffffffffff1673ffffffffffffffffffffffffffffffffffffffff1681526020019081526020016000206040518060e00160405290816000820160009054906101000a900473ffffffffffffffffffffffffffffffffffffffff1673ffffffffffffffffffffffffffffffffffffffff1673ffffffffffffffffffffffffffffffffffffffff16815260200160018201805461092490611791565b80601f016020809104026020016040519081016040528092919081815260200182805461095090611791565b801561099d5780601f106109725761010080835404028352916020019161099d565b820191906000526020600020905b81548152906001019060200180831161098057829003601f168201915b50505050508152602001600282015481526020016003820154815260200160048201548152602001600582015481526020016006820160009054906101000a900460ff1615151515815250509050806000015181602001518260400151836060015184608001518560a001518660c00151975097509750975097509750975050919395979092949650565b610a30610ea7565b610a3a6000610f25565b565b60008060009054906101000a900473ffffffffffffffffffffffffffffffffffffffff16905090565b60016020528060005260406000206000915090508060000160009054906101000a900473ffffffffffffffffffffffffffffffffffffffff1690806001018054610aae90611791565b80601f0160208091040260200160405190810160405280929190818152602001828054610ada90611791565b8015610b275780601f10610afc57610100808354040283529160200191610b27565b820191906000526020600020905b815481529060010190602001808311610b0a57829003601f168201915b5050505050908060020154908060030154908060040154908060050154908060060160009054906101000a900460ff16905087565b6000808215610cba576000600160008673ffffffffffffffffffffffffffffffffffffffff1673ffffffffffffffffffffffffffffffffffffffff1681526020019081526020016000206003015403610bea576040517f08c379a0000000000000000000000000000000000000000000000000000000008152600401610be190611ab2565b60405180910390fd5b6000600160008673ffffffffffffffffffffffffffffffffffffffff1673ffffffffffffffffffffffffffffffffffffffff168152602001908152602001600020600301546064600160008873ffffffffffffffffffffffffffffffffffffffff1673ffffffffffffffffffffffffffffffffffffffff16815260200190815260200160002060020154610c7e9190611ad2565b610c889190611b43565b90506000606482610c999190611b43565b90506000606483610caa9190611b74565b9050818194509450505050610e0b565b6000600160008673ffffffffffffffffffffffffffffffffffffffff1673ffffffffffffffffffffffffffffffffffffffff1681526020019081526020016000206005015403610d3f576040517f08c379a0000000000000000000000000000000000000000000000000000000008152600401610d3690611c17565b60405180910390fd5b6000600160008673ffffffffffffffffffffffffffffffffffffffff1673ffffffffffffffffffffffffffffffffffffffff168152602001908152602001600020600501546064600160008873ffffffffffffffffffffffffffffffffffffffff1673ffffffffffffffffffffffffffffffffffffffff16815260200190815260200160002060040154610dd39190611ad2565b610ddd9190611b43565b90506000606482610dee9190611b43565b90506000606483610dff9190611b74565b90508181945094505050505b9250929050565b610e1a610ea7565b600073ffffffffffffffffffffffffffffffffffffffff168173ffffffffffffffffffffffffffffffffffffffff1603610e89576040517f08c379a0000000000000000000000000000000000000000000000000000000008152600401610e8090611ca9565b60405180910390fd5b610e9281610f25565b50565b610e9d610ea7565b8060028190555050565b610eaf610fe9565b73ffffffffffffffffffffffffffffffffffffffff16610ecd610a3c565b73ffffffffffffffffffffffffffffffffffffffff1614610f23576040517f08c379a0000000000000000000000000000000000000000000000000000000008152600401610f1a90611d15565b60405180910390fd5b565b60008060009054906101000a900473ffffffffffffffffffffffffffffffffffffffff169050816000806101000a81548173ffffffffffffffffffffffffffffffffffffffff021916908373ffffffffffffffffffffffffffffffffffffffff1602179055508173ffffffffffffffffffffffffffffffffffffffff168173ffffffffffffffffffffffffffffffffffffffff167f8be0079c531659141344cd1fd0a4f28419497f9722a3daafe3b4186f6b6457e060405160405180910390a35050565b600033905090565b6000819050919050565b61100481610ff1565b82525050565b600060208201905061101f6000830184610ffb565b92915050565b6000604051905090565b600080fd5b600080fd5b600073ffffffffffffffffffffffffffffffffffffffff82169050919050565b600061106482611039565b9050919050565b61107481611059565b811461107f57600080fd5b50565b6000813590506110918161106b565b92915050565b6000602082840312156110ad576110ac61102f565b5b60006110bb84828501611082565b91505092915050565b6110cd81610ff1565b81146110d857600080fd5b50565b6000813590506110ea816110c4565b92915050565b60008115159050919050565b611105816110f0565b811461111057600080fd5b50565b600081359050611122816110fc565b92915050565b6000806000606084860312156111415761114061102f565b5b600061114f86828701611082565b9350506020611160868287016110db565b925050604061117186828701611113565b9150509250925092565b600080fd5b600080fd5b6000601f19601f8301169050919050565b7f4e487b7100000000000000000000000000000000000000000000000000000000600052604160045260246000fd5b6111ce82611185565b810181811067ffffffffffffffff821117156111ed576111ec611196565b5b80604052505050565b6000611200611025565b905061120c82826111c5565b919050565b600067ffffffffffffffff82111561122c5761122b611196565b5b61123582611185565b9050602081019050919050565b82818337600083830152505050565b600061126461125f84611211565b6111f6565b9050828152602081018484840111156112805761127f611180565b5b61128b848285611242565b509392505050565b600082601f8301126112a8576112a761117b565b5b81356112b8848260208601611251565b91505092915050565b600080604083850312156112d8576112d761102f565b5b60006112e685828601611082565b925050602083013567ffffffffffffffff81111561130757611306611034565b5b61131385828601611293565b9150509250929050565b61132681611059565b82525050565b600081519050919050565b600082825260208201905092915050565b60005b8381101561136657808201518184015260208101905061134b565b60008484015250505050565b600061137d8261132c565b6113878185611337565b9350611397818560208601611348565b6113a081611185565b840191505092915050565b6113b4816110f0565b82525050565b600060e0820190506113cf600083018a61131d565b81810360208301526113e18189611372565b90506113f06040830188610ffb565b6113fd6060830187610ffb565b61140a6080830186610ffb565b61141760a0830185610ffb565b61142460c08301846113ab565b98975050505050505050565b6000602082019050611445600083018461131d565b92915050565b600080604083850312156114625761146161102f565b5b600061147085828601611082565b925050602061148185828601611113565b9150509250929050565b60006040820190506114a06000830185610ffb565b6114ad6020830184610ffb565b9392505050565b6000602082840312156114ca576114c961102f565b5b60006114d8848285016110db565b91505092915050565b7f5573657220646f65736e27742065786973740000000000000000000000000000600082015250565b6000611517601283611337565b9150611522826114e1565b602082019050919050565b600060208201905081810360008301526115468161150a565b9050919050565b7f526174696e672073686f756c64206265206265747765656e203120616e642035600082015250565b6000611583602083611337565b915061158e8261154d565b602082019050919050565b600060208201905081810360008301526115b281611576565b9050919050565b7f4e487b7100000000000000000000000000000000000000000000000000000000600052601160045260246000fd5b60006115f382610ff1565b91506115fe83610ff1565b9250828201905080821115611616576116156115b9565b5b92915050565b600061162782610ff1565b91507fffffffffffffffffffffffffffffffffffffffffffffffffffffffffffffffff8203611659576116586115b9565b5b600182019050919050565b7f5573657220616c72656164792065786973747300000000000000000000000000600082015250565b600061169a601383611337565b91506116a582611664565b602082019050919050565b600060208201905081810360008301526116c98161168d565b9050919050565b7f55736572206e616d652063616e6e6f7420626520616e20656d7074792073747260008201527f696e670000000000000000000000000000000000000000000000000000000000602082015250565b600061172c602383611337565b9150611737826116d0565b604082019050919050565b6000602082019050818103600083015261175b8161171f565b9050919050565b7f4e487b7100000000000000000000000000000000000000000000000000000000600052602260045260246000fd5b600060028204905060018216806117a957607f821691505b6020821081036117bc576117bb611762565b5b50919050565b60008190508160005260206000209050919050565b60006020601f8301049050919050565b600082821b905092915050565b6000600883026118247fffffffffffffffffffffffffffffffffffffffffffffffffffffffffffffffff826117e7565b61182e86836117e7565b95508019841693508086168417925050509392505050565b6000819050919050565b600061186b61186661186184610ff1565b611846565b610ff1565b9050919050565b6000819050919050565b61188583611850565b61189961189182611872565b8484546117f4565b825550505050565b600090565b6118ae6118a1565b6118b981848461187c565b505050565b5b818110156118dd576118d26000826118a6565b6001810190506118bf565b5050565b601f821115611922576118f3816117c2565b6118fc846117d7565b8101602085101561190b578190505b61191f611917856117d7565b8301826118be565b50505b505050565b600082821c905092915050565b600061194560001984600802611927565b1980831691505092915050565b600061195e8383611934565b9150826002028217905092915050565b6119778261132c565b67ffffffffffffffff8111156119905761198f611196565b5b61199a8254611791565b6119a58282856118e1565b600060209050601f8311600181146119d857600084156119c6578287015190505b6119d08582611952565b865550611a38565b601f1984166119e6866117c2565b60005b82811015611a0e578489015182556001820191506020850194506020810190506119e9565b86831015611a2b5784890151611a27601f891682611934565b8355505b6001600288020188555050505b505050505050565b7f4e6f2070726f76696465727320726174696e67732079657420666f722074686560008201527f2075736572000000000000000000000000000000000000000000000000000000602082015250565b6000611a9c602583611337565b9150611aa782611a40565b604082019050919050565b60006020820190508181036000830152611acb81611a8f565b9050919050565b6000611add82610ff1565b9150611ae883610ff1565b9250828202611af681610ff1565b91508282048414831517611b0d57611b0c6115b9565b5b5092915050565b7f4e487b7100000000000000000000000000000000000000000000000000000000600052601260045260246000fd5b6000611b4e82610ff1565b9150611b5983610ff1565b925082611b6957611b68611b14565b5b828204905092915050565b6000611b7f82610ff1565b9150611b8a83610ff1565b925082611b9a57611b99611b14565b5b828206905092915050565b7f4e6f20636c69656e747320726174696e67732079657420666f7220746865207560008201527f7365720000000000000000000000000000000000000000000000000000000000602082015250565b6000611c01602383611337565b9150611c0c82611ba5565b604082019050919050565b60006020820190508181036000830152611c3081611bf4565b9050919050565b7f4f776e61626c653a206e6577206f776e657220697320746865207a65726f206160008201527f6464726573730000000000000000000000000000000000000000000000000000602082015250565b6000611c93602683611337565b9150611c9e82611c37565b604082019050919050565b60006020820190508181036000830152611cc281611c86565b9050919050565b7f4f776e61626c653a2063616c6c6572206973206e6f7420746865206f776e6572600082015250565b6000611cff602083611337565b9150611d0a82611cc9565b602082019050919050565b60006020820190508181036000830152611d2e81611cf2565b905091905056fea2646970667358221220b9797e6c785ffd376b0b3e347afe3da5274b3cf3903f7f37f7af87a8110805bb64736f6c63430008130033",
  "linkReferences": {},
  "deployedLinkReferences": {}
}