{
  "_format": "hh-sol-artifact-1",
  "contractName": "UserContract",
  "sourceName": "contracts/UserContract.sol",
  "abi": [
    {
      "anonymous": false,
      "inputs": [
        {
          "indexed": true,
          "internalType": "address",
          "name": "previousOwner",
          "type": "address"
        },
        {
          "indexed": true,
          "internalType": "address",
          "name": "newOwner",
          "type": "address"
        }
      ],
      "name": "OwnershipTransferred",
      "type": "event"
    },
    {
      "inputs": [
        {
          "internalType": "string",
          "name": "_username",
          "type": "string"
        }
      ],
      "name": "addUser",
      "outputs": [],
      "stateMutability": "nonpayable",
      "type": "function"
    },
    {
      "inputs": [
        {
          "internalType": "address",
          "name": "_userAddress",
          "type": "address"
        }
      ],
      "name": "deactivateUser",
      "outputs": [],
      "stateMutability": "nonpayable",
      "type": "function"
    },
    {
      "inputs": [
        {
          "internalType": "address",
          "name": "_userAddress",
          "type": "address"
        },
        {
          "internalType": "bool",
          "name": "_type",
          "type": "bool"
        }
      ],
      "name": "getAverageRating",
      "outputs": [
        {
          "internalType": "uint256",
          "name": "",
          "type": "uint256"
        },
        {
          "internalType": "uint256",
          "name": "",
          "type": "uint256"
        }
      ],
      "stateMutability": "view",
      "type": "function"
    },
    {
      "inputs": [
        {
          "internalType": "address",
          "name": "_userAddress",
          "type": "address"
        }
      ],
      "name": "getUser",
      "outputs": [
        {
          "components": [
            {
              "internalType": "address",
              "name": "userAddress",
              "type": "address"
            },
            {
              "internalType": "string",
              "name": "username",
              "type": "string"
            },
            {
              "internalType": "uint256",
              "name": "totalProvidersRating",
              "type": "uint256"
            },
            {
              "internalType": "uint256",
              "name": "providersRatingCount",
              "type": "uint256"
            },
            {
              "internalType": "uint256",
              "name": "totalClientsRating",
              "type": "uint256"
            },
            {
              "internalType": "uint256",
              "name": "clientsRatingCount",
              "type": "uint256"
            },
            {
              "internalType": "bool",
              "name": "isActive",
              "type": "bool"
            }
          ],
          "internalType": "struct UserContract.User",
          "name": "",
          "type": "tuple"
        }
      ],
      "stateMutability": "view",
      "type": "function"
    },
    {
      "inputs": [],
      "name": "owner",
      "outputs": [
        {
          "internalType": "address",
          "name": "",
          "type": "address"
        }
      ],
      "stateMutability": "view",
      "type": "function"
    },
    {
      "inputs": [],
      "name": "renounceOwnership",
      "outputs": [],
      "stateMutability": "nonpayable",
      "type": "function"
    },
    {
      "inputs": [
        {
          "internalType": "address",
          "name": "newOwner",
          "type": "address"
        }
      ],
      "name": "transferOwnership",
      "outputs": [],
      "stateMutability": "nonpayable",
      "type": "function"
    },
    {
      "inputs": [
        {
          "internalType": "address",
          "name": "_userAddress",
          "type": "address"
        },
        {
          "internalType": "uint256",
          "name": "_rating",
          "type": "uint256"
        },
        {
          "internalType": "bool",
          "name": "_type",
          "type": "bool"
        }
      ],
      "name": "updateUserRating",
      "outputs": [],
      "stateMutability": "nonpayable",
      "type": "function"
    },
    {
      "inputs": [],
      "name": "userCount",
      "outputs": [
        {
          "internalType": "uint256",
          "name": "",
          "type": "uint256"
        }
      ],
      "stateMutability": "view",
      "type": "function"
    },
    {
      "inputs": [
        {
          "internalType": "address",
          "name": "",
          "type": "address"
        }
      ],
      "name": "users",
      "outputs": [
        {
          "internalType": "address",
          "name": "userAddress",
          "type": "address"
        },
        {
          "internalType": "string",
          "name": "username",
          "type": "string"
        },
        {
          "internalType": "uint256",
          "name": "totalProvidersRating",
          "type": "uint256"
        },
        {
          "internalType": "uint256",
          "name": "providersRatingCount",
          "type": "uint256"
        },
        {
          "internalType": "uint256",
          "name": "totalClientsRating",
          "type": "uint256"
        },
        {
          "internalType": "uint256",
          "name": "clientsRatingCount",
          "type": "uint256"
        },
        {
          "internalType": "bool",
          "name": "isActive",
          "type": "bool"
        }
      ],
      "stateMutability": "view",
      "type": "function"
    }
  ],
  "bytecode": "0x608060405234801561001057600080fd5b5061002d61002261003260201b60201c565b61003a60201b60201c565b6100fe565b600033905090565b60008060009054906101000a900473ffffffffffffffffffffffffffffffffffffffff169050816000806101000a81548173ffffffffffffffffffffffffffffffffffffffff021916908373ffffffffffffffffffffffffffffffffffffffff1602179055508173ffffffffffffffffffffffffffffffffffffffff168173ffffffffffffffffffffffffffffffffffffffff167f8be0079c531659141344cd1fd0a4f28419497f9722a3daafe3b4186f6b6457e060405160405180910390a35050565b611d5a8061010d6000396000f3fe608060405234801561001057600080fd5b506004361061009e5760003560e01c8063715018a611610066578063715018a6146101455780638da5cb5b1461014f578063a87430ba1461016d578063e745f8ba146101a3578063f2fde38b146101d45761009e565b806307973ccf146100a357806318b8275a146100c15780631a47767b146100dd57806321b1d57b146100f95780636f77926b14610115575b600080fd5b6100ab6101f0565b6040516100b89190610f96565b60405180910390f35b6100db60048036038101906100d6919061110b565b6101f6565b005b6100f760048036038101906100f291906111b2565b610419565b005b610113600480360381019061010e9190611243565b610550565b005b61012f600480360381019061012a91906111b2565b6107ed565b60405161013c91906113de565b60405180910390f35b61014d610971565b005b610157610985565b604051610164919061140f565b60405180910390f35b610187600480360381019061018291906111b2565b6109ae565b60405161019a9796959493929190611483565b60405180910390f35b6101bd60048036038101906101b891906114f9565b610aa5565b6040516101cb929190611539565b60405180910390f35b6101ee60048036038101906101e991906111b2565b610d5b565b005b60025481565b600073ffffffffffffffffffffffffffffffffffffffff16600160003373ffffffffffffffffffffffffffffffffffffffff1673ffffffffffffffffffffffffffffffffffffffff16815260200190815260200160002060000160009054906101000a900473ffffffffffffffffffffffffffffffffffffffff1673ffffffffffffffffffffffffffffffffffffffff16146102c7576040517f08c379a00000000000000000000000000000000000000000000000000000000081526004016102be906115ae565b60405180910390fd5b6040518060e001604052803373ffffffffffffffffffffffffffffffffffffffff1681526020018281526020016000815260200160008152602001600081526020016000815260200160011515815250600160003373ffffffffffffffffffffffffffffffffffffffff1673ffffffffffffffffffffffffffffffffffffffff16815260200190815260200160002060008201518160000160006101000a81548173ffffffffffffffffffffffffffffffffffffffff021916908373ffffffffffffffffffffffffffffffffffffffff16021790555060208201518160010190816103b291906117da565b5060408201518160020155606082015181600301556080820151816004015560a0820151816005015560c08201518160060160006101000a81548160ff02191690831515021790555090505060026000815480929190610411906118db565b919050555050565b610421610dde565b600073ffffffffffffffffffffffffffffffffffffffff16600160008373ffffffffffffffffffffffffffffffffffffffff1673ffffffffffffffffffffffffffffffffffffffff16815260200190815260200160002060000160009054906101000a900473ffffffffffffffffffffffffffffffffffffffff1673ffffffffffffffffffffffffffffffffffffffff16036104f2576040517f08c379a00000000000000000000000000000000000000000000000000000000081526004016104e99061196f565b60405180910390fd5b6000600160008373ffffffffffffffffffffffffffffffffffffffff1673ffffffffffffffffffffffffffffffffffffffff16815260200190815260200160002060060160006101000a81548160ff02191690831515021790555050565b610558610dde565b600073ffffffffffffffffffffffffffffffffffffffff16600160008573ffffffffffffffffffffffffffffffffffffffff1673ffffffffffffffffffffffffffffffffffffffff16815260200190815260200160002060000160009054906101000a900473ffffffffffffffffffffffffffffffffffffffff1673ffffffffffffffffffffffffffffffffffffffff1603610629576040517f08c379a00000000000000000000000000000000000000000000000000000000081526004016106209061196f565b60405180910390fd5b6001821015801561063b575060058211155b61067a576040517f08c379a0000000000000000000000000000000000000000000000000000000008152600401610671906119db565b60405180910390fd5b80156107365781600160008573ffffffffffffffffffffffffffffffffffffffff1673ffffffffffffffffffffffffffffffffffffffff16815260200190815260200160002060020160008282546106d291906119fb565b92505081905550600160008473ffffffffffffffffffffffffffffffffffffffff1673ffffffffffffffffffffffffffffffffffffffff168152602001908152602001600020600301600081548092919061072c906118db565b91905055506107e8565b81600160008573ffffffffffffffffffffffffffffffffffffffff1673ffffffffffffffffffffffffffffffffffffffff168152602001908152602001600020600401600082825461078891906119fb565b92505081905550600160008473ffffffffffffffffffffffffffffffffffffffff1673ffffffffffffffffffffffffffffffffffffffff16815260200190815260200160002060050160008154809291906107e2906118db565b91905055505b505050565b6107f5610f28565b600160008373ffffffffffffffffffffffffffffffffffffffff1673ffffffffffffffffffffffffffffffffffffffff1681526020019081526020016000206040518060e00160405290816000820160009054906101000a900473ffffffffffffffffffffffffffffffffffffffff1673ffffffffffffffffffffffffffffffffffffffff1673ffffffffffffffffffffffffffffffffffffffff1681526020016001820180546108a5906115fd565b80601f01602080910402602001604051908101604052809291908181526020018280546108d1906115fd565b801561091e5780601f106108f35761010080835404028352916020019161091e565b820191906000526020600020905b81548152906001019060200180831161090157829003601f168201915b50505050508152602001600282015481526020016003820154815260200160048201548152602001600582015481526020016006820160009054906101000a900460ff1615151515815250509050919050565b610979610dde565b6109836000610e5c565b565b60008060009054906101000a900473ffffffffffffffffffffffffffffffffffffffff16905090565b60016020528060005260406000206000915090508060000160009054906101000a900473ffffffffffffffffffffffffffffffffffffffff16908060010180546109f7906115fd565b80601f0160208091040260200160405190810160405280929190818152602001828054610a23906115fd565b8015610a705780601f10610a4557610100808354040283529160200191610a70565b820191906000526020600020905b815481529060010190602001808311610a5357829003601f168201915b5050505050908060020154908060030154908060040154908060050154908060060160009054906101000a900460ff16905087565b6000808215610c03576000600160008673ffffffffffffffffffffffffffffffffffffffff1673ffffffffffffffffffffffffffffffffffffffff1681526020019081526020016000206003015403610b33576040517f08c379a0000000000000000000000000000000000000000000000000000000008152600401610b2a90611aa1565b60405180910390fd5b6000600160008673ffffffffffffffffffffffffffffffffffffffff1673ffffffffffffffffffffffffffffffffffffffff168152602001908152602001600020600301546064600160008873ffffffffffffffffffffffffffffffffffffffff1673ffffffffffffffffffffffffffffffffffffffff16815260200190815260200160002060020154610bc79190611ac1565b610bd19190611b32565b90506000606482610be29190611b32565b90506000606483610bf39190611b63565b9050818194509450505050610d54565b6000600160008673ffffffffffffffffffffffffffffffffffffffff1673ffffffffffffffffffffffffffffffffffffffff1681526020019081526020016000206005015403610c88576040517f08c379a0000000000000000000000000000000000000000000000000000000008152600401610c7f90611c06565b60405180910390fd5b6000600160008673ffffffffffffffffffffffffffffffffffffffff1673ffffffffffffffffffffffffffffffffffffffff168152602001908152602001600020600501546064600160008873ffffffffffffffffffffffffffffffffffffffff1673ffffffffffffffffffffffffffffffffffffffff16815260200190815260200160002060040154610d1c9190611ac1565b610d269190611b32565b90506000606482610d379190611b32565b90506000606483610d489190611b63565b90508181945094505050505b9250929050565b610d63610dde565b600073ffffffffffffffffffffffffffffffffffffffff168173ffffffffffffffffffffffffffffffffffffffff1603610dd2576040517f08c379a0000000000000000000000000000000000000000000000000000000008152600401610dc990611c98565b60405180910390fd5b610ddb81610e5c565b50565b610de6610f20565b73ffffffffffffffffffffffffffffffffffffffff16610e04610985565b73ffffffffffffffffffffffffffffffffffffffff1614610e5a576040517f08c379a0000000000000000000000000000000000000000000000000000000008152600401610e5190611d04565b60405180910390fd5b565b60008060009054906101000a900473ffffffffffffffffffffffffffffffffffffffff169050816000806101000a81548173ffffffffffffffffffffffffffffffffffffffff021916908373ffffffffffffffffffffffffffffffffffffffff1602179055508173ffffffffffffffffffffffffffffffffffffffff168173ffffffffffffffffffffffffffffffffffffffff167f8be0079c531659141344cd1fd0a4f28419497f9722a3daafe3b4186f6b6457e060405160405180910390a35050565b600033905090565b6040518060e00160405280600073ffffffffffffffffffffffffffffffffffffffff16815260200160608152602001600081526020016000815260200160008152602001600081526020016000151581525090565b6000819050919050565b610f9081610f7d565b82525050565b6000602082019050610fab6000830184610f87565b92915050565b6000604051905090565b600080fd5b600080fd5b600080fd5b600080fd5b6000601f19601f8301169050919050565b7f4e487b7100000000000000000000000000000000000000000000000000000000600052604160045260246000fd5b61101882610fcf565b810181811067ffffffffffffffff8211171561103757611036610fe0565b5b80604052505050565b600061104a610fb1565b9050611056828261100f565b919050565b600067ffffffffffffffff82111561107657611075610fe0565b5b61107f82610fcf565b9050602081019050919050565b82818337600083830152505050565b60006110ae6110a98461105b565b611040565b9050828152602081018484840111156110ca576110c9610fca565b5b6110d584828561108c565b509392505050565b600082601f8301126110f2576110f1610fc5565b5b813561110284826020860161109b565b91505092915050565b60006020828403121561112157611120610fbb565b5b600082013567ffffffffffffffff81111561113f5761113e610fc0565b5b61114b848285016110dd565b91505092915050565b600073ffffffffffffffffffffffffffffffffffffffff82169050919050565b600061117f82611154565b9050919050565b61118f81611174565b811461119a57600080fd5b50565b6000813590506111ac81611186565b92915050565b6000602082840312156111c8576111c7610fbb565b5b60006111d68482850161119d565b91505092915050565b6111e881610f7d565b81146111f357600080fd5b50565b600081359050611205816111df565b92915050565b60008115159050919050565b6112208161120b565b811461122b57600080fd5b50565b60008135905061123d81611217565b92915050565b60008060006060848603121561125c5761125b610fbb565b5b600061126a8682870161119d565b935050602061127b868287016111f6565b925050604061128c8682870161122e565b9150509250925092565b61129f81611174565b82525050565b600081519050919050565b600082825260208201905092915050565b60005b838110156112df5780820151818401526020810190506112c4565b60008484015250505050565b60006112f6826112a5565b61130081856112b0565b93506113108185602086016112c1565b61131981610fcf565b840191505092915050565b61132d81610f7d565b82525050565b61133c8161120b565b82525050565b600060e08301600083015161135a6000860182611296565b506020830151848203602086015261137282826112eb565b91505060408301516113876040860182611324565b50606083015161139a6060860182611324565b5060808301516113ad6080860182611324565b5060a08301516113c060a0860182611324565b5060c08301516113d360c0860182611333565b508091505092915050565b600060208201905081810360008301526113f88184611342565b905092915050565b61140981611174565b82525050565b60006020820190506114246000830184611400565b92915050565b600082825260208201905092915050565b6000611446826112a5565b611450818561142a565b93506114608185602086016112c1565b61146981610fcf565b840191505092915050565b61147d8161120b565b82525050565b600060e082019050611498600083018a611400565b81810360208301526114aa818961143b565b90506114b96040830188610f87565b6114c66060830187610f87565b6114d36080830186610f87565b6114e060a0830185610f87565b6114ed60c0830184611474565b98975050505050505050565b600080604083850312156115105761150f610fbb565b5b600061151e8582860161119d565b925050602061152f8582860161122e565b9150509250929050565b600060408201905061154e6000830185610f87565b61155b6020830184610f87565b9392505050565b7f5573657220616c72656164792065786973747300000000000000000000000000600082015250565b600061159860138361142a565b91506115a382611562565b602082019050919050565b600060208201905081810360008301526115c78161158b565b9050919050565b7f4e487b7100000000000000000000000000000000000000000000000000000000600052602260045260246000fd5b6000600282049050600182168061161557607f821691505b602082108103611628576116276115ce565b5b50919050565b60008190508160005260206000209050919050565b60006020601f8301049050919050565b600082821b905092915050565b6000600883026116907fffffffffffffffffffffffffffffffffffffffffffffffffffffffffffffffff82611653565b61169a8683611653565b95508019841693508086168417925050509392505050565b6000819050919050565b60006116d76116d26116cd84610f7d565b6116b2565b610f7d565b9050919050565b6000819050919050565b6116f1836116bc565b6117056116fd826116de565b848454611660565b825550505050565b600090565b61171a61170d565b6117258184846116e8565b505050565b5b818110156117495761173e600082611712565b60018101905061172b565b5050565b601f82111561178e5761175f8161162e565b61176884611643565b81016020851015611777578190505b61178b61178385611643565b83018261172a565b50505b505050565b600082821c905092915050565b60006117b160001984600802611793565b1980831691505092915050565b60006117ca83836117a0565b9150826002028217905092915050565b6117e3826112a5565b67ffffffffffffffff8111156117fc576117fb610fe0565b5b61180682546115fd565b61181182828561174d565b600060209050601f8311600181146118445760008415611832578287015190505b61183c85826117be565b8655506118a4565b601f1984166118528661162e565b60005b8281101561187a57848901518255600182019150602085019450602081019050611855565b868310156118975784890151611893601f8916826117a0565b8355505b6001600288020188555050505b505050505050565b7f4e487b7100000000000000000000000000000000000000000000000000000000600052601160045260246000fd5b60006118e682610f7d565b91507fffffffffffffffffffffffffffffffffffffffffffffffffffffffffffffffff8203611918576119176118ac565b5b600182019050919050565b7f5573657220646f65736e27742065786973740000000000000000000000000000600082015250565b600061195960128361142a565b915061196482611923565b602082019050919050565b600060208201905081810360008301526119888161194c565b9050919050565b7f526174696e672073686f756c64206265206265747765656e203120616e642035600082015250565b60006119c560208361142a565b91506119d08261198f565b602082019050919050565b600060208201905081810360008301526119f4816119b8565b9050919050565b6000611a0682610f7d565b9150611a1183610f7d565b9250828201905080821115611a2957611a286118ac565b5b92915050565b7f4e6f2070726f76696465727320726174696e67732079657420666f722074686560008201527f2075736572000000000000000000000000000000000000000000000000000000602082015250565b6000611a8b60258361142a565b9150611a9682611a2f565b604082019050919050565b60006020820190508181036000830152611aba81611a7e565b9050919050565b6000611acc82610f7d565b9150611ad783610f7d565b9250828202611ae581610f7d565b91508282048414831517611afc57611afb6118ac565b5b5092915050565b7f4e487b7100000000000000000000000000000000000000000000000000000000600052601260045260246000fd5b6000611b3d82610f7d565b9150611b4883610f7d565b925082611b5857611b57611b03565b5b828204905092915050565b6000611b6e82610f7d565b9150611b7983610f7d565b925082611b8957611b88611b03565b5b828206905092915050565b7f4e6f20636c69656e747320726174696e67732079657420666f7220746865207560008201527f7365720000000000000000000000000000000000000000000000000000000000602082015250565b6000611bf060238361142a565b9150611bfb82611b94565b604082019050919050565b60006020820190508181036000830152611c1f81611be3565b9050919050565b7f4f776e61626c653a206e6577206f776e657220697320746865207a65726f206160008201527f6464726573730000000000000000000000000000000000000000000000000000602082015250565b6000611c8260268361142a565b9150611c8d82611c26565b604082019050919050565b60006020820190508181036000830152611cb181611c75565b9050919050565b7f4f776e61626c653a2063616c6c6572206973206e6f7420746865206f776e6572600082015250565b6000611cee60208361142a565b9150611cf982611cb8565b602082019050919050565b60006020820190508181036000830152611d1d81611ce1565b905091905056fea2646970667358221220d5da8b33737e56459cb788eac33233b47ae74280d4225859dcbc067530dd4d5464736f6c63430008130033",
  "linkReferences": {},
  "deployedLinkReferences": {}
}