{
  "_format": "hh-sol-artifact-1",
  "contractName": "examples",
  "sourceName": "contracts/examples.sol",
  "abi": [
    {
      "inputs": [
        {
          "internalType": "uint256",
          "name": "",
          "type": "uint256"
        }
      ],
      "name": "services",
      "outputs": [
        {
          "internalType": "string",
          "name": "",
          "type": "string"
        }
      ],
      "stateMutability": "view",
      "type": "function"
    }
  ],
  "bytecode": "0x60806040526040518061034001604052806040518060800160405280605f8152602001620013ee605f913981526020016040518060a00160405280606181526020016200102a6061913981526020016040518060800160405280605c81526020016200114a605c913981526020016040518060800160405280605c815260200162000fce605c913981526020016040518060a00160405280606281526020016200126860629139815260200160405180608001604052806060815260200162000d266060913981526020016040518060800160405280606081526020016200132c6060913981526020016040518060800160405280605d81526020016200108b605d913981526020016040518060a001604052806061815260200162000d866061913981526020016040518060a001604052806062815260200162000b3b6062913981526020016040518060a001604052806062815260200162000ea66062913981526020016040518060a001604052806063815260200162000a756063913981526020016040518060a00160405280606281526020016200138c6062913981526020016040518060a001604052806064815260200162000c616064913981526020016040518060a0016040528060628152602001620010e86062913981526020016040518060a0016040528060658152602001620012036065913981526020016040518060800160405280605e815260200162000de7605e913981526020016040518060a001604052806061815260200162000cc56061913981526020016040518060a001604052806061815260200162000e456061913981526020016040518060a001604052806063815260200162000b9d6063913981526020016040518060a001604052806063815260200162000ad86063913981526020016040518060a001604052806063815260200162000f6b6063913981526020016040518060a0016040528060628152602001620012ca6062913981526020016040518060a001604052806063815260200162000f086063913981526020016040518060800160405280605d8152602001620011a6605d913981526020016040518060a001604052806061815260200162000c0060619139815250600090601a620003469291906200035b565b503480156200035457600080fd5b50620007a9565b828054828255906000526020600020908101928215620003a8579160200282015b82811115620003a7578251829081620003969190620006c2565b50916020019190600101906200037c565b5b509050620003b79190620003bb565b5090565b5b80821115620003df5760008181620003d59190620003e3565b50600101620003bc565b5090565b508054620003f190620004b1565b6000825580601f1062000405575062000426565b601f01602090049060005260206000209081019062000425919062000429565b5b50565b5b80821115620004445760008160009055506001016200042a565b5090565b600081519050919050565b7f4e487b7100000000000000000000000000000000000000000000000000000000600052604160045260246000fd5b7f4e487b7100000000000000000000000000000000000000000000000000000000600052602260045260246000fd5b60006002820490506001821680620004ca57607f821691505b602082108103620004e057620004df62000482565b5b50919050565b60008190508160005260206000209050919050565b60006020601f8301049050919050565b600082821b905092915050565b6000600883026200054a7fffffffffffffffffffffffffffffffffffffffffffffffffffffffffffffffff826200050b565b6200055686836200050b565b95508019841693508086168417925050509392505050565b6000819050919050565b6000819050919050565b6000620005a36200059d62000597846200056e565b62000578565b6200056e565b9050919050565b6000819050919050565b620005bf8362000582565b620005d7620005ce82620005aa565b84845462000518565b825550505050565b600090565b620005ee620005df565b620005fb818484620005b4565b505050565b5b81811015620006235762000617600082620005e4565b60018101905062000601565b5050565b601f82111562000672576200063c81620004e6565b6200064784620004fb565b8101602085101562000657578190505b6200066f6200066685620004fb565b83018262000600565b50505b505050565b600082821c905092915050565b6000620006976000198460080262000677565b1980831691505092915050565b6000620006b2838362000684565b9150826002028217905092915050565b620006cd8262000448565b67ffffffffffffffff811115620006e957620006e862000453565b5b620006f58254620004b1565b6200070282828562000627565b600060209050601f8311600181146200073a576000841562000725578287015190505b620007318582620006a4565b865550620007a1565b601f1984166200074a86620004e6565b60005b8281101562000774578489015182556001820191506020850194506020810190506200074d565b8683101562000794578489015162000790601f89168262000684565b8355505b6001600288020188555050505b505050505050565b6102bc80620007b96000396000f3fe608060405234801561001057600080fd5b506004361061002b5760003560e01c8063c22c4f4314610030575b600080fd5b61004a60048036038101906100459190610147565b610060565b6040516100579190610204565b60405180910390f35b6000818154811061007057600080fd5b90600052602060002001600091509050805461008b90610255565b80601f01602080910402602001604051908101604052809291908181526020018280546100b790610255565b80156101045780601f106100d957610100808354040283529160200191610104565b820191906000526020600020905b8154815290600101906020018083116100e757829003601f168201915b505050505081565b600080fd5b6000819050919050565b61012481610111565b811461012f57600080fd5b50565b6000813590506101418161011b565b92915050565b60006020828403121561015d5761015c61010c565b5b600061016b84828501610132565b91505092915050565b600081519050919050565b600082825260208201905092915050565b60005b838110156101ae578082015181840152602081019050610193565b60008484015250505050565b6000601f19601f8301169050919050565b60006101d682610174565b6101e0818561017f565b93506101f0818560208601610190565b6101f9816101ba565b840191505092915050565b6000602082019050818103600083015261021e81846101cb565b905092915050565b7f4e487b7100000000000000000000000000000000000000000000000000000000600052602260045260246000fd5b6000600282049050600182168061026d57607f821691505b6020821081036102805761027f610226565b5b5091905056fea264697066735822122024d1ae1428e6e47ca66fb8966cec2f5deb19f765118e60c02f99bdeaf6a7744964736f6c63430008130033227374616e64617264223a202234222c20227375626a656374223a20226263206573736179222c202274656163686572223a20226d732074616e67222c2022646179223a2022776564222c202274696d65223a2022353a3330706d2d373a3030706d22227374616e64617264223a202236222c20227375626a656374223a2022626d20636f6d70222c202274656163686572223a20226d72206e69636b222c2022646179223a202274687572222c202274696d65223a2022353a3330706d2d373a3030706d22227374616e64617264223a202233222c20227375626a656374223a2022736369656e6365222c202274656163686572223a20226d732072757468222c2022646179223a2022667269222c202274696d65223a2022383a3330706d2d393a3330706d22227374616e64617264223a202236222c20227375626a656374223a20226263206573736179222c202274656163686572223a20226d72206c696d222c2022646179223a202274687572222c202274696d65223a2022373a3030706d2d383a3330706d22227374616e64617264223a202236222c20227375626a656374223a2022736369656e6365222c202274656163686572223a20226d72206c696d222c2022646179223a2022776564222c202274696d65223a2022353a3330706d2d373a3030706d22227374616e64617264223a202234222c20227375626a656374223a2022626d206573736179222c202274656163686572223a20226d732074616e67222c2022646179223a202274687572222c202274696d65223a2022343a3030706d2d353a3330706d22227374616e64617264223a202234222c20227375626a656374223a2022736369656e6365222c202274656163686572223a20226d7220796170222c2022646179223a20226d6f6e222c202274696d65223a2022343a3030706d2d353a3330706d22227374616e64617264223a202233222c20227375626a656374223a2022626d222c202274656163686572223a20226d732063686f6c6565222c2022646179223a202274687572222c202274696d65223a2022373a3330706d2d383a3330706d22227374616e64617264223a202233222c20227375626a656374223a20226d617468222c202274656163686572223a20226d732063686f6c6565222c2022646179223a2022667269222c202274696d65223a2022373a3330706d2d383a3330706d22227374616e64617264223a202234222c20227375626a656374223a20226d617468222c202274656163686572223a20226d7220796170222c2022646179223a2022667269222c202274696d65223a2022343a3030706d2d353a3330706d22227374616e64617264223a202236222c20227375626a656374223a2022626320636f6d70222c202274656163686572223a20226d72206c696d222c2022646179223a2022747565222c202274696d65223a2022373a3030706d2d383a3330706d22227374616e64617264223a202234222c20227375626a656374223a2022626320636f6d70222c202274656163686572223a20226d732074616e67222c2022646179223a2022776564222c202274696d65223a2022343a3030706d2d353a3330706d22227374616e64617264223a202236222c20227375626a656374223a20226269206573736179222c202274656163686572223a20226d72206e69636b222c2022646179223a2022667269222c202274696d65223a2022373a3030706d2d383a3330706d22227374616e64617264223a202236222c20227375626a656374223a2022626d206573736179222c202274656163686572223a20226d72206e69636b222c2022646179223a2022667269222c202274696d65223a2022353a3330706d2d373a3030706d22227374616e64617264223a202232222c20227375626a656374223a20226269222c202274656163686572223a20226d72206c6565222c2022646179223a2022776564222c202274696d65223a2022383a3330706d2d393a3330706d22227374616e64617264223a202232222c20227375626a656374223a20226d617468222c202274656163686572223a20226d732063686f6c6565222c2022646179223a2022747565222c202274696d65223a2022373a3330706d2d383a3330706d22227374616e64617264223a202233222c20227375626a656374223a20226269222c202274656163686572223a20226d72206e69636b222c2022646179223a2022747565222c202274696d65223a2022383a3330706d2d393a3330706d22227374616e64617264223a202234222c20227375626a656374223a2022626920636f6d70222c202274656163686572223a20226d72206e69636b222c2022646179223a2022747565222c202274696d65223a2022353a3330706d2d373a3030706d22227374616e64617264223a202232222c20227375626a656374223a2022626d222c202274656163686572223a20226d72206c6565222c2022646179223a2022776564222c202274696d65223a2022373a3330706d2d383a3330706d22227374616e64617264223a202236222c20227375626a656374223a20226d617468222c202274656163686572223a20226d72206e67222c2022646179223a2022776564222c202274696d65223a2022343a3030706d2d353a3330706d22227374616e64617264223a202234222c20227375626a656374223a20226269206573736179222c202274656163686572223a20226d732063686c6f6565222c2022646179223a2022667269222c202274696d65223a2022353a3330706d2d373a3030706d22227374616e64617264223a202232222c20227375626a656374223a2022736369656e6365222c202274656163686572223a20226d732072757468222c2022646179223a2022667269222c202274696d65223a2022373a3330706d2d383a3330706d22227374616e64617264223a202236222c20227375626a656374223a2022626920636f6d70222c202274656163686572223a20226d72206e69636b222c2022646179223a20226d6f6e222c202274696d65223a2022353a3330706d2d373a3030706d22227374616e64617264223a202233222c20227375626a656374223a20226263222c202274656163686572223a20226d732063686f6c6565222c2022646179223a202274687572222c202274696d65223a2022383a3330706d2d393a3330706d22227374616e64617264223a202234222c20227375626a656374223a2022626d20636f6d70222c202274656163686572223a20226d732074616e67222c2022646179223a2022747565222c202274696d65223a2022343a3030706d2d353a3330706d22227374616e64617264223a202232222c20227375626a656374223a20226263222c202274656163686572223a20226d732063686f6c6565222c2022646179223a2022747565222c202274696d65223a2022383a3330706d2d393a3330706d22",
  "linkReferences": {},
  "deployedLinkReferences": {}
}