{"contracts/examples.sol":{"examples":{"abi":[{"inputs":[{"internalType":"uint256","name":"","type":"uint256"}],"name":"services","outputs":[{"internalType":"string","name":"","type":"string"}],"stateMutability":"view","type":"function"}],"evm":{"bytecode":{"linkReferences":{},"object":"60806040526040518061034001604052806040518060800160405280605f8152602001620013ee605f913981526020016040518060a00160405280606181526020016200102a6061913981526020016040518060800160405280605c81526020016200114a605c913981526020016040518060800160405280605c815260200162000fce605c913981526020016040518060a00160405280606281526020016200126860629139815260200160405180608001604052806060815260200162000d266060913981526020016040518060800160405280606081526020016200132c6060913981526020016040518060800160405280605d81526020016200108b605d913981526020016040518060a001604052806061815260200162000d866061913981526020016040518060a001604052806062815260200162000b3b6062913981526020016040518060a001604052806062815260200162000ea66062913981526020016040518060a001604052806063815260200162000a756063913981526020016040518060a00160405280606281526020016200138c6062913981526020016040518060a001604052806064815260200162000c616064913981526020016040518060a0016040528060628152602001620010e86062913981526020016040518060a0016040528060658152602001620012036065913981526020016040518060800160405280605e815260200162000de7605e913981526020016040518060a001604052806061815260200162000cc56061913981526020016040518060a001604052806061815260200162000e456061913981526020016040518060a001604052806063815260200162000b9d6063913981526020016040518060a001604052806063815260200162000ad86063913981526020016040518060a001604052806063815260200162000f6b6063913981526020016040518060a0016040528060628152602001620012ca6062913981526020016040518060a001604052806063815260200162000f086063913981526020016040518060800160405280605d8152602001620011a6605d913981526020016040518060a001604052806061815260200162000c0060619139815250600090601a620003469291906200035b565b503480156200035457600080fd5b50620007a9565b828054828255906000526020600020908101928215620003a8579160200282015b82811115620003a7578251829081620003969190620006c2565b50916020019190600101906200037c565b5b509050620003b79190620003bb565b5090565b5b80821115620003df5760008181620003d59190620003e3565b50600101620003bc565b5090565b508054620003f190620004b1565b6000825580601f1062000405575062000426565b601f01602090049060005260206000209081019062000425919062000429565b5b50565b5b80821115620004445760008160009055506001016200042a565b5090565b600081519050919050565b7f4e487b7100000000000000000000000000000000000000000000000000000000600052604160045260246000fd5b7f4e487b7100000000000000000000000000000000000000000000000000000000600052602260045260246000fd5b60006002820490506001821680620004ca57607f821691505b602082108103620004e057620004df62000482565b5b50919050565b60008190508160005260206000209050919050565b60006020601f8301049050919050565b600082821b905092915050565b6000600883026200054a7fffffffffffffffffffffffffffffffffffffffffffffffffffffffffffffffff826200050b565b6200055686836200050b565b95508019841693508086168417925050509392505050565b6000819050919050565b6000819050919050565b6000620005a36200059d62000597846200056e565b62000578565b6200056e565b9050919050565b6000819050919050565b620005bf8362000582565b620005d7620005ce82620005aa565b84845462000518565b825550505050565b600090565b620005ee620005df565b620005fb818484620005b4565b505050565b5b81811015620006235762000617600082620005e4565b60018101905062000601565b5050565b601f82111562000672576200063c81620004e6565b6200064784620004fb565b8101602085101562000657578190505b6200066f6200066685620004fb565b83018262000600565b50505b505050565b600082821c905092915050565b6000620006976000198460080262000677565b1980831691505092915050565b6000620006b2838362000684565b9150826002028217905092915050565b620006cd8262000448565b67ffffffffffffffff811115620006e957620006e862000453565b5b620006f58254620004b1565b6200070282828562000627565b600060209050601f8311600181146200073a576000841562000725578287015190505b620007318582620006a4565b865550620007a1565b601f1984166200074a86620004e6565b60005b8281101562000774578489015182556001820191506020850194506020810190506200074d565b8683101562000794578489015162000790601f89168262000684565b8355505b6001600288020188555050505b505050505050565b6102bc80620007b96000396000f3fe608060405234801561001057600080fd5b506004361061002b5760003560e01c8063c22c4f4314610030575b600080fd5b61004a60048036038101906100459190610147565b610060565b6040516100579190610204565b60405180910390f35b6000818154811061007057600080fd5b90600052602060002001600091509050805461008b90610255565b80601f01602080910402602001604051908101604052809291908181526020018280546100b790610255565b80156101045780601f106100d957610100808354040283529160200191610104565b820191906000526020600020905b8154815290600101906020018083116100e757829003601f168201915b505050505081565b600080fd5b6000819050919050565b61012481610111565b811461012f57600080fd5b50565b6000813590506101418161011b565b92915050565b60006020828403121561015d5761015c61010c565b5b600061016b84828501610132565b91505092915050565b600081519050919050565b600082825260208201905092915050565b60005b838110156101ae578082015181840152602081019050610193565b60008484015250505050565b6000601f19601f8301169050919050565b60006101d682610174565b6101e0818561017f565b93506101f0818560208601610190565b6101f9816101ba565b840191505092915050565b6000602082019050818103600083015261021e81846101cb565b905092915050565b7f4e487b7100000000000000000000000000000000000000000000000000000000600052602260045260246000fd5b6000600282049050600182168061026d57607f821691505b6020821081036102805761027f610226565b5b5091905056fea264697066735822122024d1ae1428e6e47ca66fb8966cec2f5deb19f765118e60c02f99bdeaf6a7744964736f6c63430008130033227374616e64617264223a202234222c20227375626a656374223a20226263206573736179222c202274656163686572223a20226d732074616e67222c2022646179223a2022776564222c202274696d65223a2022353a3330706d2d373a3030706d22227374616e64617264223a202236222c20227375626a656374223a2022626d20636f6d70222c202274656163686572223a20226d72206e69636b222c2022646179223a202274687572222c202274696d65223a2022353a3330706d2d373a3030706d22227374616e64617264223a202233222c20227375626a656374223a2022736369656e6365222c202274656163686572223a20226d732072757468222c2022646179223a2022667269222c202274696d65223a2022383a3330706d2d393a3330706d22227374616e64617264223a202236222c20227375626a656374223a20226263206573736179222c202274656163686572223a20226d72206c696d222c2022646179223a202274687572222c202274696d65223a2022373a3030706d2d383a3330706d22227374616e64617264223a202236222c20227375626a656374223a2022736369656e6365222c202274656163686572223a20226d72206c696d222c2022646179223a2022776564222c202274696d65223a2022353a3330706d2d373a3030706d22227374616e64617264223a202234222c20227375626a656374223a2022626d206573736179222c202274656163686572223a20226d732074616e67222c2022646179223a202274687572222c202274696d65223a2022343a3030706d2d353a3330706d22227374616e64617264223a202234222c20227375626a656374223a2022736369656e6365222c202274656163686572223a20226d7220796170222c2022646179223a20226d6f6e222c202274696d65223a2022343a3030706d2d353a3330706d22227374616e64617264223a202233222c20227375626a656374223a2022626d222c202274656163686572223a20226d732063686f6c6565222c2022646179223a202274687572222c202274696d65223a2022373a3330706d2d383a3330706d22227374616e64617264223a202233222c20227375626a656374223a20226d617468222c202274656163686572223a20226d732063686f6c6565222c2022646179223a2022667269222c202274696d65223a2022373a3330706d2d383a3330706d22227374616e64617264223a202234222c20227375626a656374223a20226d617468222c202274656163686572223a20226d7220796170222c2022646179223a2022667269222c202274696d65223a2022343a3030706d2d353a3330706d22227374616e64617264223a202236222c20227375626a656374223a2022626320636f6d70222c202274656163686572223a20226d72206c696d222c2022646179223a2022747565222c202274696d65223a2022373a3030706d2d383a3330706d22227374616e64617264223a202234222c20227375626a656374223a2022626320636f6d70222c202274656163686572223a20226d732074616e67222c2022646179223a2022776564222c202274696d65223a2022343a3030706d2d353a3330706d22227374616e64617264223a202236222c20227375626a656374223a20226269206573736179222c202274656163686572223a20226d72206e69636b222c2022646179223a2022667269222c202274696d65223a2022373a3030706d2d383a3330706d22227374616e64617264223a202236222c20227375626a656374223a2022626d206573736179222c202274656163686572223a20226d72206e69636b222c2022646179223a2022667269222c202274696d65223a2022353a3330706d2d373a3030706d22227374616e64617264223a202232222c20227375626a656374223a20226269222c202274656163686572223a20226d72206c6565222c2022646179223a2022776564222c202274696d65223a2022383a3330706d2d393a3330706d22227374616e64617264223a202232222c20227375626a656374223a20226d617468222c202274656163686572223a20226d732063686f6c6565222c2022646179223a2022747565222c202274696d65223a2022373a3330706d2d383a3330706d22227374616e64617264223a202233222c20227375626a656374223a20226269222c202274656163686572223a20226d72206e69636b222c2022646179223a2022747565222c202274696d65223a2022383a3330706d2d393a3330706d22227374616e64617264223a202234222c20227375626a656374223a2022626920636f6d70222c202274656163686572223a20226d72206e69636b222c2022646179223a2022747565222c202274696d65223a2022353a3330706d2d373a3030706d22227374616e64617264223a202232222c20227375626a656374223a2022626d222c202274656163686572223a20226d72206c6565222c2022646179223a2022776564222c202274696d65223a2022373a3330706d2d383a3330706d22227374616e64617264223a202236222c20227375626a656374223a20226d617468222c202274656163686572223a20226d72206e67222c2022646179223a2022776564222c202274696d65223a2022343a3030706d2d353a3330706d22227374616e64617264223a202234222c20227375626a656374223a20226269206573736179222c202274656163686572223a20226d732063686c6f6565222c2022646179223a2022667269222c202274696d65223a2022353a3330706d2d373a3030706d22227374616e64617264223a202232222c20227375626a656374223a2022736369656e6365222c202274656163686572223a20226d732072757468222c2022646179223a2022667269222c202274696d65223a2022373a3330706d2d383a3330706d22227374616e64617264223a202236222c20227375626a656374223a2022626920636f6d70222c202274656163686572223a20226d72206e69636b222c2022646179223a20226d6f6e222c202274696d65223a2022353a3330706d2d373a3030706d22227374616e64617264223a202233222c20227375626a656374223a20226263222c202274656163686572223a20226d732063686f6c6565222c2022646179223a202274687572222c202274696d65223a2022383a3330706d2d393a3330706d22227374616e64617264223a202234222c20227375626a656374223a2022626d20636f6d70222c202274656163686572223a20226d732074616e67222c2022646179223a2022747565222c202274696d65223a2022343a3030706d2d353a3330706d22227374616e64617264223a202232222c20227375626a656374223a20226263222c202274656163686572223a20226d732063686f6c6565222c2022646179223a2022747565222c202274696d65223a2022383a3330706d2d393a3330706d22","opcodes":"PUSH1 0x80 PUSH1 0x40 MSTORE PUSH1 0x40 MLOAD DUP1 PUSH2 0x340 ADD PUSH1 0x40 MSTORE DUP1 PUSH1 0x40 MLOAD DUP1 PUSH1 0x80 ADD PUSH1 0x40 MSTORE DUP1 PUSH1 0x5F DUP2 MSTORE PUSH1 0x20 ADD PUSH3 0x13EE PUSH1 0x5F SWAP2 CODECOPY DUP2 MSTORE PUSH1 0x20 ADD PUSH1 0x40 MLOAD DUP1 PUSH1 0xA0 ADD PUSH1 0x40 MSTORE DUP1 PUSH1 0x61 DUP2 MSTORE PUSH1 0x20 ADD PUSH3 0x102A PUSH1 0x61 SWAP2 CODECOPY DUP2 MSTORE PUSH1 0x20 ADD PUSH1 0x40 MLOAD DUP1 PUSH1 0x80 ADD PUSH1 0x40 MSTORE DUP1 PUSH1 0x5C DUP2 MSTORE PUSH1 0x20 ADD PUSH3 0x114A PUSH1 0x5C SWAP2 CODECOPY DUP2 MSTORE PUSH1 0x20 ADD PUSH1 0x40 MLOAD DUP1 PUSH1 0x80 ADD PUSH1 0x40 MSTORE DUP1 PUSH1 0x5C DUP2 MSTORE PUSH1 0x20 ADD PUSH3 0xFCE PUSH1 0x5C SWAP2 CODECOPY DUP2 MSTORE PUSH1 0x20 ADD PUSH1 0x40 MLOAD DUP1 PUSH1 0xA0 ADD PUSH1 0x40 MSTORE DUP1 PUSH1 0x62 DUP2 MSTORE PUSH1 0x20 ADD PUSH3 0x1268 PUSH1 0x62 SWAP2 CODECOPY DUP2 MSTORE PUSH1 0x20 ADD PUSH1 0x40 MLOAD DUP1 PUSH1 0x80 ADD PUSH1 0x40 MSTORE DUP1 PUSH1 0x60 DUP2 MSTORE PUSH1 0x20 ADD PUSH3 0xD26 PUSH1 0x60 SWAP2 CODECOPY DUP2 MSTORE PUSH1 0x20 ADD PUSH1 0x40 MLOAD DUP1 PUSH1 0x80 ADD PUSH1 0x40 MSTORE DUP1 PUSH1 0x60 DUP2 MSTORE PUSH1 0x20 ADD PUSH3 0x132C PUSH1 0x60 SWAP2 CODECOPY DUP2 MSTORE PUSH1 0x20 ADD PUSH1 0x40 MLOAD DUP1 PUSH1 0x80 ADD PUSH1 0x40 MSTORE DUP1 PUSH1 0x5D DUP2 MSTORE PUSH1 0x20 ADD PUSH3 0x108B PUSH1 0x5D SWAP2 CODECOPY DUP2 MSTORE PUSH1 0x20 ADD PUSH1 0x40 MLOAD DUP1 PUSH1 0xA0 ADD PUSH1 0x40 MSTORE DUP1 PUSH1 0x61 DUP2 MSTORE PUSH1 0x20 ADD PUSH3 0xD86 PUSH1 0x61 SWAP2 CODECOPY DUP2 MSTORE PUSH1 0x20 ADD PUSH1 0x40 MLOAD DUP1 PUSH1 0xA0 ADD PUSH1 0x40 MSTORE DUP1 PUSH1 0x62 DUP2 MSTORE PUSH1 0x20 ADD PUSH3 0xB3B PUSH1 0x62 SWAP2 CODECOPY DUP2 MSTORE PUSH1 0x20 ADD PUSH1 0x40 MLOAD DUP1 PUSH1 0xA0 ADD PUSH1 0x40 MSTORE DUP1 PUSH1 0x62 DUP2 MSTORE PUSH1 0x20 ADD PUSH3 0xEA6 PUSH1 0x62 SWAP2 CODECOPY DUP2 MSTORE PUSH1 0x20 ADD PUSH1 0x40 MLOAD DUP1 PUSH1 0xA0 ADD PUSH1 0x40 MSTORE DUP1 PUSH1 0x63 DUP2 MSTORE PUSH1 0x20 ADD PUSH3 0xA75 PUSH1 0x63 SWAP2 CODECOPY DUP2 MSTORE PUSH1 0x20 ADD PUSH1 0x40 MLOAD DUP1 PUSH1 0xA0 ADD PUSH1 0x40 MSTORE DUP1 PUSH1 0x62 DUP2 MSTORE PUSH1 0x20 ADD PUSH3 0x138C PUSH1 0x62 SWAP2 CODECOPY DUP2 MSTORE PUSH1 0x20 ADD PUSH1 0x40 MLOAD DUP1 PUSH1 0xA0 ADD PUSH1 0x40 MSTORE DUP1 PUSH1 0x64 DUP2 MSTORE PUSH1 0x20 ADD PUSH3 0xC61 PUSH1 0x64 SWAP2 CODECOPY DUP2 MSTORE PUSH1 0x20 ADD PUSH1 0x40 MLOAD DUP1 PUSH1 0xA0 ADD PUSH1 0x40 MSTORE DUP1 PUSH1 0x62 DUP2 MSTORE PUSH1 0x20 ADD PUSH3 0x10E8 PUSH1 0x62 SWAP2 CODECOPY DUP2 MSTORE PUSH1 0x20 ADD PUSH1 0x40 MLOAD DUP1 PUSH1 0xA0 ADD PUSH1 0x40 MSTORE DUP1 PUSH1 0x65 DUP2 MSTORE PUSH1 0x20 ADD PUSH3 0x1203 PUSH1 0x65 SWAP2 CODECOPY DUP2 MSTORE PUSH1 0x20 ADD PUSH1 0x40 MLOAD DUP1 PUSH1 0x80 ADD PUSH1 0x40 MSTORE DUP1 PUSH1 0x5E DUP2 MSTORE PUSH1 0x20 ADD PUSH3 0xDE7 PUSH1 0x5E SWAP2 CODECOPY DUP2 MSTORE PUSH1 0x20 ADD PUSH1 0x40 MLOAD DUP1 PUSH1 0xA0 ADD PUSH1 0x40 MSTORE DUP1 PUSH1 0x61 DUP2 MSTORE PUSH1 0x20 ADD PUSH3 0xCC5 PUSH1 0x61 SWAP2 CODECOPY DUP2 MSTORE PUSH1 0x20 ADD PUSH1 0x40 MLOAD DUP1 PUSH1 0xA0 ADD PUSH1 0x40 MSTORE DUP1 PUSH1 0x61 DUP2 MSTORE PUSH1 0x20 ADD PUSH3 0xE45 PUSH1 0x61 SWAP2 CODECOPY DUP2 MSTORE PUSH1 0x20 ADD PUSH1 0x40 MLOAD DUP1 PUSH1 0xA0 ADD PUSH1 0x40 MSTORE DUP1 PUSH1 0x63 DUP2 MSTORE PUSH1 0x20 ADD PUSH3 0xB9D PUSH1 0x63 SWAP2 CODECOPY DUP2 MSTORE PUSH1 0x20 ADD PUSH1 0x40 MLOAD DUP1 PUSH1 0xA0 ADD PUSH1 0x40 MSTORE DUP1 PUSH1 0x63 DUP2 MSTORE PUSH1 0x20 ADD PUSH3 0xAD8 PUSH1 0x63 SWAP2 CODECOPY DUP2 MSTORE PUSH1 0x20 ADD PUSH1 0x40 MLOAD DUP1 PUSH1 0xA0 ADD PUSH1 0x40 MSTORE DUP1 PUSH1 0x63 DUP2 MSTORE PUSH1 0x20 ADD PUSH3 0xF6B PUSH1 0x63 SWAP2 CODECOPY DUP2 MSTORE PUSH1 0x20 ADD PUSH1 0x40 MLOAD DUP1 PUSH1 0xA0 ADD PUSH1 0x40 MSTORE DUP1 PUSH1 0x62 DUP2 MSTORE PUSH1 0x20 ADD PUSH3 0x12CA PUSH1 0x62 SWAP2 CODECOPY DUP2 MSTORE PUSH1 0x20 ADD PUSH1 0x40 MLOAD DUP1 PUSH1 0xA0 ADD PUSH1 0x40 MSTORE DUP1 PUSH1 0x63 DUP2 MSTORE PUSH1 0x20 ADD PUSH3 0xF08 PUSH1 0x63 SWAP2 CODECOPY DUP2 MSTORE PUSH1 0x20 ADD PUSH1 0x40 MLOAD DUP1 PUSH1 0x80 ADD PUSH1 0x40 MSTORE DUP1 PUSH1 0x5D DUP2 MSTORE PUSH1 0x20 ADD PUSH3 0x11A6 PUSH1 0x5D SWAP2 CODECOPY DUP2 MSTORE PUSH1 0x20 ADD PUSH1 0x40 MLOAD DUP1 PUSH1 0xA0 ADD PUSH1 0x40 MSTORE DUP1 PUSH1 0x61 DUP2 MSTORE PUSH1 0x20 ADD PUSH3 0xC00 PUSH1 0x61 SWAP2 CODECOPY DUP2 MSTORE POP PUSH1 0x0 SWAP1 PUSH1 0x1A PUSH3 0x346 SWAP3 SWAP2 SWAP1 PUSH3 0x35B JUMP JUMPDEST POP CALLVALUE DUP1 ISZERO PUSH3 0x354 JUMPI PUSH1 0x0 DUP1 REVERT JUMPDEST POP PUSH3 0x7A9 JUMP JUMPDEST DUP3 DUP1 SLOAD DUP3 DUP3 SSTORE SWAP1 PUSH1 0x0 MSTORE PUSH1 0x20 PUSH1 0x0 KECCAK256 SWAP1 DUP2 ADD SWAP3 DUP3 ISZERO PUSH3 0x3A8 JUMPI SWAP2 PUSH1 0x20 MUL DUP3 ADD JUMPDEST DUP3 DUP2 GT ISZERO PUSH3 0x3A7 JUMPI DUP3 MLOAD DUP3 SWAP1 DUP2 PUSH3 0x396 SWAP2 SWAP1 PUSH3 0x6C2 JUMP JUMPDEST POP SWAP2 PUSH1 0x20 ADD SWAP2 SWAP1 PUSH1 0x1 ADD SWAP1 PUSH3 0x37C JUMP JUMPDEST JUMPDEST POP SWAP1 POP PUSH3 0x3B7 SWAP2 SWAP1 PUSH3 0x3BB JUMP JUMPDEST POP SWAP1 JUMP JUMPDEST JUMPDEST DUP1 DUP3 GT ISZERO PUSH3 0x3DF JUMPI PUSH1 0x0 DUP2 DUP2 PUSH3 0x3D5 SWAP2 SWAP1 PUSH3 0x3E3 JUMP JUMPDEST POP PUSH1 0x1 ADD PUSH3 0x3BC JUMP JUMPDEST POP SWAP1 JUMP JUMPDEST POP DUP1 SLOAD PUSH3 0x3F1 SWAP1 PUSH3 0x4B1 JUMP JUMPDEST PUSH1 0x0 DUP3 SSTORE DUP1 PUSH1 0x1F LT PUSH3 0x405 JUMPI POP PUSH3 0x426 JUMP JUMPDEST PUSH1 0x1F ADD PUSH1 0x20 SWAP1 DIV SWAP1 PUSH1 0x0 MSTORE PUSH1 0x20 PUSH1 0x0 KECCAK256 SWAP1 DUP2 ADD SWAP1 PUSH3 0x425 SWAP2 SWAP1 PUSH3 0x429 JUMP JUMPDEST JUMPDEST POP JUMP JUMPDEST JUMPDEST DUP1 DUP3 GT ISZERO PUSH3 0x444 JUMPI PUSH1 0x0 DUP2 PUSH1 0x0 SWAP1 SSTORE POP PUSH1 0x1 ADD PUSH3 0x42A JUMP JUMPDEST POP SWAP1 JUMP JUMPDEST PUSH1 0x0 DUP2 MLOAD SWAP1 POP SWAP2 SWAP1 POP JUMP JUMPDEST PUSH32 0x4E487B7100000000000000000000000000000000000000000000000000000000 PUSH1 0x0 MSTORE PUSH1 0x41 PUSH1 0x4 MSTORE PUSH1 0x24 PUSH1 0x0 REVERT JUMPDEST PUSH32 0x4E487B7100000000000000000000000000000000000000000000000000000000 PUSH1 0x0 MSTORE PUSH1 0x22 PUSH1 0x4 MSTORE PUSH1 0x24 PUSH1 0x0 REVERT JUMPDEST PUSH1 0x0 PUSH1 0x2 DUP3 DIV SWAP1 POP PUSH1 0x1 DUP3 AND DUP1 PUSH3 0x4CA JUMPI PUSH1 0x7F DUP3 AND SWAP2 POP JUMPDEST PUSH1 0x20 DUP3 LT DUP2 SUB PUSH3 0x4E0 JUMPI PUSH3 0x4DF PUSH3 0x482 JUMP JUMPDEST JUMPDEST POP SWAP2 SWAP1 POP JUMP JUMPDEST PUSH1 0x0 DUP2 SWAP1 POP DUP2 PUSH1 0x0 MSTORE PUSH1 0x20 PUSH1 0x0 KECCAK256 SWAP1 POP SWAP2 SWAP1 POP JUMP JUMPDEST PUSH1 0x0 PUSH1 0x20 PUSH1 0x1F DUP4 ADD DIV SWAP1 POP SWAP2 SWAP1 POP JUMP JUMPDEST PUSH1 0x0 DUP3 DUP3 SHL SWAP1 POP SWAP3 SWAP2 POP POP JUMP JUMPDEST PUSH1 0x0 PUSH1 0x8 DUP4 MUL PUSH3 0x54A PUSH32 0xFFFFFFFFFFFFFFFFFFFFFFFFFFFFFFFFFFFFFFFFFFFFFFFFFFFFFFFFFFFFFFFF DUP3 PUSH3 0x50B JUMP JUMPDEST PUSH3 0x556 DUP7 DUP4 PUSH3 0x50B JUMP JUMPDEST SWAP6 POP DUP1 NOT DUP5 AND SWAP4 POP DUP1 DUP7 AND DUP5 OR SWAP3 POP POP POP SWAP4 SWAP3 POP POP POP JUMP JUMPDEST PUSH1 0x0 DUP2 SWAP1 POP SWAP2 SWAP1 POP JUMP JUMPDEST PUSH1 0x0 DUP2 SWAP1 POP SWAP2 SWAP1 POP JUMP JUMPDEST PUSH1 0x0 PUSH3 0x5A3 PUSH3 0x59D PUSH3 0x597 DUP5 PUSH3 0x56E JUMP JUMPDEST PUSH3 0x578 JUMP JUMPDEST PUSH3 0x56E JUMP JUMPDEST SWAP1 POP SWAP2 SWAP1 POP JUMP JUMPDEST PUSH1 0x0 DUP2 SWAP1 POP SWAP2 SWAP1 POP JUMP JUMPDEST PUSH3 0x5BF DUP4 PUSH3 0x582 JUMP JUMPDEST PUSH3 0x5D7 PUSH3 0x5CE DUP3 PUSH3 0x5AA JUMP JUMPDEST DUP5 DUP5 SLOAD PUSH3 0x518 JUMP JUMPDEST DUP3 SSTORE POP POP POP POP JUMP JUMPDEST PUSH1 0x0 SWAP1 JUMP JUMPDEST PUSH3 0x5EE PUSH3 0x5DF JUMP JUMPDEST PUSH3 0x5FB DUP2 DUP5 DUP5 PUSH3 0x5B4 JUMP JUMPDEST POP POP POP JUMP JUMPDEST JUMPDEST DUP2 DUP2 LT ISZERO PUSH3 0x623 JUMPI PUSH3 0x617 PUSH1 0x0 DUP3 PUSH3 0x5E4 JUMP JUMPDEST PUSH1 0x1 DUP2 ADD SWAP1 POP PUSH3 0x601 JUMP JUMPDEST POP POP JUMP JUMPDEST PUSH1 0x1F DUP3 GT ISZERO PUSH3 0x672 JUMPI PUSH3 0x63C DUP2 PUSH3 0x4E6 JUMP JUMPDEST PUSH3 0x647 DUP5 PUSH3 0x4FB JUMP JUMPDEST DUP2 ADD PUSH1 0x20 DUP6 LT ISZERO PUSH3 0x657 JUMPI DUP2 SWAP1 POP JUMPDEST PUSH3 0x66F PUSH3 0x666 DUP6 PUSH3 0x4FB JUMP JUMPDEST DUP4 ADD DUP3 PUSH3 0x600 JUMP JUMPDEST POP POP JUMPDEST POP POP POP JUMP JUMPDEST PUSH1 0x0 DUP3 DUP3 SHR SWAP1 POP SWAP3 SWAP2 POP POP JUMP JUMPDEST PUSH1 0x0 PUSH3 0x697 PUSH1 0x0 NOT DUP5 PUSH1 0x8 MUL PUSH3 0x677 JUMP JUMPDEST NOT DUP1 DUP4 AND SWAP2 POP POP SWAP3 SWAP2 POP POP JUMP JUMPDEST PUSH1 0x0 PUSH3 0x6B2 DUP4 DUP4 PUSH3 0x684 JUMP JUMPDEST SWAP2 POP DUP3 PUSH1 0x2 MUL DUP3 OR SWAP1 POP SWAP3 SWAP2 POP POP JUMP JUMPDEST PUSH3 0x6CD DUP3 PUSH3 0x448 JUMP JUMPDEST PUSH8 0xFFFFFFFFFFFFFFFF DUP2 GT ISZERO PUSH3 0x6E9 JUMPI PUSH3 0x6E8 PUSH3 0x453 JUMP JUMPDEST JUMPDEST PUSH3 0x6F5 DUP3 SLOAD PUSH3 0x4B1 JUMP JUMPDEST PUSH3 0x702 DUP3 DUP3 DUP6 PUSH3 0x627 JUMP JUMPDEST PUSH1 0x0 PUSH1 0x20 SWAP1 POP PUSH1 0x1F DUP4 GT PUSH1 0x1 DUP2 EQ PUSH3 0x73A JUMPI PUSH1 0x0 DUP5 ISZERO PUSH3 0x725 JUMPI DUP3 DUP8 ADD MLOAD SWAP1 POP JUMPDEST PUSH3 0x731 DUP6 DUP3 PUSH3 0x6A4 JUMP JUMPDEST DUP7 SSTORE POP PUSH3 0x7A1 JUMP JUMPDEST PUSH1 0x1F NOT DUP5 AND PUSH3 0x74A DUP7 PUSH3 0x4E6 JUMP JUMPDEST PUSH1 0x0 JUMPDEST DUP3 DUP2 LT ISZERO PUSH3 0x774 JUMPI DUP5 DUP10 ADD MLOAD DUP3 SSTORE PUSH1 0x1 DUP3 ADD SWAP2 POP PUSH1 0x20 DUP6 ADD SWAP5 POP PUSH1 0x20 DUP2 ADD SWAP1 POP PUSH3 0x74D JUMP JUMPDEST DUP7 DUP4 LT ISZERO PUSH3 0x794 JUMPI DUP5 DUP10 ADD MLOAD PUSH3 0x790 PUSH1 0x1F DUP10 AND DUP3 PUSH3 0x684 JUMP JUMPDEST DUP4 SSTORE POP JUMPDEST PUSH1 0x1 PUSH1 0x2 DUP9 MUL ADD DUP9 SSTORE POP POP POP JUMPDEST POP POP POP POP POP POP JUMP JUMPDEST PUSH2 0x2BC DUP1 PUSH3 0x7B9 PUSH1 0x0 CODECOPY PUSH1 0x0 RETURN INVALID PUSH1 0x80 PUSH1 0x40 MSTORE CALLVALUE DUP1 ISZERO PUSH2 0x10 JUMPI PUSH1 0x0 DUP1 REVERT JUMPDEST POP PUSH1 0x4 CALLDATASIZE LT PUSH2 0x2B JUMPI PUSH1 0x0 CALLDATALOAD PUSH1 0xE0 SHR DUP1 PUSH4 0xC22C4F43 EQ PUSH2 0x30 JUMPI JUMPDEST PUSH1 0x0 DUP1 REVERT JUMPDEST PUSH2 0x4A PUSH1 0x4 DUP1 CALLDATASIZE SUB DUP2 ADD SWAP1 PUSH2 0x45 SWAP2 SWAP1 PUSH2 0x147 JUMP JUMPDEST PUSH2 0x60 JUMP JUMPDEST PUSH1 0x40 MLOAD PUSH2 0x57 SWAP2 SWAP1 PUSH2 0x204 JUMP JUMPDEST PUSH1 0x40 MLOAD DUP1 SWAP2 SUB SWAP1 RETURN JUMPDEST PUSH1 0x0 DUP2 DUP2 SLOAD DUP2 LT PUSH2 0x70 JUMPI PUSH1 0x0 DUP1 REVERT JUMPDEST SWAP1 PUSH1 0x0 MSTORE PUSH1 0x20 PUSH1 0x0 KECCAK256 ADD PUSH1 0x0 SWAP2 POP SWAP1 POP DUP1 SLOAD PUSH2 0x8B SWAP1 PUSH2 0x255 JUMP JUMPDEST DUP1 PUSH1 0x1F ADD PUSH1 0x20 DUP1 SWAP2 DIV MUL PUSH1 0x20 ADD PUSH1 0x40 MLOAD SWAP1 DUP2 ADD PUSH1 0x40 MSTORE DUP1 SWAP3 SWAP2 SWAP1 DUP2 DUP2 MSTORE PUSH1 0x20 ADD DUP3 DUP1 SLOAD PUSH2 0xB7 SWAP1 PUSH2 0x255 JUMP JUMPDEST DUP1 ISZERO PUSH2 0x104 JUMPI DUP1 PUSH1 0x1F LT PUSH2 0xD9 JUMPI PUSH2 0x100 DUP1 DUP4 SLOAD DIV MUL DUP4 MSTORE SWAP2 PUSH1 0x20 ADD SWAP2 PUSH2 0x104 JUMP JUMPDEST DUP3 ADD SWAP2 SWAP1 PUSH1 0x0 MSTORE PUSH1 0x20 PUSH1 0x0 KECCAK256 SWAP1 JUMPDEST DUP2 SLOAD DUP2 MSTORE SWAP1 PUSH1 0x1 ADD SWAP1 PUSH1 0x20 ADD DUP1 DUP4 GT PUSH2 0xE7 JUMPI DUP3 SWAP1 SUB PUSH1 0x1F AND DUP3 ADD SWAP2 JUMPDEST POP POP POP POP POP DUP2 JUMP JUMPDEST PUSH1 0x0 DUP1 REVERT JUMPDEST PUSH1 0x0 DUP2 SWAP1 POP SWAP2 SWAP1 POP JUMP JUMPDEST PUSH2 0x124 DUP2 PUSH2 0x111 JUMP JUMPDEST DUP2 EQ PUSH2 0x12F JUMPI PUSH1 0x0 DUP1 REVERT JUMPDEST POP JUMP JUMPDEST PUSH1 0x0 DUP2 CALLDATALOAD SWAP1 POP PUSH2 0x141 DUP2 PUSH2 0x11B JUMP JUMPDEST SWAP3 SWAP2 POP POP JUMP JUMPDEST PUSH1 0x0 PUSH1 0x20 DUP3 DUP5 SUB SLT ISZERO PUSH2 0x15D JUMPI PUSH2 0x15C PUSH2 0x10C JUMP JUMPDEST JUMPDEST PUSH1 0x0 PUSH2 0x16B DUP5 DUP3 DUP6 ADD PUSH2 0x132 JUMP JUMPDEST SWAP2 POP POP SWAP3 SWAP2 POP POP JUMP JUMPDEST PUSH1 0x0 DUP2 MLOAD SWAP1 POP SWAP2 SWAP1 POP JUMP JUMPDEST PUSH1 0x0 DUP3 DUP3 MSTORE PUSH1 0x20 DUP3 ADD SWAP1 POP SWAP3 SWAP2 POP POP JUMP JUMPDEST PUSH1 0x0 JUMPDEST DUP4 DUP2 LT ISZERO PUSH2 0x1AE JUMPI DUP1 DUP3 ADD MLOAD DUP2 DUP5 ADD MSTORE PUSH1 0x20 DUP2 ADD SWAP1 POP PUSH2 0x193 JUMP JUMPDEST PUSH1 0x0 DUP5 DUP5 ADD MSTORE POP POP POP POP JUMP JUMPDEST PUSH1 0x0 PUSH1 0x1F NOT PUSH1 0x1F DUP4 ADD AND SWAP1 POP SWAP2 SWAP1 POP JUMP JUMPDEST PUSH1 0x0 PUSH2 0x1D6 DUP3 PUSH2 0x174 JUMP JUMPDEST PUSH2 0x1E0 DUP2 DUP6 PUSH2 0x17F JUMP JUMPDEST SWAP4 POP PUSH2 0x1F0 DUP2 DUP6 PUSH1 0x20 DUP7 ADD PUSH2 0x190 JUMP JUMPDEST PUSH2 0x1F9 DUP2 PUSH2 0x1BA JUMP JUMPDEST DUP5 ADD SWAP2 POP POP SWAP3 SWAP2 POP POP JUMP JUMPDEST PUSH1 0x0 PUSH1 0x20 DUP3 ADD SWAP1 POP DUP2 DUP2 SUB PUSH1 0x0 DUP4 ADD MSTORE PUSH2 0x21E DUP2 DUP5 PUSH2 0x1CB JUMP JUMPDEST SWAP1 POP SWAP3 SWAP2 POP POP JUMP JUMPDEST PUSH32 0x4E487B7100000000000000000000000000000000000000000000000000000000 PUSH1 0x0 MSTORE PUSH1 0x22 PUSH1 0x4 MSTORE PUSH1 0x24 PUSH1 0x0 REVERT JUMPDEST PUSH1 0x0 PUSH1 0x2 DUP3 DIV SWAP1 POP PUSH1 0x1 DUP3 AND DUP1 PUSH2 0x26D JUMPI PUSH1 0x7F DUP3 AND SWAP2 POP JUMPDEST PUSH1 0x20 DUP3 LT DUP2 SUB PUSH2 0x280 JUMPI PUSH2 0x27F PUSH2 0x226 JUMP JUMPDEST JUMPDEST POP SWAP2 SWAP1 POP JUMP INVALID LOG2 PUSH5 0x6970667358 0x22 SLT KECCAK256 0x24 0xD1 0xAE EQ 0x28 0xE6 0xE4 PUSH29 0xA66FB8966CEC2F5DEB19F765118E60C02F99BDEAF6A7744964736F6C63 NUMBER STOP ADDMOD SGT STOP CALLER 0x22 PUSH20 0x74616E64617264223A202234222C20227375626A PUSH6 0x6374223A2022 PUSH3 0x632065 PUSH20 0x736179222C202274656163686572223A20226D73 KECCAK256 PUSH21 0x616E67222C2022646179223A2022776564222C2022 PUSH21 0x696D65223A2022353A3330706D2D373A3030706D22 0x22 PUSH20 0x74616E64617264223A202236222C20227375626A PUSH6 0x6374223A2022 PUSH3 0x6D2063 PUSH16 0x6D70222C202274656163686572223A20 0x22 PUSH14 0x72206E69636B222C202264617922 GASPRICE KECCAK256 0x22 PUSH21 0x687572222C202274696D65223A2022353A3330706D 0x2D CALLDATACOPY GASPRICE ADDRESS ADDRESS PUSH17 0x6D22227374616E64617264223A20223322 0x2C KECCAK256 0x22 PUSH20 0x75626A656374223A2022736369656E6365222C20 0x22 PUSH21 0x656163686572223A20226D732072757468222C2022 PUSH5 0x6179223A20 0x22 PUSH7 0x7269222C202274 PUSH10 0x6D65223A2022383A3330 PUSH17 0x6D2D393A3330706D22227374616E646172 PUSH5 0x223A202236 0x22 0x2C KECCAK256 0x22 PUSH20 0x75626A656374223A20226263206573736179222C KECCAK256 0x22 PUSH21 0x656163686572223A20226D72206C696D222C202264 PUSH2 0x7922 GASPRICE KECCAK256 0x22 PUSH21 0x687572222C202274696D65223A2022373A3030706D 0x2D CODESIZE GASPRICE CALLER ADDRESS PUSH17 0x6D22227374616E64617264223A20223622 0x2C KECCAK256 0x22 PUSH20 0x75626A656374223A2022736369656E6365222C20 0x22 PUSH21 0x656163686572223A20226D72206C696D222C202264 PUSH2 0x7922 GASPRICE KECCAK256 0x22 PUSH24 0x6564222C202274696D65223A2022353A3330706D2D373A30 ADDRESS PUSH17 0x6D22227374616E64617264223A20223422 0x2C KECCAK256 0x22 PUSH20 0x75626A656374223A2022626D206573736179222C KECCAK256 0x22 PUSH21 0x656163686572223A20226D732074616E67222C2022 PUSH5 0x6179223A20 0x22 PUSH21 0x687572222C202274696D65223A2022343A3030706D 0x2D CALLDATALOAD GASPRICE CALLER ADDRESS PUSH17 0x6D22227374616E64617264223A20223422 0x2C KECCAK256 0x22 PUSH20 0x75626A656374223A2022736369656E6365222C20 0x22 PUSH21 0x656163686572223A20226D7220796170222C202264 PUSH2 0x7922 GASPRICE KECCAK256 0x22 PUSH14 0x6F6E222C202274696D65223A2022 CALLVALUE GASPRICE ADDRESS ADDRESS PUSH17 0x6D2D353A3330706D22227374616E646172 PUSH5 0x223A202233 0x22 0x2C KECCAK256 0x22 PUSH20 0x75626A656374223A2022626D222C202274656163 PUSH9 0x6572223A20226D7320 PUSH4 0x686F6C65 PUSH6 0x222C20226461 PUSH26 0x223A202274687572222C202274696D65223A2022373A3330706D 0x2D CODESIZE GASPRICE CALLER ADDRESS PUSH17 0x6D22227374616E64617264223A20223322 0x2C KECCAK256 0x22 PUSH20 0x75626A656374223A20226D617468222C20227465 PUSH2 0x6368 PUSH6 0x72223A20226D PUSH20 0x2063686F6C6565222C2022646179223A20226672 PUSH10 0x222C202274696D65223A KECCAK256 0x22 CALLDATACOPY GASPRICE CALLER ADDRESS PUSH17 0x6D2D383A3330706D22227374616E646172 PUSH5 0x223A202234 0x22 0x2C KECCAK256 0x22 PUSH20 0x75626A656374223A20226D617468222C20227465 PUSH2 0x6368 PUSH6 0x72223A20226D PUSH19 0x20796170222C2022646179223A202266726922 0x2C KECCAK256 0x22 PUSH21 0x696D65223A2022343A3030706D2D353A3330706D22 0x22 PUSH20 0x74616E64617264223A202236222C20227375626A PUSH6 0x6374223A2022 PUSH3 0x632063 PUSH16 0x6D70222C202274656163686572223A20 0x22 PUSH14 0x72206C696D222C2022646179223A KECCAK256 0x22 PUSH21 0x7565222C202274696D65223A2022373A3030706D2D CODESIZE GASPRICE CALLER ADDRESS PUSH17 0x6D22227374616E64617264223A20223422 0x2C KECCAK256 0x22 PUSH20 0x75626A656374223A2022626320636F6D70222C20 0x22 PUSH21 0x656163686572223A20226D732074616E67222C2022 PUSH5 0x6179223A20 0x22 PUSH24 0x6564222C202274696D65223A2022343A3030706D2D353A33 ADDRESS PUSH17 0x6D22227374616E64617264223A20223622 0x2C KECCAK256 0x22 PUSH20 0x75626A656374223A20226269206573736179222C KECCAK256 0x22 PUSH21 0x656163686572223A20226D72206E69636B222C2022 PUSH5 0x6179223A20 0x22 PUSH7 0x7269222C202274 PUSH10 0x6D65223A2022373A3030 PUSH17 0x6D2D383A3330706D22227374616E646172 PUSH5 0x223A202236 0x22 0x2C KECCAK256 0x22 PUSH20 0x75626A656374223A2022626D206573736179222C KECCAK256 0x22 PUSH21 0x656163686572223A20226D72206E69636B222C2022 PUSH5 0x6179223A20 0x22 PUSH7 0x7269222C202274 PUSH10 0x6D65223A2022353A3330 PUSH17 0x6D2D373A3030706D22227374616E646172 PUSH5 0x223A202232 0x22 0x2C KECCAK256 0x22 PUSH20 0x75626A656374223A20226269222C202274656163 PUSH9 0x6572223A20226D7220 PUSH13 0x6565222C2022646179223A2022 PUSH24 0x6564222C202274696D65223A2022383A3330706D2D393A33 ADDRESS PUSH17 0x6D22227374616E64617264223A20223222 0x2C KECCAK256 0x22 PUSH20 0x75626A656374223A20226D617468222C20227465 PUSH2 0x6368 PUSH6 0x72223A20226D PUSH20 0x2063686F6C6565222C2022646179223A20227475 PUSH6 0x222C20227469 PUSH14 0x65223A2022373A3330706D2D383A CALLER ADDRESS PUSH17 0x6D22227374616E64617264223A20223322 0x2C KECCAK256 0x22 PUSH20 0x75626A656374223A20226269222C202274656163 PUSH9 0x6572223A20226D7220 PUSH15 0x69636B222C2022646179223A202274 PUSH22 0x65222C202274696D65223A2022383A3330706D2D393A CALLER ADDRESS PUSH17 0x6D22227374616E64617264223A20223422 0x2C KECCAK256 0x22 PUSH20 0x75626A656374223A2022626920636F6D70222C20 0x22 PUSH21 0x656163686572223A20226D72206E69636B222C2022 PUSH5 0x6179223A20 0x22 PUSH21 0x7565222C202274696D65223A2022353A3330706D2D CALLDATACOPY GASPRICE ADDRESS ADDRESS PUSH17 0x6D22227374616E64617264223A20223222 0x2C KECCAK256 0x22 PUSH20 0x75626A656374223A2022626D222C202274656163 PUSH9 0x6572223A20226D7220 PUSH13 0x6565222C2022646179223A2022 PUSH24 0x6564222C202274696D65223A2022373A3330706D2D383A33 ADDRESS PUSH17 0x6D22227374616E64617264223A20223622 0x2C KECCAK256 0x22 PUSH20 0x75626A656374223A20226D617468222C20227465 PUSH2 0x6368 PUSH6 0x72223A20226D PUSH19 0x206E67222C2022646179223A2022776564222C KECCAK256 0x22 PUSH21 0x696D65223A2022343A3030706D2D353A3330706D22 0x22 PUSH20 0x74616E64617264223A202234222C20227375626A PUSH6 0x6374223A2022 PUSH3 0x692065 PUSH20 0x736179222C202274656163686572223A20226D73 KECCAK256 PUSH4 0x686C6F65 PUSH6 0x222C20226461 PUSH26 0x223A2022667269222C202274696D65223A2022353A3330706D2D CALLDATACOPY GASPRICE ADDRESS ADDRESS PUSH17 0x6D22227374616E64617264223A20223222 0x2C KECCAK256 0x22 PUSH20 0x75626A656374223A2022736369656E6365222C20 0x22 PUSH21 0x656163686572223A20226D732072757468222C2022 PUSH5 0x6179223A20 0x22 PUSH7 0x7269222C202274 PUSH10 0x6D65223A2022373A3330 PUSH17 0x6D2D383A3330706D22227374616E646172 PUSH5 0x223A202236 0x22 0x2C KECCAK256 0x22 PUSH20 0x75626A656374223A2022626920636F6D70222C20 0x22 PUSH21 0x656163686572223A20226D72206E69636B222C2022 PUSH5 0x6179223A20 0x22 PUSH14 0x6F6E222C202274696D65223A2022 CALLDATALOAD GASPRICE CALLER ADDRESS PUSH17 0x6D2D373A3030706D22227374616E646172 PUSH5 0x223A202233 0x22 0x2C KECCAK256 0x22 PUSH20 0x75626A656374223A20226263222C202274656163 PUSH9 0x6572223A20226D7320 PUSH4 0x686F6C65 PUSH6 0x222C20226461 PUSH26 0x223A202274687572222C202274696D65223A2022383A3330706D 0x2D CODECOPY GASPRICE CALLER ADDRESS PUSH17 0x6D22227374616E64617264223A20223422 0x2C KECCAK256 0x22 PUSH20 0x75626A656374223A2022626D20636F6D70222C20 0x22 PUSH21 0x656163686572223A20226D732074616E67222C2022 PUSH5 0x6179223A20 0x22 PUSH21 0x7565222C202274696D65223A2022343A3030706D2D CALLDATALOAD GASPRICE CALLER ADDRESS PUSH17 0x6D22227374616E64617264223A20223222 0x2C KECCAK256 0x22 PUSH20 0x75626A656374223A20226263222C202274656163 PUSH9 0x6572223A20226D7320 PUSH4 0x686F6C65 PUSH6 0x222C20226461 PUSH26 0x223A2022747565222C202274696D65223A2022383A3330706D2D CODECOPY GASPRICE CALLER ADDRESS PUSH17 0x6D22000000000000000000000000000000 "},"methodIdentifiers":{"services(uint256)":"c22c4f43"}}}}}