{"contracts/ServiceContract.sol":{"ServiceContract":{"abi":[{"inputs":[{"internalType":"address","name":"_userContract","type":"address"}],"stateMutability":"nonpayable","type":"constructor"},{"anonymous":false,"inputs":[{"indexed":true,"internalType":"address","name":"previousOwner","type":"address"},{"indexed":true,"internalType":"address","name":"newOwner","type":"address"}],"name":"OwnershipTransferred","type":"event"},{"inputs":[{"internalType":"address","name":"","type":"address"}],"name":"claim","outputs":[{"internalType":"uint256","name":"","type":"uint256"}],"stateMutability":"view","type":"function"},{"inputs":[{"internalType":"uint256","name":"_serviceId","type":"uint256"},{"internalType":"uint256","name":"_rating","type":"uint256"}],"name":"completeService","outputs":[],"stateMutability":"nonpayable","type":"function"},{"inputs":[{"internalType":"uint256","name":"_serviceId","type":"uint256"},{"internalType":"uint256","name":"_rating","type":"uint256"}],"name":"confirmService","outputs":[],"stateMutability":"nonpayable","type":"function"},{"inputs":[{"internalType":"string","name":"_serviceType","type":"string"},{"internalType":"uint256","name":"_cost","type":"uint256"},{"internalType":"uint256","name":"duration","type":"uint256"}],"name":"createService","outputs":[],"stateMutability":"nonpayable","type":"function"},{"inputs":[{"internalType":"address","name":"_userAddress","type":"address"},{"internalType":"bool","name":"_type","type":"bool"}],"name":"getAverageRating","outputs":[{"internalType":"uint256","name":"","type":"uint256"},{"internalType":"uint256","name":"","type":"uint256"}],"stateMutability":"view","type":"function"},{"inputs":[{"internalType":"uint256","name":"_listingId","type":"uint256"}],"name":"getListing","outputs":[{"internalType":"address","name":"","type":"address"},{"internalType":"string","name":"","type":"string"},{"internalType":"uint256","name":"","type":"uint256"},{"internalType":"uint256","name":"","type":"uint256"}],"stateMutability":"view","type":"function"},{"inputs":[{"internalType":"uint256","name":"_serviceId","type":"uint256"}],"name":"getService","outputs":[{"internalType":"address","name":"","type":"address"},{"internalType":"address","name":"","type":"address"},{"internalType":"string","name":"","type":"string"},{"internalType":"uint256","name":"","type":"uint256"},{"internalType":"enum ServiceContract.ServiceStatus","name":"","type":"uint8"},{"internalType":"uint256","name":"","type":"uint256"}],"stateMutability":"view","type":"function"},{"inputs":[{"internalType":"address","name":"_userAddress","type":"address"}],"name":"getUser","outputs":[{"internalType":"address","name":"","type":"address"},{"internalType":"string","name":"","type":"string"},{"internalType":"uint256","name":"","type":"uint256"},{"internalType":"uint256","name":"","type":"uint256"},{"internalType":"uint256","name":"","type":"uint256"},{"internalType":"uint256","name":"","type":"uint256"},{"internalType":"bool","name":"","type":"bool"}],"stateMutability":"nonpayable","type":"function"},{"inputs":[],"name":"listingCount","outputs":[{"internalType":"uint256","name":"","type":"uint256"}],"stateMutability":"view","type":"function"},{"inputs":[{"internalType":"uint256","name":"","type":"uint256"}],"name":"listings","outputs":[{"internalType":"address payable","name":"provider","type":"address"},{"internalType":"string","name":"serviceType","type":"string"},{"internalType":"uint256","name":"cost","type":"uint256"},{"internalType":"uint256","name":"duration","type":"uint256"}],"stateMutability":"view","type":"function"},{"inputs":[],"name":"owner","outputs":[{"internalType":"address","name":"","type":"address"}],"stateMutability":"view","type":"function"},{"inputs":[{"internalType":"string","name":"_username","type":"string"}],"name":"registerUser","outputs":[],"stateMutability":"nonpayable","type":"function"},{"inputs":[],"name":"renounceOwnership","outputs":[],"stateMutability":"nonpayable","type":"function"},{"inputs":[],"name":"serviceCount","outputs":[{"internalType":"uint256","name":"","type":"uint256"}],"stateMutability":"view","type":"function"},{"inputs":[{"internalType":"uint256","name":"","type":"uint256"}],"name":"services","outputs":[{"internalType":"uint256","name":"listingId","type":"uint256"},{"internalType":"address payable","name":"provider","type":"address"},{"internalType":"address payable","name":"client","type":"address"},{"internalType":"string","name":"serviceType","type":"string"},{"internalType":"uint256","name":"cost","type":"uint256"},{"internalType":"enum ServiceContract.ServiceStatus","name":"status","type":"uint8"},{"internalType":"uint256","name":"deadline","type":"uint256"}],"stateMutability":"view","type":"function"},{"inputs":[{"internalType":"uint256","name":"_listingId","type":"uint256"},{"internalType":"uint256","name":"_deadline","type":"uint256"}],"name":"startService","outputs":[],"stateMutability":"payable","type":"function"},{"inputs":[{"internalType":"address","name":"newOwner","type":"address"}],"name":"transferOwnership","outputs":[],"stateMutability":"nonpayable","type":"function"}],"evm":{"bytecode":{"linkReferences":{},"object":"60806040523480156200001157600080fd5b5060405162002ea138038062002ea18339818101604052810190620000379190620001d5565b620000576200004b6200009f60201b60201c565b620000a760201b60201c565b80600160006101000a81548173ffffffffffffffffffffffffffffffffffffffff021916908373ffffffffffffffffffffffffffffffffffffffff1602179055505062000207565b600033905090565b60008060009054906101000a900473ffffffffffffffffffffffffffffffffffffffff169050816000806101000a81548173ffffffffffffffffffffffffffffffffffffffff021916908373ffffffffffffffffffffffffffffffffffffffff1602179055508173ffffffffffffffffffffffffffffffffffffffff168173ffffffffffffffffffffffffffffffffffffffff167f8be0079c531659141344cd1fd0a4f28419497f9722a3daafe3b4186f6b6457e060405160405180910390a35050565b600080fd5b600073ffffffffffffffffffffffffffffffffffffffff82169050919050565b60006200019d8262000170565b9050919050565b620001af8162000190565b8114620001bb57600080fd5b50565b600081519050620001cf81620001a4565b92915050565b600060208284031215620001ee57620001ed6200016b565b5b6000620001fe84828501620001be565b91505092915050565b612c8a80620002176000396000f3fe6080604052600436106100fe5760003560e01c80638da5cb5b11610095578063ce69cf5911610064578063ce69cf5914610335578063de74e57b1461035e578063e745f8ba1461039e578063ef0e239b146103dc578063f2fde38b1461041e576100fe565b80638da5cb5b14610273578063a9b07c261461029e578063c22c4f43146102c9578063c89bdd8d1461030c576100fe565b806355778b31116100d157806355778b31146101d45780636f77926b146101f0578063704f1b9414610233578063715018a61461025c576100fe565b80630623752614610103578063107a274a1461012e578063186166fe1461016e5780631e83409a14610197575b600080fd5b34801561010f57600080fd5b50610118610447565b6040516101259190611a87565b60405180910390f35b34801561013a57600080fd5b5061015560048036038101906101509190611ae2565b61044d565b6040516101659493929190611be0565b60405180910390f35b34801561017a57600080fd5b5061019560048036038101906101909190611d61565b610596565b005b3480156101a357600080fd5b506101be60048036038101906101b99190611dfc565b6107a8565b6040516101cb9190611a87565b60405180910390f35b6101ee60048036038101906101e99190611e29565b6107c0565b005b3480156101fc57600080fd5b5061021760048036038101906102129190611dfc565b610d08565b60405161022a9796959493929190611e84565b60405180910390f35b34801561023f57600080fd5b5061025a60048036038101906102559190611efa565b610dd0565b005b34801561026857600080fd5b50610271610e62565b005b34801561027f57600080fd5b50610288610e76565b6040516102959190611f43565b60405180910390f35b3480156102aa57600080fd5b506102b3610e9f565b6040516102c09190611a87565b60405180910390f35b3480156102d557600080fd5b506102f060048036038101906102eb9190611ae2565b610ea5565b6040516103039796959493929190611ff6565b60405180910390f35b34801561031857600080fd5b50610333600480360381019061032e9190611e29565b610fbc565b005b34801561034157600080fd5b5061035c60048036038101906103579190611e29565b6111c5565b005b34801561036a57600080fd5b5061038560048036038101906103809190611ae2565b6114ad565b604051610395949392919061206c565b60405180910390f35b3480156103aa57600080fd5b506103c560048036038101906103c091906120e4565b611585565b6040516103d3929190612124565b60405180910390f35b3480156103e857600080fd5b5061040360048036038101906103fe9190611ae2565b611630565b6040516104159695949392919061214d565b60405180910390f35b34801561042a57600080fd5b5061044560048036038101906104409190611dfc565b611826565b005b60065481565b600060606000806000600260008781526020019081526020016000206040518060800160405290816000820160009054906101000a900473ffffffffffffffffffffffffffffffffffffffff1673ffffffffffffffffffffffffffffffffffffffff1673ffffffffffffffffffffffffffffffffffffffff1681526020016001820180546104da906121e4565b80601f0160208091040260200160405190810160405280929190818152602001828054610506906121e4565b80156105535780601f1061052857610100808354040283529160200191610553565b820191906000526020600020905b81548152906001019060200180831161053657829003601f168201915b5050505050815260200160028201548152602001600382015481525050905080600001518160200151826040015183606001519450945094509450509193509193565b6000600160009054906101000a900473ffffffffffffffffffffffffffffffffffffffff1673ffffffffffffffffffffffffffffffffffffffff16636f77926b336040518263ffffffff1660e01b81526004016105f39190611f43565b6000604051808303816000875af1158015610612573d6000803e3d6000fd5b505050506040513d6000823e3d601f19601f8201168201806040525081019061063b91906122c4565b50505050509150506000815111610687576040517f08c379a000000000000000000000000000000000000000000000000000000000815260040161067e906123ce565b60405180910390fd5b600083116106ca576040517f08c379a00000000000000000000000000000000000000000000000000000000081526004016106c19061243a565b60405180910390fd5b60405180608001604052803373ffffffffffffffffffffffffffffffffffffffff1681526020018581526020018481526020018381525060026000600554815260200190815260200160002060008201518160000160006101000a81548173ffffffffffffffffffffffffffffffffffffffff021916908373ffffffffffffffffffffffffffffffffffffffff16021790555060208201518160010190816107729190612606565b5060408201518160020155606082015181600301559050506005600081548092919061079d90612707565b919050555050505050565b60046020528060005260406000206000915090505481565b6000600260008481526020019081526020016000206040518060800160405290816000820160009054906101000a900473ffffffffffffffffffffffffffffffffffffffff1673ffffffffffffffffffffffffffffffffffffffff1673ffffffffffffffffffffffffffffffffffffffff168152602001600182018054610846906121e4565b80601f0160208091040260200160405190810160405280929190818152602001828054610872906121e4565b80156108bf5780601f10610894576101008083540402835291602001916108bf565b820191906000526020600020905b8154815290600101906020018083116108a257829003601f168201915b505050505081526020016002820154815260200160038201548152505090506000816040015111610925576040517f08c379a000000000000000000000000000000000000000000000000000000000815260040161091c9061279b565b60405180910390fd5b3481604001511461096b576040517f08c379a000000000000000000000000000000000000000000000000000000000815260040161096290612807565b60405180910390fd5b81816060015111156109b2576040517f08c379a00000000000000000000000000000000000000000000000000000000081526004016109a990612899565b60405180910390fd5b6000600160009054906101000a900473ffffffffffffffffffffffffffffffffffffffff1673ffffffffffffffffffffffffffffffffffffffff16636f77926b336040518263ffffffff1660e01b8152600401610a0f9190611f43565b6000604051808303816000875af1158015610a2e573d6000803e3d6000fd5b505050506040513d6000823e3d601f19601f82011682018060405250810190610a5791906122c4565b50505050509150506000815111610aa3576040517f08c379a0000000000000000000000000000000000000000000000000000000008152600401610a9a906123ce565b60405180910390fd5b610aab6119f3565b8260000151816020019073ffffffffffffffffffffffffffffffffffffffff16908173ffffffffffffffffffffffffffffffffffffffff168152505033816040019073ffffffffffffffffffffffffffffffffffffffff16908173ffffffffffffffffffffffffffffffffffffffff168152505082602001518160600181905250826040015181608001818152505060008160a001906001811115610b5357610b52611f7f565b5b90816001811115610b6757610b66611f7f565b5b815250508342610b7791906128b9565b8160c0018181525050806003600060065481526020019081526020016000206000820151816000015560208201518160010160006101000a81548173ffffffffffffffffffffffffffffffffffffffff021916908373ffffffffffffffffffffffffffffffffffffffff16021790555060408201518160020160006101000a81548173ffffffffffffffffffffffffffffffffffffffff021916908373ffffffffffffffffffffffffffffffffffffffff1602179055506060820151816003019081610c439190612606565b506080820151816004015560a08201518160050160006101000a81548160ff02191690836001811115610c7957610c78611f7f565b5b021790555060c08201518160060155905050826040015160046000856000015173ffffffffffffffffffffffffffffffffffffffff1673ffffffffffffffffffffffffffffffffffffffff1681526020019081526020016000206000828254610ce291906128b9565b9250508190555060066000815480929190610cfc90612707565b91905055505050505050565b600060606000806000806000600160009054906101000a900473ffffffffffffffffffffffffffffffffffffffff1673ffffffffffffffffffffffffffffffffffffffff16636f77926b896040518263ffffffff1660e01b8152600401610d6f9190611f43565b6000604051808303816000875af1158015610d8e573d6000803e3d6000fd5b505050506040513d6000823e3d601f19601f82011682018060405250810190610db791906122c4565b9650965096509650965096509650919395979092949650565b600160009054906101000a900473ffffffffffffffffffffffffffffffffffffffff1673ffffffffffffffffffffffffffffffffffffffff1663864a0d0a82336040518363ffffffff1660e01b8152600401610e2d9291906128ed565b600060405180830381600087803b158015610e4757600080fd5b505af1158015610e5b573d6000803e3d6000fd5b5050505050565b610e6a6118a9565b610e746000611927565b565b60008060009054906101000a900473ffffffffffffffffffffffffffffffffffffffff16905090565b60055481565b60036020528060005260406000206000915090508060000154908060010160009054906101000a900473ffffffffffffffffffffffffffffffffffffffff16908060020160009054906101000a900473ffffffffffffffffffffffffffffffffffffffff1690806003018054610f1a906121e4565b80601f0160208091040260200160405190810160405280929190818152602001828054610f46906121e4565b8015610f935780601f10610f6857610100808354040283529160200191610f93565b820191906000526020600020905b815481529060010190602001808311610f7657829003601f168201915b5050505050908060040154908060050160009054906101000a900460ff16908060060154905087565b60006003600084815260200190815260200160002090503373ffffffffffffffffffffffffffffffffffffffff168160020160009054906101000a900473ffffffffffffffffffffffffffffffffffffffff1673ffffffffffffffffffffffffffffffffffffffff1614611065576040517f08c379a000000000000000000000000000000000000000000000000000000000815260040161105c90612969565b60405180910390fd5b6000600181111561107957611078611f7f565b5b8160050160009054906101000a900460ff16600181111561109d5761109c611f7f565b5b146110dd576040517f08c379a00000000000000000000000000000000000000000000000000000000081526004016110d4906129d5565b60405180910390fd5b60018160050160006101000a81548160ff0219169083600181111561110557611104611f7f565b5b0217905550600160009054906101000a900473ffffffffffffffffffffffffffffffffffffffff1673ffffffffffffffffffffffffffffffffffffffff166321b1d57b8260010160009054906101000a900473ffffffffffffffffffffffffffffffffffffffff168460016040518463ffffffff1660e01b815260040161118e93929190612a4a565b600060405180830381600087803b1580156111a857600080fd5b505af11580156111bc573d6000803e3d6000fd5b50505050505050565b60006003600084815260200190815260200160002090503373ffffffffffffffffffffffffffffffffffffffff168160010160009054906101000a900473ffffffffffffffffffffffffffffffffffffffff1673ffffffffffffffffffffffffffffffffffffffff161461126e576040517f08c379a000000000000000000000000000000000000000000000000000000000815260040161126590612969565b60405180910390fd5b60018081111561128157611280611f7f565b5b8160050160009054906101000a900460ff1660018111156112a5576112a4611f7f565b5b14806112b5575042816006015410155b6112f4576040517f08c379a00000000000000000000000000000000000000000000000000000000081526004016112eb90612acd565b60405180910390fd5b60018160050160006101000a81548160ff0219169083600181111561131c5761131b611f7f565b5b02179055506000600460003373ffffffffffffffffffffffffffffffffffffffff1673ffffffffffffffffffffffffffffffffffffffff1681526020019081526020016000205490506000600460003373ffffffffffffffffffffffffffffffffffffffff1673ffffffffffffffffffffffffffffffffffffffff16815260200190815260200160002081905550600160009054906101000a900473ffffffffffffffffffffffffffffffffffffffff1673ffffffffffffffffffffffffffffffffffffffff166321b1d57b8360020160009054906101000a900473ffffffffffffffffffffffffffffffffffffffff168560006040518463ffffffff1660e01b815260040161142e93929190612a4a565b600060405180830381600087803b15801561144857600080fd5b505af115801561145c573d6000803e3d6000fd5b505050503373ffffffffffffffffffffffffffffffffffffffff166108fc829081150290604051600060405180830381858888f193505050501580156114a6573d6000803e3d6000fd5b5050505050565b60026020528060005260406000206000915090508060000160009054906101000a900473ffffffffffffffffffffffffffffffffffffffff16908060010180546114f6906121e4565b80601f0160208091040260200160405190810160405280929190818152602001828054611522906121e4565b801561156f5780601f106115445761010080835404028352916020019161156f565b820191906000526020600020905b81548152906001019060200180831161155257829003601f168201915b5050505050908060020154908060030154905084565b600080600160009054906101000a900473ffffffffffffffffffffffffffffffffffffffff1673ffffffffffffffffffffffffffffffffffffffff1663e745f8ba85856040518363ffffffff1660e01b81526004016115e5929190612aed565b6040805180830381865afa158015611601573d6000803e3d6000fd5b505050506040513d601f19601f820116820180604052508101906116259190612b16565b915091509250929050565b6000806060600080600080600360008981526020019081526020016000206040518060e0016040529081600082015481526020016001820160009054906101000a900473ffffffffffffffffffffffffffffffffffffffff1673ffffffffffffffffffffffffffffffffffffffff1673ffffffffffffffffffffffffffffffffffffffff1681526020016002820160009054906101000a900473ffffffffffffffffffffffffffffffffffffffff1673ffffffffffffffffffffffffffffffffffffffff1673ffffffffffffffffffffffffffffffffffffffff16815260200160038201805461171f906121e4565b80601f016020809104026020016040519081016040528092919081815260200182805461174b906121e4565b80156117985780601f1061176d57610100808354040283529160200191611798565b820191906000526020600020905b81548152906001019060200180831161177b57829003601f168201915b50505050508152602001600482015481526020016005820160009054906101000a900460ff1660018111156117d0576117cf611f7f565b5b60018111156117e2576117e1611f7f565b5b8152602001600682015481525050905080602001518160400151826060015183608001518460a001518560c001519650965096509650965096505091939550919395565b61182e6118a9565b600073ffffffffffffffffffffffffffffffffffffffff168173ffffffffffffffffffffffffffffffffffffffff160361189d576040517f08c379a000000000000000000000000000000000000000000000000000000000815260040161189490612bc8565b60405180910390fd5b6118a681611927565b50565b6118b16119eb565b73ffffffffffffffffffffffffffffffffffffffff166118cf610e76565b73ffffffffffffffffffffffffffffffffffffffff1614611925576040517f08c379a000000000000000000000000000000000000000000000000000000000815260040161191c90612c34565b60405180910390fd5b565b60008060009054906101000a900473ffffffffffffffffffffffffffffffffffffffff169050816000806101000a81548173ffffffffffffffffffffffffffffffffffffffff021916908373ffffffffffffffffffffffffffffffffffffffff1602179055508173ffffffffffffffffffffffffffffffffffffffff168173ffffffffffffffffffffffffffffffffffffffff167f8be0079c531659141344cd1fd0a4f28419497f9722a3daafe3b4186f6b6457e060405160405180910390a35050565b600033905090565b6040518060e0016040528060008152602001600073ffffffffffffffffffffffffffffffffffffffff168152602001600073ffffffffffffffffffffffffffffffffffffffff168152602001606081526020016000815260200160006001811115611a6157611a60611f7f565b5b8152602001600081525090565b6000819050919050565b611a8181611a6e565b82525050565b6000602082019050611a9c6000830184611a78565b92915050565b6000604051905090565b600080fd5b600080fd5b611abf81611a6e565b8114611aca57600080fd5b50565b600081359050611adc81611ab6565b92915050565b600060208284031215611af857611af7611aac565b5b6000611b0684828501611acd565b91505092915050565b600073ffffffffffffffffffffffffffffffffffffffff82169050919050565b6000611b3a82611b0f565b9050919050565b611b4a81611b2f565b82525050565b600081519050919050565b600082825260208201905092915050565b60005b83811015611b8a578082015181840152602081019050611b6f565b60008484015250505050565b6000601f19601f8301169050919050565b6000611bb282611b50565b611bbc8185611b5b565b9350611bcc818560208601611b6c565b611bd581611b96565b840191505092915050565b6000608082019050611bf56000830187611b41565b8181036020830152611c078186611ba7565b9050611c166040830185611a78565b611c236060830184611a78565b95945050505050565b600080fd5b600080fd5b7f4e487b7100000000000000000000000000000000000000000000000000000000600052604160045260246000fd5b611c6e82611b96565b810181811067ffffffffffffffff82111715611c8d57611c8c611c36565b5b80604052505050565b6000611ca0611aa2565b9050611cac8282611c65565b919050565b600067ffffffffffffffff821115611ccc57611ccb611c36565b5b611cd582611b96565b9050602081019050919050565b82818337600083830152505050565b6000611d04611cff84611cb1565b611c96565b905082815260208101848484011115611d2057611d1f611c31565b5b611d2b848285611ce2565b509392505050565b600082601f830112611d4857611d47611c2c565b5b8135611d58848260208601611cf1565b91505092915050565b600080600060608486031215611d7a57611d79611aac565b5b600084013567ffffffffffffffff811115611d9857611d97611ab1565b5b611da486828701611d33565b9350506020611db586828701611acd565b9250506040611dc686828701611acd565b9150509250925092565b611dd981611b2f565b8114611de457600080fd5b50565b600081359050611df681611dd0565b92915050565b600060208284031215611e1257611e11611aac565b5b6000611e2084828501611de7565b91505092915050565b60008060408385031215611e4057611e3f611aac565b5b6000611e4e85828601611acd565b9250506020611e5f85828601611acd565b9150509250929050565b60008115159050919050565b611e7e81611e69565b82525050565b600060e082019050611e99600083018a611b41565b8181036020830152611eab8189611ba7565b9050611eba6040830188611a78565b611ec76060830187611a78565b611ed46080830186611a78565b611ee160a0830185611a78565b611eee60c0830184611e75565b98975050505050505050565b600060208284031215611f1057611f0f611aac565b5b600082013567ffffffffffffffff811115611f2e57611f2d611ab1565b5b611f3a84828501611d33565b91505092915050565b6000602082019050611f586000830184611b41565b92915050565b6000611f6982611b0f565b9050919050565b611f7981611f5e565b82525050565b7f4e487b7100000000000000000000000000000000000000000000000000000000600052602160045260246000fd5b60028110611fbf57611fbe611f7f565b5b50565b6000819050611fd082611fae565b919050565b6000611fe082611fc2565b9050919050565b611ff081611fd5565b82525050565b600060e08201905061200b600083018a611a78565b6120186020830189611f70565b6120256040830188611f70565b81810360608301526120378187611ba7565b90506120466080830186611a78565b61205360a0830185611fe7565b61206060c0830184611a78565b98975050505050505050565b60006080820190506120816000830187611f70565b81810360208301526120938186611ba7565b90506120a26040830185611a78565b6120af6060830184611a78565b95945050505050565b6120c181611e69565b81146120cc57600080fd5b50565b6000813590506120de816120b8565b92915050565b600080604083850312156120fb576120fa611aac565b5b600061210985828601611de7565b925050602061211a858286016120cf565b9150509250929050565b60006040820190506121396000830185611a78565b6121466020830184611a78565b9392505050565b600060c0820190506121626000830189611b41565b61216f6020830188611b41565b81810360408301526121818187611ba7565b90506121906060830186611a78565b61219d6080830185611fe7565b6121aa60a0830184611a78565b979650505050505050565b7f4e487b7100000000000000000000000000000000000000000000000000000000600052602260045260246000fd5b600060028204905060018216806121fc57607f821691505b60208210810361220f5761220e6121b5565b5b50919050565b60008151905061222481611dd0565b92915050565b600061223d61223884611cb1565b611c96565b90508281526020810184848401111561225957612258611c31565b5b612264848285611b6c565b509392505050565b600082601f83011261228157612280611c2c565b5b815161229184826020860161222a565b91505092915050565b6000815190506122a981611ab6565b92915050565b6000815190506122be816120b8565b92915050565b600080600080600080600060e0888a0312156122e3576122e2611aac565b5b60006122f18a828b01612215565b975050602088015167ffffffffffffffff81111561231257612311611ab1565b5b61231e8a828b0161226c565b965050604061232f8a828b0161229a565b95505060606123408a828b0161229a565b94505060806123518a828b0161229a565b93505060a06123628a828b0161229a565b92505060c06123738a828b016122af565b91505092959891949750929550565b7f55736572206973206e6f74207265676973746572656400000000000000000000600082015250565b60006123b8601683611b5b565b91506123c382612382565b602082019050919050565b600060208201905081810360008301526123e7816123ab565b9050919050565b7f436f7374206d7573742062652067726561746572207468616e20300000000000600082015250565b6000612424601b83611b5b565b915061242f826123ee565b602082019050919050565b6000602082019050818103600083015261245381612417565b9050919050565b60008190508160005260206000209050919050565b60006020601f8301049050919050565b600082821b905092915050565b6000600883026124bc7fffffffffffffffffffffffffffffffffffffffffffffffffffffffffffffffff8261247f565b6124c6868361247f565b95508019841693508086168417925050509392505050565b6000819050919050565b60006125036124fe6124f984611a6e565b6124de565b611a6e565b9050919050565b6000819050919050565b61251d836124e8565b6125316125298261250a565b84845461248c565b825550505050565b600090565b612546612539565b612551818484612514565b505050565b5b818110156125755761256a60008261253e565b600181019050612557565b5050565b601f8211156125ba5761258b8161245a565b6125948461246f565b810160208510156125a3578190505b6125b76125af8561246f565b830182612556565b50505b505050565b600082821c905092915050565b60006125dd600019846008026125bf565b1980831691505092915050565b60006125f683836125cc565b9150826002028217905092915050565b61260f82611b50565b67ffffffffffffffff81111561262857612627611c36565b5b61263282546121e4565b61263d828285612579565b600060209050601f831160018114612670576000841561265e578287015190505b61266885826125ea565b8655506126d0565b601f19841661267e8661245a565b60005b828110156126a657848901518255600182019150602085019450602081019050612681565b868310156126c357848901516126bf601f8916826125cc565b8355505b6001600288020188555050505b505050505050565b7f4e487b7100000000000000000000000000000000000000000000000000000000600052601160045260246000fd5b600061271282611a6e565b91507fffffffffffffffffffffffffffffffffffffffffffffffffffffffffffffffff8203612744576127436126d8565b5b600182019050919050565b7f4c697374696e67206973206e6f74206578697374656400000000000000000000600082015250565b6000612785601683611b5b565b91506127908261274f565b602082019050919050565b600060208201905081810360008301526127b481612778565b9050919050565b7f56616c7565206973206e6f742073616d6520617320636f737400000000000000600082015250565b60006127f1601983611b5b565b91506127fc826127bb565b602082019050919050565b60006020820190508181036000830152612820816127e4565b9050919050565b7f446561646c696e65206973206e6f74206c6f6e676572207468616e206475726160008201527f74696f6e00000000000000000000000000000000000000000000000000000000602082015250565b6000612883602483611b5b565b915061288e82612827565b604082019050919050565b600060208201905081810360008301526128b281612876565b9050919050565b60006128c482611a6e565b91506128cf83611a6e565b92508282019050808211156128e7576128e66126d8565b5b92915050565b600060408201905081810360008301526129078185611ba7565b90506129166020830184611b41565b9392505050565b7f4e6f7420617574686f72697a6564000000000000000000000000000000000000600082015250565b6000612953600e83611b5b565b915061295e8261291d565b602082019050919050565b6000602082019050818103600083015261298281612946565b9050919050565b7f496e76616c696420737461747573000000000000000000000000000000000000600082015250565b60006129bf600e83611b5b565b91506129ca82612989565b602082019050919050565b600060208201905081810360008301526129ee816129b2565b9050919050565b6000612a10612a0b612a0684611b0f565b6124de565b611b0f565b9050919050565b6000612a22826129f5565b9050919050565b6000612a3482612a17565b9050919050565b612a4481612a29565b82525050565b6000606082019050612a5f6000830186612a3b565b612a6c6020830185611a78565b612a796040830184611e75565b949350505050565b7f496e76616c6964207374617475732f646561646c696e65000000000000000000600082015250565b6000612ab7601783611b5b565b9150612ac282612a81565b602082019050919050565b60006020820190508181036000830152612ae681612aaa565b9050919050565b6000604082019050612b026000830185611b41565b612b0f6020830184611e75565b9392505050565b60008060408385031215612b2d57612b2c611aac565b5b6000612b3b8582860161229a565b9250506020612b4c8582860161229a565b9150509250929050565b7f4f776e61626c653a206e6577206f776e657220697320746865207a65726f206160008201527f6464726573730000000000000000000000000000000000000000000000000000602082015250565b6000612bb2602683611b5b565b9150612bbd82612b56565b604082019050919050565b60006020820190508181036000830152612be181612ba5565b9050919050565b7f4f776e61626c653a2063616c6c6572206973206e6f7420746865206f776e6572600082015250565b6000612c1e602083611b5b565b9150612c2982612be8565b602082019050919050565b60006020820190508181036000830152612c4d81612c11565b905091905056fea26469706673582212205b81a55bf2d4b13c66ef32c14291dd1dd7f31e5e7cff837bec09b6759ecbd9d964736f6c63430008130033","opcodes":"PUSH1 0x80 PUSH1 0x40 MSTORE CALLVALUE DUP1 ISZERO PUSH3 0x11 JUMPI PUSH1 0x0 DUP1 REVERT JUMPDEST POP PUSH1 0x40 MLOAD PUSH3 0x2EA1 CODESIZE SUB DUP1 PUSH3 0x2EA1 DUP4 CODECOPY DUP2 DUP2 ADD PUSH1 0x40 MSTORE DUP2 ADD SWAP1 PUSH3 0x37 SWAP2 SWAP1 PUSH3 0x1D5 JUMP JUMPDEST PUSH3 0x57 PUSH3 0x4B PUSH3 0x9F PUSH1 0x20 SHL PUSH1 0x20 SHR JUMP JUMPDEST PUSH3 0xA7 PUSH1 0x20 SHL PUSH1 0x20 SHR JUMP JUMPDEST DUP1 PUSH1 0x1 PUSH1 0x0 PUSH2 0x100 EXP DUP2 SLOAD DUP2 PUSH20 0xFFFFFFFFFFFFFFFFFFFFFFFFFFFFFFFFFFFFFFFF MUL NOT AND SWAP1 DUP4 PUSH20 0xFFFFFFFFFFFFFFFFFFFFFFFFFFFFFFFFFFFFFFFF AND MUL OR SWAP1 SSTORE POP POP PUSH3 0x207 JUMP JUMPDEST PUSH1 0x0 CALLER SWAP1 POP SWAP1 JUMP JUMPDEST PUSH1 0x0 DUP1 PUSH1 0x0 SWAP1 SLOAD SWAP1 PUSH2 0x100 EXP SWAP1 DIV PUSH20 0xFFFFFFFFFFFFFFFFFFFFFFFFFFFFFFFFFFFFFFFF AND SWAP1 POP DUP2 PUSH1 0x0 DUP1 PUSH2 0x100 EXP DUP2 SLOAD DUP2 PUSH20 0xFFFFFFFFFFFFFFFFFFFFFFFFFFFFFFFFFFFFFFFF MUL NOT AND SWAP1 DUP4 PUSH20 0xFFFFFFFFFFFFFFFFFFFFFFFFFFFFFFFFFFFFFFFF AND MUL OR SWAP1 SSTORE POP DUP2 PUSH20 0xFFFFFFFFFFFFFFFFFFFFFFFFFFFFFFFFFFFFFFFF AND DUP2 PUSH20 0xFFFFFFFFFFFFFFFFFFFFFFFFFFFFFFFFFFFFFFFF AND PUSH32 0x8BE0079C531659141344CD1FD0A4F28419497F9722A3DAAFE3B4186F6B6457E0 PUSH1 0x40 MLOAD PUSH1 0x40 MLOAD DUP1 SWAP2 SUB SWAP1 LOG3 POP POP JUMP JUMPDEST PUSH1 0x0 DUP1 REVERT JUMPDEST PUSH1 0x0 PUSH20 0xFFFFFFFFFFFFFFFFFFFFFFFFFFFFFFFFFFFFFFFF DUP3 AND SWAP1 POP SWAP2 SWAP1 POP JUMP JUMPDEST PUSH1 0x0 PUSH3 0x19D DUP3 PUSH3 0x170 JUMP JUMPDEST SWAP1 POP SWAP2 SWAP1 POP JUMP JUMPDEST PUSH3 0x1AF DUP2 PUSH3 0x190 JUMP JUMPDEST DUP2 EQ PUSH3 0x1BB JUMPI PUSH1 0x0 DUP1 REVERT JUMPDEST POP JUMP JUMPDEST PUSH1 0x0 DUP2 MLOAD SWAP1 POP PUSH3 0x1CF DUP2 PUSH3 0x1A4 JUMP JUMPDEST SWAP3 SWAP2 POP POP JUMP JUMPDEST PUSH1 0x0 PUSH1 0x20 DUP3 DUP5 SUB SLT ISZERO PUSH3 0x1EE JUMPI PUSH3 0x1ED PUSH3 0x16B JUMP JUMPDEST JUMPDEST PUSH1 0x0 PUSH3 0x1FE DUP5 DUP3 DUP6 ADD PUSH3 0x1BE JUMP JUMPDEST SWAP2 POP POP SWAP3 SWAP2 POP POP JUMP JUMPDEST PUSH2 0x2C8A DUP1 PUSH3 0x217 PUSH1 0x0 CODECOPY PUSH1 0x0 RETURN INVALID PUSH1 0x80 PUSH1 0x40 MSTORE PUSH1 0x4 CALLDATASIZE LT PUSH2 0xFE JUMPI PUSH1 0x0 CALLDATALOAD PUSH1 0xE0 SHR DUP1 PUSH4 0x8DA5CB5B GT PUSH2 0x95 JUMPI DUP1 PUSH4 0xCE69CF59 GT PUSH2 0x64 JUMPI DUP1 PUSH4 0xCE69CF59 EQ PUSH2 0x335 JUMPI DUP1 PUSH4 0xDE74E57B EQ PUSH2 0x35E JUMPI DUP1 PUSH4 0xE745F8BA EQ PUSH2 0x39E JUMPI DUP1 PUSH4 0xEF0E239B EQ PUSH2 0x3DC JUMPI DUP1 PUSH4 0xF2FDE38B EQ PUSH2 0x41E JUMPI PUSH2 0xFE JUMP JUMPDEST DUP1 PUSH4 0x8DA5CB5B EQ PUSH2 0x273 JUMPI DUP1 PUSH4 0xA9B07C26 EQ PUSH2 0x29E JUMPI DUP1 PUSH4 0xC22C4F43 EQ PUSH2 0x2C9 JUMPI DUP1 PUSH4 0xC89BDD8D EQ PUSH2 0x30C JUMPI PUSH2 0xFE JUMP JUMPDEST DUP1 PUSH4 0x55778B31 GT PUSH2 0xD1 JUMPI DUP1 PUSH4 0x55778B31 EQ PUSH2 0x1D4 JUMPI DUP1 PUSH4 0x6F77926B EQ PUSH2 0x1F0 JUMPI DUP1 PUSH4 0x704F1B94 EQ PUSH2 0x233 JUMPI DUP1 PUSH4 0x715018A6 EQ PUSH2 0x25C JUMPI PUSH2 0xFE JUMP JUMPDEST DUP1 PUSH4 0x6237526 EQ PUSH2 0x103 JUMPI DUP1 PUSH4 0x107A274A EQ PUSH2 0x12E JUMPI DUP1 PUSH4 0x186166FE EQ PUSH2 0x16E JUMPI DUP1 PUSH4 0x1E83409A EQ PUSH2 0x197 JUMPI JUMPDEST PUSH1 0x0 DUP1 REVERT JUMPDEST CALLVALUE DUP1 ISZERO PUSH2 0x10F JUMPI PUSH1 0x0 DUP1 REVERT JUMPDEST POP PUSH2 0x118 PUSH2 0x447 JUMP JUMPDEST PUSH1 0x40 MLOAD PUSH2 0x125 SWAP2 SWAP1 PUSH2 0x1A87 JUMP JUMPDEST PUSH1 0x40 MLOAD DUP1 SWAP2 SUB SWAP1 RETURN JUMPDEST CALLVALUE DUP1 ISZERO PUSH2 0x13A JUMPI PUSH1 0x0 DUP1 REVERT JUMPDEST POP PUSH2 0x155 PUSH1 0x4 DUP1 CALLDATASIZE SUB DUP2 ADD SWAP1 PUSH2 0x150 SWAP2 SWAP1 PUSH2 0x1AE2 JUMP JUMPDEST PUSH2 0x44D JUMP JUMPDEST PUSH1 0x40 MLOAD PUSH2 0x165 SWAP5 SWAP4 SWAP3 SWAP2 SWAP1 PUSH2 0x1BE0 JUMP JUMPDEST PUSH1 0x40 MLOAD DUP1 SWAP2 SUB SWAP1 RETURN JUMPDEST CALLVALUE DUP1 ISZERO PUSH2 0x17A JUMPI PUSH1 0x0 DUP1 REVERT JUMPDEST POP PUSH2 0x195 PUSH1 0x4 DUP1 CALLDATASIZE SUB DUP2 ADD SWAP1 PUSH2 0x190 SWAP2 SWAP1 PUSH2 0x1D61 JUMP JUMPDEST PUSH2 0x596 JUMP JUMPDEST STOP JUMPDEST CALLVALUE DUP1 ISZERO PUSH2 0x1A3 JUMPI PUSH1 0x0 DUP1 REVERT JUMPDEST POP PUSH2 0x1BE PUSH1 0x4 DUP1 CALLDATASIZE SUB DUP2 ADD SWAP1 PUSH2 0x1B9 SWAP2 SWAP1 PUSH2 0x1DFC JUMP JUMPDEST PUSH2 0x7A8 JUMP JUMPDEST PUSH1 0x40 MLOAD PUSH2 0x1CB SWAP2 SWAP1 PUSH2 0x1A87 JUMP JUMPDEST PUSH1 0x40 MLOAD DUP1 SWAP2 SUB SWAP1 RETURN JUMPDEST PUSH2 0x1EE PUSH1 0x4 DUP1 CALLDATASIZE SUB DUP2 ADD SWAP1 PUSH2 0x1E9 SWAP2 SWAP1 PUSH2 0x1E29 JUMP JUMPDEST PUSH2 0x7C0 JUMP JUMPDEST STOP JUMPDEST CALLVALUE DUP1 ISZERO PUSH2 0x1FC JUMPI PUSH1 0x0 DUP1 REVERT JUMPDEST POP PUSH2 0x217 PUSH1 0x4 DUP1 CALLDATASIZE SUB DUP2 ADD SWAP1 PUSH2 0x212 SWAP2 SWAP1 PUSH2 0x1DFC JUMP JUMPDEST PUSH2 0xD08 JUMP JUMPDEST PUSH1 0x40 MLOAD PUSH2 0x22A SWAP8 SWAP7 SWAP6 SWAP5 SWAP4 SWAP3 SWAP2 SWAP1 PUSH2 0x1E84 JUMP JUMPDEST PUSH1 0x40 MLOAD DUP1 SWAP2 SUB SWAP1 RETURN JUMPDEST CALLVALUE DUP1 ISZERO PUSH2 0x23F JUMPI PUSH1 0x0 DUP1 REVERT JUMPDEST POP PUSH2 0x25A PUSH1 0x4 DUP1 CALLDATASIZE SUB DUP2 ADD SWAP1 PUSH2 0x255 SWAP2 SWAP1 PUSH2 0x1EFA JUMP JUMPDEST PUSH2 0xDD0 JUMP JUMPDEST STOP JUMPDEST CALLVALUE DUP1 ISZERO PUSH2 0x268 JUMPI PUSH1 0x0 DUP1 REVERT JUMPDEST POP PUSH2 0x271 PUSH2 0xE62 JUMP JUMPDEST STOP JUMPDEST CALLVALUE DUP1 ISZERO PUSH2 0x27F JUMPI PUSH1 0x0 DUP1 REVERT JUMPDEST POP PUSH2 0x288 PUSH2 0xE76 JUMP JUMPDEST PUSH1 0x40 MLOAD PUSH2 0x295 SWAP2 SWAP1 PUSH2 0x1F43 JUMP JUMPDEST PUSH1 0x40 MLOAD DUP1 SWAP2 SUB SWAP1 RETURN JUMPDEST CALLVALUE DUP1 ISZERO PUSH2 0x2AA JUMPI PUSH1 0x0 DUP1 REVERT JUMPDEST POP PUSH2 0x2B3 PUSH2 0xE9F JUMP JUMPDEST PUSH1 0x40 MLOAD PUSH2 0x2C0 SWAP2 SWAP1 PUSH2 0x1A87 JUMP JUMPDEST PUSH1 0x40 MLOAD DUP1 SWAP2 SUB SWAP1 RETURN JUMPDEST CALLVALUE DUP1 ISZERO PUSH2 0x2D5 JUMPI PUSH1 0x0 DUP1 REVERT JUMPDEST POP PUSH2 0x2F0 PUSH1 0x4 DUP1 CALLDATASIZE SUB DUP2 ADD SWAP1 PUSH2 0x2EB SWAP2 SWAP1 PUSH2 0x1AE2 JUMP JUMPDEST PUSH2 0xEA5 JUMP JUMPDEST PUSH1 0x40 MLOAD PUSH2 0x303 SWAP8 SWAP7 SWAP6 SWAP5 SWAP4 SWAP3 SWAP2 SWAP1 PUSH2 0x1FF6 JUMP JUMPDEST PUSH1 0x40 MLOAD DUP1 SWAP2 SUB SWAP1 RETURN JUMPDEST CALLVALUE DUP1 ISZERO PUSH2 0x318 JUMPI PUSH1 0x0 DUP1 REVERT JUMPDEST POP PUSH2 0x333 PUSH1 0x4 DUP1 CALLDATASIZE SUB DUP2 ADD SWAP1 PUSH2 0x32E SWAP2 SWAP1 PUSH2 0x1E29 JUMP JUMPDEST PUSH2 0xFBC JUMP JUMPDEST STOP JUMPDEST CALLVALUE DUP1 ISZERO PUSH2 0x341 JUMPI PUSH1 0x0 DUP1 REVERT JUMPDEST POP PUSH2 0x35C PUSH1 0x4 DUP1 CALLDATASIZE SUB DUP2 ADD SWAP1 PUSH2 0x357 SWAP2 SWAP1 PUSH2 0x1E29 JUMP JUMPDEST PUSH2 0x11C5 JUMP JUMPDEST STOP JUMPDEST CALLVALUE DUP1 ISZERO PUSH2 0x36A JUMPI PUSH1 0x0 DUP1 REVERT JUMPDEST POP PUSH2 0x385 PUSH1 0x4 DUP1 CALLDATASIZE SUB DUP2 ADD SWAP1 PUSH2 0x380 SWAP2 SWAP1 PUSH2 0x1AE2 JUMP JUMPDEST PUSH2 0x14AD JUMP JUMPDEST PUSH1 0x40 MLOAD PUSH2 0x395 SWAP5 SWAP4 SWAP3 SWAP2 SWAP1 PUSH2 0x206C JUMP JUMPDEST PUSH1 0x40 MLOAD DUP1 SWAP2 SUB SWAP1 RETURN JUMPDEST CALLVALUE DUP1 ISZERO PUSH2 0x3AA JUMPI PUSH1 0x0 DUP1 REVERT JUMPDEST POP PUSH2 0x3C5 PUSH1 0x4 DUP1 CALLDATASIZE SUB DUP2 ADD SWAP1 PUSH2 0x3C0 SWAP2 SWAP1 PUSH2 0x20E4 JUMP JUMPDEST PUSH2 0x1585 JUMP JUMPDEST PUSH1 0x40 MLOAD PUSH2 0x3D3 SWAP3 SWAP2 SWAP1 PUSH2 0x2124 JUMP JUMPDEST PUSH1 0x40 MLOAD DUP1 SWAP2 SUB SWAP1 RETURN JUMPDEST CALLVALUE DUP1 ISZERO PUSH2 0x3E8 JUMPI PUSH1 0x0 DUP1 REVERT JUMPDEST POP PUSH2 0x403 PUSH1 0x4 DUP1 CALLDATASIZE SUB DUP2 ADD SWAP1 PUSH2 0x3FE SWAP2 SWAP1 PUSH2 0x1AE2 JUMP JUMPDEST PUSH2 0x1630 JUMP JUMPDEST PUSH1 0x40 MLOAD PUSH2 0x415 SWAP7 SWAP6 SWAP5 SWAP4 SWAP3 SWAP2 SWAP1 PUSH2 0x214D JUMP JUMPDEST PUSH1 0x40 MLOAD DUP1 SWAP2 SUB SWAP1 RETURN JUMPDEST CALLVALUE DUP1 ISZERO PUSH2 0x42A JUMPI PUSH1 0x0 DUP1 REVERT JUMPDEST POP PUSH2 0x445 PUSH1 0x4 DUP1 CALLDATASIZE SUB DUP2 ADD SWAP1 PUSH2 0x440 SWAP2 SWAP1 PUSH2 0x1DFC JUMP JUMPDEST PUSH2 0x1826 JUMP JUMPDEST STOP JUMPDEST PUSH1 0x6 SLOAD DUP2 JUMP JUMPDEST PUSH1 0x0 PUSH1 0x60 PUSH1 0x0 DUP1 PUSH1 0x0 PUSH1 0x2 PUSH1 0x0 DUP8 DUP2 MSTORE PUSH1 0x20 ADD SWAP1 DUP2 MSTORE PUSH1 0x20 ADD PUSH1 0x0 KECCAK256 PUSH1 0x40 MLOAD DUP1 PUSH1 0x80 ADD PUSH1 0x40 MSTORE SWAP1 DUP2 PUSH1 0x0 DUP3 ADD PUSH1 0x0 SWAP1 SLOAD SWAP1 PUSH2 0x100 EXP SWAP1 DIV PUSH20 0xFFFFFFFFFFFFFFFFFFFFFFFFFFFFFFFFFFFFFFFF AND PUSH20 0xFFFFFFFFFFFFFFFFFFFFFFFFFFFFFFFFFFFFFFFF AND PUSH20 0xFFFFFFFFFFFFFFFFFFFFFFFFFFFFFFFFFFFFFFFF AND DUP2 MSTORE PUSH1 0x20 ADD PUSH1 0x1 DUP3 ADD DUP1 SLOAD PUSH2 0x4DA SWAP1 PUSH2 0x21E4 JUMP JUMPDEST DUP1 PUSH1 0x1F ADD PUSH1 0x20 DUP1 SWAP2 DIV MUL PUSH1 0x20 ADD PUSH1 0x40 MLOAD SWAP1 DUP2 ADD PUSH1 0x40 MSTORE DUP1 SWAP3 SWAP2 SWAP1 DUP2 DUP2 MSTORE PUSH1 0x20 ADD DUP3 DUP1 SLOAD PUSH2 0x506 SWAP1 PUSH2 0x21E4 JUMP JUMPDEST DUP1 ISZERO PUSH2 0x553 JUMPI DUP1 PUSH1 0x1F LT PUSH2 0x528 JUMPI PUSH2 0x100 DUP1 DUP4 SLOAD DIV MUL DUP4 MSTORE SWAP2 PUSH1 0x20 ADD SWAP2 PUSH2 0x553 JUMP JUMPDEST DUP3 ADD SWAP2 SWAP1 PUSH1 0x0 MSTORE PUSH1 0x20 PUSH1 0x0 KECCAK256 SWAP1 JUMPDEST DUP2 SLOAD DUP2 MSTORE SWAP1 PUSH1 0x1 ADD SWAP1 PUSH1 0x20 ADD DUP1 DUP4 GT PUSH2 0x536 JUMPI DUP3 SWAP1 SUB PUSH1 0x1F AND DUP3 ADD SWAP2 JUMPDEST POP POP POP POP POP DUP2 MSTORE PUSH1 0x20 ADD PUSH1 0x2 DUP3 ADD SLOAD DUP2 MSTORE PUSH1 0x20 ADD PUSH1 0x3 DUP3 ADD SLOAD DUP2 MSTORE POP POP SWAP1 POP DUP1 PUSH1 0x0 ADD MLOAD DUP2 PUSH1 0x20 ADD MLOAD DUP3 PUSH1 0x40 ADD MLOAD DUP4 PUSH1 0x60 ADD MLOAD SWAP5 POP SWAP5 POP SWAP5 POP SWAP5 POP POP SWAP2 SWAP4 POP SWAP2 SWAP4 JUMP JUMPDEST PUSH1 0x0 PUSH1 0x1 PUSH1 0x0 SWAP1 SLOAD SWAP1 PUSH2 0x100 EXP SWAP1 DIV PUSH20 0xFFFFFFFFFFFFFFFFFFFFFFFFFFFFFFFFFFFFFFFF AND PUSH20 0xFFFFFFFFFFFFFFFFFFFFFFFFFFFFFFFFFFFFFFFF AND PUSH4 0x6F77926B CALLER PUSH1 0x40 MLOAD DUP3 PUSH4 0xFFFFFFFF AND PUSH1 0xE0 SHL DUP2 MSTORE PUSH1 0x4 ADD PUSH2 0x5F3 SWAP2 SWAP1 PUSH2 0x1F43 JUMP JUMPDEST PUSH1 0x0 PUSH1 0x40 MLOAD DUP1 DUP4 SUB DUP2 PUSH1 0x0 DUP8 GAS CALL ISZERO DUP1 ISZERO PUSH2 0x612 JUMPI RETURNDATASIZE PUSH1 0x0 DUP1 RETURNDATACOPY RETURNDATASIZE PUSH1 0x0 REVERT JUMPDEST POP POP POP POP PUSH1 0x40 MLOAD RETURNDATASIZE PUSH1 0x0 DUP3 RETURNDATACOPY RETURNDATASIZE PUSH1 0x1F NOT PUSH1 0x1F DUP3 ADD AND DUP3 ADD DUP1 PUSH1 0x40 MSTORE POP DUP2 ADD SWAP1 PUSH2 0x63B SWAP2 SWAP1 PUSH2 0x22C4 JUMP JUMPDEST POP POP POP POP POP SWAP2 POP POP PUSH1 0x0 DUP2 MLOAD GT PUSH2 0x687 JUMPI PUSH1 0x40 MLOAD PUSH32 0x8C379A000000000000000000000000000000000000000000000000000000000 DUP2 MSTORE PUSH1 0x4 ADD PUSH2 0x67E SWAP1 PUSH2 0x23CE JUMP JUMPDEST PUSH1 0x40 MLOAD DUP1 SWAP2 SUB SWAP1 REVERT JUMPDEST PUSH1 0x0 DUP4 GT PUSH2 0x6CA JUMPI PUSH1 0x40 MLOAD PUSH32 0x8C379A000000000000000000000000000000000000000000000000000000000 DUP2 MSTORE PUSH1 0x4 ADD PUSH2 0x6C1 SWAP1 PUSH2 0x243A JUMP JUMPDEST PUSH1 0x40 MLOAD DUP1 SWAP2 SUB SWAP1 REVERT JUMPDEST PUSH1 0x40 MLOAD DUP1 PUSH1 0x80 ADD PUSH1 0x40 MSTORE DUP1 CALLER PUSH20 0xFFFFFFFFFFFFFFFFFFFFFFFFFFFFFFFFFFFFFFFF AND DUP2 MSTORE PUSH1 0x20 ADD DUP6 DUP2 MSTORE PUSH1 0x20 ADD DUP5 DUP2 MSTORE PUSH1 0x20 ADD DUP4 DUP2 MSTORE POP PUSH1 0x2 PUSH1 0x0 PUSH1 0x5 SLOAD DUP2 MSTORE PUSH1 0x20 ADD SWAP1 DUP2 MSTORE PUSH1 0x20 ADD PUSH1 0x0 KECCAK256 PUSH1 0x0 DUP3 ADD MLOAD DUP2 PUSH1 0x0 ADD PUSH1 0x0 PUSH2 0x100 EXP DUP2 SLOAD DUP2 PUSH20 0xFFFFFFFFFFFFFFFFFFFFFFFFFFFFFFFFFFFFFFFF MUL NOT AND SWAP1 DUP4 PUSH20 0xFFFFFFFFFFFFFFFFFFFFFFFFFFFFFFFFFFFFFFFF AND MUL OR SWAP1 SSTORE POP PUSH1 0x20 DUP3 ADD MLOAD DUP2 PUSH1 0x1 ADD SWAP1 DUP2 PUSH2 0x772 SWAP2 SWAP1 PUSH2 0x2606 JUMP JUMPDEST POP PUSH1 0x40 DUP3 ADD MLOAD DUP2 PUSH1 0x2 ADD SSTORE PUSH1 0x60 DUP3 ADD MLOAD DUP2 PUSH1 0x3 ADD SSTORE SWAP1 POP POP PUSH1 0x5 PUSH1 0x0 DUP2 SLOAD DUP1 SWAP3 SWAP2 SWAP1 PUSH2 0x79D SWAP1 PUSH2 0x2707 JUMP JUMPDEST SWAP2 SWAP1 POP SSTORE POP POP POP POP POP JUMP JUMPDEST PUSH1 0x4 PUSH1 0x20 MSTORE DUP1 PUSH1 0x0 MSTORE PUSH1 0x40 PUSH1 0x0 KECCAK256 PUSH1 0x0 SWAP2 POP SWAP1 POP SLOAD DUP2 JUMP JUMPDEST PUSH1 0x0 PUSH1 0x2 PUSH1 0x0 DUP5 DUP2 MSTORE PUSH1 0x20 ADD SWAP1 DUP2 MSTORE PUSH1 0x20 ADD PUSH1 0x0 KECCAK256 PUSH1 0x40 MLOAD DUP1 PUSH1 0x80 ADD PUSH1 0x40 MSTORE SWAP1 DUP2 PUSH1 0x0 DUP3 ADD PUSH1 0x0 SWAP1 SLOAD SWAP1 PUSH2 0x100 EXP SWAP1 DIV PUSH20 0xFFFFFFFFFFFFFFFFFFFFFFFFFFFFFFFFFFFFFFFF AND PUSH20 0xFFFFFFFFFFFFFFFFFFFFFFFFFFFFFFFFFFFFFFFF AND PUSH20 0xFFFFFFFFFFFFFFFFFFFFFFFFFFFFFFFFFFFFFFFF AND DUP2 MSTORE PUSH1 0x20 ADD PUSH1 0x1 DUP3 ADD DUP1 SLOAD PUSH2 0x846 SWAP1 PUSH2 0x21E4 JUMP JUMPDEST DUP1 PUSH1 0x1F ADD PUSH1 0x20 DUP1 SWAP2 DIV MUL PUSH1 0x20 ADD PUSH1 0x40 MLOAD SWAP1 DUP2 ADD PUSH1 0x40 MSTORE DUP1 SWAP3 SWAP2 SWAP1 DUP2 DUP2 MSTORE PUSH1 0x20 ADD DUP3 DUP1 SLOAD PUSH2 0x872 SWAP1 PUSH2 0x21E4 JUMP JUMPDEST DUP1 ISZERO PUSH2 0x8BF JUMPI DUP1 PUSH1 0x1F LT PUSH2 0x894 JUMPI PUSH2 0x100 DUP1 DUP4 SLOAD DIV MUL DUP4 MSTORE SWAP2 PUSH1 0x20 ADD SWAP2 PUSH2 0x8BF JUMP JUMPDEST DUP3 ADD SWAP2 SWAP1 PUSH1 0x0 MSTORE PUSH1 0x20 PUSH1 0x0 KECCAK256 SWAP1 JUMPDEST DUP2 SLOAD DUP2 MSTORE SWAP1 PUSH1 0x1 ADD SWAP1 PUSH1 0x20 ADD DUP1 DUP4 GT PUSH2 0x8A2 JUMPI DUP3 SWAP1 SUB PUSH1 0x1F AND DUP3 ADD SWAP2 JUMPDEST POP POP POP POP POP DUP2 MSTORE PUSH1 0x20 ADD PUSH1 0x2 DUP3 ADD SLOAD DUP2 MSTORE PUSH1 0x20 ADD PUSH1 0x3 DUP3 ADD SLOAD DUP2 MSTORE POP POP SWAP1 POP PUSH1 0x0 DUP2 PUSH1 0x40 ADD MLOAD GT PUSH2 0x925 JUMPI PUSH1 0x40 MLOAD PUSH32 0x8C379A000000000000000000000000000000000000000000000000000000000 DUP2 MSTORE PUSH1 0x4 ADD PUSH2 0x91C SWAP1 PUSH2 0x279B JUMP JUMPDEST PUSH1 0x40 MLOAD DUP1 SWAP2 SUB SWAP1 REVERT JUMPDEST CALLVALUE DUP2 PUSH1 0x40 ADD MLOAD EQ PUSH2 0x96B JUMPI PUSH1 0x40 MLOAD PUSH32 0x8C379A000000000000000000000000000000000000000000000000000000000 DUP2 MSTORE PUSH1 0x4 ADD PUSH2 0x962 SWAP1 PUSH2 0x2807 JUMP JUMPDEST PUSH1 0x40 MLOAD DUP1 SWAP2 SUB SWAP1 REVERT JUMPDEST DUP2 DUP2 PUSH1 0x60 ADD MLOAD GT ISZERO PUSH2 0x9B2 JUMPI PUSH1 0x40 MLOAD PUSH32 0x8C379A000000000000000000000000000000000000000000000000000000000 DUP2 MSTORE PUSH1 0x4 ADD PUSH2 0x9A9 SWAP1 PUSH2 0x2899 JUMP JUMPDEST PUSH1 0x40 MLOAD DUP1 SWAP2 SUB SWAP1 REVERT JUMPDEST PUSH1 0x0 PUSH1 0x1 PUSH1 0x0 SWAP1 SLOAD SWAP1 PUSH2 0x100 EXP SWAP1 DIV PUSH20 0xFFFFFFFFFFFFFFFFFFFFFFFFFFFFFFFFFFFFFFFF AND PUSH20 0xFFFFFFFFFFFFFFFFFFFFFFFFFFFFFFFFFFFFFFFF AND PUSH4 0x6F77926B CALLER PUSH1 0x40 MLOAD DUP3 PUSH4 0xFFFFFFFF AND PUSH1 0xE0 SHL DUP2 MSTORE PUSH1 0x4 ADD PUSH2 0xA0F SWAP2 SWAP1 PUSH2 0x1F43 JUMP JUMPDEST PUSH1 0x0 PUSH1 0x40 MLOAD DUP1 DUP4 SUB DUP2 PUSH1 0x0 DUP8 GAS CALL ISZERO DUP1 ISZERO PUSH2 0xA2E JUMPI RETURNDATASIZE PUSH1 0x0 DUP1 RETURNDATACOPY RETURNDATASIZE PUSH1 0x0 REVERT JUMPDEST POP POP POP POP PUSH1 0x40 MLOAD RETURNDATASIZE PUSH1 0x0 DUP3 RETURNDATACOPY RETURNDATASIZE PUSH1 0x1F NOT PUSH1 0x1F DUP3 ADD AND DUP3 ADD DUP1 PUSH1 0x40 MSTORE POP DUP2 ADD SWAP1 PUSH2 0xA57 SWAP2 SWAP1 PUSH2 0x22C4 JUMP JUMPDEST POP POP POP POP POP SWAP2 POP POP PUSH1 0x0 DUP2 MLOAD GT PUSH2 0xAA3 JUMPI PUSH1 0x40 MLOAD PUSH32 0x8C379A000000000000000000000000000000000000000000000000000000000 DUP2 MSTORE PUSH1 0x4 ADD PUSH2 0xA9A SWAP1 PUSH2 0x23CE JUMP JUMPDEST PUSH1 0x40 MLOAD DUP1 SWAP2 SUB SWAP1 REVERT JUMPDEST PUSH2 0xAAB PUSH2 0x19F3 JUMP JUMPDEST DUP3 PUSH1 0x0 ADD MLOAD DUP2 PUSH1 0x20 ADD SWAP1 PUSH20 0xFFFFFFFFFFFFFFFFFFFFFFFFFFFFFFFFFFFFFFFF AND SWAP1 DUP2 PUSH20 0xFFFFFFFFFFFFFFFFFFFFFFFFFFFFFFFFFFFFFFFF AND DUP2 MSTORE POP POP CALLER DUP2 PUSH1 0x40 ADD SWAP1 PUSH20 0xFFFFFFFFFFFFFFFFFFFFFFFFFFFFFFFFFFFFFFFF AND SWAP1 DUP2 PUSH20 0xFFFFFFFFFFFFFFFFFFFFFFFFFFFFFFFFFFFFFFFF AND DUP2 MSTORE POP POP DUP3 PUSH1 0x20 ADD MLOAD DUP2 PUSH1 0x60 ADD DUP2 SWAP1 MSTORE POP DUP3 PUSH1 0x40 ADD MLOAD DUP2 PUSH1 0x80 ADD DUP2 DUP2 MSTORE POP POP PUSH1 0x0 DUP2 PUSH1 0xA0 ADD SWAP1 PUSH1 0x1 DUP2 GT ISZERO PUSH2 0xB53 JUMPI PUSH2 0xB52 PUSH2 0x1F7F JUMP JUMPDEST JUMPDEST SWAP1 DUP2 PUSH1 0x1 DUP2 GT ISZERO PUSH2 0xB67 JUMPI PUSH2 0xB66 PUSH2 0x1F7F JUMP JUMPDEST JUMPDEST DUP2 MSTORE POP POP DUP4 TIMESTAMP PUSH2 0xB77 SWAP2 SWAP1 PUSH2 0x28B9 JUMP JUMPDEST DUP2 PUSH1 0xC0 ADD DUP2 DUP2 MSTORE POP POP DUP1 PUSH1 0x3 PUSH1 0x0 PUSH1 0x6 SLOAD DUP2 MSTORE PUSH1 0x20 ADD SWAP1 DUP2 MSTORE PUSH1 0x20 ADD PUSH1 0x0 KECCAK256 PUSH1 0x0 DUP3 ADD MLOAD DUP2 PUSH1 0x0 ADD SSTORE PUSH1 0x20 DUP3 ADD MLOAD DUP2 PUSH1 0x1 ADD PUSH1 0x0 PUSH2 0x100 EXP DUP2 SLOAD DUP2 PUSH20 0xFFFFFFFFFFFFFFFFFFFFFFFFFFFFFFFFFFFFFFFF MUL NOT AND SWAP1 DUP4 PUSH20 0xFFFFFFFFFFFFFFFFFFFFFFFFFFFFFFFFFFFFFFFF AND MUL OR SWAP1 SSTORE POP PUSH1 0x40 DUP3 ADD MLOAD DUP2 PUSH1 0x2 ADD PUSH1 0x0 PUSH2 0x100 EXP DUP2 SLOAD DUP2 PUSH20 0xFFFFFFFFFFFFFFFFFFFFFFFFFFFFFFFFFFFFFFFF MUL NOT AND SWAP1 DUP4 PUSH20 0xFFFFFFFFFFFFFFFFFFFFFFFFFFFFFFFFFFFFFFFF AND MUL OR SWAP1 SSTORE POP PUSH1 0x60 DUP3 ADD MLOAD DUP2 PUSH1 0x3 ADD SWAP1 DUP2 PUSH2 0xC43 SWAP2 SWAP1 PUSH2 0x2606 JUMP JUMPDEST POP PUSH1 0x80 DUP3 ADD MLOAD DUP2 PUSH1 0x4 ADD SSTORE PUSH1 0xA0 DUP3 ADD MLOAD DUP2 PUSH1 0x5 ADD PUSH1 0x0 PUSH2 0x100 EXP DUP2 SLOAD DUP2 PUSH1 0xFF MUL NOT AND SWAP1 DUP4 PUSH1 0x1 DUP2 GT ISZERO PUSH2 0xC79 JUMPI PUSH2 0xC78 PUSH2 0x1F7F JUMP JUMPDEST JUMPDEST MUL OR SWAP1 SSTORE POP PUSH1 0xC0 DUP3 ADD MLOAD DUP2 PUSH1 0x6 ADD SSTORE SWAP1 POP POP DUP3 PUSH1 0x40 ADD MLOAD PUSH1 0x4 PUSH1 0x0 DUP6 PUSH1 0x0 ADD MLOAD PUSH20 0xFFFFFFFFFFFFFFFFFFFFFFFFFFFFFFFFFFFFFFFF AND PUSH20 0xFFFFFFFFFFFFFFFFFFFFFFFFFFFFFFFFFFFFFFFF AND DUP2 MSTORE PUSH1 0x20 ADD SWAP1 DUP2 MSTORE PUSH1 0x20 ADD PUSH1 0x0 KECCAK256 PUSH1 0x0 DUP3 DUP3 SLOAD PUSH2 0xCE2 SWAP2 SWAP1 PUSH2 0x28B9 JUMP JUMPDEST SWAP3 POP POP DUP2 SWAP1 SSTORE POP PUSH1 0x6 PUSH1 0x0 DUP2 SLOAD DUP1 SWAP3 SWAP2 SWAP1 PUSH2 0xCFC SWAP1 PUSH2 0x2707 JUMP JUMPDEST SWAP2 SWAP1 POP SSTORE POP POP POP POP POP POP JUMP JUMPDEST PUSH1 0x0 PUSH1 0x60 PUSH1 0x0 DUP1 PUSH1 0x0 DUP1 PUSH1 0x0 PUSH1 0x1 PUSH1 0x0 SWAP1 SLOAD SWAP1 PUSH2 0x100 EXP SWAP1 DIV PUSH20 0xFFFFFFFFFFFFFFFFFFFFFFFFFFFFFFFFFFFFFFFF AND PUSH20 0xFFFFFFFFFFFFFFFFFFFFFFFFFFFFFFFFFFFFFFFF AND PUSH4 0x6F77926B DUP10 PUSH1 0x40 MLOAD DUP3 PUSH4 0xFFFFFFFF AND PUSH1 0xE0 SHL DUP2 MSTORE PUSH1 0x4 ADD PUSH2 0xD6F SWAP2 SWAP1 PUSH2 0x1F43 JUMP JUMPDEST PUSH1 0x0 PUSH1 0x40 MLOAD DUP1 DUP4 SUB DUP2 PUSH1 0x0 DUP8 GAS CALL ISZERO DUP1 ISZERO PUSH2 0xD8E JUMPI RETURNDATASIZE PUSH1 0x0 DUP1 RETURNDATACOPY RETURNDATASIZE PUSH1 0x0 REVERT JUMPDEST POP POP POP POP PUSH1 0x40 MLOAD RETURNDATASIZE PUSH1 0x0 DUP3 RETURNDATACOPY RETURNDATASIZE PUSH1 0x1F NOT PUSH1 0x1F DUP3 ADD AND DUP3 ADD DUP1 PUSH1 0x40 MSTORE POP DUP2 ADD SWAP1 PUSH2 0xDB7 SWAP2 SWAP1 PUSH2 0x22C4 JUMP JUMPDEST SWAP7 POP SWAP7 POP SWAP7 POP SWAP7 POP SWAP7 POP SWAP7 POP SWAP7 POP SWAP2 SWAP4 SWAP6 SWAP8 SWAP1 SWAP3 SWAP5 SWAP7 POP JUMP JUMPDEST PUSH1 0x1 PUSH1 0x0 SWAP1 SLOAD SWAP1 PUSH2 0x100 EXP SWAP1 DIV PUSH20 0xFFFFFFFFFFFFFFFFFFFFFFFFFFFFFFFFFFFFFFFF AND PUSH20 0xFFFFFFFFFFFFFFFFFFFFFFFFFFFFFFFFFFFFFFFF AND PUSH4 0x864A0D0A DUP3 CALLER PUSH1 0x40 MLOAD DUP4 PUSH4 0xFFFFFFFF AND PUSH1 0xE0 SHL DUP2 MSTORE PUSH1 0x4 ADD PUSH2 0xE2D SWAP3 SWAP2 SWAP1 PUSH2 0x28ED JUMP JUMPDEST PUSH1 0x0 PUSH1 0x40 MLOAD DUP1 DUP4 SUB DUP2 PUSH1 0x0 DUP8 DUP1 EXTCODESIZE ISZERO DUP1 ISZERO PUSH2 0xE47 JUMPI PUSH1 0x0 DUP1 REVERT JUMPDEST POP GAS CALL ISZERO DUP1 ISZERO PUSH2 0xE5B JUMPI RETURNDATASIZE PUSH1 0x0 DUP1 RETURNDATACOPY RETURNDATASIZE PUSH1 0x0 REVERT JUMPDEST POP POP POP POP POP JUMP JUMPDEST PUSH2 0xE6A PUSH2 0x18A9 JUMP JUMPDEST PUSH2 0xE74 PUSH1 0x0 PUSH2 0x1927 JUMP JUMPDEST JUMP JUMPDEST PUSH1 0x0 DUP1 PUSH1 0x0 SWAP1 SLOAD SWAP1 PUSH2 0x100 EXP SWAP1 DIV PUSH20 0xFFFFFFFFFFFFFFFFFFFFFFFFFFFFFFFFFFFFFFFF AND SWAP1 POP SWAP1 JUMP JUMPDEST PUSH1 0x5 SLOAD DUP2 JUMP JUMPDEST PUSH1 0x3 PUSH1 0x20 MSTORE DUP1 PUSH1 0x0 MSTORE PUSH1 0x40 PUSH1 0x0 KECCAK256 PUSH1 0x0 SWAP2 POP SWAP1 POP DUP1 PUSH1 0x0 ADD SLOAD SWAP1 DUP1 PUSH1 0x1 ADD PUSH1 0x0 SWAP1 SLOAD SWAP1 PUSH2 0x100 EXP SWAP1 DIV PUSH20 0xFFFFFFFFFFFFFFFFFFFFFFFFFFFFFFFFFFFFFFFF AND SWAP1 DUP1 PUSH1 0x2 ADD PUSH1 0x0 SWAP1 SLOAD SWAP1 PUSH2 0x100 EXP SWAP1 DIV PUSH20 0xFFFFFFFFFFFFFFFFFFFFFFFFFFFFFFFFFFFFFFFF AND SWAP1 DUP1 PUSH1 0x3 ADD DUP1 SLOAD PUSH2 0xF1A SWAP1 PUSH2 0x21E4 JUMP JUMPDEST DUP1 PUSH1 0x1F ADD PUSH1 0x20 DUP1 SWAP2 DIV MUL PUSH1 0x20 ADD PUSH1 0x40 MLOAD SWAP1 DUP2 ADD PUSH1 0x40 MSTORE DUP1 SWAP3 SWAP2 SWAP1 DUP2 DUP2 MSTORE PUSH1 0x20 ADD DUP3 DUP1 SLOAD PUSH2 0xF46 SWAP1 PUSH2 0x21E4 JUMP JUMPDEST DUP1 ISZERO PUSH2 0xF93 JUMPI DUP1 PUSH1 0x1F LT PUSH2 0xF68 JUMPI PUSH2 0x100 DUP1 DUP4 SLOAD DIV MUL DUP4 MSTORE SWAP2 PUSH1 0x20 ADD SWAP2 PUSH2 0xF93 JUMP JUMPDEST DUP3 ADD SWAP2 SWAP1 PUSH1 0x0 MSTORE PUSH1 0x20 PUSH1 0x0 KECCAK256 SWAP1 JUMPDEST DUP2 SLOAD DUP2 MSTORE SWAP1 PUSH1 0x1 ADD SWAP1 PUSH1 0x20 ADD DUP1 DUP4 GT PUSH2 0xF76 JUMPI DUP3 SWAP1 SUB PUSH1 0x1F AND DUP3 ADD SWAP2 JUMPDEST POP POP POP POP POP SWAP1 DUP1 PUSH1 0x4 ADD SLOAD SWAP1 DUP1 PUSH1 0x5 ADD PUSH1 0x0 SWAP1 SLOAD SWAP1 PUSH2 0x100 EXP SWAP1 DIV PUSH1 0xFF AND SWAP1 DUP1 PUSH1 0x6 ADD SLOAD SWAP1 POP DUP8 JUMP JUMPDEST PUSH1 0x0 PUSH1 0x3 PUSH1 0x0 DUP5 DUP2 MSTORE PUSH1 0x20 ADD SWAP1 DUP2 MSTORE PUSH1 0x20 ADD PUSH1 0x0 KECCAK256 SWAP1 POP CALLER PUSH20 0xFFFFFFFFFFFFFFFFFFFFFFFFFFFFFFFFFFFFFFFF AND DUP2 PUSH1 0x2 ADD PUSH1 0x0 SWAP1 SLOAD SWAP1 PUSH2 0x100 EXP SWAP1 DIV PUSH20 0xFFFFFFFFFFFFFFFFFFFFFFFFFFFFFFFFFFFFFFFF AND PUSH20 0xFFFFFFFFFFFFFFFFFFFFFFFFFFFFFFFFFFFFFFFF AND EQ PUSH2 0x1065 JUMPI PUSH1 0x40 MLOAD PUSH32 0x8C379A000000000000000000000000000000000000000000000000000000000 DUP2 MSTORE PUSH1 0x4 ADD PUSH2 0x105C SWAP1 PUSH2 0x2969 JUMP JUMPDEST PUSH1 0x40 MLOAD DUP1 SWAP2 SUB SWAP1 REVERT JUMPDEST PUSH1 0x0 PUSH1 0x1 DUP2 GT ISZERO PUSH2 0x1079 JUMPI PUSH2 0x1078 PUSH2 0x1F7F JUMP JUMPDEST JUMPDEST DUP2 PUSH1 0x5 ADD PUSH1 0x0 SWAP1 SLOAD SWAP1 PUSH2 0x100 EXP SWAP1 DIV PUSH1 0xFF AND PUSH1 0x1 DUP2 GT ISZERO PUSH2 0x109D JUMPI PUSH2 0x109C PUSH2 0x1F7F JUMP JUMPDEST JUMPDEST EQ PUSH2 0x10DD JUMPI PUSH1 0x40 MLOAD PUSH32 0x8C379A000000000000000000000000000000000000000000000000000000000 DUP2 MSTORE PUSH1 0x4 ADD PUSH2 0x10D4 SWAP1 PUSH2 0x29D5 JUMP JUMPDEST PUSH1 0x40 MLOAD DUP1 SWAP2 SUB SWAP1 REVERT JUMPDEST PUSH1 0x1 DUP2 PUSH1 0x5 ADD PUSH1 0x0 PUSH2 0x100 EXP DUP2 SLOAD DUP2 PUSH1 0xFF MUL NOT AND SWAP1 DUP4 PUSH1 0x1 DUP2 GT ISZERO PUSH2 0x1105 JUMPI PUSH2 0x1104 PUSH2 0x1F7F JUMP JUMPDEST JUMPDEST MUL OR SWAP1 SSTORE POP PUSH1 0x1 PUSH1 0x0 SWAP1 SLOAD SWAP1 PUSH2 0x100 EXP SWAP1 DIV PUSH20 0xFFFFFFFFFFFFFFFFFFFFFFFFFFFFFFFFFFFFFFFF AND PUSH20 0xFFFFFFFFFFFFFFFFFFFFFFFFFFFFFFFFFFFFFFFF AND PUSH4 0x21B1D57B DUP3 PUSH1 0x1 ADD PUSH1 0x0 SWAP1 SLOAD SWAP1 PUSH2 0x100 EXP SWAP1 DIV PUSH20 0xFFFFFFFFFFFFFFFFFFFFFFFFFFFFFFFFFFFFFFFF AND DUP5 PUSH1 0x1 PUSH1 0x40 MLOAD DUP5 PUSH4 0xFFFFFFFF AND PUSH1 0xE0 SHL DUP2 MSTORE PUSH1 0x4 ADD PUSH2 0x118E SWAP4 SWAP3 SWAP2 SWAP1 PUSH2 0x2A4A JUMP JUMPDEST PUSH1 0x0 PUSH1 0x40 MLOAD DUP1 DUP4 SUB DUP2 PUSH1 0x0 DUP8 DUP1 EXTCODESIZE ISZERO DUP1 ISZERO PUSH2 0x11A8 JUMPI PUSH1 0x0 DUP1 REVERT JUMPDEST POP GAS CALL ISZERO DUP1 ISZERO PUSH2 0x11BC JUMPI RETURNDATASIZE PUSH1 0x0 DUP1 RETURNDATACOPY RETURNDATASIZE PUSH1 0x0 REVERT JUMPDEST POP POP POP POP POP POP POP JUMP JUMPDEST PUSH1 0x0 PUSH1 0x3 PUSH1 0x0 DUP5 DUP2 MSTORE PUSH1 0x20 ADD SWAP1 DUP2 MSTORE PUSH1 0x20 ADD PUSH1 0x0 KECCAK256 SWAP1 POP CALLER PUSH20 0xFFFFFFFFFFFFFFFFFFFFFFFFFFFFFFFFFFFFFFFF AND DUP2 PUSH1 0x1 ADD PUSH1 0x0 SWAP1 SLOAD SWAP1 PUSH2 0x100 EXP SWAP1 DIV PUSH20 0xFFFFFFFFFFFFFFFFFFFFFFFFFFFFFFFFFFFFFFFF AND PUSH20 0xFFFFFFFFFFFFFFFFFFFFFFFFFFFFFFFFFFFFFFFF AND EQ PUSH2 0x126E JUMPI PUSH1 0x40 MLOAD PUSH32 0x8C379A000000000000000000000000000000000000000000000000000000000 DUP2 MSTORE PUSH1 0x4 ADD PUSH2 0x1265 SWAP1 PUSH2 0x2969 JUMP JUMPDEST PUSH1 0x40 MLOAD DUP1 SWAP2 SUB SWAP1 REVERT JUMPDEST PUSH1 0x1 DUP1 DUP2 GT ISZERO PUSH2 0x1281 JUMPI PUSH2 0x1280 PUSH2 0x1F7F JUMP JUMPDEST JUMPDEST DUP2 PUSH1 0x5 ADD PUSH1 0x0 SWAP1 SLOAD SWAP1 PUSH2 0x100 EXP SWAP1 DIV PUSH1 0xFF AND PUSH1 0x1 DUP2 GT ISZERO PUSH2 0x12A5 JUMPI PUSH2 0x12A4 PUSH2 0x1F7F JUMP JUMPDEST JUMPDEST EQ DUP1 PUSH2 0x12B5 JUMPI POP TIMESTAMP DUP2 PUSH1 0x6 ADD SLOAD LT ISZERO JUMPDEST PUSH2 0x12F4 JUMPI PUSH1 0x40 MLOAD PUSH32 0x8C379A000000000000000000000000000000000000000000000000000000000 DUP2 MSTORE PUSH1 0x4 ADD PUSH2 0x12EB SWAP1 PUSH2 0x2ACD JUMP JUMPDEST PUSH1 0x40 MLOAD DUP1 SWAP2 SUB SWAP1 REVERT JUMPDEST PUSH1 0x1 DUP2 PUSH1 0x5 ADD PUSH1 0x0 PUSH2 0x100 EXP DUP2 SLOAD DUP2 PUSH1 0xFF MUL NOT AND SWAP1 DUP4 PUSH1 0x1 DUP2 GT ISZERO PUSH2 0x131C JUMPI PUSH2 0x131B PUSH2 0x1F7F JUMP JUMPDEST JUMPDEST MUL OR SWAP1 SSTORE POP PUSH1 0x0 PUSH1 0x4 PUSH1 0x0 CALLER PUSH20 0xFFFFFFFFFFFFFFFFFFFFFFFFFFFFFFFFFFFFFFFF AND PUSH20 0xFFFFFFFFFFFFFFFFFFFFFFFFFFFFFFFFFFFFFFFF AND DUP2 MSTORE PUSH1 0x20 ADD SWAP1 DUP2 MSTORE PUSH1 0x20 ADD PUSH1 0x0 KECCAK256 SLOAD SWAP1 POP PUSH1 0x0 PUSH1 0x4 PUSH1 0x0 CALLER PUSH20 0xFFFFFFFFFFFFFFFFFFFFFFFFFFFFFFFFFFFFFFFF AND PUSH20 0xFFFFFFFFFFFFFFFFFFFFFFFFFFFFFFFFFFFFFFFF AND DUP2 MSTORE PUSH1 0x20 ADD SWAP1 DUP2 MSTORE PUSH1 0x20 ADD PUSH1 0x0 KECCAK256 DUP2 SWAP1 SSTORE POP PUSH1 0x1 PUSH1 0x0 SWAP1 SLOAD SWAP1 PUSH2 0x100 EXP SWAP1 DIV PUSH20 0xFFFFFFFFFFFFFFFFFFFFFFFFFFFFFFFFFFFFFFFF AND PUSH20 0xFFFFFFFFFFFFFFFFFFFFFFFFFFFFFFFFFFFFFFFF AND PUSH4 0x21B1D57B DUP4 PUSH1 0x2 ADD PUSH1 0x0 SWAP1 SLOAD SWAP1 PUSH2 0x100 EXP SWAP1 DIV PUSH20 0xFFFFFFFFFFFFFFFFFFFFFFFFFFFFFFFFFFFFFFFF AND DUP6 PUSH1 0x0 PUSH1 0x40 MLOAD DUP5 PUSH4 0xFFFFFFFF AND PUSH1 0xE0 SHL DUP2 MSTORE PUSH1 0x4 ADD PUSH2 0x142E SWAP4 SWAP3 SWAP2 SWAP1 PUSH2 0x2A4A JUMP JUMPDEST PUSH1 0x0 PUSH1 0x40 MLOAD DUP1 DUP4 SUB DUP2 PUSH1 0x0 DUP8 DUP1 EXTCODESIZE ISZERO DUP1 ISZERO PUSH2 0x1448 JUMPI PUSH1 0x0 DUP1 REVERT JUMPDEST POP GAS CALL ISZERO DUP1 ISZERO PUSH2 0x145C JUMPI RETURNDATASIZE PUSH1 0x0 DUP1 RETURNDATACOPY RETURNDATASIZE PUSH1 0x0 REVERT JUMPDEST POP POP POP POP CALLER PUSH20 0xFFFFFFFFFFFFFFFFFFFFFFFFFFFFFFFFFFFFFFFF AND PUSH2 0x8FC DUP3 SWAP1 DUP2 ISZERO MUL SWAP1 PUSH1 0x40 MLOAD PUSH1 0x0 PUSH1 0x40 MLOAD DUP1 DUP4 SUB DUP2 DUP6 DUP9 DUP9 CALL SWAP4 POP POP POP POP ISZERO DUP1 ISZERO PUSH2 0x14A6 JUMPI RETURNDATASIZE PUSH1 0x0 DUP1 RETURNDATACOPY RETURNDATASIZE PUSH1 0x0 REVERT JUMPDEST POP POP POP POP POP JUMP JUMPDEST PUSH1 0x2 PUSH1 0x20 MSTORE DUP1 PUSH1 0x0 MSTORE PUSH1 0x40 PUSH1 0x0 KECCAK256 PUSH1 0x0 SWAP2 POP SWAP1 POP DUP1 PUSH1 0x0 ADD PUSH1 0x0 SWAP1 SLOAD SWAP1 PUSH2 0x100 EXP SWAP1 DIV PUSH20 0xFFFFFFFFFFFFFFFFFFFFFFFFFFFFFFFFFFFFFFFF AND SWAP1 DUP1 PUSH1 0x1 ADD DUP1 SLOAD PUSH2 0x14F6 SWAP1 PUSH2 0x21E4 JUMP JUMPDEST DUP1 PUSH1 0x1F ADD PUSH1 0x20 DUP1 SWAP2 DIV MUL PUSH1 0x20 ADD PUSH1 0x40 MLOAD SWAP1 DUP2 ADD PUSH1 0x40 MSTORE DUP1 SWAP3 SWAP2 SWAP1 DUP2 DUP2 MSTORE PUSH1 0x20 ADD DUP3 DUP1 SLOAD PUSH2 0x1522 SWAP1 PUSH2 0x21E4 JUMP JUMPDEST DUP1 ISZERO PUSH2 0x156F JUMPI DUP1 PUSH1 0x1F LT PUSH2 0x1544 JUMPI PUSH2 0x100 DUP1 DUP4 SLOAD DIV MUL DUP4 MSTORE SWAP2 PUSH1 0x20 ADD SWAP2 PUSH2 0x156F JUMP JUMPDEST DUP3 ADD SWAP2 SWAP1 PUSH1 0x0 MSTORE PUSH1 0x20 PUSH1 0x0 KECCAK256 SWAP1 JUMPDEST DUP2 SLOAD DUP2 MSTORE SWAP1 PUSH1 0x1 ADD SWAP1 PUSH1 0x20 ADD DUP1 DUP4 GT PUSH2 0x1552 JUMPI DUP3 SWAP1 SUB PUSH1 0x1F AND DUP3 ADD SWAP2 JUMPDEST POP POP POP POP POP SWAP1 DUP1 PUSH1 0x2 ADD SLOAD SWAP1 DUP1 PUSH1 0x3 ADD SLOAD SWAP1 POP DUP5 JUMP JUMPDEST PUSH1 0x0 DUP1 PUSH1 0x1 PUSH1 0x0 SWAP1 SLOAD SWAP1 PUSH2 0x100 EXP SWAP1 DIV PUSH20 0xFFFFFFFFFFFFFFFFFFFFFFFFFFFFFFFFFFFFFFFF AND PUSH20 0xFFFFFFFFFFFFFFFFFFFFFFFFFFFFFFFFFFFFFFFF AND PUSH4 0xE745F8BA DUP6 DUP6 PUSH1 0x40 MLOAD DUP4 PUSH4 0xFFFFFFFF AND PUSH1 0xE0 SHL DUP2 MSTORE PUSH1 0x4 ADD PUSH2 0x15E5 SWAP3 SWAP2 SWAP1 PUSH2 0x2AED JUMP JUMPDEST PUSH1 0x40 DUP1 MLOAD DUP1 DUP4 SUB DUP2 DUP7 GAS STATICCALL ISZERO DUP1 ISZERO PUSH2 0x1601 JUMPI RETURNDATASIZE PUSH1 0x0 DUP1 RETURNDATACOPY RETURNDATASIZE PUSH1 0x0 REVERT JUMPDEST POP POP POP POP PUSH1 0x40 MLOAD RETURNDATASIZE PUSH1 0x1F NOT PUSH1 0x1F DUP3 ADD AND DUP3 ADD DUP1 PUSH1 0x40 MSTORE POP DUP2 ADD SWAP1 PUSH2 0x1625 SWAP2 SWAP1 PUSH2 0x2B16 JUMP JUMPDEST SWAP2 POP SWAP2 POP SWAP3 POP SWAP3 SWAP1 POP JUMP JUMPDEST PUSH1 0x0 DUP1 PUSH1 0x60 PUSH1 0x0 DUP1 PUSH1 0x0 DUP1 PUSH1 0x3 PUSH1 0x0 DUP10 DUP2 MSTORE PUSH1 0x20 ADD SWAP1 DUP2 MSTORE PUSH1 0x20 ADD PUSH1 0x0 KECCAK256 PUSH1 0x40 MLOAD DUP1 PUSH1 0xE0 ADD PUSH1 0x40 MSTORE SWAP1 DUP2 PUSH1 0x0 DUP3 ADD SLOAD DUP2 MSTORE PUSH1 0x20 ADD PUSH1 0x1 DUP3 ADD PUSH1 0x0 SWAP1 SLOAD SWAP1 PUSH2 0x100 EXP SWAP1 DIV PUSH20 0xFFFFFFFFFFFFFFFFFFFFFFFFFFFFFFFFFFFFFFFF AND PUSH20 0xFFFFFFFFFFFFFFFFFFFFFFFFFFFFFFFFFFFFFFFF AND PUSH20 0xFFFFFFFFFFFFFFFFFFFFFFFFFFFFFFFFFFFFFFFF AND DUP2 MSTORE PUSH1 0x20 ADD PUSH1 0x2 DUP3 ADD PUSH1 0x0 SWAP1 SLOAD SWAP1 PUSH2 0x100 EXP SWAP1 DIV PUSH20 0xFFFFFFFFFFFFFFFFFFFFFFFFFFFFFFFFFFFFFFFF AND PUSH20 0xFFFFFFFFFFFFFFFFFFFFFFFFFFFFFFFFFFFFFFFF AND PUSH20 0xFFFFFFFFFFFFFFFFFFFFFFFFFFFFFFFFFFFFFFFF AND DUP2 MSTORE PUSH1 0x20 ADD PUSH1 0x3 DUP3 ADD DUP1 SLOAD PUSH2 0x171F SWAP1 PUSH2 0x21E4 JUMP JUMPDEST DUP1 PUSH1 0x1F ADD PUSH1 0x20 DUP1 SWAP2 DIV MUL PUSH1 0x20 ADD PUSH1 0x40 MLOAD SWAP1 DUP2 ADD PUSH1 0x40 MSTORE DUP1 SWAP3 SWAP2 SWAP1 DUP2 DUP2 MSTORE PUSH1 0x20 ADD DUP3 DUP1 SLOAD PUSH2 0x174B SWAP1 PUSH2 0x21E4 JUMP JUMPDEST DUP1 ISZERO PUSH2 0x1798 JUMPI DUP1 PUSH1 0x1F LT PUSH2 0x176D JUMPI PUSH2 0x100 DUP1 DUP4 SLOAD DIV MUL DUP4 MSTORE SWAP2 PUSH1 0x20 ADD SWAP2 PUSH2 0x1798 JUMP JUMPDEST DUP3 ADD SWAP2 SWAP1 PUSH1 0x0 MSTORE PUSH1 0x20 PUSH1 0x0 KECCAK256 SWAP1 JUMPDEST DUP2 SLOAD DUP2 MSTORE SWAP1 PUSH1 0x1 ADD SWAP1 PUSH1 0x20 ADD DUP1 DUP4 GT PUSH2 0x177B JUMPI DUP3 SWAP1 SUB PUSH1 0x1F AND DUP3 ADD SWAP2 JUMPDEST POP POP POP POP POP DUP2 MSTORE PUSH1 0x20 ADD PUSH1 0x4 DUP3 ADD SLOAD DUP2 MSTORE PUSH1 0x20 ADD PUSH1 0x5 DUP3 ADD PUSH1 0x0 SWAP1 SLOAD SWAP1 PUSH2 0x100 EXP SWAP1 DIV PUSH1 0xFF AND PUSH1 0x1 DUP2 GT ISZERO PUSH2 0x17D0 JUMPI PUSH2 0x17CF PUSH2 0x1F7F JUMP JUMPDEST JUMPDEST PUSH1 0x1 DUP2 GT ISZERO PUSH2 0x17E2 JUMPI PUSH2 0x17E1 PUSH2 0x1F7F JUMP JUMPDEST JUMPDEST DUP2 MSTORE PUSH1 0x20 ADD PUSH1 0x6 DUP3 ADD SLOAD DUP2 MSTORE POP POP SWAP1 POP DUP1 PUSH1 0x20 ADD MLOAD DUP2 PUSH1 0x40 ADD MLOAD DUP3 PUSH1 0x60 ADD MLOAD DUP4 PUSH1 0x80 ADD MLOAD DUP5 PUSH1 0xA0 ADD MLOAD DUP6 PUSH1 0xC0 ADD MLOAD SWAP7 POP SWAP7 POP SWAP7 POP SWAP7 POP SWAP7 POP SWAP7 POP POP SWAP2 SWAP4 SWAP6 POP SWAP2 SWAP4 SWAP6 JUMP JUMPDEST PUSH2 0x182E PUSH2 0x18A9 JUMP JUMPDEST PUSH1 0x0 PUSH20 0xFFFFFFFFFFFFFFFFFFFFFFFFFFFFFFFFFFFFFFFF AND DUP2 PUSH20 0xFFFFFFFFFFFFFFFFFFFFFFFFFFFFFFFFFFFFFFFF AND SUB PUSH2 0x189D JUMPI PUSH1 0x40 MLOAD PUSH32 0x8C379A000000000000000000000000000000000000000000000000000000000 DUP2 MSTORE PUSH1 0x4 ADD PUSH2 0x1894 SWAP1 PUSH2 0x2BC8 JUMP JUMPDEST PUSH1 0x40 MLOAD DUP1 SWAP2 SUB SWAP1 REVERT JUMPDEST PUSH2 0x18A6 DUP2 PUSH2 0x1927 JUMP JUMPDEST POP JUMP JUMPDEST PUSH2 0x18B1 PUSH2 0x19EB JUMP JUMPDEST PUSH20 0xFFFFFFFFFFFFFFFFFFFFFFFFFFFFFFFFFFFFFFFF AND PUSH2 0x18CF PUSH2 0xE76 JUMP JUMPDEST PUSH20 0xFFFFFFFFFFFFFFFFFFFFFFFFFFFFFFFFFFFFFFFF AND EQ PUSH2 0x1925 JUMPI PUSH1 0x40 MLOAD PUSH32 0x8C379A000000000000000000000000000000000000000000000000000000000 DUP2 MSTORE PUSH1 0x4 ADD PUSH2 0x191C SWAP1 PUSH2 0x2C34 JUMP JUMPDEST PUSH1 0x40 MLOAD DUP1 SWAP2 SUB SWAP1 REVERT JUMPDEST JUMP JUMPDEST PUSH1 0x0 DUP1 PUSH1 0x0 SWAP1 SLOAD SWAP1 PUSH2 0x100 EXP SWAP1 DIV PUSH20 0xFFFFFFFFFFFFFFFFFFFFFFFFFFFFFFFFFFFFFFFF AND SWAP1 POP DUP2 PUSH1 0x0 DUP1 PUSH2 0x100 EXP DUP2 SLOAD DUP2 PUSH20 0xFFFFFFFFFFFFFFFFFFFFFFFFFFFFFFFFFFFFFFFF MUL NOT AND SWAP1 DUP4 PUSH20 0xFFFFFFFFFFFFFFFFFFFFFFFFFFFFFFFFFFFFFFFF AND MUL OR SWAP1 SSTORE POP DUP2 PUSH20 0xFFFFFFFFFFFFFFFFFFFFFFFFFFFFFFFFFFFFFFFF AND DUP2 PUSH20 0xFFFFFFFFFFFFFFFFFFFFFFFFFFFFFFFFFFFFFFFF AND PUSH32 0x8BE0079C531659141344CD1FD0A4F28419497F9722A3DAAFE3B4186F6B6457E0 PUSH1 0x40 MLOAD PUSH1 0x40 MLOAD DUP1 SWAP2 SUB SWAP1 LOG3 POP POP JUMP JUMPDEST PUSH1 0x0 CALLER SWAP1 POP SWAP1 JUMP JUMPDEST PUSH1 0x40 MLOAD DUP1 PUSH1 0xE0 ADD PUSH1 0x40 MSTORE DUP1 PUSH1 0x0 DUP2 MSTORE PUSH1 0x20 ADD PUSH1 0x0 PUSH20 0xFFFFFFFFFFFFFFFFFFFFFFFFFFFFFFFFFFFFFFFF AND DUP2 MSTORE PUSH1 0x20 ADD PUSH1 0x0 PUSH20 0xFFFFFFFFFFFFFFFFFFFFFFFFFFFFFFFFFFFFFFFF AND DUP2 MSTORE PUSH1 0x20 ADD PUSH1 0x60 DUP2 MSTORE PUSH1 0x20 ADD PUSH1 0x0 DUP2 MSTORE PUSH1 0x20 ADD PUSH1 0x0 PUSH1 0x1 DUP2 GT ISZERO PUSH2 0x1A61 JUMPI PUSH2 0x1A60 PUSH2 0x1F7F JUMP JUMPDEST JUMPDEST DUP2 MSTORE PUSH1 0x20 ADD PUSH1 0x0 DUP2 MSTORE POP SWAP1 JUMP JUMPDEST PUSH1 0x0 DUP2 SWAP1 POP SWAP2 SWAP1 POP JUMP JUMPDEST PUSH2 0x1A81 DUP2 PUSH2 0x1A6E JUMP JUMPDEST DUP3 MSTORE POP POP JUMP JUMPDEST PUSH1 0x0 PUSH1 0x20 DUP3 ADD SWAP1 POP PUSH2 0x1A9C PUSH1 0x0 DUP4 ADD DUP5 PUSH2 0x1A78 JUMP JUMPDEST SWAP3 SWAP2 POP POP JUMP JUMPDEST PUSH1 0x0 PUSH1 0x40 MLOAD SWAP1 POP SWAP1 JUMP JUMPDEST PUSH1 0x0 DUP1 REVERT JUMPDEST PUSH1 0x0 DUP1 REVERT JUMPDEST PUSH2 0x1ABF DUP2 PUSH2 0x1A6E JUMP JUMPDEST DUP2 EQ PUSH2 0x1ACA JUMPI PUSH1 0x0 DUP1 REVERT JUMPDEST POP JUMP JUMPDEST PUSH1 0x0 DUP2 CALLDATALOAD SWAP1 POP PUSH2 0x1ADC DUP2 PUSH2 0x1AB6 JUMP JUMPDEST SWAP3 SWAP2 POP POP JUMP JUMPDEST PUSH1 0x0 PUSH1 0x20 DUP3 DUP5 SUB SLT ISZERO PUSH2 0x1AF8 JUMPI PUSH2 0x1AF7 PUSH2 0x1AAC JUMP JUMPDEST JUMPDEST PUSH1 0x0 PUSH2 0x1B06 DUP5 DUP3 DUP6 ADD PUSH2 0x1ACD JUMP JUMPDEST SWAP2 POP POP SWAP3 SWAP2 POP POP JUMP JUMPDEST PUSH1 0x0 PUSH20 0xFFFFFFFFFFFFFFFFFFFFFFFFFFFFFFFFFFFFFFFF DUP3 AND SWAP1 POP SWAP2 SWAP1 POP JUMP JUMPDEST PUSH1 0x0 PUSH2 0x1B3A DUP3 PUSH2 0x1B0F JUMP JUMPDEST SWAP1 POP SWAP2 SWAP1 POP JUMP JUMPDEST PUSH2 0x1B4A DUP2 PUSH2 0x1B2F JUMP JUMPDEST DUP3 MSTORE POP POP JUMP JUMPDEST PUSH1 0x0 DUP2 MLOAD SWAP1 POP SWAP2 SWAP1 POP JUMP JUMPDEST PUSH1 0x0 DUP3 DUP3 MSTORE PUSH1 0x20 DUP3 ADD SWAP1 POP SWAP3 SWAP2 POP POP JUMP JUMPDEST PUSH1 0x0 JUMPDEST DUP4 DUP2 LT ISZERO PUSH2 0x1B8A JUMPI DUP1 DUP3 ADD MLOAD DUP2 DUP5 ADD MSTORE PUSH1 0x20 DUP2 ADD SWAP1 POP PUSH2 0x1B6F JUMP JUMPDEST PUSH1 0x0 DUP5 DUP5 ADD MSTORE POP POP POP POP JUMP JUMPDEST PUSH1 0x0 PUSH1 0x1F NOT PUSH1 0x1F DUP4 ADD AND SWAP1 POP SWAP2 SWAP1 POP JUMP JUMPDEST PUSH1 0x0 PUSH2 0x1BB2 DUP3 PUSH2 0x1B50 JUMP JUMPDEST PUSH2 0x1BBC DUP2 DUP6 PUSH2 0x1B5B JUMP JUMPDEST SWAP4 POP PUSH2 0x1BCC DUP2 DUP6 PUSH1 0x20 DUP7 ADD PUSH2 0x1B6C JUMP JUMPDEST PUSH2 0x1BD5 DUP2 PUSH2 0x1B96 JUMP JUMPDEST DUP5 ADD SWAP2 POP POP SWAP3 SWAP2 POP POP JUMP JUMPDEST PUSH1 0x0 PUSH1 0x80 DUP3 ADD SWAP1 POP PUSH2 0x1BF5 PUSH1 0x0 DUP4 ADD DUP8 PUSH2 0x1B41 JUMP JUMPDEST DUP2 DUP2 SUB PUSH1 0x20 DUP4 ADD MSTORE PUSH2 0x1C07 DUP2 DUP7 PUSH2 0x1BA7 JUMP JUMPDEST SWAP1 POP PUSH2 0x1C16 PUSH1 0x40 DUP4 ADD DUP6 PUSH2 0x1A78 JUMP JUMPDEST PUSH2 0x1C23 PUSH1 0x60 DUP4 ADD DUP5 PUSH2 0x1A78 JUMP JUMPDEST SWAP6 SWAP5 POP POP POP POP POP JUMP JUMPDEST PUSH1 0x0 DUP1 REVERT JUMPDEST PUSH1 0x0 DUP1 REVERT JUMPDEST PUSH32 0x4E487B7100000000000000000000000000000000000000000000000000000000 PUSH1 0x0 MSTORE PUSH1 0x41 PUSH1 0x4 MSTORE PUSH1 0x24 PUSH1 0x0 REVERT JUMPDEST PUSH2 0x1C6E DUP3 PUSH2 0x1B96 JUMP JUMPDEST DUP2 ADD DUP2 DUP2 LT PUSH8 0xFFFFFFFFFFFFFFFF DUP3 GT OR ISZERO PUSH2 0x1C8D JUMPI PUSH2 0x1C8C PUSH2 0x1C36 JUMP JUMPDEST JUMPDEST DUP1 PUSH1 0x40 MSTORE POP POP POP JUMP JUMPDEST PUSH1 0x0 PUSH2 0x1CA0 PUSH2 0x1AA2 JUMP JUMPDEST SWAP1 POP PUSH2 0x1CAC DUP3 DUP3 PUSH2 0x1C65 JUMP JUMPDEST SWAP2 SWAP1 POP JUMP JUMPDEST PUSH1 0x0 PUSH8 0xFFFFFFFFFFFFFFFF DUP3 GT ISZERO PUSH2 0x1CCC JUMPI PUSH2 0x1CCB PUSH2 0x1C36 JUMP JUMPDEST JUMPDEST PUSH2 0x1CD5 DUP3 PUSH2 0x1B96 JUMP JUMPDEST SWAP1 POP PUSH1 0x20 DUP2 ADD SWAP1 POP SWAP2 SWAP1 POP JUMP JUMPDEST DUP3 DUP2 DUP4 CALLDATACOPY PUSH1 0x0 DUP4 DUP4 ADD MSTORE POP POP POP JUMP JUMPDEST PUSH1 0x0 PUSH2 0x1D04 PUSH2 0x1CFF DUP5 PUSH2 0x1CB1 JUMP JUMPDEST PUSH2 0x1C96 JUMP JUMPDEST SWAP1 POP DUP3 DUP2 MSTORE PUSH1 0x20 DUP2 ADD DUP5 DUP5 DUP5 ADD GT ISZERO PUSH2 0x1D20 JUMPI PUSH2 0x1D1F PUSH2 0x1C31 JUMP JUMPDEST JUMPDEST PUSH2 0x1D2B DUP5 DUP3 DUP6 PUSH2 0x1CE2 JUMP JUMPDEST POP SWAP4 SWAP3 POP POP POP JUMP JUMPDEST PUSH1 0x0 DUP3 PUSH1 0x1F DUP4 ADD SLT PUSH2 0x1D48 JUMPI PUSH2 0x1D47 PUSH2 0x1C2C JUMP JUMPDEST JUMPDEST DUP2 CALLDATALOAD PUSH2 0x1D58 DUP5 DUP3 PUSH1 0x20 DUP7 ADD PUSH2 0x1CF1 JUMP JUMPDEST SWAP2 POP POP SWAP3 SWAP2 POP POP JUMP JUMPDEST PUSH1 0x0 DUP1 PUSH1 0x0 PUSH1 0x60 DUP5 DUP7 SUB SLT ISZERO PUSH2 0x1D7A JUMPI PUSH2 0x1D79 PUSH2 0x1AAC JUMP JUMPDEST JUMPDEST PUSH1 0x0 DUP5 ADD CALLDATALOAD PUSH8 0xFFFFFFFFFFFFFFFF DUP2 GT ISZERO PUSH2 0x1D98 JUMPI PUSH2 0x1D97 PUSH2 0x1AB1 JUMP JUMPDEST JUMPDEST PUSH2 0x1DA4 DUP7 DUP3 DUP8 ADD PUSH2 0x1D33 JUMP JUMPDEST SWAP4 POP POP PUSH1 0x20 PUSH2 0x1DB5 DUP7 DUP3 DUP8 ADD PUSH2 0x1ACD JUMP JUMPDEST SWAP3 POP POP PUSH1 0x40 PUSH2 0x1DC6 DUP7 DUP3 DUP8 ADD PUSH2 0x1ACD JUMP JUMPDEST SWAP2 POP POP SWAP3 POP SWAP3 POP SWAP3 JUMP JUMPDEST PUSH2 0x1DD9 DUP2 PUSH2 0x1B2F JUMP JUMPDEST DUP2 EQ PUSH2 0x1DE4 JUMPI PUSH1 0x0 DUP1 REVERT JUMPDEST POP JUMP JUMPDEST PUSH1 0x0 DUP2 CALLDATALOAD SWAP1 POP PUSH2 0x1DF6 DUP2 PUSH2 0x1DD0 JUMP JUMPDEST SWAP3 SWAP2 POP POP JUMP JUMPDEST PUSH1 0x0 PUSH1 0x20 DUP3 DUP5 SUB SLT ISZERO PUSH2 0x1E12 JUMPI PUSH2 0x1E11 PUSH2 0x1AAC JUMP JUMPDEST JUMPDEST PUSH1 0x0 PUSH2 0x1E20 DUP5 DUP3 DUP6 ADD PUSH2 0x1DE7 JUMP JUMPDEST SWAP2 POP POP SWAP3 SWAP2 POP POP JUMP JUMPDEST PUSH1 0x0 DUP1 PUSH1 0x40 DUP4 DUP6 SUB SLT ISZERO PUSH2 0x1E40 JUMPI PUSH2 0x1E3F PUSH2 0x1AAC JUMP JUMPDEST JUMPDEST PUSH1 0x0 PUSH2 0x1E4E DUP6 DUP3 DUP7 ADD PUSH2 0x1ACD JUMP JUMPDEST SWAP3 POP POP PUSH1 0x20 PUSH2 0x1E5F DUP6 DUP3 DUP7 ADD PUSH2 0x1ACD JUMP JUMPDEST SWAP2 POP POP SWAP3 POP SWAP3 SWAP1 POP JUMP JUMPDEST PUSH1 0x0 DUP2 ISZERO ISZERO SWAP1 POP SWAP2 SWAP1 POP JUMP JUMPDEST PUSH2 0x1E7E DUP2 PUSH2 0x1E69 JUMP JUMPDEST DUP3 MSTORE POP POP JUMP JUMPDEST PUSH1 0x0 PUSH1 0xE0 DUP3 ADD SWAP1 POP PUSH2 0x1E99 PUSH1 0x0 DUP4 ADD DUP11 PUSH2 0x1B41 JUMP JUMPDEST DUP2 DUP2 SUB PUSH1 0x20 DUP4 ADD MSTORE PUSH2 0x1EAB DUP2 DUP10 PUSH2 0x1BA7 JUMP JUMPDEST SWAP1 POP PUSH2 0x1EBA PUSH1 0x40 DUP4 ADD DUP9 PUSH2 0x1A78 JUMP JUMPDEST PUSH2 0x1EC7 PUSH1 0x60 DUP4 ADD DUP8 PUSH2 0x1A78 JUMP JUMPDEST PUSH2 0x1ED4 PUSH1 0x80 DUP4 ADD DUP7 PUSH2 0x1A78 JUMP JUMPDEST PUSH2 0x1EE1 PUSH1 0xA0 DUP4 ADD DUP6 PUSH2 0x1A78 JUMP JUMPDEST PUSH2 0x1EEE PUSH1 0xC0 DUP4 ADD DUP5 PUSH2 0x1E75 JUMP JUMPDEST SWAP9 SWAP8 POP POP POP POP POP POP POP POP JUMP JUMPDEST PUSH1 0x0 PUSH1 0x20 DUP3 DUP5 SUB SLT ISZERO PUSH2 0x1F10 JUMPI PUSH2 0x1F0F PUSH2 0x1AAC JUMP JUMPDEST JUMPDEST PUSH1 0x0 DUP3 ADD CALLDATALOAD PUSH8 0xFFFFFFFFFFFFFFFF DUP2 GT ISZERO PUSH2 0x1F2E JUMPI PUSH2 0x1F2D PUSH2 0x1AB1 JUMP JUMPDEST JUMPDEST PUSH2 0x1F3A DUP5 DUP3 DUP6 ADD PUSH2 0x1D33 JUMP JUMPDEST SWAP2 POP POP SWAP3 SWAP2 POP POP JUMP JUMPDEST PUSH1 0x0 PUSH1 0x20 DUP3 ADD SWAP1 POP PUSH2 0x1F58 PUSH1 0x0 DUP4 ADD DUP5 PUSH2 0x1B41 JUMP JUMPDEST SWAP3 SWAP2 POP POP JUMP JUMPDEST PUSH1 0x0 PUSH2 0x1F69 DUP3 PUSH2 0x1B0F JUMP JUMPDEST SWAP1 POP SWAP2 SWAP1 POP JUMP JUMPDEST PUSH2 0x1F79 DUP2 PUSH2 0x1F5E JUMP JUMPDEST DUP3 MSTORE POP POP JUMP JUMPDEST PUSH32 0x4E487B7100000000000000000000000000000000000000000000000000000000 PUSH1 0x0 MSTORE PUSH1 0x21 PUSH1 0x4 MSTORE PUSH1 0x24 PUSH1 0x0 REVERT JUMPDEST PUSH1 0x2 DUP2 LT PUSH2 0x1FBF JUMPI PUSH2 0x1FBE PUSH2 0x1F7F JUMP JUMPDEST JUMPDEST POP JUMP JUMPDEST PUSH1 0x0 DUP2 SWAP1 POP PUSH2 0x1FD0 DUP3 PUSH2 0x1FAE JUMP JUMPDEST SWAP2 SWAP1 POP JUMP JUMPDEST PUSH1 0x0 PUSH2 0x1FE0 DUP3 PUSH2 0x1FC2 JUMP JUMPDEST SWAP1 POP SWAP2 SWAP1 POP JUMP JUMPDEST PUSH2 0x1FF0 DUP2 PUSH2 0x1FD5 JUMP JUMPDEST DUP3 MSTORE POP POP JUMP JUMPDEST PUSH1 0x0 PUSH1 0xE0 DUP3 ADD SWAP1 POP PUSH2 0x200B PUSH1 0x0 DUP4 ADD DUP11 PUSH2 0x1A78 JUMP JUMPDEST PUSH2 0x2018 PUSH1 0x20 DUP4 ADD DUP10 PUSH2 0x1F70 JUMP JUMPDEST PUSH2 0x2025 PUSH1 0x40 DUP4 ADD DUP9 PUSH2 0x1F70 JUMP JUMPDEST DUP2 DUP2 SUB PUSH1 0x60 DUP4 ADD MSTORE PUSH2 0x2037 DUP2 DUP8 PUSH2 0x1BA7 JUMP JUMPDEST SWAP1 POP PUSH2 0x2046 PUSH1 0x80 DUP4 ADD DUP7 PUSH2 0x1A78 JUMP JUMPDEST PUSH2 0x2053 PUSH1 0xA0 DUP4 ADD DUP6 PUSH2 0x1FE7 JUMP JUMPDEST PUSH2 0x2060 PUSH1 0xC0 DUP4 ADD DUP5 PUSH2 0x1A78 JUMP JUMPDEST SWAP9 SWAP8 POP POP POP POP POP POP POP POP JUMP JUMPDEST PUSH1 0x0 PUSH1 0x80 DUP3 ADD SWAP1 POP PUSH2 0x2081 PUSH1 0x0 DUP4 ADD DUP8 PUSH2 0x1F70 JUMP JUMPDEST DUP2 DUP2 SUB PUSH1 0x20 DUP4 ADD MSTORE PUSH2 0x2093 DUP2 DUP7 PUSH2 0x1BA7 JUMP JUMPDEST SWAP1 POP PUSH2 0x20A2 PUSH1 0x40 DUP4 ADD DUP6 PUSH2 0x1A78 JUMP JUMPDEST PUSH2 0x20AF PUSH1 0x60 DUP4 ADD DUP5 PUSH2 0x1A78 JUMP JUMPDEST SWAP6 SWAP5 POP POP POP POP POP JUMP JUMPDEST PUSH2 0x20C1 DUP2 PUSH2 0x1E69 JUMP JUMPDEST DUP2 EQ PUSH2 0x20CC JUMPI PUSH1 0x0 DUP1 REVERT JUMPDEST POP JUMP JUMPDEST PUSH1 0x0 DUP2 CALLDATALOAD SWAP1 POP PUSH2 0x20DE DUP2 PUSH2 0x20B8 JUMP JUMPDEST SWAP3 SWAP2 POP POP JUMP JUMPDEST PUSH1 0x0 DUP1 PUSH1 0x40 DUP4 DUP6 SUB SLT ISZERO PUSH2 0x20FB JUMPI PUSH2 0x20FA PUSH2 0x1AAC JUMP JUMPDEST JUMPDEST PUSH1 0x0 PUSH2 0x2109 DUP6 DUP3 DUP7 ADD PUSH2 0x1DE7 JUMP JUMPDEST SWAP3 POP POP PUSH1 0x20 PUSH2 0x211A DUP6 DUP3 DUP7 ADD PUSH2 0x20CF JUMP JUMPDEST SWAP2 POP POP SWAP3 POP SWAP3 SWAP1 POP JUMP JUMPDEST PUSH1 0x0 PUSH1 0x40 DUP3 ADD SWAP1 POP PUSH2 0x2139 PUSH1 0x0 DUP4 ADD DUP6 PUSH2 0x1A78 JUMP JUMPDEST PUSH2 0x2146 PUSH1 0x20 DUP4 ADD DUP5 PUSH2 0x1A78 JUMP JUMPDEST SWAP4 SWAP3 POP POP POP JUMP JUMPDEST PUSH1 0x0 PUSH1 0xC0 DUP3 ADD SWAP1 POP PUSH2 0x2162 PUSH1 0x0 DUP4 ADD DUP10 PUSH2 0x1B41 JUMP JUMPDEST PUSH2 0x216F PUSH1 0x20 DUP4 ADD DUP9 PUSH2 0x1B41 JUMP JUMPDEST DUP2 DUP2 SUB PUSH1 0x40 DUP4 ADD MSTORE PUSH2 0x2181 DUP2 DUP8 PUSH2 0x1BA7 JUMP JUMPDEST SWAP1 POP PUSH2 0x2190 PUSH1 0x60 DUP4 ADD DUP7 PUSH2 0x1A78 JUMP JUMPDEST PUSH2 0x219D PUSH1 0x80 DUP4 ADD DUP6 PUSH2 0x1FE7 JUMP JUMPDEST PUSH2 0x21AA PUSH1 0xA0 DUP4 ADD DUP5 PUSH2 0x1A78 JUMP JUMPDEST SWAP8 SWAP7 POP POP POP POP POP POP POP JUMP JUMPDEST PUSH32 0x4E487B7100000000000000000000000000000000000000000000000000000000 PUSH1 0x0 MSTORE PUSH1 0x22 PUSH1 0x4 MSTORE PUSH1 0x24 PUSH1 0x0 REVERT JUMPDEST PUSH1 0x0 PUSH1 0x2 DUP3 DIV SWAP1 POP PUSH1 0x1 DUP3 AND DUP1 PUSH2 0x21FC JUMPI PUSH1 0x7F DUP3 AND SWAP2 POP JUMPDEST PUSH1 0x20 DUP3 LT DUP2 SUB PUSH2 0x220F JUMPI PUSH2 0x220E PUSH2 0x21B5 JUMP JUMPDEST JUMPDEST POP SWAP2 SWAP1 POP JUMP JUMPDEST PUSH1 0x0 DUP2 MLOAD SWAP1 POP PUSH2 0x2224 DUP2 PUSH2 0x1DD0 JUMP JUMPDEST SWAP3 SWAP2 POP POP JUMP JUMPDEST PUSH1 0x0 PUSH2 0x223D PUSH2 0x2238 DUP5 PUSH2 0x1CB1 JUMP JUMPDEST PUSH2 0x1C96 JUMP JUMPDEST SWAP1 POP DUP3 DUP2 MSTORE PUSH1 0x20 DUP2 ADD DUP5 DUP5 DUP5 ADD GT ISZERO PUSH2 0x2259 JUMPI PUSH2 0x2258 PUSH2 0x1C31 JUMP JUMPDEST JUMPDEST PUSH2 0x2264 DUP5 DUP3 DUP6 PUSH2 0x1B6C JUMP JUMPDEST POP SWAP4 SWAP3 POP POP POP JUMP JUMPDEST PUSH1 0x0 DUP3 PUSH1 0x1F DUP4 ADD SLT PUSH2 0x2281 JUMPI PUSH2 0x2280 PUSH2 0x1C2C JUMP JUMPDEST JUMPDEST DUP2 MLOAD PUSH2 0x2291 DUP5 DUP3 PUSH1 0x20 DUP7 ADD PUSH2 0x222A JUMP JUMPDEST SWAP2 POP POP SWAP3 SWAP2 POP POP JUMP JUMPDEST PUSH1 0x0 DUP2 MLOAD SWAP1 POP PUSH2 0x22A9 DUP2 PUSH2 0x1AB6 JUMP JUMPDEST SWAP3 SWAP2 POP POP JUMP JUMPDEST PUSH1 0x0 DUP2 MLOAD SWAP1 POP PUSH2 0x22BE DUP2 PUSH2 0x20B8 JUMP JUMPDEST SWAP3 SWAP2 POP POP JUMP JUMPDEST PUSH1 0x0 DUP1 PUSH1 0x0 DUP1 PUSH1 0x0 DUP1 PUSH1 0x0 PUSH1 0xE0 DUP9 DUP11 SUB SLT ISZERO PUSH2 0x22E3 JUMPI PUSH2 0x22E2 PUSH2 0x1AAC JUMP JUMPDEST JUMPDEST PUSH1 0x0 PUSH2 0x22F1 DUP11 DUP3 DUP12 ADD PUSH2 0x2215 JUMP JUMPDEST SWAP8 POP POP PUSH1 0x20 DUP9 ADD MLOAD PUSH8 0xFFFFFFFFFFFFFFFF DUP2 GT ISZERO PUSH2 0x2312 JUMPI PUSH2 0x2311 PUSH2 0x1AB1 JUMP JUMPDEST JUMPDEST PUSH2 0x231E DUP11 DUP3 DUP12 ADD PUSH2 0x226C JUMP JUMPDEST SWAP7 POP POP PUSH1 0x40 PUSH2 0x232F DUP11 DUP3 DUP12 ADD PUSH2 0x229A JUMP JUMPDEST SWAP6 POP POP PUSH1 0x60 PUSH2 0x2340 DUP11 DUP3 DUP12 ADD PUSH2 0x229A JUMP JUMPDEST SWAP5 POP POP PUSH1 0x80 PUSH2 0x2351 DUP11 DUP3 DUP12 ADD PUSH2 0x229A JUMP JUMPDEST SWAP4 POP POP PUSH1 0xA0 PUSH2 0x2362 DUP11 DUP3 DUP12 ADD PUSH2 0x229A JUMP JUMPDEST SWAP3 POP POP PUSH1 0xC0 PUSH2 0x2373 DUP11 DUP3 DUP12 ADD PUSH2 0x22AF JUMP JUMPDEST SWAP2 POP POP SWAP3 SWAP6 SWAP9 SWAP2 SWAP5 SWAP8 POP SWAP3 SWAP6 POP JUMP JUMPDEST PUSH32 0x55736572206973206E6F74207265676973746572656400000000000000000000 PUSH1 0x0 DUP3 ADD MSTORE POP JUMP JUMPDEST PUSH1 0x0 PUSH2 0x23B8 PUSH1 0x16 DUP4 PUSH2 0x1B5B JUMP JUMPDEST SWAP2 POP PUSH2 0x23C3 DUP3 PUSH2 0x2382 JUMP JUMPDEST PUSH1 0x20 DUP3 ADD SWAP1 POP SWAP2 SWAP1 POP JUMP JUMPDEST PUSH1 0x0 PUSH1 0x20 DUP3 ADD SWAP1 POP DUP2 DUP2 SUB PUSH1 0x0 DUP4 ADD MSTORE PUSH2 0x23E7 DUP2 PUSH2 0x23AB JUMP JUMPDEST SWAP1 POP SWAP2 SWAP1 POP JUMP JUMPDEST PUSH32 0x436F7374206D7573742062652067726561746572207468616E20300000000000 PUSH1 0x0 DUP3 ADD MSTORE POP JUMP JUMPDEST PUSH1 0x0 PUSH2 0x2424 PUSH1 0x1B DUP4 PUSH2 0x1B5B JUMP JUMPDEST SWAP2 POP PUSH2 0x242F DUP3 PUSH2 0x23EE JUMP JUMPDEST PUSH1 0x20 DUP3 ADD SWAP1 POP SWAP2 SWAP1 POP JUMP JUMPDEST PUSH1 0x0 PUSH1 0x20 DUP3 ADD SWAP1 POP DUP2 DUP2 SUB PUSH1 0x0 DUP4 ADD MSTORE PUSH2 0x2453 DUP2 PUSH2 0x2417 JUMP JUMPDEST SWAP1 POP SWAP2 SWAP1 POP JUMP JUMPDEST PUSH1 0x0 DUP2 SWAP1 POP DUP2 PUSH1 0x0 MSTORE PUSH1 0x20 PUSH1 0x0 KECCAK256 SWAP1 POP SWAP2 SWAP1 POP JUMP JUMPDEST PUSH1 0x0 PUSH1 0x20 PUSH1 0x1F DUP4 ADD DIV SWAP1 POP SWAP2 SWAP1 POP JUMP JUMPDEST PUSH1 0x0 DUP3 DUP3 SHL SWAP1 POP SWAP3 SWAP2 POP POP JUMP JUMPDEST PUSH1 0x0 PUSH1 0x8 DUP4 MUL PUSH2 0x24BC PUSH32 0xFFFFFFFFFFFFFFFFFFFFFFFFFFFFFFFFFFFFFFFFFFFFFFFFFFFFFFFFFFFFFFFF DUP3 PUSH2 0x247F JUMP JUMPDEST PUSH2 0x24C6 DUP7 DUP4 PUSH2 0x247F JUMP JUMPDEST SWAP6 POP DUP1 NOT DUP5 AND SWAP4 POP DUP1 DUP7 AND DUP5 OR SWAP3 POP POP POP SWAP4 SWAP3 POP POP POP JUMP JUMPDEST PUSH1 0x0 DUP2 SWAP1 POP SWAP2 SWAP1 POP JUMP JUMPDEST PUSH1 0x0 PUSH2 0x2503 PUSH2 0x24FE PUSH2 0x24F9 DUP5 PUSH2 0x1A6E JUMP JUMPDEST PUSH2 0x24DE JUMP JUMPDEST PUSH2 0x1A6E JUMP JUMPDEST SWAP1 POP SWAP2 SWAP1 POP JUMP JUMPDEST PUSH1 0x0 DUP2 SWAP1 POP SWAP2 SWAP1 POP JUMP JUMPDEST PUSH2 0x251D DUP4 PUSH2 0x24E8 JUMP JUMPDEST PUSH2 0x2531 PUSH2 0x2529 DUP3 PUSH2 0x250A JUMP JUMPDEST DUP5 DUP5 SLOAD PUSH2 0x248C JUMP JUMPDEST DUP3 SSTORE POP POP POP POP JUMP JUMPDEST PUSH1 0x0 SWAP1 JUMP JUMPDEST PUSH2 0x2546 PUSH2 0x2539 JUMP JUMPDEST PUSH2 0x2551 DUP2 DUP5 DUP5 PUSH2 0x2514 JUMP JUMPDEST POP POP POP JUMP JUMPDEST JUMPDEST DUP2 DUP2 LT ISZERO PUSH2 0x2575 JUMPI PUSH2 0x256A PUSH1 0x0 DUP3 PUSH2 0x253E JUMP JUMPDEST PUSH1 0x1 DUP2 ADD SWAP1 POP PUSH2 0x2557 JUMP JUMPDEST POP POP JUMP JUMPDEST PUSH1 0x1F DUP3 GT ISZERO PUSH2 0x25BA JUMPI PUSH2 0x258B DUP2 PUSH2 0x245A JUMP JUMPDEST PUSH2 0x2594 DUP5 PUSH2 0x246F JUMP JUMPDEST DUP2 ADD PUSH1 0x20 DUP6 LT ISZERO PUSH2 0x25A3 JUMPI DUP2 SWAP1 POP JUMPDEST PUSH2 0x25B7 PUSH2 0x25AF DUP6 PUSH2 0x246F JUMP JUMPDEST DUP4 ADD DUP3 PUSH2 0x2556 JUMP JUMPDEST POP POP JUMPDEST POP POP POP JUMP JUMPDEST PUSH1 0x0 DUP3 DUP3 SHR SWAP1 POP SWAP3 SWAP2 POP POP JUMP JUMPDEST PUSH1 0x0 PUSH2 0x25DD PUSH1 0x0 NOT DUP5 PUSH1 0x8 MUL PUSH2 0x25BF JUMP JUMPDEST NOT DUP1 DUP4 AND SWAP2 POP POP SWAP3 SWAP2 POP POP JUMP JUMPDEST PUSH1 0x0 PUSH2 0x25F6 DUP4 DUP4 PUSH2 0x25CC JUMP JUMPDEST SWAP2 POP DUP3 PUSH1 0x2 MUL DUP3 OR SWAP1 POP SWAP3 SWAP2 POP POP JUMP JUMPDEST PUSH2 0x260F DUP3 PUSH2 0x1B50 JUMP JUMPDEST PUSH8 0xFFFFFFFFFFFFFFFF DUP2 GT ISZERO PUSH2 0x2628 JUMPI PUSH2 0x2627 PUSH2 0x1C36 JUMP JUMPDEST JUMPDEST PUSH2 0x2632 DUP3 SLOAD PUSH2 0x21E4 JUMP JUMPDEST PUSH2 0x263D DUP3 DUP3 DUP6 PUSH2 0x2579 JUMP JUMPDEST PUSH1 0x0 PUSH1 0x20 SWAP1 POP PUSH1 0x1F DUP4 GT PUSH1 0x1 DUP2 EQ PUSH2 0x2670 JUMPI PUSH1 0x0 DUP5 ISZERO PUSH2 0x265E JUMPI DUP3 DUP8 ADD MLOAD SWAP1 POP JUMPDEST PUSH2 0x2668 DUP6 DUP3 PUSH2 0x25EA JUMP JUMPDEST DUP7 SSTORE POP PUSH2 0x26D0 JUMP JUMPDEST PUSH1 0x1F NOT DUP5 AND PUSH2 0x267E DUP7 PUSH2 0x245A JUMP JUMPDEST PUSH1 0x0 JUMPDEST DUP3 DUP2 LT ISZERO PUSH2 0x26A6 JUMPI DUP5 DUP10 ADD MLOAD DUP3 SSTORE PUSH1 0x1 DUP3 ADD SWAP2 POP PUSH1 0x20 DUP6 ADD SWAP5 POP PUSH1 0x20 DUP2 ADD SWAP1 POP PUSH2 0x2681 JUMP JUMPDEST DUP7 DUP4 LT ISZERO PUSH2 0x26C3 JUMPI DUP5 DUP10 ADD MLOAD PUSH2 0x26BF PUSH1 0x1F DUP10 AND DUP3 PUSH2 0x25CC JUMP JUMPDEST DUP4 SSTORE POP JUMPDEST PUSH1 0x1 PUSH1 0x2 DUP9 MUL ADD DUP9 SSTORE POP POP POP JUMPDEST POP POP POP POP POP POP JUMP JUMPDEST PUSH32 0x4E487B7100000000000000000000000000000000000000000000000000000000 PUSH1 0x0 MSTORE PUSH1 0x11 PUSH1 0x4 MSTORE PUSH1 0x24 PUSH1 0x0 REVERT JUMPDEST PUSH1 0x0 PUSH2 0x2712 DUP3 PUSH2 0x1A6E JUMP JUMPDEST SWAP2 POP PUSH32 0xFFFFFFFFFFFFFFFFFFFFFFFFFFFFFFFFFFFFFFFFFFFFFFFFFFFFFFFFFFFFFFFF DUP3 SUB PUSH2 0x2744 JUMPI PUSH2 0x2743 PUSH2 0x26D8 JUMP JUMPDEST JUMPDEST PUSH1 0x1 DUP3 ADD SWAP1 POP SWAP2 SWAP1 POP JUMP JUMPDEST PUSH32 0x4C697374696E67206973206E6F74206578697374656400000000000000000000 PUSH1 0x0 DUP3 ADD MSTORE POP JUMP JUMPDEST PUSH1 0x0 PUSH2 0x2785 PUSH1 0x16 DUP4 PUSH2 0x1B5B JUMP JUMPDEST SWAP2 POP PUSH2 0x2790 DUP3 PUSH2 0x274F JUMP JUMPDEST PUSH1 0x20 DUP3 ADD SWAP1 POP SWAP2 SWAP1 POP JUMP JUMPDEST PUSH1 0x0 PUSH1 0x20 DUP3 ADD SWAP1 POP DUP2 DUP2 SUB PUSH1 0x0 DUP4 ADD MSTORE PUSH2 0x27B4 DUP2 PUSH2 0x2778 JUMP JUMPDEST SWAP1 POP SWAP2 SWAP1 POP JUMP JUMPDEST PUSH32 0x56616C7565206973206E6F742073616D6520617320636F737400000000000000 PUSH1 0x0 DUP3 ADD MSTORE POP JUMP JUMPDEST PUSH1 0x0 PUSH2 0x27F1 PUSH1 0x19 DUP4 PUSH2 0x1B5B JUMP JUMPDEST SWAP2 POP PUSH2 0x27FC DUP3 PUSH2 0x27BB JUMP JUMPDEST PUSH1 0x20 DUP3 ADD SWAP1 POP SWAP2 SWAP1 POP JUMP JUMPDEST PUSH1 0x0 PUSH1 0x20 DUP3 ADD SWAP1 POP DUP2 DUP2 SUB PUSH1 0x0 DUP4 ADD MSTORE PUSH2 0x2820 DUP2 PUSH2 0x27E4 JUMP JUMPDEST SWAP1 POP SWAP2 SWAP1 POP JUMP JUMPDEST PUSH32 0x446561646C696E65206973206E6F74206C6F6E676572207468616E2064757261 PUSH1 0x0 DUP3 ADD MSTORE PUSH32 0x74696F6E00000000000000000000000000000000000000000000000000000000 PUSH1 0x20 DUP3 ADD MSTORE POP JUMP JUMPDEST PUSH1 0x0 PUSH2 0x2883 PUSH1 0x24 DUP4 PUSH2 0x1B5B JUMP JUMPDEST SWAP2 POP PUSH2 0x288E DUP3 PUSH2 0x2827 JUMP JUMPDEST PUSH1 0x40 DUP3 ADD SWAP1 POP SWAP2 SWAP1 POP JUMP JUMPDEST PUSH1 0x0 PUSH1 0x20 DUP3 ADD SWAP1 POP DUP2 DUP2 SUB PUSH1 0x0 DUP4 ADD MSTORE PUSH2 0x28B2 DUP2 PUSH2 0x2876 JUMP JUMPDEST SWAP1 POP SWAP2 SWAP1 POP JUMP JUMPDEST PUSH1 0x0 PUSH2 0x28C4 DUP3 PUSH2 0x1A6E JUMP JUMPDEST SWAP2 POP PUSH2 0x28CF DUP4 PUSH2 0x1A6E JUMP JUMPDEST SWAP3 POP DUP3 DUP3 ADD SWAP1 POP DUP1 DUP3 GT ISZERO PUSH2 0x28E7 JUMPI PUSH2 0x28E6 PUSH2 0x26D8 JUMP JUMPDEST JUMPDEST SWAP3 SWAP2 POP POP JUMP JUMPDEST PUSH1 0x0 PUSH1 0x40 DUP3 ADD SWAP1 POP DUP2 DUP2 SUB PUSH1 0x0 DUP4 ADD MSTORE PUSH2 0x2907 DUP2 DUP6 PUSH2 0x1BA7 JUMP JUMPDEST SWAP1 POP PUSH2 0x2916 PUSH1 0x20 DUP4 ADD DUP5 PUSH2 0x1B41 JUMP JUMPDEST SWAP4 SWAP3 POP POP POP JUMP JUMPDEST PUSH32 0x4E6F7420617574686F72697A6564000000000000000000000000000000000000 PUSH1 0x0 DUP3 ADD MSTORE POP JUMP JUMPDEST PUSH1 0x0 PUSH2 0x2953 PUSH1 0xE DUP4 PUSH2 0x1B5B JUMP JUMPDEST SWAP2 POP PUSH2 0x295E DUP3 PUSH2 0x291D JUMP JUMPDEST PUSH1 0x20 DUP3 ADD SWAP1 POP SWAP2 SWAP1 POP JUMP JUMPDEST PUSH1 0x0 PUSH1 0x20 DUP3 ADD SWAP1 POP DUP2 DUP2 SUB PUSH1 0x0 DUP4 ADD MSTORE PUSH2 0x2982 DUP2 PUSH2 0x2946 JUMP JUMPDEST SWAP1 POP SWAP2 SWAP1 POP JUMP JUMPDEST PUSH32 0x496E76616C696420737461747573000000000000000000000000000000000000 PUSH1 0x0 DUP3 ADD MSTORE POP JUMP JUMPDEST PUSH1 0x0 PUSH2 0x29BF PUSH1 0xE DUP4 PUSH2 0x1B5B JUMP JUMPDEST SWAP2 POP PUSH2 0x29CA DUP3 PUSH2 0x2989 JUMP JUMPDEST PUSH1 0x20 DUP3 ADD SWAP1 POP SWAP2 SWAP1 POP JUMP JUMPDEST PUSH1 0x0 PUSH1 0x20 DUP3 ADD SWAP1 POP DUP2 DUP2 SUB PUSH1 0x0 DUP4 ADD MSTORE PUSH2 0x29EE DUP2 PUSH2 0x29B2 JUMP JUMPDEST SWAP1 POP SWAP2 SWAP1 POP JUMP JUMPDEST PUSH1 0x0 PUSH2 0x2A10 PUSH2 0x2A0B PUSH2 0x2A06 DUP5 PUSH2 0x1B0F JUMP JUMPDEST PUSH2 0x24DE JUMP JUMPDEST PUSH2 0x1B0F JUMP JUMPDEST SWAP1 POP SWAP2 SWAP1 POP JUMP JUMPDEST PUSH1 0x0 PUSH2 0x2A22 DUP3 PUSH2 0x29F5 JUMP JUMPDEST SWAP1 POP SWAP2 SWAP1 POP JUMP JUMPDEST PUSH1 0x0 PUSH2 0x2A34 DUP3 PUSH2 0x2A17 JUMP JUMPDEST SWAP1 POP SWAP2 SWAP1 POP JUMP JUMPDEST PUSH2 0x2A44 DUP2 PUSH2 0x2A29 JUMP JUMPDEST DUP3 MSTORE POP POP JUMP JUMPDEST PUSH1 0x0 PUSH1 0x60 DUP3 ADD SWAP1 POP PUSH2 0x2A5F PUSH1 0x0 DUP4 ADD DUP7 PUSH2 0x2A3B JUMP JUMPDEST PUSH2 0x2A6C PUSH1 0x20 DUP4 ADD DUP6 PUSH2 0x1A78 JUMP JUMPDEST PUSH2 0x2A79 PUSH1 0x40 DUP4 ADD DUP5 PUSH2 0x1E75 JUMP JUMPDEST SWAP5 SWAP4 POP POP POP POP JUMP JUMPDEST PUSH32 0x496E76616C6964207374617475732F646561646C696E65000000000000000000 PUSH1 0x0 DUP3 ADD MSTORE POP JUMP JUMPDEST PUSH1 0x0 PUSH2 0x2AB7 PUSH1 0x17 DUP4 PUSH2 0x1B5B JUMP JUMPDEST SWAP2 POP PUSH2 0x2AC2 DUP3 PUSH2 0x2A81 JUMP JUMPDEST PUSH1 0x20 DUP3 ADD SWAP1 POP SWAP2 SWAP1 POP JUMP JUMPDEST PUSH1 0x0 PUSH1 0x20 DUP3 ADD SWAP1 POP DUP2 DUP2 SUB PUSH1 0x0 DUP4 ADD MSTORE PUSH2 0x2AE6 DUP2 PUSH2 0x2AAA JUMP JUMPDEST SWAP1 POP SWAP2 SWAP1 POP JUMP JUMPDEST PUSH1 0x0 PUSH1 0x40 DUP3 ADD SWAP1 POP PUSH2 0x2B02 PUSH1 0x0 DUP4 ADD DUP6 PUSH2 0x1B41 JUMP JUMPDEST PUSH2 0x2B0F PUSH1 0x20 DUP4 ADD DUP5 PUSH2 0x1E75 JUMP JUMPDEST SWAP4 SWAP3 POP POP POP JUMP JUMPDEST PUSH1 0x0 DUP1 PUSH1 0x40 DUP4 DUP6 SUB SLT ISZERO PUSH2 0x2B2D JUMPI PUSH2 0x2B2C PUSH2 0x1AAC JUMP JUMPDEST JUMPDEST PUSH1 0x0 PUSH2 0x2B3B DUP6 DUP3 DUP7 ADD PUSH2 0x229A JUMP JUMPDEST SWAP3 POP POP PUSH1 0x20 PUSH2 0x2B4C DUP6 DUP3 DUP7 ADD PUSH2 0x229A JUMP JUMPDEST SWAP2 POP POP SWAP3 POP SWAP3 SWAP1 POP JUMP JUMPDEST PUSH32 0x4F776E61626C653A206E6577206F776E657220697320746865207A65726F2061 PUSH1 0x0 DUP3 ADD MSTORE PUSH32 0x6464726573730000000000000000000000000000000000000000000000000000 PUSH1 0x20 DUP3 ADD MSTORE POP JUMP JUMPDEST PUSH1 0x0 PUSH2 0x2BB2 PUSH1 0x26 DUP4 PUSH2 0x1B5B JUMP JUMPDEST SWAP2 POP PUSH2 0x2BBD DUP3 PUSH2 0x2B56 JUMP JUMPDEST PUSH1 0x40 DUP3 ADD SWAP1 POP SWAP2 SWAP1 POP JUMP JUMPDEST PUSH1 0x0 PUSH1 0x20 DUP3 ADD SWAP1 POP DUP2 DUP2 SUB PUSH1 0x0 DUP4 ADD MSTORE PUSH2 0x2BE1 DUP2 PUSH2 0x2BA5 JUMP JUMPDEST SWAP1 POP SWAP2 SWAP1 POP JUMP JUMPDEST PUSH32 0x4F776E61626C653A2063616C6C6572206973206E6F7420746865206F776E6572 PUSH1 0x0 DUP3 ADD MSTORE POP JUMP JUMPDEST PUSH1 0x0 PUSH2 0x2C1E PUSH1 0x20 DUP4 PUSH2 0x1B5B JUMP JUMPDEST SWAP2 POP PUSH2 0x2C29 DUP3 PUSH2 0x2BE8 JUMP JUMPDEST PUSH1 0x20 DUP3 ADD SWAP1 POP SWAP2 SWAP1 POP JUMP JUMPDEST PUSH1 0x0 PUSH1 0x20 DUP3 ADD SWAP1 POP DUP2 DUP2 SUB PUSH1 0x0 DUP4 ADD MSTORE PUSH2 0x2C4D DUP2 PUSH2 0x2C11 JUMP JUMPDEST SWAP1 POP SWAP2 SWAP1 POP JUMP INVALID LOG2 PUSH5 0x6970667358 0x22 SLT KECCAK256 JUMPDEST DUP2 0xA5 JUMPDEST CALLCODE 0xD4 0xB1 EXTCODECOPY PUSH7 0xEF32C14291DD1D 0xD7 RETURN 0x1E 0x5E PUSH29 0xFF837BEC09B6759ECBD9D964736F6C6343000813003300000000000000 "},"methodIdentifiers":{"claim(address)":"1e83409a","completeService(uint256,uint256)":"c89bdd8d","confirmService(uint256,uint256)":"ce69cf59","createService(string,uint256,uint256)":"186166fe","getAverageRating(address,bool)":"e745f8ba","getListing(uint256)":"107a274a","getService(uint256)":"ef0e239b","getUser(address)":"6f77926b","listingCount()":"a9b07c26","listings(uint256)":"de74e57b","owner()":"8da5cb5b","registerUser(string)":"704f1b94","renounceOwnership()":"715018a6","serviceCount()":"06237526","services(uint256)":"c22c4f43","startService(uint256,uint256)":"55778b31","transferOwnership(address)":"f2fde38b"}}}}}